{"contracts/evm/src/FunctionsConsumer.sol":{"FunctionsConsumer":{"abi":[{"inputs":[{"internalType":"address","name":"router","type":"address"},{"internalType":"bytes32","name":"_donId","type":"bytes32"},{"internalType":"uint64","name":"_subscriptionId","type":"uint64"}],"stateMutability":"nonpayable","type":"constructor"},{"inputs":[],"name":"EmptyArgs","type":"error"},{"inputs":[],"name":"EmptySource","type":"error"},{"inputs":[],"name":"NoInlineSecrets","type":"error"},{"inputs":[],"name":"OnlyRouterCanFulfill","type":"error"},{"anonymous":false,"inputs":[{"indexed":true,"internalType":"bytes32","name":"requestId","type":"bytes32"},{"indexed":false,"internalType":"string","name":"specJson","type":"string"},{"indexed":false,"internalType":"bytes","name":"err","type":"bytes"}],"name":"IntentParsed","type":"event"},{"anonymous":false,"inputs":[{"indexed":true,"internalType":"address","name":"from","type":"address"},{"indexed":true,"internalType":"address","name":"to","type":"address"}],"name":"OwnershipTransferRequested","type":"event"},{"anonymous":false,"inputs":[{"indexed":true,"internalType":"address","name":"from","type":"address"},{"indexed":true,"internalType":"address","name":"to","type":"address"}],"name":"OwnershipTransferred","type":"event"},{"anonymous":false,"inputs":[{"indexed":true,"internalType":"bytes32","name":"id","type":"bytes32"}],"name":"RequestFulfilled","type":"event"},{"anonymous":false,"inputs":[{"indexed":true,"internalType":"bytes32","name":"id","type":"bytes32"}],"name":"RequestSent","type":"event"},{"anonymous":false,"inputs":[{"indexed":true,"internalType":"bytes32","name":"requestId","type":"bytes32"},{"indexed":true,"internalType":"address","name":"requester","type":"address"}],"name":"RequestSent","type":"event"},{"inputs":[],"name":"acceptOwnership","outputs":[],"stateMutability":"nonpayable","type":"function"},{"inputs":[],"name":"donId","outputs":[{"internalType":"bytes32","name":"","type":"bytes32"}],"stateMutability":"view","type":"function"},{"inputs":[{"internalType":"bytes32","name":"","type":"bytes32"}],"name":"errors","outputs":[{"internalType":"bytes","name":"","type":"bytes"}],"stateMutability":"view","type":"function"},{"inputs":[],"name":"gasLimit","outputs":[{"internalType":"uint32","name":"","type":"uint32"}],"stateMutability":"view","type":"function"},{"inputs":[{"internalType":"bytes32","name":"requestId","type":"bytes32"}],"name":"getError","outputs":[{"internalType":"bytes","name":"","type":"bytes"}],"stateMutability":"view","type":"function"},{"inputs":[{"internalType":"bytes32","name":"requestId","type":"bytes32"}],"name":"getSpec","outputs":[{"internalType":"string","name":"","type":"string"}],"stateMutability":"view","type":"function"},{"inputs":[{"internalType":"bytes32","name":"requestId","type":"bytes32"},{"internalType":"bytes","name":"response","type":"bytes"},{"internalType":"bytes","name":"err","type":"bytes"}],"name":"handleOracleFulfillment","outputs":[],"stateMutability":"nonpayable","type":"function"},{"inputs":[],"name":"latestRequestId","outputs":[{"internalType":"bytes32","name":"","type":"bytes32"}],"stateMutability":"view","type":"function"},{"inputs":[],"name":"latestSpec","outputs":[{"internalType":"string","name":"","type":"string"}],"stateMutability":"view","type":"function"},{"inputs":[],"name":"owner","outputs":[{"internalType":"address","name":"","type":"address"}],"stateMutability":"view","type":"function"},{"inputs":[{"internalType":"bytes32","name":"","type":"bytes32"}],"name":"parsedSpecs","outputs":[{"internalType":"string","name":"","type":"string"}],"stateMutability":"view","type":"function"},{"inputs":[{"internalType":"bytes32","name":"","type":"bytes32"}],"name":"requesters","outputs":[{"internalType":"address","name":"","type":"address"}],"stateMutability":"view","type":"function"},{"inputs":[{"internalType":"string","name":"source","type":"string"},{"internalType":"string[]","name":"args","type":"string[]"},{"internalType":"bytes","name":"encryptedSecretsRef","type":"bytes"}],"name":"sendParseRequest","outputs":[{"internalType":"bytes32","name":"requestId","type":"bytes32"}],"stateMutability":"nonpayable","type":"function"},{"inputs":[],"name":"subscriptionId","outputs":[{"internalType":"uint64","name":"","type":"uint64"}],"stateMutability":"view","type":"function"},{"inputs":[{"internalType":"address","name":"to","type":"address"}],"name":"transferOwnership","outputs":[],"stateMutability":"nonpayable","type":"function"},{"inputs":[{"internalType":"bytes32","name":"_donId","type":"bytes32"}],"name":"updateDonId","outputs":[],"stateMutability":"nonpayable","type":"function"},{"inputs":[{"internalType":"uint32","name":"_gasLimit","type":"uint32"}],"name":"updateGasLimit","outputs":[],"stateMutability":"nonpayable","type":"function"},{"inputs":[{"internalType":"uint64","name":"_subscriptionId","type":"uint64"}],"name":"updateSubscription","outputs":[],"stateMutability":"nonpayable","type":"function"}],"devdoc":{"kind":"dev","methods":{"handleOracleFulfillment(bytes32,bytes,bytes)":{"details":"Either response or error parameter will be set, but never both.","params":{"err":"Aggregated error either from the request's source code or from the execution pipeline.","requestId":"The requestId returned by FunctionsClient.sendRequest().","response":"Aggregated response from the request's source code."}}},"version":1},"evm":{"bytecode":{"linkReferences":{},"object":"60a03461010b576001600160401b03601f6120da38819003918201601f19168401918383118584101761010f5780859260609460405283398101031261010b5781516001600160a01b0381169081900361010b576040602084015193015191821680920361010b5760805233156100c6575f80546001600160a01b03191633179055600380546002939093556001600160601b0319909216176a0493e00000000000000000179055604051611fb6908161012482396080518181816102b801526113920152f35b60405162461bcd60e51b815260206004820152601860248201527f43616e6e6f7420736574206f776e657220746f207a65726f00000000000000006044820152606490fd5b5f80fd5b634e487b7160e01b5f52604160045260245ffdfe60806040526004361015610011575f80fd5b5f3560e01c806306c3e1321461012a57806309c1ba2e146101255780630ca76175146101205780631aa46f591461011b5780631f87a3b51461010c57806334303bcd1461011657806360341518146101115780636a634a981461010c5780636df0c7471461010757806379ba50971461010257806382bcf9e0146100fd5780638da5cb5b146100f85780638dbe7b9d146100f3578063945a6698146100e95780639eb04ecc146100ee578063be41cee3146100e9578063f2fde38b146100e45763f68016b7146100df575f80fd5b6108e5565b610828565b6107c2565b6107f6565b6107a5565b61077e565b6106de565b6105f9565b6105d8565b610394565b6104fc565b6103e7565b610328565b610269565b610170565b3461016c57602036600319011261016c576004356001600160401b03811680910361016c57610157610aa7565b6001600160401b031960035416176003555f80f35b5f80fd5b3461016c575f36600319011261016c5760206001600160401b0360035416604051908152f35b634e487b7160e01b5f52604160045260245ffd5b60e081019081106001600160401b038211176101c557604052565b610196565b604081019081106001600160401b038211176101c557604052565b90601f801991011681019081106001600160401b038211176101c557604052565b9291926001600160401b0382116101c5576040519161022f601f8201601f1916602001846101e5565b82948184528183011161016c578281602093845f960137010152565b9080601f8301121561016c5781602061026693359101610206565b90565b3461016c57606036600319011261016c576004356001600160401b0360243581811161016c5761029d90369060040161024b565b9060443590811161016c576102b690369060040161024b565b7f00000000000000000000000000000000000000000000000000000000000000006001600160a01b03163303610316576102f09183610da3565b7f85e1543bf2f84fe80c6badbce3648c8539ad1df4d2b3d822938ca0538be727e65f80a2005b60405163c6829f8360e01b8152600490fd5b3461016c575f36600319011261016c576020600754604051908152f35b91908251928382525f5b84811061036f575050825f602080949584010152601f8019910116010190565b60208183018101518483018201520161034f565b906020610266928181520190610345565b3461016c57602036600319011261016c576004355f5260056020526103e36103c86103cf60405f206040519283809261046b565b03826101e5565b604051918291602083526020830190610345565b0390f35b3461016c57602036600319011261016c5760043563ffffffff8116810361016c57610410610aa7565b63ffffffff60401b6003549160401b169063ffffffff60401b1916176003555f80f35b90600182811c92168015610461575b602083101461044d57565b634e487b7160e01b5f52602260045260245ffd5b91607f1691610442565b80545f939261047982610433565b918282526020936001916001811690815f146104dd575060011461049f575b5050505050565b90939495505f92919252835f2092845f945b8386106104c957505050500101905f80808080610498565b8054858701830152940193859082016104b1565b60ff19168685015250505090151560051b010191505f80808080610498565b3461016c575f36600319011261016c576040515f60085461051c81610433565b808452906020906001908181169081156105ae5750600114610555575b6103e385610549818703826101e5565b60405191829182610383565b60085f90815293507ff3f7a9fe364faab93b216da50a3214154f22a0a2b415b23a84c8169e8b636ee35b83851061059b57505050508101602001610549826103e3610539565b805486860184015293820193810161057f565b8695506103e39693506020925061054994915060ff191682840152151560051b8201019293610539565b3461016c57602036600319011261016c576105f1610aa7565b600435600255005b3461016c575f36600319011261016c576001546001600160a01b039081163303610673575f546001600160a01b03165f80546001600160a01b0319163317905590600180546001600160a01b03191690553391167f8be0079c531659141344cd1fd0a4f28419497f9722a3daafe3b4186f6b6457e05f80a3005b60405162461bcd60e51b815260206004820152601660248201527526bab9ba10313290383937b837b9b2b21037bbb732b960511b6044820152606490fd5b9181601f8401121561016c578235916001600160401b03831161016c576020838186019501011161016c57565b3461016c57606036600319011261016c576001600160401b0360043581811161016c5761070f9036906004016106b1565b91906024359082821161016c573660238301121561016c5781600401359083821161016c573660248360051b8501011161016c5760443593841161016c576103e394602461076461076e9636906004016106b1565b959050019161098d565b6040519081529081906020820190565b3461016c575f36600319011261016c575f546040516001600160a01b039091168152602090f35b3461016c575f36600319011261016c576020600254604051908152f35b3461016c57602036600319011261016c576004355f5260066020526103e36103c86103cf60405f206040519283809261046b565b3461016c57602036600319011261016c576004355f526004602052602060018060a01b0360405f205416604051908152f35b3461016c57602036600319011261016c576004356001600160a01b0381169081900361016c57610856610aa7565b3381146108a057600180546001600160a01b031916821790555f546001600160a01b03167fed8889f560326eb138920d842192f0eb3dd22b4f139c87a2c57538e05bae12785f80a3005b60405162461bcd60e51b815260206004820152601760248201527f43616e6e6f74207472616e7366657220746f2073656c660000000000000000006044820152606490fd5b3461016c575f36600319011261016c57602060035463ffffffff6040519160401c168152f35b929190926001600160401b03918285116101c5578460051b6020936020604051610937828501826101e5565b80988152019184019383851161016c5780925b85841061095a5750505050505050565b833583811161016c57820185601f8201121561016c5787916109828783858095359101610206565b81520193019261094a565b92610a16946109e36109dd6109f596959495604051966109ac886101aa565b5f88525f60208901525f604089015260608089015260606080890152606060a0890152606060c08901523691610206565b85610f66565b610a99575b80610a7d575b5050611155565b600354600254916001600160401b0363ffffffff8360401c1692169061133b565b90610a4c33610a2d845f52600460205260405f2090565b80546001600160a01b0319166001600160a01b03909216919091179055565b610a5582600755565b33827f91f0d67c2f27abd6cfc317e120d5e80b31e97b9926b65d3887e59402fb20adfb5f80a3565b610a9291610a8c91369161090b565b8261100d565b5f806109ee565b610aa283610f8e565b6109e8565b5f546001600160a01b03163303610aba57565b60405162461bcd60e51b815260206004820152601660248201527527b7363c9031b0b63630b1363290313c9037bbb732b960511b6044820152606490fd5b601f8111610b04575050565b60085f527ff3f7a9fe364faab93b216da50a3214154f22a0a2b415b23a84c8169e8b636ee3906020601f840160051c83019310610b5b575b601f0160051c01905b818110610b50575050565b5f8155600101610b45565b9091508190610b3c565b601f8211610b7257505050565b5f5260205f20906020601f840160051c83019310610baa575b601f0160051c01905b818110610b9f575050565b5f8155600101610b94565b9091508190610b8b565b90606061026692604081525f60408201528160208201520190610345565b9081516001600160401b0381116101c557610bf781610bf2600854610433565b610af8565b602080601f8311600114610c3857508190610c2893945f92610c2d575b50508160011b915f199060031b1c19161790565b600855565b015190505f80610c14565b90601f19831694610c6a60085f527ff3f7a9fe364faab93b216da50a3214154f22a0a2b415b23a84c8169e8b636ee390565b925f905b878210610ca5575050836001959610610c8d575b505050811b01600855565b01515f1960f88460031b161c191690555f8080610c82565b80600185968294968601518155019501930190610c6e565b91909182516001600160401b0381116101c557610ce481610cde8454610433565b84610b65565b602080601f8311600114610d1957508190610d159394955f92610c2d5750508160011b915f199060031b1c19161790565b9055565b90601f19831695610d2d855f5260205f2090565b925f905b888210610d6857505083600195969710610d50575b505050811b019055565b01515f1960f88460031b161c191690555f8080610d46565b80600185968294968601518155019501930190610d31565b610d94602092604083526040830190610345565b90828183039101525f81520190565b918051610e055750610e0081610deb7f9304b2897060cab5f22ce3990c7c2123a47c1c09fa4d82835da567f4f16ccf1e93610de6865f52600560205260405f2090565b610cbd565b610df481610bd2565b60405191829182610d80565b0390a2565b9050815f526020600660205260405f20908251906001600160401b0382116101c557610e3b82610e358554610433565b85610b65565b602090601f8311600114610eaa575091610e90827f9304b2897060cab5f22ce3990c7c2123a47c1c09fa4d82835da567f4f16ccf1e9593610e00955f91610e9f575b508160011b915f199060031b1c19161790565b90555b60405191829182610bb4565b90508401515f610e7d565b90601f198316610ebd855f5260205f2090565b925f905b828210610f2157505092610e009492600192827f9304b2897060cab5f22ce3990c7c2123a47c1c09fa4d82835da567f4f16ccf1e989610610f09575b5050811b019055610e93565b8501515f1960f88460031b161c191690555f80610efd565b80600185968294968b01518155019501930190610ec1565b634e487b7160e01b5f52602160045260245ffd5b60031115610f5757565b610f39565b60011115610f5757565b815115610f7c575f808252604082015260600152565b6040516322ce3edd60e01b8152600490fd5b6080610f98611440565b610fc0604051610fa7816101ca565b60068152651cdb1bdd125160d21b60208201528261148d565b610fca8151611c2a565b50610ff4604051610fda816101ca565b60078152663b32b939b4b7b760c91b60208201528261148d565b610ffe8151611c2a565b50600260208401525151910152565b81511561101a5760a00152565b60405163fe936cb760e01b8152600490fd5b60405190611039826101ca565b600c82526b31b7b232a637b1b0ba34b7b760a11b6020830152565b60405190611061826101ca565b60088252676c616e677561676560c01b6020830152565b60405190611085826101ca565b6006825265736f7572636560d01b6020830152565b604051906110a7826101ca565b60048252636172677360e01b6020830152565b80518210156110ce5760209160051b010190565b634e487b7160e01b5f52603260045260245ffd5b604051906110ef826101ca565b600f82526e39b2b1b932ba39a637b1b0ba34b7b760891b6020830152565b6040519061111a826101ca565b60078252667365637265747360c81b6020830152565b6040519061113d826101ca565b600982526862797465734172677360b81b6020830152565b61115d611440565b9061116f61116961102c565b8361148d565b61118c815161117d81610f4d565b61118681610f4d565b8361154f565b611197611169611054565b6111b160408201516111a881610f5c565b61118681610f5c565b6111bc611169611078565b6111ca60608201518361148d565b60a081018051516112c9575b506080810190815151611249575b60c09150018051516111f7575b50515190565b91611203611169611130565b61120c82611621565b5f5b835180518210156112365790611230611229826001946110ba565b5185611748565b0161120e565b50509150611243816116bc565b5f6111f1565b60208101805161125881610f4d565b61126181610f4d565b156112b75760c09261129a6112b29261128161127b6110e2565b8861148d565b5161128b81610f4d565b61129481610f4d565b8661154f565b6112ab6112a561110d565b8661148d565b5184611748565b6111e4565b60405163a80d31f760e01b8152600490fd5b926112db6112d561109a565b8461148d565b6112e483611621565b5f5b8451805182101561130e5790611308611301826001946110ba565b518661148d565b016112e6565b5050925061131b826116bc565b5f6111d6565b9081602091031261016c575190565b6040513d5f823e3d90fd5b92906020926001600160401b039263ffffffff61137a604051978896879663230e93b160e11b885216600487015260a0602487015260a4860190610345565b6001604486015292166064840152608483015203815f7f00000000000000000000000000000000000000000000000000000000000000006001600160a01b03165af1908115611422575f916113f3575b50807f1131472297a800fee664d1d89cfa8f7676ff07189ecc53f80bbb5f4969099db85f80a290565b611415915060203d60201161141b575b61140d81836101e5565b810190611321565b5f6113ca565b503d611403565b611330565b60405190611434826101ca565b5f602083606081520152565b60405161144c816101ca565b611454611427565b808252602082015f8152611466611427565b5061010060208301526040518092525f8252610120820191821061016c575f916040525290565b81516114d19291906001600160401b03811690601782116114d4576114bc9150606060ff845192161790611c8e565b505b51906114c8611427565b50805191611ebe565b50565b5060ff81116114f9576114f3906114eb8351611a31565b508251611e4a565b506114be565b61ffff8111611518576114f39061151083516119cc565b508251611ddc565b63ffffffff8111611539576114f3906115318351611967565b508251611d6c565b6114f39061154783516118f7565b508251611cf9565b9081519161155b611427565b5082515160018101908181116115f25760208501518110156115b6575b60c260206115ac96519283010153805182116115ae575b5050604051916020830152602082526115a7826101ca565b611748565b565b525f8061158f565b8160011b94828604600214831517156115f2576020816115e86115ac986115e160c2955191846117cc565b508261181d565b5096505050611578565b634e487b7160e01b5f52601160045260245ffd5b90602082018092116115f257565b919082018092116115f257565b80519061162c611427565b5081515160018101908181116115f257602084015181101561167a575b609f6020809551928301015380518211611672575b505001805190600182018092116115f25752565b525f8061165e565b8160011b93828504600214831517156115f2576020816116a382976115e1609f955191846117cc565b5095505050611649565b601f198101919082116115f257565b8051906116c7611427565b5081515160018101908181116115f2576020840151811015611715575b60ff602080955192830101538051821161170d575b50500180515f198101919082116115f25752565b525f806116f9565b8160011b93828504600214831517156115f25760208161173e82976115e160ff955191846117cc565b50955050506116e4565b81516114d19291906001600160401b0381169060178211611777576114bc9150604060ff845192161790611c8e565b5060ff811161178e576114f3906114eb8351611bc5565b61ffff81116117a5576114f3906115108351611b60565b63ffffffff81116117be576114f3906115318351611afb565b6114f3906115478351611a96565b906117d5611427565b50601f811680611803575b50806020830152604051908183525f8252810160200190811061016c5760405290565b602003602081116115f25781018091116115f2575f6117e0565b90611826611427565b50805190611832611427565b506118408151831115611eb7565b8251519161184e8184611614565b602092602086015182116118ca575b6020918651838151978201019682116118c2575b505001915b8082101561189a57505f19906020036101000a019081199051169082511617905290565b9091926118b66118b06118bc9286518152611606565b94611606565b926116ad565b90611876565b525f80611871565b6118dc6118d6836118e1565b87611f69565b61185d565b908160011b91808304600214901517156115f257565b6118ff611427565b5080515160018101908181116115f2576020830151811015611938575b607b6020845192830101538051821161193457505090565b5290565b8160011b828104600214831517156115f2576119619061195a855191866117cc565b508461181d565b5061191c565b61196f611427565b5080515160018101908181116115f25760208301518110156119a4575b607a6020845192830101538051821161193457505090565b8160011b828104600214831517156115f2576119c69061195a855191866117cc565b5061198c565b6119d4611427565b5080515160018101908181116115f2576020830151811015611a09575b60796020845192830101538051821161193457505090565b8160011b828104600214831517156115f257611a2b9061195a855191866117cc565b506119f1565b611a39611427565b5080515160018101908181116115f2576020830151811015611a6e575b60786020845192830101538051821161193457505090565b8160011b828104600214831517156115f257611a909061195a855191866117cc565b50611a56565b611a9e611427565b5080515160018101908181116115f2576020830151811015611ad3575b605b6020845192830101538051821161193457505090565b8160011b828104600214831517156115f257611af59061195a855191866117cc565b50611abb565b611b03611427565b5080515160018101908181116115f2576020830151811015611b38575b605a6020845192830101538051821161193457505090565b8160011b828104600214831517156115f257611b5a9061195a855191866117cc565b50611b20565b611b68611427565b5080515160018101908181116115f2576020830151811015611b9d575b60596020845192830101538051821161193457505090565b8160011b828104600214831517156115f257611bbf9061195a855191866117cc565b50611b85565b611bcd611427565b5080515160018101908181116115f2576020830151811015611c02575b60586020845192830101538051821161193457505090565b8160011b828104600214831517156115f257611c249061195a855191866117cc565b50611bea565b611c32611427565b5080515160018101908181116115f2576020830151811015611c66575b5f6020845192830101538051821161193457505090565b8160011b828104600214831517156115f257611c889061195a855191866117cc565b50611c4f565b90611c97611427565b5081515160018101918282116115f2576020840151821015611cca575b6020845192830101538051821161193457505090565b8260011b838104600214841517156115f257611cf390611cec865191876117cc565b508561181d565b50611cb4565b90611d02611427565b508151518060080191826008116115f25760208401518311611d44575b6008845192830101906001600160401b03198251161790528051821161193457505090565b8260011b838104600214841517156115f257611d6690611cec865191876117cc565b50611d1f565b90611d75611427565b508151518060040191826004116115f25760208401518311611db4575b60048451928301019063ffffffff198251161790528051821161193457505090565b8260011b838104600214841517156115f257611dd690611cec865191876117cc565b50611d92565b90611de5611427565b508151518060020191826002116115f25760208401518311611e22575b60028451928301019061ffff198251161790528051821161193457505090565b8260011b838104600214841517156115f257611e4490611cec865191876117cc565b50611e02565b90611e53611427565b508151518060010191826001116115f25760208401518311611e8f575b60018451928301019060ff198251161790528051821161193457505090565b8260011b838104600214841517156115f257611eb190611cec865191876117cc565b50611e70565b1561016c57565b9190611ec8611427565b50611ed68151831115611eb7565b825151916020611ee68285611614565b928193828701518111611f52575b865183815197820101968211611f4a575b505001915b80821015611f2e57505f19906020036101000a019081199051169082511617905290565b9091926118b66118b0611f449286518152611606565b90611f0a565b525f80611f05565b611f64611f5e826118e1565b88611f69565b611ef4565b906114d191611f7a815192826117cc565b5061181d56fea2646970667358221220e292cfb34c93bc40075bf52d279d3cfcdb04e8f6213d56247ac184b5c9f394c464736f6c63430008180033","opcodes":"PUSH1 0xA0 CALLVALUE PUSH2 0x10B JUMPI PUSH1 0x1 PUSH1 0x1 PUSH1 0x40 SHL SUB PUSH1 0x1F PUSH2 0x20DA CODESIZE DUP2 SWAP1 SUB SWAP2 DUP3 ADD PUSH1 0x1F NOT AND DUP5 ADD SWAP2 DUP4 DUP4 GT DUP6 DUP5 LT OR PUSH2 0x10F JUMPI DUP1 DUP6 SWAP3 PUSH1 0x60 SWAP5 PUSH1 0x40 MSTORE DUP4 CODECOPY DUP2 ADD SUB SLT PUSH2 0x10B JUMPI DUP2 MLOAD PUSH1 0x1 PUSH1 0x1 PUSH1 0xA0 SHL SUB DUP2 AND SWAP1 DUP2 SWAP1 SUB PUSH2 0x10B JUMPI PUSH1 0x40 PUSH1 0x20 DUP5 ADD MLOAD SWAP4 ADD MLOAD SWAP2 DUP3 AND DUP1 SWAP3 SUB PUSH2 0x10B JUMPI PUSH1 0x80 MSTORE CALLER ISZERO PUSH2 0xC6 JUMPI PUSH0 DUP1 SLOAD PUSH1 0x1 PUSH1 0x1 PUSH1 0xA0 SHL SUB NOT AND CALLER OR SWAP1 SSTORE PUSH1 0x3 DUP1 SLOAD PUSH1 0x2 SWAP4 SWAP1 SWAP4 SSTORE PUSH1 0x1 PUSH1 0x1 PUSH1 0x60 SHL SUB NOT SWAP1 SWAP3 AND OR PUSH11 0x493E00000000000000000 OR SWAP1 SSTORE PUSH1 0x40 MLOAD PUSH2 0x1FB6 SWAP1 DUP2 PUSH2 0x124 DUP3 CODECOPY PUSH1 0x80 MLOAD DUP2 DUP2 DUP2 PUSH2 0x2B8 ADD MSTORE PUSH2 0x1392 ADD MSTORE RETURN JUMPDEST PUSH1 0x40 MLOAD PUSH3 0x461BCD PUSH1 0xE5 SHL DUP2 MSTORE PUSH1 0x20 PUSH1 0x4 DUP3 ADD MSTORE PUSH1 0x18 PUSH1 0x24 DUP3 ADD MSTORE PUSH32 0x43616E6E6F7420736574206F776E657220746F207A65726F0000000000000000 PUSH1 0x44 DUP3 ADD MSTORE PUSH1 0x64 SWAP1 REVERT JUMPDEST PUSH0 DUP1 REVERT JUMPDEST PUSH4 0x4E487B71 PUSH1 0xE0 SHL PUSH0 MSTORE PUSH1 0x41 PUSH1 0x4 MSTORE PUSH1 0x24 PUSH0 REVERT INVALID PUSH1 0x80 PUSH1 0x40 MSTORE PUSH1 0x4 CALLDATASIZE LT ISZERO PUSH2 0x11 JUMPI PUSH0 DUP1 REVERT JUMPDEST PUSH0 CALLDATALOAD PUSH1 0xE0 SHR DUP1 PUSH4 0x6C3E132 EQ PUSH2 0x12A JUMPI DUP1 PUSH4 0x9C1BA2E EQ PUSH2 0x125 JUMPI DUP1 PUSH4 0xCA76175 EQ PUSH2 0x120 JUMPI DUP1 PUSH4 0x1AA46F59 EQ PUSH2 0x11B JUMPI DUP1 PUSH4 0x1F87A3B5 EQ PUSH2 0x10C JUMPI DUP1 PUSH4 0x34303BCD EQ PUSH2 0x116 JUMPI DUP1 PUSH4 0x60341518 EQ PUSH2 0x111 JUMPI DUP1 PUSH4 0x6A634A98 EQ PUSH2 0x10C JUMPI DUP1 PUSH4 0x6DF0C747 EQ PUSH2 0x107 JUMPI DUP1 PUSH4 0x79BA5097 EQ PUSH2 0x102 JUMPI DUP1 PUSH4 0x82BCF9E0 EQ PUSH2 0xFD JUMPI DUP1 PUSH4 0x8DA5CB5B EQ PUSH2 0xF8 JUMPI DUP1 PUSH4 0x8DBE7B9D EQ PUSH2 0xF3 JUMPI DUP1 PUSH4 0x945A6698 EQ PUSH2 0xE9 JUMPI DUP1 PUSH4 0x9EB04ECC EQ PUSH2 0xEE JUMPI DUP1 PUSH4 0xBE41CEE3 EQ PUSH2 0xE9 JUMPI DUP1 PUSH4 0xF2FDE38B EQ PUSH2 0xE4 JUMPI PUSH4 0xF68016B7 EQ PUSH2 0xDF JUMPI PUSH0 DUP1 REVERT JUMPDEST PUSH2 0x8E5 JUMP JUMPDEST PUSH2 0x828 JUMP JUMPDEST PUSH2 0x7C2 JUMP JUMPDEST PUSH2 0x7F6 JUMP JUMPDEST PUSH2 0x7A5 JUMP JUMPDEST PUSH2 0x77E JUMP JUMPDEST PUSH2 0x6DE JUMP JUMPDEST PUSH2 0x5F9 JUMP JUMPDEST PUSH2 0x5D8 JUMP JUMPDEST PUSH2 0x394 JUMP JUMPDEST PUSH2 0x4FC JUMP JUMPDEST PUSH2 0x3E7 JUMP JUMPDEST PUSH2 0x328 JUMP JUMPDEST PUSH2 0x269 JUMP JUMPDEST PUSH2 0x170 JUMP JUMPDEST CALLVALUE PUSH2 0x16C JUMPI PUSH1 0x20 CALLDATASIZE PUSH1 0x3 NOT ADD SLT PUSH2 0x16C JUMPI PUSH1 0x4 CALLDATALOAD PUSH1 0x1 PUSH1 0x1 PUSH1 0x40 SHL SUB DUP2 AND DUP1 SWAP2 SUB PUSH2 0x16C JUMPI PUSH2 0x157 PUSH2 0xAA7 JUMP JUMPDEST PUSH1 0x1 PUSH1 0x1 PUSH1 0x40 SHL SUB NOT PUSH1 0x3 SLOAD AND OR PUSH1 0x3 SSTORE PUSH0 DUP1 RETURN JUMPDEST PUSH0 DUP1 REVERT JUMPDEST CALLVALUE PUSH2 0x16C JUMPI PUSH0 CALLDATASIZE PUSH1 0x3 NOT ADD SLT PUSH2 0x16C JUMPI PUSH1 0x20 PUSH1 0x1 PUSH1 0x1 PUSH1 0x40 SHL SUB PUSH1 0x3 SLOAD AND PUSH1 0x40 MLOAD SWAP1 DUP2 MSTORE RETURN JUMPDEST PUSH4 0x4E487B71 PUSH1 0xE0 SHL PUSH0 MSTORE PUSH1 0x41 PUSH1 0x4 MSTORE PUSH1 0x24 PUSH0 REVERT JUMPDEST PUSH1 0xE0 DUP2 ADD SWAP1 DUP2 LT PUSH1 0x1 PUSH1 0x1 PUSH1 0x40 SHL SUB DUP3 GT OR PUSH2 0x1C5 JUMPI PUSH1 0x40 MSTORE JUMP JUMPDEST PUSH2 0x196 JUMP JUMPDEST PUSH1 0x40 DUP2 ADD SWAP1 DUP2 LT PUSH1 0x1 PUSH1 0x1 PUSH1 0x40 SHL SUB DUP3 GT OR PUSH2 0x1C5 JUMPI PUSH1 0x40 MSTORE JUMP JUMPDEST SWAP1 PUSH1 0x1F DUP1 NOT SWAP2 ADD AND DUP2 ADD SWAP1 DUP2 LT PUSH1 0x1 PUSH1 0x1 PUSH1 0x40 SHL SUB DUP3 GT OR PUSH2 0x1C5 JUMPI PUSH1 0x40 MSTORE JUMP JUMPDEST SWAP3 SWAP2 SWAP3 PUSH1 0x1 PUSH1 0x1 PUSH1 0x40 SHL SUB DUP3 GT PUSH2 0x1C5 JUMPI PUSH1 0x40 MLOAD SWAP2 PUSH2 0x22F PUSH1 0x1F DUP3 ADD PUSH1 0x1F NOT AND PUSH1 0x20 ADD DUP5 PUSH2 0x1E5 JUMP JUMPDEST DUP3 SWAP5 DUP2 DUP5 MSTORE DUP2 DUP4 ADD GT PUSH2 0x16C JUMPI DUP3 DUP2 PUSH1 0x20 SWAP4 DUP5 PUSH0 SWAP7 ADD CALLDATACOPY ADD ADD MSTORE JUMP JUMPDEST SWAP1 DUP1 PUSH1 0x1F DUP4 ADD SLT ISZERO PUSH2 0x16C JUMPI DUP2 PUSH1 0x20 PUSH2 0x266 SWAP4 CALLDATALOAD SWAP2 ADD PUSH2 0x206 JUMP JUMPDEST SWAP1 JUMP JUMPDEST CALLVALUE PUSH2 0x16C JUMPI PUSH1 0x60 CALLDATASIZE PUSH1 0x3 NOT ADD SLT PUSH2 0x16C JUMPI PUSH1 0x4 CALLDATALOAD PUSH1 0x1 PUSH1 0x1 PUSH1 0x40 SHL SUB PUSH1 0x24 CALLDATALOAD DUP2 DUP2 GT PUSH2 0x16C JUMPI PUSH2 0x29D SWAP1 CALLDATASIZE SWAP1 PUSH1 0x4 ADD PUSH2 0x24B JUMP JUMPDEST SWAP1 PUSH1 0x44 CALLDATALOAD SWAP1 DUP2 GT PUSH2 0x16C JUMPI PUSH2 0x2B6 SWAP1 CALLDATASIZE SWAP1 PUSH1 0x4 ADD PUSH2 0x24B JUMP JUMPDEST PUSH32 0x0 PUSH1 0x1 PUSH1 0x1 PUSH1 0xA0 SHL SUB AND CALLER SUB PUSH2 0x316 JUMPI PUSH2 0x2F0 SWAP2 DUP4 PUSH2 0xDA3 JUMP JUMPDEST PUSH32 0x85E1543BF2F84FE80C6BADBCE3648C8539AD1DF4D2B3D822938CA0538BE727E6 PUSH0 DUP1 LOG2 STOP JUMPDEST PUSH1 0x40 MLOAD PUSH4 0xC6829F83 PUSH1 0xE0 SHL DUP2 MSTORE PUSH1 0x4 SWAP1 REVERT JUMPDEST CALLVALUE PUSH2 0x16C JUMPI PUSH0 CALLDATASIZE PUSH1 0x3 NOT ADD SLT PUSH2 0x16C JUMPI PUSH1 0x20 PUSH1 0x7 SLOAD PUSH1 0x40 MLOAD SWAP1 DUP2 MSTORE RETURN JUMPDEST SWAP2 SWAP1 DUP3 MLOAD SWAP3 DUP4 DUP3 MSTORE PUSH0 JUMPDEST DUP5 DUP2 LT PUSH2 0x36F JUMPI POP POP DUP3 PUSH0 PUSH1 0x20 DUP1 SWAP5 SWAP6 DUP5 ADD ADD MSTORE PUSH1 0x1F DUP1 NOT SWAP2 ADD AND ADD ADD SWAP1 JUMP JUMPDEST PUSH1 0x20 DUP2 DUP4 ADD DUP2 ADD MLOAD DUP5 DUP4 ADD DUP3 ADD MSTORE ADD PUSH2 0x34F JUMP JUMPDEST SWAP1 PUSH1 0x20 PUSH2 0x266 SWAP3 DUP2 DUP2 MSTORE ADD SWAP1 PUSH2 0x345 JUMP JUMPDEST CALLVALUE PUSH2 0x16C JUMPI PUSH1 0x20 CALLDATASIZE PUSH1 0x3 NOT ADD SLT PUSH2 0x16C JUMPI PUSH1 0x4 CALLDATALOAD PUSH0 MSTORE PUSH1 0x5 PUSH1 0x20 MSTORE PUSH2 0x3E3 PUSH2 0x3C8 PUSH2 0x3CF PUSH1 0x40 PUSH0 KECCAK256 PUSH1 0x40 MLOAD SWAP3 DUP4 DUP1 SWAP3 PUSH2 0x46B JUMP JUMPDEST SUB DUP3 PUSH2 0x1E5 JUMP JUMPDEST PUSH1 0x40 MLOAD SWAP2 DUP3 SWAP2 PUSH1 0x20 DUP4 MSTORE PUSH1 0x20 DUP4 ADD SWAP1 PUSH2 0x345 JUMP JUMPDEST SUB SWAP1 RETURN JUMPDEST CALLVALUE PUSH2 0x16C JUMPI PUSH1 0x20 CALLDATASIZE PUSH1 0x3 NOT ADD SLT PUSH2 0x16C JUMPI PUSH1 0x4 CALLDATALOAD PUSH4 0xFFFFFFFF DUP2 AND DUP2 SUB PUSH2 0x16C JUMPI PUSH2 0x410 PUSH2 0xAA7 JUMP JUMPDEST PUSH4 0xFFFFFFFF PUSH1 0x40 SHL PUSH1 0x3 SLOAD SWAP2 PUSH1 0x40 SHL AND SWAP1 PUSH4 0xFFFFFFFF PUSH1 0x40 SHL NOT AND OR PUSH1 0x3 SSTORE PUSH0 DUP1 RETURN JUMPDEST SWAP1 PUSH1 0x1 DUP3 DUP2 SHR SWAP3 AND DUP1 ISZERO PUSH2 0x461 JUMPI JUMPDEST PUSH1 0x20 DUP4 LT EQ PUSH2 0x44D JUMPI JUMP JUMPDEST PUSH4 0x4E487B71 PUSH1 0xE0 SHL PUSH0 MSTORE PUSH1 0x22 PUSH1 0x4 MSTORE PUSH1 0x24 PUSH0 REVERT JUMPDEST SWAP2 PUSH1 0x7F AND SWAP2 PUSH2 0x442 JUMP JUMPDEST DUP1 SLOAD PUSH0 SWAP4 SWAP3 PUSH2 0x479 DUP3 PUSH2 0x433 JUMP JUMPDEST SWAP2 DUP3 DUP3 MSTORE PUSH1 0x20 SWAP4 PUSH1 0x1 SWAP2 PUSH1 0x1 DUP2 AND SWAP1 DUP2 PUSH0 EQ PUSH2 0x4DD JUMPI POP PUSH1 0x1 EQ PUSH2 0x49F JUMPI JUMPDEST POP POP POP POP POP JUMP JUMPDEST SWAP1 SWAP4 SWAP5 SWAP6 POP PUSH0 SWAP3 SWAP2 SWAP3 MSTORE DUP4 PUSH0 KECCAK256 SWAP3 DUP5 PUSH0 SWAP5 JUMPDEST DUP4 DUP7 LT PUSH2 0x4C9 JUMPI POP POP POP POP ADD ADD SWAP1 PUSH0 DUP1 DUP1 DUP1 DUP1 PUSH2 0x498 JUMP JUMPDEST DUP1 SLOAD DUP6 DUP8 ADD DUP4 ADD MSTORE SWAP5 ADD SWAP4 DUP6 SWAP1 DUP3 ADD PUSH2 0x4B1 JUMP JUMPDEST PUSH1 0xFF NOT AND DUP7 DUP6 ADD MSTORE POP POP POP SWAP1 ISZERO ISZERO PUSH1 0x5 SHL ADD ADD SWAP2 POP PUSH0 DUP1 DUP1 DUP1 DUP1 PUSH2 0x498 JUMP JUMPDEST CALLVALUE PUSH2 0x16C JUMPI PUSH0 CALLDATASIZE PUSH1 0x3 NOT ADD SLT PUSH2 0x16C JUMPI PUSH1 0x40 MLOAD PUSH0 PUSH1 0x8 SLOAD PUSH2 0x51C DUP2 PUSH2 0x433 JUMP JUMPDEST DUP1 DUP5 MSTORE SWAP1 PUSH1 0x20 SWAP1 PUSH1 0x1 SWAP1 DUP2 DUP2 AND SWAP1 DUP2 ISZERO PUSH2 0x5AE JUMPI POP PUSH1 0x1 EQ PUSH2 0x555 JUMPI JUMPDEST PUSH2 0x3E3 DUP6 PUSH2 0x549 DUP2 DUP8 SUB DUP3 PUSH2 0x1E5 JUMP JUMPDEST PUSH1 0x40 MLOAD SWAP2 DUP3 SWAP2 DUP3 PUSH2 0x383 JUMP JUMPDEST PUSH1 0x8 PUSH0 SWAP1 DUP2 MSTORE SWAP4 POP PUSH32 0xF3F7A9FE364FAAB93B216DA50A3214154F22A0A2B415B23A84C8169E8B636EE3 JUMPDEST DUP4 DUP6 LT PUSH2 0x59B JUMPI POP POP POP POP DUP2 ADD PUSH1 0x20 ADD PUSH2 0x549 DUP3 PUSH2 0x3E3 PUSH2 0x539 JUMP JUMPDEST DUP1 SLOAD DUP7 DUP7 ADD DUP5 ADD MSTORE SWAP4 DUP3 ADD SWAP4 DUP2 ADD PUSH2 0x57F JUMP JUMPDEST DUP7 SWAP6 POP PUSH2 0x3E3 SWAP7 SWAP4 POP PUSH1 0x20 SWAP3 POP PUSH2 0x549 SWAP5 SWAP2 POP PUSH1 0xFF NOT AND DUP3 DUP5 ADD MSTORE ISZERO ISZERO PUSH1 0x5 SHL DUP3 ADD ADD SWAP3 SWAP4 PUSH2 0x539 JUMP JUMPDEST CALLVALUE PUSH2 0x16C JUMPI PUSH1 0x20 CALLDATASIZE PUSH1 0x3 NOT ADD SLT PUSH2 0x16C JUMPI PUSH2 0x5F1 PUSH2 0xAA7 JUMP JUMPDEST PUSH1 0x4 CALLDATALOAD PUSH1 0x2 SSTORE STOP JUMPDEST CALLVALUE PUSH2 0x16C JUMPI PUSH0 CALLDATASIZE PUSH1 0x3 NOT ADD SLT PUSH2 0x16C JUMPI PUSH1 0x1 SLOAD PUSH1 0x1 PUSH1 0x1 PUSH1 0xA0 SHL SUB SWAP1 DUP2 AND CALLER SUB PUSH2 0x673 JUMPI PUSH0 SLOAD PUSH1 0x1 PUSH1 0x1 PUSH1 0xA0 SHL SUB AND PUSH0 DUP1 SLOAD PUSH1 0x1 PUSH1 0x1 PUSH1 0xA0 SHL SUB NOT AND CALLER OR SWAP1 SSTORE SWAP1 PUSH1 0x1 DUP1 SLOAD PUSH1 0x1 PUSH1 0x1 PUSH1 0xA0 SHL SUB NOT AND SWAP1 SSTORE CALLER SWAP2 AND PUSH32 0x8BE0079C531659141344CD1FD0A4F28419497F9722A3DAAFE3B4186F6B6457E0 PUSH0 DUP1 LOG3 STOP JUMPDEST PUSH1 0x40 MLOAD PUSH3 0x461BCD PUSH1 0xE5 SHL DUP2 MSTORE PUSH1 0x20 PUSH1 0x4 DUP3 ADD MSTORE PUSH1 0x16 PUSH1 0x24 DUP3 ADD MSTORE PUSH22 0x26BAB9BA10313290383937B837B9B2B21037BBB732B9 PUSH1 0x51 SHL PUSH1 0x44 DUP3 ADD MSTORE PUSH1 0x64 SWAP1 REVERT JUMPDEST SWAP2 DUP2 PUSH1 0x1F DUP5 ADD SLT ISZERO PUSH2 0x16C JUMPI DUP3 CALLDATALOAD SWAP2 PUSH1 0x1 PUSH1 0x1 PUSH1 0x40 SHL SUB DUP4 GT PUSH2 0x16C JUMPI PUSH1 0x20 DUP4 DUP2 DUP7 ADD SWAP6 ADD ADD GT PUSH2 0x16C JUMPI JUMP JUMPDEST CALLVALUE PUSH2 0x16C JUMPI PUSH1 0x60 CALLDATASIZE PUSH1 0x3 NOT ADD SLT PUSH2 0x16C JUMPI PUSH1 0x1 PUSH1 0x1 PUSH1 0x40 SHL SUB PUSH1 0x4 CALLDATALOAD DUP2 DUP2 GT PUSH2 0x16C JUMPI PUSH2 0x70F SWAP1 CALLDATASIZE SWAP1 PUSH1 0x4 ADD PUSH2 0x6B1 JUMP JUMPDEST SWAP2 SWAP1 PUSH1 0x24 CALLDATALOAD SWAP1 DUP3 DUP3 GT PUSH2 0x16C JUMPI CALLDATASIZE PUSH1 0x23 DUP4 ADD SLT ISZERO PUSH2 0x16C JUMPI DUP2 PUSH1 0x4 ADD CALLDATALOAD SWAP1 DUP4 DUP3 GT PUSH2 0x16C JUMPI CALLDATASIZE PUSH1 0x24 DUP4 PUSH1 0x5 SHL DUP6 ADD ADD GT PUSH2 0x16C JUMPI PUSH1 0x44 CALLDATALOAD SWAP4 DUP5 GT PUSH2 0x16C JUMPI PUSH2 0x3E3 SWAP5 PUSH1 0x24 PUSH2 0x764 PUSH2 0x76E SWAP7 CALLDATASIZE SWAP1 PUSH1 0x4 ADD PUSH2 0x6B1 JUMP JUMPDEST SWAP6 SWAP1 POP ADD SWAP2 PUSH2 0x98D JUMP JUMPDEST PUSH1 0x40 MLOAD SWAP1 DUP2 MSTORE SWAP1 DUP2 SWAP1 PUSH1 0x20 DUP3 ADD SWAP1 JUMP JUMPDEST CALLVALUE PUSH2 0x16C JUMPI PUSH0 CALLDATASIZE PUSH1 0x3 NOT ADD SLT PUSH2 0x16C JUMPI PUSH0 SLOAD PUSH1 0x40 MLOAD PUSH1 0x1 PUSH1 0x1 PUSH1 0xA0 SHL SUB SWAP1 SWAP2 AND DUP2 MSTORE PUSH1 0x20 SWAP1 RETURN JUMPDEST CALLVALUE PUSH2 0x16C JUMPI PUSH0 CALLDATASIZE PUSH1 0x3 NOT ADD SLT PUSH2 0x16C JUMPI PUSH1 0x20 PUSH1 0x2 SLOAD PUSH1 0x40 MLOAD SWAP1 DUP2 MSTORE RETURN JUMPDEST CALLVALUE PUSH2 0x16C JUMPI PUSH1 0x20 CALLDATASIZE PUSH1 0x3 NOT ADD SLT PUSH2 0x16C JUMPI PUSH1 0x4 CALLDATALOAD PUSH0 MSTORE PUSH1 0x6 PUSH1 0x20 MSTORE PUSH2 0x3E3 PUSH2 0x3C8 PUSH2 0x3CF PUSH1 0x40 PUSH0 KECCAK256 PUSH1 0x40 MLOAD SWAP3 DUP4 DUP1 SWAP3 PUSH2 0x46B JUMP JUMPDEST CALLVALUE PUSH2 0x16C JUMPI PUSH1 0x20 CALLDATASIZE PUSH1 0x3 NOT ADD SLT PUSH2 0x16C JUMPI PUSH1 0x4 CALLDATALOAD PUSH0 MSTORE PUSH1 0x4 PUSH1 0x20 MSTORE PUSH1 0x20 PUSH1 0x1 DUP1 PUSH1 0xA0 SHL SUB PUSH1 0x40 PUSH0 KECCAK256 SLOAD AND PUSH1 0x40 MLOAD SWAP1 DUP2 MSTORE RETURN JUMPDEST CALLVALUE PUSH2 0x16C JUMPI PUSH1 0x20 CALLDATASIZE PUSH1 0x3 NOT ADD SLT PUSH2 0x16C JUMPI PUSH1 0x4 CALLDATALOAD PUSH1 0x1 PUSH1 0x1 PUSH1 0xA0 SHL SUB DUP2 AND SWAP1 DUP2 SWAP1 SUB PUSH2 0x16C JUMPI PUSH2 0x856 PUSH2 0xAA7 JUMP JUMPDEST CALLER DUP2 EQ PUSH2 0x8A0 JUMPI PUSH1 0x1 DUP1 SLOAD PUSH1 0x1 PUSH1 0x1 PUSH1 0xA0 SHL SUB NOT AND DUP3 OR SWAP1 SSTORE PUSH0 SLOAD PUSH1 0x1 PUSH1 0x1 PUSH1 0xA0 SHL SUB AND PUSH32 0xED8889F560326EB138920D842192F0EB3DD22B4F139C87A2C57538E05BAE1278 PUSH0 DUP1 LOG3 STOP JUMPDEST PUSH1 0x40 MLOAD PUSH3 0x461BCD PUSH1 0xE5 SHL DUP2 MSTORE PUSH1 0x20 PUSH1 0x4 DUP3 ADD MSTORE PUSH1 0x17 PUSH1 0x24 DUP3 ADD MSTORE PUSH32 0x43616E6E6F74207472616E7366657220746F2073656C66000000000000000000 PUSH1 0x44 DUP3 ADD MSTORE PUSH1 0x64 SWAP1 REVERT JUMPDEST CALLVALUE PUSH2 0x16C JUMPI PUSH0 CALLDATASIZE PUSH1 0x3 NOT ADD SLT PUSH2 0x16C JUMPI PUSH1 0x20 PUSH1 0x3 SLOAD PUSH4 0xFFFFFFFF PUSH1 0x40 MLOAD SWAP2 PUSH1 0x40 SHR AND DUP2 MSTORE RETURN JUMPDEST SWAP3 SWAP2 SWAP1 SWAP3 PUSH1 0x1 PUSH1 0x1 PUSH1 0x40 SHL SUB SWAP2 DUP3 DUP6 GT PUSH2 0x1C5 JUMPI DUP5 PUSH1 0x5 SHL PUSH1 0x20 SWAP4 PUSH1 0x20 PUSH1 0x40 MLOAD PUSH2 0x937 DUP3 DUP6 ADD DUP3 PUSH2 0x1E5 JUMP JUMPDEST DUP1 SWAP9 DUP2 MSTORE ADD SWAP2 DUP5 ADD SWAP4 DUP4 DUP6 GT PUSH2 0x16C JUMPI DUP1 SWAP3 JUMPDEST DUP6 DUP5 LT PUSH2 0x95A JUMPI POP POP POP POP POP POP POP JUMP JUMPDEST DUP4 CALLDATALOAD DUP4 DUP2 GT PUSH2 0x16C JUMPI DUP3 ADD DUP6 PUSH1 0x1F DUP3 ADD SLT ISZERO PUSH2 0x16C JUMPI DUP8 SWAP2 PUSH2 0x982 DUP8 DUP4 DUP6 DUP1 SWAP6 CALLDATALOAD SWAP2 ADD PUSH2 0x206 JUMP JUMPDEST DUP2 MSTORE ADD SWAP4 ADD SWAP3 PUSH2 0x94A JUMP JUMPDEST SWAP3 PUSH2 0xA16 SWAP5 PUSH2 0x9E3 PUSH2 0x9DD PUSH2 0x9F5 SWAP7 SWAP6 SWAP5 SWAP6 PUSH1 0x40 MLOAD SWAP7 PUSH2 0x9AC DUP9 PUSH2 0x1AA JUMP JUMPDEST PUSH0 DUP9 MSTORE PUSH0 PUSH1 0x20 DUP10 ADD MSTORE PUSH0 PUSH1 0x40 DUP10 ADD MSTORE PUSH1 0x60 DUP1 DUP10 ADD MSTORE PUSH1 0x60 PUSH1 0x80 DUP10 ADD MSTORE PUSH1 0x60 PUSH1 0xA0 DUP10 ADD MSTORE PUSH1 0x60 PUSH1 0xC0 DUP10 ADD MSTORE CALLDATASIZE SWAP2 PUSH2 0x206 JUMP JUMPDEST DUP6 PUSH2 0xF66 JUMP JUMPDEST PUSH2 0xA99 JUMPI JUMPDEST DUP1 PUSH2 0xA7D JUMPI JUMPDEST POP POP PUSH2 0x1155 JUMP JUMPDEST PUSH1 0x3 SLOAD PUSH1 0x2 SLOAD SWAP2 PUSH1 0x1 PUSH1 0x1 PUSH1 0x40 SHL SUB PUSH4 0xFFFFFFFF DUP4 PUSH1 0x40 SHR AND SWAP3 AND SWAP1 PUSH2 0x133B JUMP JUMPDEST SWAP1 PUSH2 0xA4C CALLER PUSH2 0xA2D DUP5 PUSH0 MSTORE PUSH1 0x4 PUSH1 0x20 MSTORE PUSH1 0x40 PUSH0 KECCAK256 SWAP1 JUMP JUMPDEST DUP1 SLOAD PUSH1 0x1 PUSH1 0x1 PUSH1 0xA0 SHL SUB NOT AND PUSH1 0x1 PUSH1 0x1 PUSH1 0xA0 SHL SUB SWAP1 SWAP3 AND SWAP2 SWAP1 SWAP2 OR SWAP1 SSTORE JUMP JUMPDEST PUSH2 0xA55 DUP3 PUSH1 0x7 SSTORE JUMP JUMPDEST CALLER DUP3 PUSH32 0x91F0D67C2F27ABD6CFC317E120D5E80B31E97B9926B65D3887E59402FB20ADFB PUSH0 DUP1 LOG3 JUMP JUMPDEST PUSH2 0xA92 SWAP2 PUSH2 0xA8C SWAP2 CALLDATASIZE SWAP2 PUSH2 0x90B JUMP JUMPDEST DUP3 PUSH2 0x100D JUMP JUMPDEST PUSH0 DUP1 PUSH2 0x9EE JUMP JUMPDEST PUSH2 0xAA2 DUP4 PUSH2 0xF8E JUMP JUMPDEST PUSH2 0x9E8 JUMP JUMPDEST PUSH0 SLOAD PUSH1 0x1 PUSH1 0x1 PUSH1 0xA0 SHL SUB AND CALLER SUB PUSH2 0xABA JUMPI JUMP JUMPDEST PUSH1 0x40 MLOAD PUSH3 0x461BCD PUSH1 0xE5 SHL DUP2 MSTORE PUSH1 0x20 PUSH1 0x4 DUP3 ADD MSTORE PUSH1 0x16 PUSH1 0x24 DUP3 ADD MSTORE PUSH22 0x27B7363C9031B0B63630B1363290313C9037BBB732B9 PUSH1 0x51 SHL PUSH1 0x44 DUP3 ADD MSTORE PUSH1 0x64 SWAP1 REVERT JUMPDEST PUSH1 0x1F DUP2 GT PUSH2 0xB04 JUMPI POP POP JUMP JUMPDEST PUSH1 0x8 PUSH0 MSTORE PUSH32 0xF3F7A9FE364FAAB93B216DA50A3214154F22A0A2B415B23A84C8169E8B636EE3 SWAP1 PUSH1 0x20 PUSH1 0x1F DUP5 ADD PUSH1 0x5 SHR DUP4 ADD SWAP4 LT PUSH2 0xB5B JUMPI JUMPDEST PUSH1 0x1F ADD PUSH1 0x5 SHR ADD SWAP1 JUMPDEST DUP2 DUP2 LT PUSH2 0xB50 JUMPI POP POP JUMP JUMPDEST PUSH0 DUP2 SSTORE PUSH1 0x1 ADD PUSH2 0xB45 JUMP JUMPDEST SWAP1 SWAP2 POP DUP2 SWAP1 PUSH2 0xB3C JUMP JUMPDEST PUSH1 0x1F DUP3 GT PUSH2 0xB72 JUMPI POP POP POP JUMP JUMPDEST PUSH0 MSTORE PUSH1 0x20 PUSH0 KECCAK256 SWAP1 PUSH1 0x20 PUSH1 0x1F DUP5 ADD PUSH1 0x5 SHR DUP4 ADD SWAP4 LT PUSH2 0xBAA JUMPI JUMPDEST PUSH1 0x1F ADD PUSH1 0x5 SHR ADD SWAP1 JUMPDEST DUP2 DUP2 LT PUSH2 0xB9F JUMPI POP POP JUMP JUMPDEST PUSH0 DUP2 SSTORE PUSH1 0x1 ADD PUSH2 0xB94 JUMP JUMPDEST SWAP1 SWAP2 POP DUP2 SWAP1 PUSH2 0xB8B JUMP JUMPDEST SWAP1 PUSH1 0x60 PUSH2 0x266 SWAP3 PUSH1 0x40 DUP2 MSTORE PUSH0 PUSH1 0x40 DUP3 ADD MSTORE DUP2 PUSH1 0x20 DUP3 ADD MSTORE ADD SWAP1 PUSH2 0x345 JUMP JUMPDEST SWAP1 DUP2 MLOAD PUSH1 0x1 PUSH1 0x1 PUSH1 0x40 SHL SUB DUP2 GT PUSH2 0x1C5 JUMPI PUSH2 0xBF7 DUP2 PUSH2 0xBF2 PUSH1 0x8 SLOAD PUSH2 0x433 JUMP JUMPDEST PUSH2 0xAF8 JUMP JUMPDEST PUSH1 0x20 DUP1 PUSH1 0x1F DUP4 GT PUSH1 0x1 EQ PUSH2 0xC38 JUMPI POP DUP2 SWAP1 PUSH2 0xC28 SWAP4 SWAP5 PUSH0 SWAP3 PUSH2 0xC2D JUMPI JUMPDEST POP POP DUP2 PUSH1 0x1 SHL SWAP2 PUSH0 NOT SWAP1 PUSH1 0x3 SHL SHR NOT AND OR SWAP1 JUMP JUMPDEST PUSH1 0x8 SSTORE JUMP JUMPDEST ADD MLOAD SWAP1 POP PUSH0 DUP1 PUSH2 0xC14 JUMP JUMPDEST SWAP1 PUSH1 0x1F NOT DUP4 AND SWAP5 PUSH2 0xC6A PUSH1 0x8 PUSH0 MSTORE PUSH32 0xF3F7A9FE364FAAB93B216DA50A3214154F22A0A2B415B23A84C8169E8B636EE3 SWAP1 JUMP JUMPDEST SWAP3 PUSH0 SWAP1 JUMPDEST DUP8 DUP3 LT PUSH2 0xCA5 JUMPI POP POP DUP4 PUSH1 0x1 SWAP6 SWAP7 LT PUSH2 0xC8D JUMPI JUMPDEST POP POP POP DUP2 SHL ADD PUSH1 0x8 SSTORE JUMP JUMPDEST ADD MLOAD PUSH0 NOT PUSH1 0xF8 DUP5 PUSH1 0x3 SHL AND SHR NOT AND SWAP1 SSTORE PUSH0 DUP1 DUP1 PUSH2 0xC82 JUMP JUMPDEST DUP1 PUSH1 0x1 DUP6 SWAP7 DUP3 SWAP5 SWAP7 DUP7 ADD MLOAD DUP2 SSTORE ADD SWAP6 ADD SWAP4 ADD SWAP1 PUSH2 0xC6E JUMP JUMPDEST SWAP2 SWAP1 SWAP2 DUP3 MLOAD PUSH1 0x1 PUSH1 0x1 PUSH1 0x40 SHL SUB DUP2 GT PUSH2 0x1C5 JUMPI PUSH2 0xCE4 DUP2 PUSH2 0xCDE DUP5 SLOAD PUSH2 0x433 JUMP JUMPDEST DUP5 PUSH2 0xB65 JUMP JUMPDEST PUSH1 0x20 DUP1 PUSH1 0x1F DUP4 GT PUSH1 0x1 EQ PUSH2 0xD19 JUMPI POP DUP2 SWAP1 PUSH2 0xD15 SWAP4 SWAP5 SWAP6 PUSH0 SWAP3 PUSH2 0xC2D JUMPI POP POP DUP2 PUSH1 0x1 SHL SWAP2 PUSH0 NOT SWAP1 PUSH1 0x3 SHL SHR NOT AND OR SWAP1 JUMP JUMPDEST SWAP1 SSTORE JUMP JUMPDEST SWAP1 PUSH1 0x1F NOT DUP4 AND SWAP6 PUSH2 0xD2D DUP6 PUSH0 MSTORE PUSH1 0x20 PUSH0 KECCAK256 SWAP1 JUMP JUMPDEST SWAP3 PUSH0 SWAP1 JUMPDEST DUP9 DUP3 LT PUSH2 0xD68 JUMPI POP POP DUP4 PUSH1 0x1 SWAP6 SWAP7 SWAP8 LT PUSH2 0xD50 JUMPI JUMPDEST POP POP POP DUP2 SHL ADD SWAP1 SSTORE JUMP JUMPDEST ADD MLOAD PUSH0 NOT PUSH1 0xF8 DUP5 PUSH1 0x3 SHL AND SHR NOT AND SWAP1 SSTORE PUSH0 DUP1 DUP1 PUSH2 0xD46 JUMP JUMPDEST DUP1 PUSH1 0x1 DUP6 SWAP7 DUP3 SWAP5 SWAP7 DUP7 ADD MLOAD DUP2 SSTORE ADD SWAP6 ADD SWAP4 ADD SWAP1 PUSH2 0xD31 JUMP JUMPDEST PUSH2 0xD94 PUSH1 0x20 SWAP3 PUSH1 0x40 DUP4 MSTORE PUSH1 0x40 DUP4 ADD SWAP1 PUSH2 0x345 JUMP JUMPDEST SWAP1 DUP3 DUP2 DUP4 SUB SWAP2 ADD MSTORE PUSH0 DUP2 MSTORE ADD SWAP1 JUMP JUMPDEST SWAP2 DUP1 MLOAD PUSH2 0xE05 JUMPI POP PUSH2 0xE00 DUP2 PUSH2 0xDEB PUSH32 0x9304B2897060CAB5F22CE3990C7C2123A47C1C09FA4D82835DA567F4F16CCF1E SWAP4 PUSH2 0xDE6 DUP7 PUSH0 MSTORE PUSH1 0x5 PUSH1 0x20 MSTORE PUSH1 0x40 PUSH0 KECCAK256 SWAP1 JUMP JUMPDEST PUSH2 0xCBD JUMP JUMPDEST PUSH2 0xDF4 DUP2 PUSH2 0xBD2 JUMP JUMPDEST PUSH1 0x40 MLOAD SWAP2 DUP3 SWAP2 DUP3 PUSH2 0xD80 JUMP JUMPDEST SUB SWAP1 LOG2 JUMP JUMPDEST SWAP1 POP DUP2 PUSH0 MSTORE PUSH1 0x20 PUSH1 0x6 PUSH1 0x20 MSTORE PUSH1 0x40 PUSH0 KECCAK256 SWAP1 DUP3 MLOAD SWAP1 PUSH1 0x1 PUSH1 0x1 PUSH1 0x40 SHL SUB DUP3 GT PUSH2 0x1C5 JUMPI PUSH2 0xE3B DUP3 PUSH2 0xE35 DUP6 SLOAD PUSH2 0x433 JUMP JUMPDEST DUP6 PUSH2 0xB65 JUMP JUMPDEST PUSH1 0x20 SWAP1 PUSH1 0x1F DUP4 GT PUSH1 0x1 EQ PUSH2 0xEAA JUMPI POP SWAP2 PUSH2 0xE90 DUP3 PUSH32 0x9304B2897060CAB5F22CE3990C7C2123A47C1C09FA4D82835DA567F4F16CCF1E SWAP6 SWAP4 PUSH2 0xE00 SWAP6 PUSH0 SWAP2 PUSH2 0xE9F JUMPI JUMPDEST POP DUP2 PUSH1 0x1 SHL SWAP2 PUSH0 NOT SWAP1 PUSH1 0x3 SHL SHR NOT AND OR SWAP1 JUMP JUMPDEST SWAP1 SSTORE JUMPDEST PUSH1 0x40 MLOAD SWAP2 DUP3 SWAP2 DUP3 PUSH2 0xBB4 JUMP JUMPDEST SWAP1 POP DUP5 ADD MLOAD PUSH0 PUSH2 0xE7D JUMP JUMPDEST SWAP1 PUSH1 0x1F NOT DUP4 AND PUSH2 0xEBD DUP6 PUSH0 MSTORE PUSH1 0x20 PUSH0 KECCAK256 SWAP1 JUMP JUMPDEST SWAP3 PUSH0 SWAP1 JUMPDEST DUP3 DUP3 LT PUSH2 0xF21 JUMPI POP POP SWAP3 PUSH2 0xE00 SWAP5 SWAP3 PUSH1 0x1 SWAP3 DUP3 PUSH32 0x9304B2897060CAB5F22CE3990C7C2123A47C1C09FA4D82835DA567F4F16CCF1E SWAP9 SWAP7 LT PUSH2 0xF09 JUMPI JUMPDEST POP POP DUP2 SHL ADD SWAP1 SSTORE PUSH2 0xE93 JUMP JUMPDEST DUP6 ADD MLOAD PUSH0 NOT PUSH1 0xF8 DUP5 PUSH1 0x3 SHL AND SHR NOT AND SWAP1 SSTORE PUSH0 DUP1 PUSH2 0xEFD JUMP JUMPDEST DUP1 PUSH1 0x1 DUP6 SWAP7 DUP3 SWAP5 SWAP7 DUP12 ADD MLOAD DUP2 SSTORE ADD SWAP6 ADD SWAP4 ADD SWAP1 PUSH2 0xEC1 JUMP JUMPDEST PUSH4 0x4E487B71 PUSH1 0xE0 SHL PUSH0 MSTORE PUSH1 0x21 PUSH1 0x4 MSTORE PUSH1 0x24 PUSH0 REVERT JUMPDEST PUSH1 0x3 GT ISZERO PUSH2 0xF57 JUMPI JUMP JUMPDEST PUSH2 0xF39 JUMP JUMPDEST PUSH1 0x1 GT ISZERO PUSH2 0xF57 JUMPI JUMP JUMPDEST DUP2 MLOAD ISZERO PUSH2 0xF7C JUMPI PUSH0 DUP1 DUP3 MSTORE PUSH1 0x40 DUP3 ADD MSTORE PUSH1 0x60 ADD MSTORE JUMP JUMPDEST PUSH1 0x40 MLOAD PUSH4 0x22CE3EDD PUSH1 0xE0 SHL DUP2 MSTORE PUSH1 0x4 SWAP1 REVERT JUMPDEST PUSH1 0x80 PUSH2 0xF98 PUSH2 0x1440 JUMP JUMPDEST PUSH2 0xFC0 PUSH1 0x40 MLOAD PUSH2 0xFA7 DUP2 PUSH2 0x1CA JUMP JUMPDEST PUSH1 0x6 DUP2 MSTORE PUSH6 0x1CDB1BDD1251 PUSH1 0xD2 SHL PUSH1 0x20 DUP3 ADD MSTORE DUP3 PUSH2 0x148D JUMP JUMPDEST PUSH2 0xFCA DUP2 MLOAD PUSH2 0x1C2A JUMP JUMPDEST POP PUSH2 0xFF4 PUSH1 0x40 MLOAD PUSH2 0xFDA DUP2 PUSH2 0x1CA JUMP JUMPDEST PUSH1 0x7 DUP2 MSTORE PUSH7 0x3B32B939B4B7B7 PUSH1 0xC9 SHL PUSH1 0x20 DUP3 ADD MSTORE DUP3 PUSH2 0x148D JUMP JUMPDEST PUSH2 0xFFE DUP2 MLOAD PUSH2 0x1C2A JUMP JUMPDEST POP PUSH1 0x2 PUSH1 0x20 DUP5 ADD MSTORE MLOAD MLOAD SWAP2 ADD MSTORE JUMP JUMPDEST DUP2 MLOAD ISZERO PUSH2 0x101A JUMPI PUSH1 0xA0 ADD MSTORE JUMP JUMPDEST PUSH1 0x40 MLOAD PUSH4 0xFE936CB7 PUSH1 0xE0 SHL DUP2 MSTORE PUSH1 0x4 SWAP1 REVERT JUMPDEST PUSH1 0x40 MLOAD SWAP1 PUSH2 0x1039 DUP3 PUSH2 0x1CA JUMP JUMPDEST PUSH1 0xC DUP3 MSTORE PUSH12 0x31B7B232A637B1B0BA34B7B7 PUSH1 0xA1 SHL PUSH1 0x20 DUP4 ADD MSTORE JUMP JUMPDEST PUSH1 0x40 MLOAD SWAP1 PUSH2 0x1061 DUP3 PUSH2 0x1CA JUMP JUMPDEST PUSH1 0x8 DUP3 MSTORE PUSH8 0x6C616E6775616765 PUSH1 0xC0 SHL PUSH1 0x20 DUP4 ADD MSTORE JUMP JUMPDEST PUSH1 0x40 MLOAD SWAP1 PUSH2 0x1085 DUP3 PUSH2 0x1CA JUMP JUMPDEST PUSH1 0x6 DUP3 MSTORE PUSH6 0x736F75726365 PUSH1 0xD0 SHL PUSH1 0x20 DUP4 ADD MSTORE JUMP JUMPDEST PUSH1 0x40 MLOAD SWAP1 PUSH2 0x10A7 DUP3 PUSH2 0x1CA JUMP JUMPDEST PUSH1 0x4 DUP3 MSTORE PUSH4 0x61726773 PUSH1 0xE0 SHL PUSH1 0x20 DUP4 ADD MSTORE JUMP JUMPDEST DUP1 MLOAD DUP3 LT ISZERO PUSH2 0x10CE JUMPI PUSH1 0x20 SWAP2 PUSH1 0x5 SHL ADD ADD SWAP1 JUMP JUMPDEST PUSH4 0x4E487B71 PUSH1 0xE0 SHL PUSH0 MSTORE PUSH1 0x32 PUSH1 0x4 MSTORE PUSH1 0x24 PUSH0 REVERT JUMPDEST PUSH1 0x40 MLOAD SWAP1 PUSH2 0x10EF DUP3 PUSH2 0x1CA JUMP JUMPDEST PUSH1 0xF DUP3 MSTORE PUSH15 0x39B2B1B932BA39A637B1B0BA34B7B7 PUSH1 0x89 SHL PUSH1 0x20 DUP4 ADD MSTORE JUMP JUMPDEST PUSH1 0x40 MLOAD SWAP1 PUSH2 0x111A DUP3 PUSH2 0x1CA JUMP JUMPDEST PUSH1 0x7 DUP3 MSTORE PUSH7 0x73656372657473 PUSH1 0xC8 SHL PUSH1 0x20 DUP4 ADD MSTORE JUMP JUMPDEST PUSH1 0x40 MLOAD SWAP1 PUSH2 0x113D DUP3 PUSH2 0x1CA JUMP JUMPDEST PUSH1 0x9 DUP3 MSTORE PUSH9 0x627974657341726773 PUSH1 0xB8 SHL PUSH1 0x20 DUP4 ADD MSTORE JUMP JUMPDEST PUSH2 0x115D PUSH2 0x1440 JUMP JUMPDEST SWAP1 PUSH2 0x116F PUSH2 0x1169 PUSH2 0x102C JUMP JUMPDEST DUP4 PUSH2 0x148D JUMP JUMPDEST PUSH2 0x118C DUP2 MLOAD PUSH2 0x117D DUP2 PUSH2 0xF4D JUMP JUMPDEST PUSH2 0x1186 DUP2 PUSH2 0xF4D JUMP JUMPDEST DUP4 PUSH2 0x154F JUMP JUMPDEST PUSH2 0x1197 PUSH2 0x1169 PUSH2 0x1054 JUMP JUMPDEST PUSH2 0x11B1 PUSH1 0x40 DUP3 ADD MLOAD PUSH2 0x11A8 DUP2 PUSH2 0xF5C JUMP JUMPDEST PUSH2 0x1186 DUP2 PUSH2 0xF5C JUMP JUMPDEST PUSH2 0x11BC PUSH2 0x1169 PUSH2 0x1078 JUMP JUMPDEST PUSH2 0x11CA PUSH1 0x60 DUP3 ADD MLOAD DUP4 PUSH2 0x148D JUMP JUMPDEST PUSH1 0xA0 DUP2 ADD DUP1 MLOAD MLOAD PUSH2 0x12C9 JUMPI JUMPDEST POP PUSH1 0x80 DUP2 ADD SWAP1 DUP2 MLOAD MLOAD PUSH2 0x1249 JUMPI JUMPDEST PUSH1 0xC0 SWAP2 POP ADD DUP1 MLOAD MLOAD PUSH2 0x11F7 JUMPI JUMPDEST POP MLOAD MLOAD SWAP1 JUMP JUMPDEST SWAP2 PUSH2 0x1203 PUSH2 0x1169 PUSH2 0x1130 JUMP JUMPDEST PUSH2 0x120C DUP3 PUSH2 0x1621 JUMP JUMPDEST PUSH0 JUMPDEST DUP4 MLOAD DUP1 MLOAD DUP3 LT ISZERO PUSH2 0x1236 JUMPI SWAP1 PUSH2 0x1230 PUSH2 0x1229 DUP3 PUSH1 0x1 SWAP5 PUSH2 0x10BA JUMP JUMPDEST MLOAD DUP6 PUSH2 0x1748 JUMP JUMPDEST ADD PUSH2 0x120E JUMP JUMPDEST POP POP SWAP2 POP PUSH2 0x1243 DUP2 PUSH2 0x16BC JUMP JUMPDEST PUSH0 PUSH2 0x11F1 JUMP JUMPDEST PUSH1 0x20 DUP2 ADD DUP1 MLOAD PUSH2 0x1258 DUP2 PUSH2 0xF4D JUMP JUMPDEST PUSH2 0x1261 DUP2 PUSH2 0xF4D JUMP JUMPDEST ISZERO PUSH2 0x12B7 JUMPI PUSH1 0xC0 SWAP3 PUSH2 0x129A PUSH2 0x12B2 SWAP3 PUSH2 0x1281 PUSH2 0x127B PUSH2 0x10E2 JUMP JUMPDEST DUP9 PUSH2 0x148D JUMP JUMPDEST MLOAD PUSH2 0x128B DUP2 PUSH2 0xF4D JUMP JUMPDEST PUSH2 0x1294 DUP2 PUSH2 0xF4D JUMP JUMPDEST DUP7 PUSH2 0x154F JUMP JUMPDEST PUSH2 0x12AB PUSH2 0x12A5 PUSH2 0x110D JUMP JUMPDEST DUP7 PUSH2 0x148D JUMP JUMPDEST MLOAD DUP5 PUSH2 0x1748 JUMP JUMPDEST PUSH2 0x11E4 JUMP JUMPDEST PUSH1 0x40 MLOAD PUSH4 0xA80D31F7 PUSH1 0xE0 SHL DUP2 MSTORE PUSH1 0x4 SWAP1 REVERT JUMPDEST SWAP3 PUSH2 0x12DB PUSH2 0x12D5 PUSH2 0x109A JUMP JUMPDEST DUP5 PUSH2 0x148D JUMP JUMPDEST PUSH2 0x12E4 DUP4 PUSH2 0x1621 JUMP JUMPDEST PUSH0 JUMPDEST DUP5 MLOAD DUP1 MLOAD DUP3 LT ISZERO PUSH2 0x130E JUMPI SWAP1 PUSH2 0x1308 PUSH2 0x1301 DUP3 PUSH1 0x1 SWAP5 PUSH2 0x10BA JUMP JUMPDEST MLOAD DUP7 PUSH2 0x148D JUMP JUMPDEST ADD PUSH2 0x12E6 JUMP JUMPDEST POP POP SWAP3 POP PUSH2 0x131B DUP3 PUSH2 0x16BC JUMP JUMPDEST PUSH0 PUSH2 0x11D6 JUMP JUMPDEST SWAP1 DUP2 PUSH1 0x20 SWAP2 SUB SLT PUSH2 0x16C JUMPI MLOAD SWAP1 JUMP JUMPDEST PUSH1 0x40 MLOAD RETURNDATASIZE PUSH0 DUP3 RETURNDATACOPY RETURNDATASIZE SWAP1 REVERT JUMPDEST SWAP3 SWAP1 PUSH1 0x20 SWAP3 PUSH1 0x1 PUSH1 0x1 PUSH1 0x40 SHL SUB SWAP3 PUSH4 0xFFFFFFFF PUSH2 0x137A PUSH1 0x40 MLOAD SWAP8 DUP9 SWAP7 DUP8 SWAP7 PUSH4 0x230E93B1 PUSH1 0xE1 SHL DUP9 MSTORE AND PUSH1 0x4 DUP8 ADD MSTORE PUSH1 0xA0 PUSH1 0x24 DUP8 ADD MSTORE PUSH1 0xA4 DUP7 ADD SWAP1 PUSH2 0x345 JUMP JUMPDEST PUSH1 0x1 PUSH1 0x44 DUP7 ADD MSTORE SWAP3 AND PUSH1 0x64 DUP5 ADD MSTORE PUSH1 0x84 DUP4 ADD MSTORE SUB DUP2 PUSH0 PUSH32 0x0 PUSH1 0x1 PUSH1 0x1 PUSH1 0xA0 SHL SUB AND GAS CALL SWAP1 DUP2 ISZERO PUSH2 0x1422 JUMPI PUSH0 SWAP2 PUSH2 0x13F3 JUMPI JUMPDEST POP DUP1 PUSH32 0x1131472297A800FEE664D1D89CFA8F7676FF07189ECC53F80BBB5F4969099DB8 PUSH0 DUP1 LOG2 SWAP1 JUMP JUMPDEST PUSH2 0x1415 SWAP2 POP PUSH1 0x20 RETURNDATASIZE PUSH1 0x20 GT PUSH2 0x141B JUMPI JUMPDEST PUSH2 0x140D DUP2 DUP4 PUSH2 0x1E5 JUMP JUMPDEST DUP2 ADD SWAP1 PUSH2 0x1321 JUMP JUMPDEST PUSH0 PUSH2 0x13CA JUMP JUMPDEST POP RETURNDATASIZE PUSH2 0x1403 JUMP JUMPDEST PUSH2 0x1330 JUMP JUMPDEST PUSH1 0x40 MLOAD SWAP1 PUSH2 0x1434 DUP3 PUSH2 0x1CA JUMP JUMPDEST PUSH0 PUSH1 0x20 DUP4 PUSH1 0x60 DUP2 MSTORE ADD MSTORE JUMP JUMPDEST PUSH1 0x40 MLOAD PUSH2 0x144C DUP2 PUSH2 0x1CA JUMP JUMPDEST PUSH2 0x1454 PUSH2 0x1427 JUMP JUMPDEST DUP1 DUP3 MSTORE PUSH1 0x20 DUP3 ADD PUSH0 DUP2 MSTORE PUSH2 0x1466 PUSH2 0x1427 JUMP JUMPDEST POP PUSH2 0x100 PUSH1 0x20 DUP4 ADD MSTORE PUSH1 0x40 MLOAD DUP1 SWAP3 MSTORE PUSH0 DUP3 MSTORE PUSH2 0x120 DUP3 ADD SWAP2 DUP3 LT PUSH2 0x16C JUMPI PUSH0 SWAP2 PUSH1 0x40 MSTORE MSTORE SWAP1 JUMP JUMPDEST DUP2 MLOAD PUSH2 0x14D1 SWAP3 SWAP2 SWAP1 PUSH1 0x1 PUSH1 0x1 PUSH1 0x40 SHL SUB DUP2 AND SWAP1 PUSH1 0x17 DUP3 GT PUSH2 0x14D4 JUMPI PUSH2 0x14BC SWAP2 POP PUSH1 0x60 PUSH1 0xFF DUP5 MLOAD SWAP3 AND OR SWAP1 PUSH2 0x1C8E JUMP JUMPDEST POP JUMPDEST MLOAD SWAP1 PUSH2 0x14C8 PUSH2 0x1427 JUMP JUMPDEST POP DUP1 MLOAD SWAP2 PUSH2 0x1EBE JUMP JUMPDEST POP JUMP JUMPDEST POP PUSH1 0xFF DUP2 GT PUSH2 0x14F9 JUMPI PUSH2 0x14F3 SWAP1 PUSH2 0x14EB DUP4 MLOAD PUSH2 0x1A31 JUMP JUMPDEST POP DUP3 MLOAD PUSH2 0x1E4A JUMP JUMPDEST POP PUSH2 0x14BE JUMP JUMPDEST PUSH2 0xFFFF DUP2 GT PUSH2 0x1518 JUMPI PUSH2 0x14F3 SWAP1 PUSH2 0x1510 DUP4 MLOAD PUSH2 0x19CC JUMP JUMPDEST POP DUP3 MLOAD PUSH2 0x1DDC JUMP JUMPDEST PUSH4 0xFFFFFFFF DUP2 GT PUSH2 0x1539 JUMPI PUSH2 0x14F3 SWAP1 PUSH2 0x1531 DUP4 MLOAD PUSH2 0x1967 JUMP JUMPDEST POP DUP3 MLOAD PUSH2 0x1D6C JUMP JUMPDEST PUSH2 0x14F3 SWAP1 PUSH2 0x1547 DUP4 MLOAD PUSH2 0x18F7 JUMP JUMPDEST POP DUP3 MLOAD PUSH2 0x1CF9 JUMP JUMPDEST SWAP1 DUP2 MLOAD SWAP2 PUSH2 0x155B PUSH2 0x1427 JUMP JUMPDEST POP DUP3 MLOAD MLOAD PUSH1 0x1 DUP2 ADD SWAP1 DUP2 DUP2 GT PUSH2 0x15F2 JUMPI PUSH1 0x20 DUP6 ADD MLOAD DUP2 LT ISZERO PUSH2 0x15B6 JUMPI JUMPDEST PUSH1 0xC2 PUSH1 0x20 PUSH2 0x15AC SWAP7 MLOAD SWAP3 DUP4 ADD ADD MSTORE8 DUP1 MLOAD DUP3 GT PUSH2 0x15AE JUMPI JUMPDEST POP POP PUSH1 0x40 MLOAD SWAP2 PUSH1 0x20 DUP4 ADD MSTORE PUSH1 0x20 DUP3 MSTORE PUSH2 0x15A7 DUP3 PUSH2 0x1CA JUMP JUMPDEST PUSH2 0x1748 JUMP JUMPDEST JUMP JUMPDEST MSTORE PUSH0 DUP1 PUSH2 0x158F JUMP JUMPDEST DUP2 PUSH1 0x1 SHL SWAP5 DUP3 DUP7 DIV PUSH1 0x2 EQ DUP4 ISZERO OR ISZERO PUSH2 0x15F2 JUMPI PUSH1 0x20 DUP2 PUSH2 0x15E8 PUSH2 0x15AC SWAP9 PUSH2 0x15E1 PUSH1 0xC2 SWAP6 MLOAD SWAP2 DUP5 PUSH2 0x17CC JUMP JUMPDEST POP DUP3 PUSH2 0x181D JUMP JUMPDEST POP SWAP7 POP POP POP PUSH2 0x1578 JUMP JUMPDEST PUSH4 0x4E487B71 PUSH1 0xE0 SHL PUSH0 MSTORE PUSH1 0x11 PUSH1 0x4 MSTORE PUSH1 0x24 PUSH0 REVERT JUMPDEST SWAP1 PUSH1 0x20 DUP3 ADD DUP1 SWAP3 GT PUSH2 0x15F2 JUMPI JUMP JUMPDEST SWAP2 SWAP1 DUP3 ADD DUP1 SWAP3 GT PUSH2 0x15F2 JUMPI JUMP JUMPDEST DUP1 MLOAD SWAP1 PUSH2 0x162C PUSH2 0x1427 JUMP JUMPDEST POP DUP2 MLOAD MLOAD PUSH1 0x1 DUP2 ADD SWAP1 DUP2 DUP2 GT PUSH2 0x15F2 JUMPI PUSH1 0x20 DUP5 ADD MLOAD DUP2 LT ISZERO PUSH2 0x167A JUMPI JUMPDEST PUSH1 0x9F PUSH1 0x20 DUP1 SWAP6 MLOAD SWAP3 DUP4 ADD ADD MSTORE8 DUP1 MLOAD DUP3 GT PUSH2 0x1672 JUMPI JUMPDEST POP POP ADD DUP1 MLOAD SWAP1 PUSH1 0x1 DUP3 ADD DUP1 SWAP3 GT PUSH2 0x15F2 JUMPI MSTORE JUMP JUMPDEST MSTORE PUSH0 DUP1 PUSH2 0x165E JUMP JUMPDEST DUP2 PUSH1 0x1 SHL SWAP4 DUP3 DUP6 DIV PUSH1 0x2 EQ DUP4 ISZERO OR ISZERO PUSH2 0x15F2 JUMPI PUSH1 0x20 DUP2 PUSH2 0x16A3 DUP3 SWAP8 PUSH2 0x15E1 PUSH1 0x9F SWAP6 MLOAD SWAP2 DUP5 PUSH2 0x17CC JUMP JUMPDEST POP SWAP6 POP POP POP PUSH2 0x1649 JUMP JUMPDEST PUSH1 0x1F NOT DUP2 ADD SWAP2 SWAP1 DUP3 GT PUSH2 0x15F2 JUMPI JUMP JUMPDEST DUP1 MLOAD SWAP1 PUSH2 0x16C7 PUSH2 0x1427 JUMP JUMPDEST POP DUP2 MLOAD MLOAD PUSH1 0x1 DUP2 ADD SWAP1 DUP2 DUP2 GT PUSH2 0x15F2 JUMPI PUSH1 0x20 DUP5 ADD MLOAD DUP2 LT ISZERO PUSH2 0x1715 JUMPI JUMPDEST PUSH1 0xFF PUSH1 0x20 DUP1 SWAP6 MLOAD SWAP3 DUP4 ADD ADD MSTORE8 DUP1 MLOAD DUP3 GT PUSH2 0x170D JUMPI JUMPDEST POP POP ADD DUP1 MLOAD PUSH0 NOT DUP2 ADD SWAP2 SWAP1 DUP3 GT PUSH2 0x15F2 JUMPI MSTORE JUMP JUMPDEST MSTORE PUSH0 DUP1 PUSH2 0x16F9 JUMP JUMPDEST DUP2 PUSH1 0x1 SHL SWAP4 DUP3 DUP6 DIV PUSH1 0x2 EQ DUP4 ISZERO OR ISZERO PUSH2 0x15F2 JUMPI PUSH1 0x20 DUP2 PUSH2 0x173E DUP3 SWAP8 PUSH2 0x15E1 PUSH1 0xFF SWAP6 MLOAD SWAP2 DUP5 PUSH2 0x17CC JUMP JUMPDEST POP SWAP6 POP POP POP PUSH2 0x16E4 JUMP JUMPDEST DUP2 MLOAD PUSH2 0x14D1 SWAP3 SWAP2 SWAP1 PUSH1 0x1 PUSH1 0x1 PUSH1 0x40 SHL SUB DUP2 AND SWAP1 PUSH1 0x17 DUP3 GT PUSH2 0x1777 JUMPI PUSH2 0x14BC SWAP2 POP PUSH1 0x40 PUSH1 0xFF DUP5 MLOAD SWAP3 AND OR SWAP1 PUSH2 0x1C8E JUMP JUMPDEST POP PUSH1 0xFF DUP2 GT PUSH2 0x178E JUMPI PUSH2 0x14F3 SWAP1 PUSH2 0x14EB DUP4 MLOAD PUSH2 0x1BC5 JUMP JUMPDEST PUSH2 0xFFFF DUP2 GT PUSH2 0x17A5 JUMPI PUSH2 0x14F3 SWAP1 PUSH2 0x1510 DUP4 MLOAD PUSH2 0x1B60 JUMP JUMPDEST PUSH4 0xFFFFFFFF DUP2 GT PUSH2 0x17BE JUMPI PUSH2 0x14F3 SWAP1 PUSH2 0x1531 DUP4 MLOAD PUSH2 0x1AFB JUMP JUMPDEST PUSH2 0x14F3 SWAP1 PUSH2 0x1547 DUP4 MLOAD PUSH2 0x1A96 JUMP JUMPDEST SWAP1 PUSH2 0x17D5 PUSH2 0x1427 JUMP JUMPDEST POP PUSH1 0x1F DUP2 AND DUP1 PUSH2 0x1803 JUMPI JUMPDEST POP DUP1 PUSH1 0x20 DUP4 ADD MSTORE PUSH1 0x40 MLOAD SWAP1 DUP2 DUP4 MSTORE PUSH0 DUP3 MSTORE DUP2 ADD PUSH1 0x20 ADD SWAP1 DUP2 LT PUSH2 0x16C JUMPI PUSH1 0x40 MSTORE SWAP1 JUMP JUMPDEST PUSH1 0x20 SUB PUSH1 0x20 DUP2 GT PUSH2 0x15F2 JUMPI DUP2 ADD DUP1 SWAP2 GT PUSH2 0x15F2 JUMPI PUSH0 PUSH2 0x17E0 JUMP JUMPDEST SWAP1 PUSH2 0x1826 PUSH2 0x1427 JUMP JUMPDEST POP DUP1 MLOAD SWAP1 PUSH2 0x1832 PUSH2 0x1427 JUMP JUMPDEST POP PUSH2 0x1840 DUP2 MLOAD DUP4 GT ISZERO PUSH2 0x1EB7 JUMP JUMPDEST DUP3 MLOAD MLOAD SWAP2 PUSH2 0x184E DUP2 DUP5 PUSH2 0x1614 JUMP JUMPDEST PUSH1 0x20 SWAP3 PUSH1 0x20 DUP7 ADD MLOAD DUP3 GT PUSH2 0x18CA JUMPI JUMPDEST PUSH1 0x20 SWAP2 DUP7 MLOAD DUP4 DUP2 MLOAD SWAP8 DUP3 ADD ADD SWAP7 DUP3 GT PUSH2 0x18C2 JUMPI JUMPDEST POP POP ADD SWAP2 JUMPDEST DUP1 DUP3 LT ISZERO PUSH2 0x189A JUMPI POP PUSH0 NOT SWAP1 PUSH1 0x20 SUB PUSH2 0x100 EXP ADD SWAP1 DUP2 NOT SWAP1 MLOAD AND SWAP1 DUP3 MLOAD AND OR SWAP1 MSTORE SWAP1 JUMP JUMPDEST SWAP1 SWAP2 SWAP3 PUSH2 0x18B6 PUSH2 0x18B0 PUSH2 0x18BC SWAP3 DUP7 MLOAD DUP2 MSTORE PUSH2 0x1606 JUMP JUMPDEST SWAP5 PUSH2 0x1606 JUMP JUMPDEST SWAP3 PUSH2 0x16AD JUMP JUMPDEST SWAP1 PUSH2 0x1876 JUMP JUMPDEST MSTORE PUSH0 DUP1 PUSH2 0x1871 JUMP JUMPDEST PUSH2 0x18DC PUSH2 0x18D6 DUP4 PUSH2 0x18E1 JUMP JUMPDEST DUP8 PUSH2 0x1F69 JUMP JUMPDEST PUSH2 0x185D JUMP JUMPDEST SWAP1 DUP2 PUSH1 0x1 SHL SWAP2 DUP1 DUP4 DIV PUSH1 0x2 EQ SWAP1 ISZERO OR ISZERO PUSH2 0x15F2 JUMPI JUMP JUMPDEST PUSH2 0x18FF PUSH2 0x1427 JUMP JUMPDEST POP DUP1 MLOAD MLOAD PUSH1 0x1 DUP2 ADD SWAP1 DUP2 DUP2 GT PUSH2 0x15F2 JUMPI PUSH1 0x20 DUP4 ADD MLOAD DUP2 LT ISZERO PUSH2 0x1938 JUMPI JUMPDEST PUSH1 0x7B PUSH1 0x20 DUP5 MLOAD SWAP3 DUP4 ADD ADD MSTORE8 DUP1 MLOAD DUP3 GT PUSH2 0x1934 JUMPI POP POP SWAP1 JUMP JUMPDEST MSTORE SWAP1 JUMP JUMPDEST DUP2 PUSH1 0x1 SHL DUP3 DUP2 DIV PUSH1 0x2 EQ DUP4 ISZERO OR ISZERO PUSH2 0x15F2 JUMPI PUSH2 0x1961 SWAP1 PUSH2 0x195A DUP6 MLOAD SWAP2 DUP7 PUSH2 0x17CC JUMP JUMPDEST POP DUP5 PUSH2 0x181D JUMP JUMPDEST POP PUSH2 0x191C JUMP JUMPDEST PUSH2 0x196F PUSH2 0x1427 JUMP JUMPDEST POP DUP1 MLOAD MLOAD PUSH1 0x1 DUP2 ADD SWAP1 DUP2 DUP2 GT PUSH2 0x15F2 JUMPI PUSH1 0x20 DUP4 ADD MLOAD DUP2 LT ISZERO PUSH2 0x19A4 JUMPI JUMPDEST PUSH1 0x7A PUSH1 0x20 DUP5 MLOAD SWAP3 DUP4 ADD ADD MSTORE8 DUP1 MLOAD DUP3 GT PUSH2 0x1934 JUMPI POP POP SWAP1 JUMP JUMPDEST DUP2 PUSH1 0x1 SHL DUP3 DUP2 DIV PUSH1 0x2 EQ DUP4 ISZERO OR ISZERO PUSH2 0x15F2 JUMPI PUSH2 0x19C6 SWAP1 PUSH2 0x195A DUP6 MLOAD SWAP2 DUP7 PUSH2 0x17CC JUMP JUMPDEST POP PUSH2 0x198C JUMP JUMPDEST PUSH2 0x19D4 PUSH2 0x1427 JUMP JUMPDEST POP DUP1 MLOAD MLOAD PUSH1 0x1 DUP2 ADD SWAP1 DUP2 DUP2 GT PUSH2 0x15F2 JUMPI PUSH1 0x20 DUP4 ADD MLOAD DUP2 LT ISZERO PUSH2 0x1A09 JUMPI JUMPDEST PUSH1 0x79 PUSH1 0x20 DUP5 MLOAD SWAP3 DUP4 ADD ADD MSTORE8 DUP1 MLOAD DUP3 GT PUSH2 0x1934 JUMPI POP POP SWAP1 JUMP JUMPDEST DUP2 PUSH1 0x1 SHL DUP3 DUP2 DIV PUSH1 0x2 EQ DUP4 ISZERO OR ISZERO PUSH2 0x15F2 JUMPI PUSH2 0x1A2B SWAP1 PUSH2 0x195A DUP6 MLOAD SWAP2 DUP7 PUSH2 0x17CC JUMP JUMPDEST POP PUSH2 0x19F1 JUMP JUMPDEST PUSH2 0x1A39 PUSH2 0x1427 JUMP JUMPDEST POP DUP1 MLOAD MLOAD PUSH1 0x1 DUP2 ADD SWAP1 DUP2 DUP2 GT PUSH2 0x15F2 JUMPI PUSH1 0x20 DUP4 ADD MLOAD DUP2 LT ISZERO PUSH2 0x1A6E JUMPI JUMPDEST PUSH1 0x78 PUSH1 0x20 DUP5 MLOAD SWAP3 DUP4 ADD ADD MSTORE8 DUP1 MLOAD DUP3 GT PUSH2 0x1934 JUMPI POP POP SWAP1 JUMP JUMPDEST DUP2 PUSH1 0x1 SHL DUP3 DUP2 DIV PUSH1 0x2 EQ DUP4 ISZERO OR ISZERO PUSH2 0x15F2 JUMPI PUSH2 0x1A90 SWAP1 PUSH2 0x195A DUP6 MLOAD SWAP2 DUP7 PUSH2 0x17CC JUMP JUMPDEST POP PUSH2 0x1A56 JUMP JUMPDEST PUSH2 0x1A9E PUSH2 0x1427 JUMP JUMPDEST POP DUP1 MLOAD MLOAD PUSH1 0x1 DUP2 ADD SWAP1 DUP2 DUP2 GT PUSH2 0x15F2 JUMPI PUSH1 0x20 DUP4 ADD MLOAD DUP2 LT ISZERO PUSH2 0x1AD3 JUMPI JUMPDEST PUSH1 0x5B PUSH1 0x20 DUP5 MLOAD SWAP3 DUP4 ADD ADD MSTORE8 DUP1 MLOAD DUP3 GT PUSH2 0x1934 JUMPI POP POP SWAP1 JUMP JUMPDEST DUP2 PUSH1 0x1 SHL DUP3 DUP2 DIV PUSH1 0x2 EQ DUP4 ISZERO OR ISZERO PUSH2 0x15F2 JUMPI PUSH2 0x1AF5 SWAP1 PUSH2 0x195A DUP6 MLOAD SWAP2 DUP7 PUSH2 0x17CC JUMP JUMPDEST POP PUSH2 0x1ABB JUMP JUMPDEST PUSH2 0x1B03 PUSH2 0x1427 JUMP JUMPDEST POP DUP1 MLOAD MLOAD PUSH1 0x1 DUP2 ADD SWAP1 DUP2 DUP2 GT PUSH2 0x15F2 JUMPI PUSH1 0x20 DUP4 ADD MLOAD DUP2 LT ISZERO PUSH2 0x1B38 JUMPI JUMPDEST PUSH1 0x5A PUSH1 0x20 DUP5 MLOAD SWAP3 DUP4 ADD ADD MSTORE8 DUP1 MLOAD DUP3 GT PUSH2 0x1934 JUMPI POP POP SWAP1 JUMP JUMPDEST DUP2 PUSH1 0x1 SHL DUP3 DUP2 DIV PUSH1 0x2 EQ DUP4 ISZERO OR ISZERO PUSH2 0x15F2 JUMPI PUSH2 0x1B5A SWAP1 PUSH2 0x195A DUP6 MLOAD SWAP2 DUP7 PUSH2 0x17CC JUMP JUMPDEST POP PUSH2 0x1B20 JUMP JUMPDEST PUSH2 0x1B68 PUSH2 0x1427 JUMP JUMPDEST POP DUP1 MLOAD MLOAD PUSH1 0x1 DUP2 ADD SWAP1 DUP2 DUP2 GT PUSH2 0x15F2 JUMPI PUSH1 0x20 DUP4 ADD MLOAD DUP2 LT ISZERO PUSH2 0x1B9D JUMPI JUMPDEST PUSH1 0x59 PUSH1 0x20 DUP5 MLOAD SWAP3 DUP4 ADD ADD MSTORE8 DUP1 MLOAD DUP3 GT PUSH2 0x1934 JUMPI POP POP SWAP1 JUMP JUMPDEST DUP2 PUSH1 0x1 SHL DUP3 DUP2 DIV PUSH1 0x2 EQ DUP4 ISZERO OR ISZERO PUSH2 0x15F2 JUMPI PUSH2 0x1BBF SWAP1 PUSH2 0x195A DUP6 MLOAD SWAP2 DUP7 PUSH2 0x17CC JUMP JUMPDEST POP PUSH2 0x1B85 JUMP JUMPDEST PUSH2 0x1BCD PUSH2 0x1427 JUMP JUMPDEST POP DUP1 MLOAD MLOAD PUSH1 0x1 DUP2 ADD SWAP1 DUP2 DUP2 GT PUSH2 0x15F2 JUMPI PUSH1 0x20 DUP4 ADD MLOAD DUP2 LT ISZERO PUSH2 0x1C02 JUMPI JUMPDEST PUSH1 0x58 PUSH1 0x20 DUP5 MLOAD SWAP3 DUP4 ADD ADD MSTORE8 DUP1 MLOAD DUP3 GT PUSH2 0x1934 JUMPI POP POP SWAP1 JUMP JUMPDEST DUP2 PUSH1 0x1 SHL DUP3 DUP2 DIV PUSH1 0x2 EQ DUP4 ISZERO OR ISZERO PUSH2 0x15F2 JUMPI PUSH2 0x1C24 SWAP1 PUSH2 0x195A DUP6 MLOAD SWAP2 DUP7 PUSH2 0x17CC JUMP JUMPDEST POP PUSH2 0x1BEA JUMP JUMPDEST PUSH2 0x1C32 PUSH2 0x1427 JUMP JUMPDEST POP DUP1 MLOAD MLOAD PUSH1 0x1 DUP2 ADD SWAP1 DUP2 DUP2 GT PUSH2 0x15F2 JUMPI PUSH1 0x20 DUP4 ADD MLOAD DUP2 LT ISZERO PUSH2 0x1C66 JUMPI JUMPDEST PUSH0 PUSH1 0x20 DUP5 MLOAD SWAP3 DUP4 ADD ADD MSTORE8 DUP1 MLOAD DUP3 GT PUSH2 0x1934 JUMPI POP POP SWAP1 JUMP JUMPDEST DUP2 PUSH1 0x1 SHL DUP3 DUP2 DIV PUSH1 0x2 EQ DUP4 ISZERO OR ISZERO PUSH2 0x15F2 JUMPI PUSH2 0x1C88 SWAP1 PUSH2 0x195A DUP6 MLOAD SWAP2 DUP7 PUSH2 0x17CC JUMP JUMPDEST POP PUSH2 0x1C4F JUMP JUMPDEST SWAP1 PUSH2 0x1C97 PUSH2 0x1427 JUMP JUMPDEST POP DUP2 MLOAD MLOAD PUSH1 0x1 DUP2 ADD SWAP2 DUP3 DUP3 GT PUSH2 0x15F2 JUMPI PUSH1 0x20 DUP5 ADD MLOAD DUP3 LT ISZERO PUSH2 0x1CCA JUMPI JUMPDEST PUSH1 0x20 DUP5 MLOAD SWAP3 DUP4 ADD ADD MSTORE8 DUP1 MLOAD DUP3 GT PUSH2 0x1934 JUMPI POP POP SWAP1 JUMP JUMPDEST DUP3 PUSH1 0x1 SHL DUP4 DUP2 DIV PUSH1 0x2 EQ DUP5 ISZERO OR ISZERO PUSH2 0x15F2 JUMPI PUSH2 0x1CF3 SWAP1 PUSH2 0x1CEC DUP7 MLOAD SWAP2 DUP8 PUSH2 0x17CC JUMP JUMPDEST POP DUP6 PUSH2 0x181D JUMP JUMPDEST POP PUSH2 0x1CB4 JUMP JUMPDEST SWAP1 PUSH2 0x1D02 PUSH2 0x1427 JUMP JUMPDEST POP DUP2 MLOAD MLOAD DUP1 PUSH1 0x8 ADD SWAP2 DUP3 PUSH1 0x8 GT PUSH2 0x15F2 JUMPI PUSH1 0x20 DUP5 ADD MLOAD DUP4 GT PUSH2 0x1D44 JUMPI JUMPDEST PUSH1 0x8 DUP5 MLOAD SWAP3 DUP4 ADD ADD SWAP1 PUSH1 0x1 PUSH1 0x1 PUSH1 0x40 SHL SUB NOT DUP3 MLOAD AND OR SWAP1 MSTORE DUP1 MLOAD DUP3 GT PUSH2 0x1934 JUMPI POP POP SWAP1 JUMP JUMPDEST DUP3 PUSH1 0x1 SHL DUP4 DUP2 DIV PUSH1 0x2 EQ DUP5 ISZERO OR ISZERO PUSH2 0x15F2 JUMPI PUSH2 0x1D66 SWAP1 PUSH2 0x1CEC DUP7 MLOAD SWAP2 DUP8 PUSH2 0x17CC JUMP JUMPDEST POP PUSH2 0x1D1F JUMP JUMPDEST SWAP1 PUSH2 0x1D75 PUSH2 0x1427 JUMP JUMPDEST POP DUP2 MLOAD MLOAD DUP1 PUSH1 0x4 ADD SWAP2 DUP3 PUSH1 0x4 GT PUSH2 0x15F2 JUMPI PUSH1 0x20 DUP5 ADD MLOAD DUP4 GT PUSH2 0x1DB4 JUMPI JUMPDEST PUSH1 0x4 DUP5 MLOAD SWAP3 DUP4 ADD ADD SWAP1 PUSH4 0xFFFFFFFF NOT DUP3 MLOAD AND OR SWAP1 MSTORE DUP1 MLOAD DUP3 GT PUSH2 0x1934 JUMPI POP POP SWAP1 JUMP JUMPDEST DUP3 PUSH1 0x1 SHL DUP4 DUP2 DIV PUSH1 0x2 EQ DUP5 ISZERO OR ISZERO PUSH2 0x15F2 JUMPI PUSH2 0x1DD6 SWAP1 PUSH2 0x1CEC DUP7 MLOAD SWAP2 DUP8 PUSH2 0x17CC JUMP JUMPDEST POP PUSH2 0x1D92 JUMP JUMPDEST SWAP1 PUSH2 0x1DE5 PUSH2 0x1427 JUMP JUMPDEST POP DUP2 MLOAD MLOAD DUP1 PUSH1 0x2 ADD SWAP2 DUP3 PUSH1 0x2 GT PUSH2 0x15F2 JUMPI PUSH1 0x20 DUP5 ADD MLOAD DUP4 GT PUSH2 0x1E22 JUMPI JUMPDEST PUSH1 0x2 DUP5 MLOAD SWAP3 DUP4 ADD ADD SWAP1 PUSH2 0xFFFF NOT DUP3 MLOAD AND OR SWAP1 MSTORE DUP1 MLOAD DUP3 GT PUSH2 0x1934 JUMPI POP POP SWAP1 JUMP JUMPDEST DUP3 PUSH1 0x1 SHL DUP4 DUP2 DIV PUSH1 0x2 EQ DUP5 ISZERO OR ISZERO PUSH2 0x15F2 JUMPI PUSH2 0x1E44 SWAP1 PUSH2 0x1CEC DUP7 MLOAD SWAP2 DUP8 PUSH2 0x17CC JUMP JUMPDEST POP PUSH2 0x1E02 JUMP JUMPDEST SWAP1 PUSH2 0x1E53 PUSH2 0x1427 JUMP JUMPDEST POP DUP2 MLOAD MLOAD DUP1 PUSH1 0x1 ADD SWAP2 DUP3 PUSH1 0x1 GT PUSH2 0x15F2 JUMPI PUSH1 0x20 DUP5 ADD MLOAD DUP4 GT PUSH2 0x1E8F JUMPI JUMPDEST PUSH1 0x1 DUP5 MLOAD SWAP3 DUP4 ADD ADD SWAP1 PUSH1 0xFF NOT DUP3 MLOAD AND OR SWAP1 MSTORE DUP1 MLOAD DUP3 GT PUSH2 0x1934 JUMPI POP POP SWAP1 JUMP JUMPDEST DUP3 PUSH1 0x1 SHL DUP4 DUP2 DIV PUSH1 0x2 EQ DUP5 ISZERO OR ISZERO PUSH2 0x15F2 JUMPI PUSH2 0x1EB1 SWAP1 PUSH2 0x1CEC DUP7 MLOAD SWAP2 DUP8 PUSH2 0x17CC JUMP JUMPDEST POP PUSH2 0x1E70 JUMP JUMPDEST ISZERO PUSH2 0x16C JUMPI JUMP JUMPDEST SWAP2 SWAP1 PUSH2 0x1EC8 PUSH2 0x1427 JUMP JUMPDEST POP PUSH2 0x1ED6 DUP2 MLOAD DUP4 GT ISZERO PUSH2 0x1EB7 JUMP JUMPDEST DUP3 MLOAD MLOAD SWAP2 PUSH1 0x20 PUSH2 0x1EE6 DUP3 DUP6 PUSH2 0x1614 JUMP JUMPDEST SWAP3 DUP2 SWAP4 DUP3 DUP8 ADD MLOAD DUP2 GT PUSH2 0x1F52 JUMPI JUMPDEST DUP7 MLOAD DUP4 DUP2 MLOAD SWAP8 DUP3 ADD ADD SWAP7 DUP3 GT PUSH2 0x1F4A JUMPI JUMPDEST POP POP ADD SWAP2 JUMPDEST DUP1 DUP3 LT ISZERO PUSH2 0x1F2E JUMPI POP PUSH0 NOT SWAP1 PUSH1 0x20 SUB PUSH2 0x100 EXP ADD SWAP1 DUP2 NOT SWAP1 MLOAD AND SWAP1 DUP3 MLOAD AND OR SWAP1 MSTORE SWAP1 JUMP JUMPDEST SWAP1 SWAP2 SWAP3 PUSH2 0x18B6 PUSH2 0x18B0 PUSH2 0x1F44 SWAP3 DUP7 MLOAD DUP2 MSTORE PUSH2 0x1606 JUMP JUMPDEST SWAP1 PUSH2 0x1F0A JUMP JUMPDEST MSTORE PUSH0 DUP1 PUSH2 0x1F05 JUMP JUMPDEST PUSH2 0x1F64 PUSH2 0x1F5E DUP3 PUSH2 0x18E1 JUMP JUMPDEST DUP9 PUSH2 0x1F69 JUMP JUMPDEST PUSH2 0x1EF4 JUMP JUMPDEST SWAP1 PUSH2 0x14D1 SWAP2 PUSH2 0x1F7A DUP2 MLOAD SWAP3 DUP3 PUSH2 0x17CC JUMP JUMPDEST POP PUSH2 0x181D JUMP INVALID LOG2 PUSH5 0x6970667358 0x22 SLT KECCAK256 0xE2 SWAP3 0xCF 0xB3 0x4C SWAP4 0xBC BLOCKHASH SMOD JUMPDEST CREATE2 0x2D 0x27 SWAP14 EXTCODECOPY 0xFC 0xDB DIV 0xE8 0xF6 0x21 RETURNDATASIZE JUMP 0x24 PUSH27 0xC184B5C9F394C464736F6C63430008180033000000000000000000 "},"gasEstimates":{"creation":{"codeDepositCost":"1623600","executionCost":"infinite","totalCost":"infinite"},"external":{"acceptOwnership()":"54579","donId()":"2524","errors(bytes32)":"infinite","gasLimit()":"2643","getError(bytes32)":"infinite","getSpec(bytes32)":"infinite","handleOracleFulfillment(bytes32,bytes,bytes)":"infinite","latestRequestId()":"2326","latestSpec()":"infinite","owner()":"2525","parsedSpecs(bytes32)":"infinite","requesters(bytes32)":"2651","sendParseRequest(string,string[],bytes)":"infinite","subscriptionId()":"2300","transferOwnership(address)":"30585","updateDonId(bytes32)":"24581","updateGasLimit(uint32)":"26693","updateSubscription(uint64)":"26568"},"internal":{"fulfillRequest(bytes32,bytes memory,bytes memory)":"infinite"}},"methodIdentifiers":{"acceptOwnership()":"79ba5097","donId()":"8dbe7b9d","errors(bytes32)":"be41cee3","gasLimit()":"f68016b7","getError(bytes32)":"945a6698","getSpec(bytes32)":"1f87a3b5","handleOracleFulfillment(bytes32,bytes,bytes)":"0ca76175","latestRequestId()":"1aa46f59","latestSpec()":"60341518","owner()":"8da5cb5b","parsedSpecs(bytes32)":"6a634a98","requesters(bytes32)":"9eb04ecc","sendParseRequest(string,string[],bytes)":"82bcf9e0","subscriptionId()":"09c1ba2e","transferOwnership(address)":"f2fde38b","updateDonId(bytes32)":"6df0c747","updateGasLimit(uint32)":"34303bcd","updateSubscription(uint64)":"06c3e132"}},"storageLayout":{"storage":[{"astId":816,"contract":"contracts/evm/src/FunctionsConsumer.sol:FunctionsConsumer","label":"s_owner","offset":0,"slot":"0","type":"t_address"},{"astId":818,"contract":"contracts/evm/src/FunctionsConsumer.sol:FunctionsConsumer","label":"s_pendingOwner","offset":0,"slot":"1","type":"t_address"},{"astId":2299,"contract":"contracts/evm/src/FunctionsConsumer.sol:FunctionsConsumer","label":"donId","offset":0,"slot":"2","type":"t_bytes32"},{"astId":2301,"contract":"contracts/evm/src/FunctionsConsumer.sol:FunctionsConsumer","label":"subscriptionId","offset":0,"slot":"3","type":"t_uint64"},{"astId":2304,"contract":"contracts/evm/src/FunctionsConsumer.sol:FunctionsConsumer","label":"gasLimit","offset":8,"slot":"3","type":"t_uint32"},{"astId":2308,"contract":"contracts/evm/src/FunctionsConsumer.sol:FunctionsConsumer","label":"requesters","offset":0,"slot":"4","type":"t_mapping(t_bytes32,t_address)"},{"astId":2312,"contract":"contracts/evm/src/FunctionsConsumer.sol:FunctionsConsumer","label":"parsedSpecs","offset":0,"slot":"5","type":"t_mapping(t_bytes32,t_string_storage)"},{"astId":2316,"contract":"contracts/evm/src/FunctionsConsumer.sol:FunctionsConsumer","label":"errors","offset":0,"slot":"6","type":"t_mapping(t_bytes32,t_bytes_storage)"},{"astId":2318,"contract":"contracts/evm/src/FunctionsConsumer.sol:FunctionsConsumer","label":"latestRequestId","offset":0,"slot":"7","type":"t_bytes32"},{"astId":2320,"contract":"contracts/evm/src/FunctionsConsumer.sol:FunctionsConsumer","label":"latestSpec","offset":0,"slot":"8","type":"t_string_storage"}],"types":{"t_address":{"encoding":"inplace","label":"address","numberOfBytes":"20"},"t_bytes32":{"encoding":"inplace","label":"bytes32","numberOfBytes":"32"},"t_bytes_storage":{"encoding":"bytes","label":"bytes","numberOfBytes":"32"},"t_mapping(t_bytes32,t_address)":{"encoding":"mapping","key":"t_bytes32","label":"mapping(bytes32 => address)","numberOfBytes":"32","value":"t_address"},"t_mapping(t_bytes32,t_bytes_storage)":{"encoding":"mapping","key":"t_bytes32","label":"mapping(bytes32 => bytes)","numberOfBytes":"32","value":"t_bytes_storage"},"t_mapping(t_bytes32,t_string_storage)":{"encoding":"mapping","key":"t_bytes32","label":"mapping(bytes32 => string)","numberOfBytes":"32","value":"t_string_storage"},"t_string_storage":{"encoding":"bytes","label":"string","numberOfBytes":"32"},"t_uint32":{"encoding":"inplace","label":"uint32","numberOfBytes":"4"},"t_uint64":{"encoding":"inplace","label":"uint64","numberOfBytes":"8"}}},"userdoc":{"kind":"user","methods":{"acceptOwnership()":{"notice":"Allows an ownership transfer to be completed by the recipient."},"handleOracleFulfillment(bytes32,bytes,bytes)":{"notice":"Chainlink Functions response handler called by the Functions Router during fullilment from the designated transmitter node in an OCR round."},"owner()":{"notice":"Get the current owner"},"transferOwnership(address)":{"notice":"Allows an owner to begin transferring ownership to a new address."}},"version":1}}}}