{"@chainlink/contracts/src/v0.8/functions/v1_0_0/libraries/FunctionsRequest.sol":{"FunctionsRequest":{"abi":[{"inputs":[],"name":"EmptyArgs","type":"error"},{"inputs":[],"name":"EmptySecrets","type":"error"},{"inputs":[],"name":"EmptySource","type":"error"},{"inputs":[],"name":"NoInlineSecrets","type":"error"},{"inputs":[],"name":"REQUEST_DATA_VERSION","outputs":[{"internalType":"uint16","name":"","type":"uint16"}],"stateMutability":"view","type":"function"}],"devdoc":{"kind":"dev","methods":{},"title":"Library for encoding the input data of a Functions request into CBOR","version":1},"evm":{"bytecode":{"linkReferences":{},"object":"608080604052346018576070908161001d823930815050f35b5f80fdfe60808060405260043610156011575f80fd5b5f3560e01c635d641dfc146023575f80fd5b5f36600319011260365780600160209252f35b5f80fdfea26469706673582212209ce15ca6a54ef3c5a7008b7329b88e290afbae5d5a84d23fe2efc17aecca4a8864736f6c63430008180033","opcodes":"PUSH1 0x80 DUP1 PUSH1 0x40 MSTORE CALLVALUE PUSH1 0x18 JUMPI PUSH1 0x70 SWAP1 DUP2 PUSH2 0x1D DUP3 CODECOPY ADDRESS DUP2 POP POP RETURN JUMPDEST PUSH0 DUP1 REVERT INVALID PUSH1 0x80 DUP1 PUSH1 0x40 MSTORE PUSH1 0x4 CALLDATASIZE LT ISZERO PUSH1 0x11 JUMPI PUSH0 DUP1 REVERT JUMPDEST PUSH0 CALLDATALOAD PUSH1 0xE0 SHR PUSH4 0x5D641DFC EQ PUSH1 0x23 JUMPI PUSH0 DUP1 REVERT JUMPDEST PUSH0 CALLDATASIZE PUSH1 0x3 NOT ADD SLT PUSH1 0x36 JUMPI DUP1 PUSH1 0x1 PUSH1 0x20 SWAP3 MSTORE RETURN JUMPDEST PUSH0 DUP1 REVERT INVALID LOG2 PUSH5 0x6970667358 0x22 SLT KECCAK256 SWAP13 0xE1 TLOAD 0xA6 0xA5 0x4E RETURN 0xC5 0xA7 STOP DUP12 PUSH20 0x29B88E290AFBAE5D5A84D23FE2EFC17AECCA4A88 PUSH5 0x736F6C6343 STOP ADDMOD XOR STOP CALLER "},"gasEstimates":{"creation":{"codeDepositCost":"22400","executionCost":"infinite","totalCost":"infinite"},"external":{"REQUEST_DATA_VERSION()":"127"},"internal":{"addDONHostedSecrets(struct FunctionsRequest.Request memory,uint8,uint64)":"infinite","addSecretsReference(struct FunctionsRequest.Request memory,bytes memory)":"infinite","encodeCBOR(struct FunctionsRequest.Request memory)":"infinite","initializeRequest(struct FunctionsRequest.Request memory,enum FunctionsRequest.Location,enum FunctionsRequest.CodeLanguage,string memory)":"infinite","initializeRequestForInlineJavaScript(struct FunctionsRequest.Request memory,string memory)":"infinite","setArgs(struct FunctionsRequest.Request memory,string memory[] memory)":"infinite","setBytesArgs(struct FunctionsRequest.Request memory,bytes memory[] memory)":"infinite"}},"methodIdentifiers":{"REQUEST_DATA_VERSION()":"5d641dfc"}},"storageLayout":{"storage":[],"types":null},"userdoc":{"kind":"user","methods":{},"version":1}}}}