{"contracts/TrustRegistry.sol":{"TrustRegistry":{"abi":[{"inputs":[],"stateMutability":"nonpayable","type":"constructor"},{"inputs":[{"internalType":"address","name":"sender","type":"address"},{"internalType":"uint256","name":"tokenId","type":"uint256"},{"internalType":"address","name":"owner","type":"address"}],"name":"ERC721IncorrectOwner","type":"error"},{"inputs":[{"internalType":"address","name":"operator","type":"address"},{"internalType":"uint256","name":"tokenId","type":"uint256"}],"name":"ERC721InsufficientApproval","type":"error"},{"inputs":[{"internalType":"address","name":"approver","type":"address"}],"name":"ERC721InvalidApprover","type":"error"},{"inputs":[{"internalType":"address","name":"operator","type":"address"}],"name":"ERC721InvalidOperator","type":"error"},{"inputs":[{"internalType":"address","name":"owner","type":"address"}],"name":"ERC721InvalidOwner","type":"error"},{"inputs":[{"internalType":"address","name":"receiver","type":"address"}],"name":"ERC721InvalidReceiver","type":"error"},{"inputs":[{"internalType":"address","name":"sender","type":"address"}],"name":"ERC721InvalidSender","type":"error"},{"inputs":[{"internalType":"uint256","name":"tokenId","type":"uint256"}],"name":"ERC721NonexistentToken","type":"error"},{"inputs":[{"internalType":"address","name":"owner","type":"address"}],"name":"OwnableInvalidOwner","type":"error"},{"inputs":[{"internalType":"address","name":"account","type":"address"}],"name":"OwnableUnauthorizedAccount","type":"error"},{"inputs":[],"name":"ReentrancyGuardReentrantCall","type":"error"},{"anonymous":false,"inputs":[{"indexed":true,"internalType":"uint256","name":"tokenId","type":"uint256"},{"indexed":true,"internalType":"string","name":"agentId","type":"string"},{"indexed":true,"internalType":"address","name":"operator","type":"address"},{"indexed":false,"internalType":"bytes32","name":"modelHash","type":"bytes32"},{"indexed":false,"internalType":"uint256","name":"trustScore","type":"uint256"}],"name":"AgentRegistered","type":"event"},{"anonymous":false,"inputs":[{"indexed":true,"internalType":"address","name":"owner","type":"address"},{"indexed":true,"internalType":"address","name":"approved","type":"address"},{"indexed":true,"internalType":"uint256","name":"tokenId","type":"uint256"}],"name":"Approval","type":"event"},{"anonymous":false,"inputs":[{"indexed":true,"internalType":"address","name":"owner","type":"address"},{"indexed":true,"internalType":"address","name":"operator","type":"address"},{"indexed":false,"internalType":"bool","name":"approved","type":"bool"}],"name":"ApprovalForAll","type":"event"},{"anonymous":false,"inputs":[{"indexed":false,"internalType":"uint256","name":"_fromTokenId","type":"uint256"},{"indexed":false,"internalType":"uint256","name":"_toTokenId","type":"uint256"}],"name":"BatchMetadataUpdate","type":"event"},{"anonymous":false,"inputs":[{"indexed":true,"internalType":"uint256","name":"tokenId","type":"uint256"},{"indexed":false,"internalType":"string","name":"reason","type":"string"}],"name":"CredentialRevoked","type":"event"},{"anonymous":false,"inputs":[{"indexed":false,"internalType":"uint256","name":"_tokenId","type":"uint256"}],"name":"MetadataUpdate","type":"event"},{"anonymous":false,"inputs":[{"indexed":true,"internalType":"address","name":"previousOwner","type":"address"},{"indexed":true,"internalType":"address","name":"newOwner","type":"address"}],"name":"OwnershipTransferred","type":"event"},{"anonymous":false,"inputs":[{"indexed":true,"internalType":"uint256","name":"tokenId","type":"uint256"},{"indexed":false,"internalType":"uint256","name":"oldScore","type":"uint256"},{"indexed":false,"internalType":"uint256","name":"newScore","type":"uint256"},{"indexed":false,"internalType":"string","name":"reason","type":"string"}],"name":"ScoreUpdated","type":"event"},{"anonymous":false,"inputs":[{"indexed":true,"internalType":"address","name":"from","type":"address"},{"indexed":true,"internalType":"address","name":"to","type":"address"},{"indexed":true,"internalType":"uint256","name":"tokenId","type":"uint256"}],"name":"Transfer","type":"event"},{"inputs":[{"internalType":"address","name":"to","type":"address"},{"internalType":"uint256","name":"tokenId","type":"uint256"}],"name":"approve","outputs":[],"stateMutability":"nonpayable","type":"function"},{"inputs":[{"internalType":"address","name":"owner","type":"address"}],"name":"balanceOf","outputs":[{"internalType":"uint256","name":"","type":"uint256"}],"stateMutability":"view","type":"function"},{"inputs":[{"internalType":"address","name":"operator","type":"address"}],"name":"getAgentsByOperator","outputs":[{"internalType":"uint256[]","name":"","type":"uint256[]"}],"stateMutability":"view","type":"function"},{"inputs":[{"internalType":"uint256","name":"tokenId","type":"uint256"}],"name":"getApproved","outputs":[{"internalType":"address","name":"","type":"address"}],"stateMutability":"view","type":"function"},{"inputs":[{"internalType":"address","name":"owner","type":"address"},{"internalType":"address","name":"operator","type":"address"}],"name":"isApprovedForAll","outputs":[{"internalType":"bool","name":"","type":"bool"}],"stateMutability":"view","type":"function"},{"inputs":[{"internalType":"string","name":"agentId","type":"string"},{"internalType":"address","name":"operator","type":"address"}],"name":"isRegistered","outputs":[{"internalType":"bool","name":"","type":"bool"}],"stateMutability":"view","type":"function"},{"inputs":[{"internalType":"string","name":"agentId","type":"string"},{"internalType":"bytes32","name":"modelHash","type":"bytes32"},{"internalType":"address","name":"operator","type":"address"},{"internalType":"bytes32","name":"capabilityHash","type":"bytes32"},{"internalType":"string","name":"metadataURI","type":"string"}],"name":"mintCredential","outputs":[{"internalType":"uint256","name":"tokenId","type":"uint256"}],"stateMutability":"nonpayable","type":"function"},{"inputs":[],"name":"name","outputs":[{"internalType":"string","name":"","type":"string"}],"stateMutability":"view","type":"function"},{"inputs":[],"name":"owner","outputs":[{"internalType":"address","name":"","type":"address"}],"stateMutability":"view","type":"function"},{"inputs":[{"internalType":"uint256","name":"tokenId","type":"uint256"}],"name":"ownerOf","outputs":[{"internalType":"address","name":"","type":"address"}],"stateMutability":"view","type":"function"},{"inputs":[],"name":"renounceOwnership","outputs":[],"stateMutability":"nonpayable","type":"function"},{"inputs":[{"internalType":"uint256","name":"tokenId","type":"uint256"},{"internalType":"string","name":"reason","type":"string"}],"name":"revokeCredential","outputs":[],"stateMutability":"nonpayable","type":"function"},{"inputs":[{"internalType":"address","name":"from","type":"address"},{"internalType":"address","name":"to","type":"address"},{"internalType":"uint256","name":"tokenId","type":"uint256"}],"name":"safeTransferFrom","outputs":[],"stateMutability":"nonpayable","type":"function"},{"inputs":[{"internalType":"address","name":"from","type":"address"},{"internalType":"address","name":"to","type":"address"},{"internalType":"uint256","name":"tokenId","type":"uint256"},{"internalType":"bytes","name":"data","type":"bytes"}],"name":"safeTransferFrom","outputs":[],"stateMutability":"nonpayable","type":"function"},{"inputs":[{"internalType":"address","name":"operator","type":"address"},{"internalType":"bool","name":"approved","type":"bool"}],"name":"setApprovalForAll","outputs":[],"stateMutability":"nonpayable","type":"function"},{"inputs":[{"internalType":"bytes4","name":"interfaceId","type":"bytes4"}],"name":"supportsInterface","outputs":[{"internalType":"bool","name":"","type":"bool"}],"stateMutability":"view","type":"function"},{"inputs":[],"name":"symbol","outputs":[{"internalType":"string","name":"","type":"string"}],"stateMutability":"view","type":"function"},{"inputs":[{"internalType":"uint256","name":"tokenId","type":"uint256"}],"name":"tokenURI","outputs":[{"internalType":"string","name":"","type":"string"}],"stateMutability":"view","type":"function"},{"inputs":[],"name":"totalSupply","outputs":[{"internalType":"uint256","name":"","type":"uint256"}],"stateMutability":"view","type":"function"},{"inputs":[{"internalType":"address","name":"from","type":"address"},{"internalType":"address","name":"to","type":"address"},{"internalType":"uint256","name":"tokenId","type":"uint256"}],"name":"transferFrom","outputs":[],"stateMutability":"nonpayable","type":"function"},{"inputs":[{"internalType":"address","name":"newOwner","type":"address"}],"name":"transferOwnership","outputs":[],"stateMutability":"nonpayable","type":"function"},{"inputs":[{"internalType":"uint256","name":"tokenId","type":"uint256"},{"internalType":"uint256","name":"newScore","type":"uint256"},{"internalType":"string","name":"reason","type":"string"}],"name":"updateScore","outputs":[],"stateMutability":"nonpayable","type":"function"},{"inputs":[{"internalType":"uint256","name":"tokenId","type":"uint256"}],"name":"verifyAgent","outputs":[{"components":[{"internalType":"string","name":"agentId","type":"string"},{"internalType":"bytes32","name":"modelHash","type":"bytes32"},{"internalType":"address","name":"operator","type":"address"},{"internalType":"bytes32","name":"capabilityHash","type":"bytes32"},{"internalType":"string","name":"metadataURI","type":"string"},{"internalType":"uint256","name":"trustScore","type":"uint256"},{"internalType":"uint256","name":"mintedAt","type":"uint256"},{"internalType":"bool","name":"isRevoked","type":"bool"}],"internalType":"struct IERC8004.AgentRecord","name":"","type":"tuple"}],"stateMutability":"view","type":"function"}],"evm":{"bytecode":{"linkReferences":{},"object":"608034620003a2576001600160401b0390604090808201838111828210176200038e5782526019815260207f5472757374426f78204167656e742043726564656e7469616c0000000000000081830152825193838501858110828211176200038e578452600491828652635442414360e01b818701528351908282116200029a575f54916001958684811c9416801562000383575b8385101462000370578190601f948581116200031d575b508390858311600114620002b9575f92620002ad575b50505f19600383901b1c191690861b175f555b86519283116200029a5784548581811c911680156200028f575b828210146200027c5782811162000234575b5080918311600114620001cc575081929394955f92620001c0575b50505f19600383901b1c191690831b1782555b3315620001aa575060078054336001600160a01b0319821681179092559251926001600160a01b03167f8be0079c531659141344cd1fd0a4f28419497f9722a3daafe3b4186f6b6457e05f80a37f9b779b17422d0df92223018b32b4d1fa46e071723d6817e2486d003becc55f0055611e339081620003a78239f35b6024905f845191631e4fbdf760e01b8352820152fd5b015190505f806200011b565b90601f19831696855f52825f20925f905b8982106200021c575050838697989695961062000203575b505050811b0182556200012e565b01515f1960f88460031b161c191690555f8080620001f5565b808885968294968601518155019501930190620001dd565b855f52815f208380860160051c82019284871062000272575b0160051c019086905b8281106200026657505062000100565b5f815501869062000256565b925081926200024d565b602285634e487b7160e01b5f525260245ffd5b90607f1690620000ee565b604184634e487b7160e01b5f525260245ffd5b015190505f80620000c1565b90889350601f198316915f8052855f20925f5b87828210620003065750508411620002ed575b505050811b015f55620000d4565b01515f1960f88460031b161c191690555f8080620002df565b8385015186558c97909501949384019301620002cc565b9091505f8052835f208580850160051c82019286861062000366575b918a91869594930160051c01915b82811062000357575050620000ab565b5f81558594508a910162000347565b9250819262000339565b602286634e487b7160e01b5f525260245ffd5b93607f169362000094565b634e487b7160e01b5f52604160045260245ffd5b5f80fdfe6080806040526004361015610012575f80fd5b5f3560e01c90816301ffc9a7146116715750806306fdde03146115ca578063081812fc1461158e578063095ea7b3146114ad57806318160ddd1461149057806323b872dd146114795780633a08a4e31461130457806342842e0e146112d75780636352211e146112a757806370a0823114611251578063715018a6146111f657806372ae3e8f146111485780638da5cb5b146111205780639563f04614610fc6578063957a320514610eb657806395d89b4114610dd8578063a22cb46514610d10578063b88d4fde14610ca3578063bd290b8114610c4a578063c87b56dd14610c13578063e985e9c514610bc1578063f2fde38b14610b3a5763fc7d519b14610119575f80fd5b346109695760a0366003190112610969576004356001600160401b0381116109695761014990369060040161179d565b6044356001600160a01b0381169003610969576084356001600160401b0381116109695761017b90369060040161179d565b610186929192611c47565b60027f9b779b17422d0df92223018b32b4d1fa46e071723d6817e2486d003becc55f005414610b285760027f9b779b17422d0df92223018b32b4d1fa46e071723d6817e2486d003becc55f00558115610ae35760243515610a9e576044356001600160a01b031615610a59578015610a15576102056044358386611dbd565b90815f52600a60205260405f20546109c057600854935f1985146105e65760018501600855604051610236816117e6565b5f808252868152600260205260409020546001600160a01b03168061098d575b6044356001600160a01b03165f818152600360209081526040808320805460010190558a83526002909152812080546001600160a01b0319168317905588919083907fddf252ad1be2c89b69c2b068fc378daa952ba7f163c4a11628f55a4df523b3ef9080a4610975576044353b610835575b506102d536838361183d565b855f52600660205260405f20908051906001600160401b0382116105d2576102fd8354611873565b601f81116107f4575b50602090601f8311600114610789576103a4949392915f918361077e575b50508160011b915f199060031b1c19161790555b7ff8e1a15aba9398e019f0b49df1a4fde98ee17ae345cb5f6b5e2c27f5033e8ce76020604051888152a16040519261036f846117ca565b61037a36878a61183d565b845260243560208501526044356001600160a01b031660408501526064356060850152369161183d565b6080820152604660a08201524260c08201525f60e0820152835f52600960205260405f209080518051906001600160401b0382116105d25781906103e88554611873565b601f8111610731575b50602090601f83116001146106c9575f926106be575b50508160011b915f199060031b1c19161782555b602081015160018301556002820160018060a01b036040830151166001600160601b0360a01b8254161790556060810151600383015560808101518051906001600160401b0382116105d2576104746004850154611873565b601f811161067a575b50602090601f831160011461060557928260079360e0936104e297965f926105fa575b50508160011b915f199060031b1c19161760048501555b60a0810151600585015560c081015160068501550151151591019060ff801983541691151516179055565b6001830183116105e6575f52600a6020526001820160405f205560018060a01b03604435165f52600b60205260405f2092835493680100000000000000008510156105d257600185018082558510156105be5760209484915f52855f20015581604051928392833781015f8152039020604051906024358252604684830152827f7d9dfb3cd351ca1044601356d8559bf079c6d8f22ff7561105c17c50a65d840a604060018060a01b036044351694a460017f9b779b17422d0df92223018b32b4d1fa46e071723d6817e2486d003becc55f0055604051908152f35b634e487b7160e01b5f52603260045260245ffd5b634e487b7160e01b5f52604160045260245ffd5b634e487b7160e01b5f52601160045260245ffd5b015190505f806104a0565b90600485015f5260205f20915f5b601f198516811061066257508360e0936104e2979693600193600797601f1981161061064a575b505050811b0160048501556104b7565b01515f1960f88460031b161c191690555f808061063a565b91926020600181928685015181550194019201610613565b600485015f5260205f20601f840160051c8101602085106106b7575b601f830160051c820181106106ac57505061047d565b5f8155600101610696565b5080610696565b015190505f80610407565b9250845f5260205f20905f935b601f1984168510610716576001945083601f198116106106fe575b505050811b01825561041b565b01515f1960f88460031b161c191690555f80806106f1565b818101518355602094850194600190930192909101906106d6565b909150845f5260205f20601f840160051c810160208510610777575b90849392915b601f830160051c820181106107695750506103f1565b5f8155859450600101610753565b508061074d565b015190505f80610324565b90835f5260205f20915f5b601f19851681106107dc57509183916001936103a4979695601f198116106107c4575b505050811b019055610338565b01515f1960f88460031b161c191690555f80806107b7565b91926020600181928685015181550194019201610794565b835f5260205f20601f840160051c81016020851061082e575b601f830160051c82018110610823575050610306565b5f815560010161080d565b508061080d565b602061086f9160405180938192630a85bd0160e11b83523360048401525f60248401528a6044840152608060648401526084830190611717565b03815f6044356001600160a01b03165af15f918161092c575b506108ec573d156108e5573d61089d81611822565b906108ab6040519283611801565b81523d5f602083013e5b805190816108e057604051633250574960e11b81526044356001600160a01b03166004820152602490fd5b602001fd5b60606108b5565b6001600160e01b03191663757a42ff60e11b01610909575f6102c9565b604051633250574960e11b81526044356001600160a01b03166004820152602490fd5b9091506020813d60201161096d575b8161094860209383611801565b8101031261096957516001600160e01b03198116810361096957905f610888565b5f80fd5b3d915061093b565b6040516339e3563760e11b81525f6004820152602490fd5b5f87815260046020526040902080546001600160a01b0319169055805f52600360205260405f205f198154019055610256565b60405162461bcd60e51b815260206004820152602760248201527f547275737452656769737472793a206167656e7420616c7265616479207265676044820152661a5cdd195c995960ca1b6064820152608490fd5b606460405162461bcd60e51b815260206004820152602060248201527f547275737452656769737472793a20656d707479206d657461646174615552496044820152fd5b60405162461bcd60e51b815260206004820152601c60248201527f547275737452656769737472793a207a65726f206f70657261746f72000000006044820152606490fd5b60405162461bcd60e51b815260206004820152601e60248201527f547275737452656769737472793a20656d707479206d6f64656c4861736800006044820152606490fd5b60405162461bcd60e51b815260206004820152601c60248201527f547275737452656769737472793a20656d707479206167656e744964000000006044820152606490fd5b604051633ee5aeb560e01b8152600490fd5b3461096957602036600319011261096957610b5361173c565b610b5b611c47565b6001600160a01b03908116908115610ba957600754826001600160601b0360a01b821617600755167f8be0079c531659141344cd1fd0a4f28419497f9722a3daafe3b4186f6b6457e05f80a3005b604051631e4fbdf760e01b81525f6004820152602490fd5b3461096957604036600319011261096957610bda61173c565b610be2611752565b9060018060a01b038091165f52600560205260405f2091165f52602052602060ff60405f2054166040519015158152f35b3461096957602036600319011261096957610c46610c32600435611b5b565b604051918291602083526020830190611717565b0390f35b34610969576040366003190112610969576004356001600160401b03811161096957610c7d610c8b91369060040161179d565b610c85611752565b91611dbd565b5f52600a602052602060405f20541515604051908152f35b3461096957608036600319011261096957610cbc61173c565b610cc4611752565b90604435606435926001600160401b038411610969573660238501121561096957610cfc610d0e94369060248160040135910161183d565b92610d0883838361194d565b33611c73565b005b3461096957604036600319011261096957610d2961173c565b6024359081151590818303610969573315610dc0576001600160a01b0316918215610da757610d7990335f52600560205260405f20845f5260205260405f209060ff801983541691151516179055565b6040519081527f17307eab39ab6107e8899845ad3d59bd9653f200f220920489ca2b5937696c3160203392a3005b604051630b61174360e31b815260048101849052602490fd5b60405163a9fbf51f60e01b81525f6004820152602490fd5b34610969575f366003190112610969576040515f60018260015492610dfc84611873565b92838352602094856001821691825f14610e96575050600114610e3b575b50610e2792500383611801565b610c46604051928284938452830190611717565b84915060015f527fb10e2d527612073b26eecdfd717e6a320cf44b4afac2b0732d9fcbe2b7fa0cf6905f915b858310610e7e575050610e27935082010185610e1a565b80548389018501528794508693909201918101610e67565b60ff191685820152610e2795151560051b8501019250879150610e1a9050565b34610969576040366003190112610969576004356024356001600160401b03811161096957610ee990369060040161179d565b610ef4929192611c47565b815f5260209260028452610f1560018060a01b0360405f2054161515611ae3565b825f526009845260ff600760405f20015416610f815792610f7c83947f37ec22acf5d9778ea37b449f7834d99acb0c9632e381d2ceba59480d79ca91a7945f5260098352600760405f2001600160ff19825416179055604051938385948552840191611b3b565b0390a2005b60405162461bcd60e51b815260048101859052601e60248201527f547275737452656769737472793a20616c7265616479207265766f6b656400006044820152606490fd5b3461096957602080600319360112610969576110e2906004355f60e0604051610fee816117ca565b606081528285820152826040820152826060820152606060808201528260a08201528260c08201520152805f526002825260018060a01b03906110388260405f2054161515611ae3565b5f526009825260405f209160405192611050846117ca565b611059816118ab565b8452600181015490828501918252611108846002830154169260408701938452600383015460608801908152611091600485016118ab565b906080890191825260058501549760a08a0198895260ff600760068801549760c08d019889520154169660e08b0197151588526040519b8c9b8a8d52518c6101009b8c9101526101208d0190611717565b945160408c0152511660608a015251608089015251878203601f190160a0890152611717565b935160c08601525160e0850152511515908301520390f35b34610969575f366003190112610969576007546040516001600160a01b039091168152602090f35b3461096957602080600319360112610969576001600160a01b0361116a61173c565b165f52600b815260405f20604051908183825491828152019081925f52845f20905f5b868282106111e25786866111a382880383611801565b60405192839281840190828552518091526040840192915f5b8281106111cb57505050500390f35b8351855286955093810193928101926001016111bc565b83548552909301926001928301920161118d565b34610969575f3660031901126109695761120e611c47565b600780546001600160a01b031981169091555f906001600160a01b03167f8be0079c531659141344cd1fd0a4f28419497f9722a3daafe3b4186f6b6457e08280a3005b34610969576020366003190112610969576001600160a01b0361127261173c565b16801561128f575f526003602052602060405f2054604051908152f35b6040516322718ad960e21b81525f6004820152602490fd5b346109695760203660031901126109695760206112c5600435611c0d565b6040516001600160a01b039091168152f35b3461096957610d0e6112e836611768565b90604051926112f6846117e6565b5f8452610d0883838361194d565b34610969576060366003190112610969576004356024356044356001600160401b0381116109695761133a90369060040161179d565b9190611344611c47565b835f526020926002845261136560018060a01b0360405f2054161515611ae3565b845f526009845260ff600760405f2001541661142a57606483116113db577fb7c84712665df0d714e505c1f4a18ed67ba3f194d661239118f437f02be654ea939291610f7c91865f5260098552600560405f20019380855495556040519586958652850152606060408501526060840191611b3b565b60405162461bcd60e51b815260048101859052602160248201527f547275737452656769737472793a2073636f7265206f7574206f662072616e676044820152606560f81b6064820152608490fd5b60405162461bcd60e51b815260048101859052602160248201527f547275737452656769737472793a2063726564656e7469616c207265766f6b656044820152601960fa1b6064820152608490fd5b3461096957610d0e61148a36611768565b9161194d565b34610969575f366003190112610969576020600854604051908152f35b34610969576040366003190112610969576114c661173c565b6024356114d281611c0d565b3315158061157b575b80611552575b61153a576001600160a01b039283169282918491167f8c5be1e5ebec7d5bd14f71427d1e84f3dd0314c0f7b2291e5b200ac8c7c3b9255f80a45f90815260046020526040902080546001600160a01b0319169091179055005b60405163a9fbf51f60e01b8152336004820152602490fd5b5060018060a01b0381165f52600560205260405f20335f5260205260ff60405f205416156114e1565b506001600160a01b0381163314156114db565b34610969576020366003190112610969576004356115ab81611c0d565b505f526004602052602060018060a01b0360405f205416604051908152f35b34610969575f366003190112610969576040515f805490826115eb83611873565b91828252602093600190856001821691825f14610e965750506001146116185750610e2792500383611801565b5f808052859250907f290decd9548b62a8d60345a988386fc84ba6bc95484008f6362f93160ef3e5635b858310611659575050610e27935082010185610e1a565b80548389018501528794508693909201918101611642565b34610969576020366003190112610969576004359063ffffffff60e01b821680920361096957602091632483248360e11b81149081156116b3575b5015158152f35b6380ac58cd60e01b8114915081156116e5575b81156116d4575b50836116ac565b6301ffc9a760e01b149050836116cd565b635b5e139f60e01b811491506116c6565b5f5b8381106117075750505f910152565b81810151838201526020016116f8565b90602091611730815180928185528580860191016116f6565b601f01601f1916010190565b600435906001600160a01b038216820361096957565b602435906001600160a01b038216820361096957565b6060906003190112610969576001600160a01b0390600435828116810361096957916024359081168103610969579060443590565b9181601f84011215610969578235916001600160401b038311610969576020838186019501011161096957565b61010081019081106001600160401b038211176105d257604052565b602081019081106001600160401b038211176105d257604052565b90601f801991011681019081106001600160401b038211176105d257604052565b6001600160401b0381116105d257601f01601f191660200190565b92919261184982611822565b916118576040519384611801565b829481845281830111610969578281602093845f960137010152565b90600182811c921680156118a1575b602083101461188d57565b634e487b7160e01b5f52602260045260245ffd5b91607f1691611882565b9060405191825f82546118bd81611873565b908184526020946001916001811690815f1461192b57506001146118ed575b5050506118eb92500383611801565b565b5f90815285812095935091905b8183106119135750506118eb93508201015f80806118dc565b855488840185015294850194879450918301916118fa565b925050506118eb94925060ff191682840152151560051b8201015f80806118dc565b6001600160a01b039182169290918315611acb57815f52602092600284528260409583875f2054169533151580611a39575b5060029087611a08575b825f5260038152885f2060018154019055835f5252865f20816001600160601b0360a01b825416179055857fddf252ad1be2c89b69c2b068fc378daa952ba7f163c4a11628f55a4df523b3ef5f80a416928383036119e75750505050565b6064945051926364283d7b60e01b8452600484015260248301526044820152fd5b5f84815260046020526040812080546001600160a01b03191690558881526003825289902080545f19019055611989565b9192509080611a8a575b15611a51579084915f61197f565b868587611a6e576024915190637e27328960e01b82526004820152fd5b604491519063177e802f60e01b82523360048301526024820152fd5b503386148015611aaf575b80611a435750845f52600481523384885f20541614611a43565b50855f5260058152865f20335f52815260ff875f205416611a95565b604051633250574960e11b81525f6004820152602490fd5b15611aea57565b60405162461bcd60e51b815260206004820152602360248201527f547275737452656769737472793a20746f6b656e20646f6573206e6f742065786044820152621a5cdd60ea1b6064820152608490fd5b908060209392818452848401375f828201840152601f01601f1916010190565b611b6481611c0d565b5060405190611b72826117e6565b5f8252805f52602060068152611b8a60405f206118ab565b928051938415611c05578051611bc857505050611ba79150611c0d565b505f604051611bb5816117e6565b52604051611bc2816117e6565b5f815290565b611c02935084611be26040519687948680870191016116f6565b8201611bf6825180938680850191016116f6565b01038084520182611801565b90565b935050505090565b5f818152600260205260409020546001600160a01b0316908115611c2f575090565b60249060405190637e27328960e01b82526004820152fd5b6007546001600160a01b03163303611c5b57565b60405163118cdaa760e01b8152336004820152602490fd5b9293909193843b611c86575b5050505050565b604051630a85bd0160e11b8082526001600160a01b039586166004830152938516602482015260448101919091526080606482015260209594909316939290859082908190611cd9906084830190611717565b03815f885af15f9181611d7d575b50611d46575050503d5f14611d3e573d91611d0183611822565b92611d0f6040519485611801565b83523d5f8285013e5b82519283611d3957604051633250574960e11b815260048101849052602490fd5b019050fd5b606091611d18565b9193506001600160e01b031990911603611d6557505f80808080611c7f565b60249060405190633250574960e11b82526004820152fd5b9091508581813d8311611db6575b611d958183611801565b8101031261096957516001600160e01b03198116810361096957905f611ce7565b503d611d8b565b91906034611df79160405193818592602084019788378201906001600160601b03199060601b166020820152036014810184520182611801565b5190209056fea2646970667358221220ef680cfeb699c7ae4729c7c6d318813ab9638cba2d4931a451e7acb8e0db046964736f6c63430008180033","opcodes":"PUSH1 0x80 CALLVALUE PUSH3 0x3A2 JUMPI PUSH1 0x1 PUSH1 0x1 PUSH1 0x40 SHL SUB SWAP1 PUSH1 0x40 SWAP1 DUP1 DUP3 ADD DUP4 DUP2 GT DUP3 DUP3 LT OR PUSH3 0x38E JUMPI DUP3 MSTORE PUSH1 0x19 DUP2 MSTORE PUSH1 0x20 PUSH32 0x5472757374426F78204167656E742043726564656E7469616C00000000000000 DUP2 DUP4 ADD MSTORE DUP3 MLOAD SWAP4 DUP4 DUP6 ADD DUP6 DUP2 LT DUP3 DUP3 GT OR PUSH3 0x38E JUMPI DUP5 MSTORE PUSH1 0x4 SWAP2 DUP3 DUP7 MSTORE PUSH4 0x54424143 PUSH1 0xE0 SHL DUP2 DUP8 ADD MSTORE DUP4 MLOAD SWAP1 DUP3 DUP3 GT PUSH3 0x29A JUMPI PUSH0 SLOAD SWAP2 PUSH1 0x1 SWAP6 DUP7 DUP5 DUP2 SHR SWAP5 AND DUP1 ISZERO PUSH3 0x383 JUMPI JUMPDEST DUP4 DUP6 LT EQ PUSH3 0x370 JUMPI DUP2 SWAP1 PUSH1 0x1F SWAP5 DUP6 DUP2 GT PUSH3 0x31D JUMPI JUMPDEST POP DUP4 SWAP1 DUP6 DUP4 GT PUSH1 0x1 EQ PUSH3 0x2B9 JUMPI PUSH0 SWAP3 PUSH3 0x2AD JUMPI JUMPDEST POP POP PUSH0 NOT PUSH1 0x3 DUP4 SWAP1 SHL SHR NOT AND SWAP1 DUP7 SHL OR PUSH0 SSTORE JUMPDEST DUP7 MLOAD SWAP3 DUP4 GT PUSH3 0x29A JUMPI DUP5 SLOAD DUP6 DUP2 DUP2 SHR SWAP2 AND DUP1 ISZERO PUSH3 0x28F JUMPI JUMPDEST DUP3 DUP3 LT EQ PUSH3 0x27C JUMPI DUP3 DUP2 GT PUSH3 0x234 JUMPI JUMPDEST POP DUP1 SWAP2 DUP4 GT PUSH1 0x1 EQ PUSH3 0x1CC JUMPI POP DUP2 SWAP3 SWAP4 SWAP5 SWAP6 PUSH0 SWAP3 PUSH3 0x1C0 JUMPI JUMPDEST POP POP PUSH0 NOT PUSH1 0x3 DUP4 SWAP1 SHL SHR NOT AND SWAP1 DUP4 SHL OR DUP3 SSTORE JUMPDEST CALLER ISZERO PUSH3 0x1AA JUMPI POP PUSH1 0x7 DUP1 SLOAD CALLER PUSH1 0x1 PUSH1 0x1 PUSH1 0xA0 SHL SUB NOT DUP3 AND DUP2 OR SWAP1 SWAP3 SSTORE SWAP3 MLOAD SWAP3 PUSH1 0x1 PUSH1 0x1 PUSH1 0xA0 SHL SUB AND PUSH32 0x8BE0079C531659141344CD1FD0A4F28419497F9722A3DAAFE3B4186F6B6457E0 PUSH0 DUP1 LOG3 PUSH32 0x9B779B17422D0DF92223018B32B4D1FA46E071723D6817E2486D003BECC55F00 SSTORE PUSH2 0x1E33 SWAP1 DUP2 PUSH3 0x3A7 DUP3 CODECOPY RETURN JUMPDEST PUSH1 0x24 SWAP1 PUSH0 DUP5 MLOAD SWAP2 PUSH4 0x1E4FBDF7 PUSH1 0xE0 SHL DUP4 MSTORE DUP3 ADD MSTORE REVERT JUMPDEST ADD MLOAD SWAP1 POP PUSH0 DUP1 PUSH3 0x11B JUMP JUMPDEST SWAP1 PUSH1 0x1F NOT DUP4 AND SWAP7 DUP6 PUSH0 MSTORE DUP3 PUSH0 KECCAK256 SWAP3 PUSH0 SWAP1 JUMPDEST DUP10 DUP3 LT PUSH3 0x21C JUMPI POP POP DUP4 DUP7 SWAP8 SWAP9 SWAP7 SWAP6 SWAP7 LT PUSH3 0x203 JUMPI JUMPDEST POP POP POP DUP2 SHL ADD DUP3 SSTORE PUSH3 0x12E JUMP JUMPDEST ADD MLOAD PUSH0 NOT PUSH1 0xF8 DUP5 PUSH1 0x3 SHL AND SHR NOT AND SWAP1 SSTORE PUSH0 DUP1 DUP1 PUSH3 0x1F5 JUMP JUMPDEST DUP1 DUP9 DUP6 SWAP7 DUP3 SWAP5 SWAP7 DUP7 ADD MLOAD DUP2 SSTORE ADD SWAP6 ADD SWAP4 ADD SWAP1 PUSH3 0x1DD JUMP JUMPDEST DUP6 PUSH0 MSTORE DUP2 PUSH0 KECCAK256 DUP4 DUP1 DUP7 ADD PUSH1 0x5 SHR DUP3 ADD SWAP3 DUP5 DUP8 LT PUSH3 0x272 JUMPI JUMPDEST ADD PUSH1 0x5 SHR ADD SWAP1 DUP7 SWAP1 JUMPDEST DUP3 DUP2 LT PUSH3 0x266 JUMPI POP POP PUSH3 0x100 JUMP JUMPDEST PUSH0 DUP2 SSTORE ADD DUP7 SWAP1 PUSH3 0x256 JUMP JUMPDEST SWAP3 POP DUP2 SWAP3 PUSH3 0x24D JUMP JUMPDEST PUSH1 0x22 DUP6 PUSH4 0x4E487B71 PUSH1 0xE0 SHL PUSH0 MSTORE MSTORE PUSH1 0x24 PUSH0 REVERT JUMPDEST SWAP1 PUSH1 0x7F AND SWAP1 PUSH3 0xEE JUMP JUMPDEST PUSH1 0x41 DUP5 PUSH4 0x4E487B71 PUSH1 0xE0 SHL PUSH0 MSTORE MSTORE PUSH1 0x24 PUSH0 REVERT JUMPDEST ADD MLOAD SWAP1 POP PUSH0 DUP1 PUSH3 0xC1 JUMP JUMPDEST SWAP1 DUP9 SWAP4 POP PUSH1 0x1F NOT DUP4 AND SWAP2 PUSH0 DUP1 MSTORE DUP6 PUSH0 KECCAK256 SWAP3 PUSH0 JUMPDEST DUP8 DUP3 DUP3 LT PUSH3 0x306 JUMPI POP POP DUP5 GT PUSH3 0x2ED JUMPI JUMPDEST POP POP POP DUP2 SHL ADD PUSH0 SSTORE PUSH3 0xD4 JUMP JUMPDEST ADD MLOAD PUSH0 NOT PUSH1 0xF8 DUP5 PUSH1 0x3 SHL AND SHR NOT AND SWAP1 SSTORE PUSH0 DUP1 DUP1 PUSH3 0x2DF JUMP JUMPDEST DUP4 DUP6 ADD MLOAD DUP7 SSTORE DUP13 SWAP8 SWAP1 SWAP6 ADD SWAP5 SWAP4 DUP5 ADD SWAP4 ADD PUSH3 0x2CC JUMP JUMPDEST SWAP1 SWAP2 POP PUSH0 DUP1 MSTORE DUP4 PUSH0 KECCAK256 DUP6 DUP1 DUP6 ADD PUSH1 0x5 SHR DUP3 ADD SWAP3 DUP7 DUP7 LT PUSH3 0x366 JUMPI JUMPDEST SWAP2 DUP11 SWAP2 DUP7 SWAP6 SWAP5 SWAP4 ADD PUSH1 0x5 SHR ADD SWAP2 JUMPDEST DUP3 DUP2 LT PUSH3 0x357 JUMPI POP POP PUSH3 0xAB JUMP JUMPDEST PUSH0 DUP2 SSTORE DUP6 SWAP5 POP DUP11 SWAP2 ADD PUSH3 0x347 JUMP JUMPDEST SWAP3 POP DUP2 SWAP3 PUSH3 0x339 JUMP JUMPDEST PUSH1 0x22 DUP7 PUSH4 0x4E487B71 PUSH1 0xE0 SHL PUSH0 MSTORE MSTORE PUSH1 0x24 PUSH0 REVERT JUMPDEST SWAP4 PUSH1 0x7F AND SWAP4 PUSH3 0x94 JUMP JUMPDEST PUSH4 0x4E487B71 PUSH1 0xE0 SHL PUSH0 MSTORE PUSH1 0x41 PUSH1 0x4 MSTORE PUSH1 0x24 PUSH0 REVERT JUMPDEST PUSH0 DUP1 REVERT INVALID PUSH1 0x80 DUP1 PUSH1 0x40 MSTORE PUSH1 0x4 CALLDATASIZE LT ISZERO PUSH2 0x12 JUMPI PUSH0 DUP1 REVERT JUMPDEST PUSH0 CALLDATALOAD PUSH1 0xE0 SHR SWAP1 DUP2 PUSH4 0x1FFC9A7 EQ PUSH2 0x1671 JUMPI POP DUP1 PUSH4 0x6FDDE03 EQ PUSH2 0x15CA JUMPI DUP1 PUSH4 0x81812FC EQ PUSH2 0x158E JUMPI DUP1 PUSH4 0x95EA7B3 EQ PUSH2 0x14AD JUMPI DUP1 PUSH4 0x18160DDD EQ PUSH2 0x1490 JUMPI DUP1 PUSH4 0x23B872DD EQ PUSH2 0x1479 JUMPI DUP1 PUSH4 0x3A08A4E3 EQ PUSH2 0x1304 JUMPI DUP1 PUSH4 0x42842E0E EQ PUSH2 0x12D7 JUMPI DUP1 PUSH4 0x6352211E EQ PUSH2 0x12A7 JUMPI DUP1 PUSH4 0x70A08231 EQ PUSH2 0x1251 JUMPI DUP1 PUSH4 0x715018A6 EQ PUSH2 0x11F6 JUMPI DUP1 PUSH4 0x72AE3E8F EQ PUSH2 0x1148 JUMPI DUP1 PUSH4 0x8DA5CB5B EQ PUSH2 0x1120 JUMPI DUP1 PUSH4 0x9563F046 EQ PUSH2 0xFC6 JUMPI DUP1 PUSH4 0x957A3205 EQ PUSH2 0xEB6 JUMPI DUP1 PUSH4 0x95D89B41 EQ PUSH2 0xDD8 JUMPI DUP1 PUSH4 0xA22CB465 EQ PUSH2 0xD10 JUMPI DUP1 PUSH4 0xB88D4FDE EQ PUSH2 0xCA3 JUMPI DUP1 PUSH4 0xBD290B81 EQ PUSH2 0xC4A JUMPI DUP1 PUSH4 0xC87B56DD EQ PUSH2 0xC13 JUMPI DUP1 PUSH4 0xE985E9C5 EQ PUSH2 0xBC1 JUMPI DUP1 PUSH4 0xF2FDE38B EQ PUSH2 0xB3A JUMPI PUSH4 0xFC7D519B EQ PUSH2 0x119 JUMPI PUSH0 DUP1 REVERT JUMPDEST CALLVALUE PUSH2 0x969 JUMPI PUSH1 0xA0 CALLDATASIZE PUSH1 0x3 NOT ADD SLT PUSH2 0x969 JUMPI PUSH1 0x4 CALLDATALOAD PUSH1 0x1 PUSH1 0x1 PUSH1 0x40 SHL SUB DUP2 GT PUSH2 0x969 JUMPI PUSH2 0x149 SWAP1 CALLDATASIZE SWAP1 PUSH1 0x4 ADD PUSH2 0x179D JUMP JUMPDEST PUSH1 0x44 CALLDATALOAD PUSH1 0x1 PUSH1 0x1 PUSH1 0xA0 SHL SUB DUP2 AND SWAP1 SUB PUSH2 0x969 JUMPI PUSH1 0x84 CALLDATALOAD PUSH1 0x1 PUSH1 0x1 PUSH1 0x40 SHL SUB DUP2 GT PUSH2 0x969 JUMPI PUSH2 0x17B SWAP1 CALLDATASIZE SWAP1 PUSH1 0x4 ADD PUSH2 0x179D JUMP JUMPDEST PUSH2 0x186 SWAP3 SWAP2 SWAP3 PUSH2 0x1C47 JUMP JUMPDEST PUSH1 0x2 PUSH32 0x9B779B17422D0DF92223018B32B4D1FA46E071723D6817E2486D003BECC55F00 SLOAD EQ PUSH2 0xB28 JUMPI PUSH1 0x2 PUSH32 0x9B779B17422D0DF92223018B32B4D1FA46E071723D6817E2486D003BECC55F00 SSTORE DUP2 ISZERO PUSH2 0xAE3 JUMPI PUSH1 0x24 CALLDATALOAD ISZERO PUSH2 0xA9E JUMPI PUSH1 0x44 CALLDATALOAD PUSH1 0x1 PUSH1 0x1 PUSH1 0xA0 SHL SUB AND ISZERO PUSH2 0xA59 JUMPI DUP1 ISZERO PUSH2 0xA15 JUMPI PUSH2 0x205 PUSH1 0x44 CALLDATALOAD DUP4 DUP7 PUSH2 0x1DBD JUMP JUMPDEST SWAP1 DUP2 PUSH0 MSTORE PUSH1 0xA PUSH1 0x20 MSTORE PUSH1 0x40 PUSH0 KECCAK256 SLOAD PUSH2 0x9C0 JUMPI PUSH1 0x8 SLOAD SWAP4 PUSH0 NOT DUP6 EQ PUSH2 0x5E6 JUMPI PUSH1 0x1 DUP6 ADD PUSH1 0x8 SSTORE PUSH1 0x40 MLOAD PUSH2 0x236 DUP2 PUSH2 0x17E6 JUMP JUMPDEST PUSH0 DUP1 DUP3 MSTORE DUP7 DUP2 MSTORE PUSH1 0x2 PUSH1 0x20 MSTORE PUSH1 0x40 SWAP1 KECCAK256 SLOAD PUSH1 0x1 PUSH1 0x1 PUSH1 0xA0 SHL SUB AND DUP1 PUSH2 0x98D JUMPI JUMPDEST PUSH1 0x44 CALLDATALOAD PUSH1 0x1 PUSH1 0x1 PUSH1 0xA0 SHL SUB AND PUSH0 DUP2 DUP2 MSTORE PUSH1 0x3 PUSH1 0x20 SWAP1 DUP2 MSTORE PUSH1 0x40 DUP1 DUP4 KECCAK256 DUP1 SLOAD PUSH1 0x1 ADD SWAP1 SSTORE DUP11 DUP4 MSTORE PUSH1 0x2 SWAP1 SWAP2 MSTORE DUP2 KECCAK256 DUP1 SLOAD PUSH1 0x1 PUSH1 0x1 PUSH1 0xA0 SHL SUB NOT AND DUP4 OR SWAP1 SSTORE DUP9 SWAP2 SWAP1 DUP4 SWAP1 PUSH32 0xDDF252AD1BE2C89B69C2B068FC378DAA952BA7F163C4A11628F55A4DF523B3EF SWAP1 DUP1 LOG4 PUSH2 0x975 JUMPI PUSH1 0x44 CALLDATALOAD EXTCODESIZE PUSH2 0x835 JUMPI JUMPDEST POP PUSH2 0x2D5 CALLDATASIZE DUP4 DUP4 PUSH2 0x183D JUMP JUMPDEST DUP6 PUSH0 MSTORE PUSH1 0x6 PUSH1 0x20 MSTORE PUSH1 0x40 PUSH0 KECCAK256 SWAP1 DUP1 MLOAD SWAP1 PUSH1 0x1 PUSH1 0x1 PUSH1 0x40 SHL SUB DUP3 GT PUSH2 0x5D2 JUMPI PUSH2 0x2FD DUP4 SLOAD PUSH2 0x1873 JUMP JUMPDEST PUSH1 0x1F DUP2 GT PUSH2 0x7F4 JUMPI JUMPDEST POP PUSH1 0x20 SWAP1 PUSH1 0x1F DUP4 GT PUSH1 0x1 EQ PUSH2 0x789 JUMPI PUSH2 0x3A4 SWAP5 SWAP4 SWAP3 SWAP2 PUSH0 SWAP2 DUP4 PUSH2 0x77E JUMPI JUMPDEST POP POP DUP2 PUSH1 0x1 SHL SWAP2 PUSH0 NOT SWAP1 PUSH1 0x3 SHL SHR NOT AND OR SWAP1 SSTORE JUMPDEST PUSH32 0xF8E1A15ABA9398E019F0B49DF1A4FDE98EE17AE345CB5F6B5E2C27F5033E8CE7 PUSH1 0x20 PUSH1 0x40 MLOAD DUP9 DUP2 MSTORE LOG1 PUSH1 0x40 MLOAD SWAP3 PUSH2 0x36F DUP5 PUSH2 0x17CA JUMP JUMPDEST PUSH2 0x37A CALLDATASIZE DUP8 DUP11 PUSH2 0x183D JUMP JUMPDEST DUP5 MSTORE PUSH1 0x24 CALLDATALOAD PUSH1 0x20 DUP6 ADD MSTORE PUSH1 0x44 CALLDATALOAD PUSH1 0x1 PUSH1 0x1 PUSH1 0xA0 SHL SUB AND PUSH1 0x40 DUP6 ADD MSTORE PUSH1 0x64 CALLDATALOAD PUSH1 0x60 DUP6 ADD MSTORE CALLDATASIZE SWAP2 PUSH2 0x183D JUMP JUMPDEST PUSH1 0x80 DUP3 ADD MSTORE PUSH1 0x46 PUSH1 0xA0 DUP3 ADD MSTORE TIMESTAMP PUSH1 0xC0 DUP3 ADD MSTORE PUSH0 PUSH1 0xE0 DUP3 ADD MSTORE DUP4 PUSH0 MSTORE PUSH1 0x9 PUSH1 0x20 MSTORE PUSH1 0x40 PUSH0 KECCAK256 SWAP1 DUP1 MLOAD DUP1 MLOAD SWAP1 PUSH1 0x1 PUSH1 0x1 PUSH1 0x40 SHL SUB DUP3 GT PUSH2 0x5D2 JUMPI DUP2 SWAP1 PUSH2 0x3E8 DUP6 SLOAD PUSH2 0x1873 JUMP JUMPDEST PUSH1 0x1F DUP2 GT PUSH2 0x731 JUMPI JUMPDEST POP PUSH1 0x20 SWAP1 PUSH1 0x1F DUP4 GT PUSH1 0x1 EQ PUSH2 0x6C9 JUMPI PUSH0 SWAP3 PUSH2 0x6BE JUMPI JUMPDEST POP POP DUP2 PUSH1 0x1 SHL SWAP2 PUSH0 NOT SWAP1 PUSH1 0x3 SHL SHR NOT AND OR DUP3 SSTORE JUMPDEST PUSH1 0x20 DUP2 ADD MLOAD PUSH1 0x1 DUP4 ADD SSTORE PUSH1 0x2 DUP3 ADD PUSH1 0x1 DUP1 PUSH1 0xA0 SHL SUB PUSH1 0x40 DUP4 ADD MLOAD AND PUSH1 0x1 PUSH1 0x1 PUSH1 0x60 SHL SUB PUSH1 0xA0 SHL DUP3 SLOAD AND OR SWAP1 SSTORE PUSH1 0x60 DUP2 ADD MLOAD PUSH1 0x3 DUP4 ADD SSTORE PUSH1 0x80 DUP2 ADD MLOAD DUP1 MLOAD SWAP1 PUSH1 0x1 PUSH1 0x1 PUSH1 0x40 SHL SUB DUP3 GT PUSH2 0x5D2 JUMPI PUSH2 0x474 PUSH1 0x4 DUP6 ADD SLOAD PUSH2 0x1873 JUMP JUMPDEST PUSH1 0x1F DUP2 GT PUSH2 0x67A JUMPI JUMPDEST POP PUSH1 0x20 SWAP1 PUSH1 0x1F DUP4 GT PUSH1 0x1 EQ PUSH2 0x605 JUMPI SWAP3 DUP3 PUSH1 0x7 SWAP4 PUSH1 0xE0 SWAP4 PUSH2 0x4E2 SWAP8 SWAP7 PUSH0 SWAP3 PUSH2 0x5FA JUMPI JUMPDEST POP POP DUP2 PUSH1 0x1 SHL SWAP2 PUSH0 NOT SWAP1 PUSH1 0x3 SHL SHR NOT AND OR PUSH1 0x4 DUP6 ADD SSTORE JUMPDEST PUSH1 0xA0 DUP2 ADD MLOAD PUSH1 0x5 DUP6 ADD SSTORE PUSH1 0xC0 DUP2 ADD MLOAD PUSH1 0x6 DUP6 ADD SSTORE ADD MLOAD ISZERO ISZERO SWAP2 ADD SWAP1 PUSH1 0xFF DUP1 NOT DUP4 SLOAD AND SWAP2 ISZERO ISZERO AND OR SWAP1 SSTORE JUMP JUMPDEST PUSH1 0x1 DUP4 ADD DUP4 GT PUSH2 0x5E6 JUMPI PUSH0 MSTORE PUSH1 0xA PUSH1 0x20 MSTORE PUSH1 0x1 DUP3 ADD PUSH1 0x40 PUSH0 KECCAK256 SSTORE PUSH1 0x1 DUP1 PUSH1 0xA0 SHL SUB PUSH1 0x44 CALLDATALOAD AND PUSH0 MSTORE PUSH1 0xB PUSH1 0x20 MSTORE PUSH1 0x40 PUSH0 KECCAK256 SWAP3 DUP4 SLOAD SWAP4 PUSH9 0x10000000000000000 DUP6 LT ISZERO PUSH2 0x5D2 JUMPI PUSH1 0x1 DUP6 ADD DUP1 DUP3 SSTORE DUP6 LT ISZERO PUSH2 0x5BE JUMPI PUSH1 0x20 SWAP5 DUP5 SWAP2 PUSH0 MSTORE DUP6 PUSH0 KECCAK256 ADD SSTORE DUP2 PUSH1 0x40 MLOAD SWAP3 DUP4 SWAP3 DUP4 CALLDATACOPY DUP2 ADD PUSH0 DUP2 MSTORE SUB SWAP1 KECCAK256 PUSH1 0x40 MLOAD SWAP1 PUSH1 0x24 CALLDATALOAD DUP3 MSTORE PUSH1 0x46 DUP5 DUP4 ADD MSTORE DUP3 PUSH32 0x7D9DFB3CD351CA1044601356D8559BF079C6D8F22FF7561105C17C50A65D840A PUSH1 0x40 PUSH1 0x1 DUP1 PUSH1 0xA0 SHL SUB PUSH1 0x44 CALLDATALOAD AND SWAP5 LOG4 PUSH1 0x1 PUSH32 0x9B779B17422D0DF92223018B32B4D1FA46E071723D6817E2486D003BECC55F00 SSTORE PUSH1 0x40 MLOAD SWAP1 DUP2 MSTORE RETURN JUMPDEST PUSH4 0x4E487B71 PUSH1 0xE0 SHL PUSH0 MSTORE PUSH1 0x32 PUSH1 0x4 MSTORE PUSH1 0x24 PUSH0 REVERT JUMPDEST PUSH4 0x4E487B71 PUSH1 0xE0 SHL PUSH0 MSTORE PUSH1 0x41 PUSH1 0x4 MSTORE PUSH1 0x24 PUSH0 REVERT JUMPDEST PUSH4 0x4E487B71 PUSH1 0xE0 SHL PUSH0 MSTORE PUSH1 0x11 PUSH1 0x4 MSTORE PUSH1 0x24 PUSH0 REVERT JUMPDEST ADD MLOAD SWAP1 POP PUSH0 DUP1 PUSH2 0x4A0 JUMP JUMPDEST SWAP1 PUSH1 0x4 DUP6 ADD PUSH0 MSTORE PUSH1 0x20 PUSH0 KECCAK256 SWAP2 PUSH0 JUMPDEST PUSH1 0x1F NOT DUP6 AND DUP2 LT PUSH2 0x662 JUMPI POP DUP4 PUSH1 0xE0 SWAP4 PUSH2 0x4E2 SWAP8 SWAP7 SWAP4 PUSH1 0x1 SWAP4 PUSH1 0x7 SWAP8 PUSH1 0x1F NOT DUP2 AND LT PUSH2 0x64A JUMPI JUMPDEST POP POP POP DUP2 SHL ADD PUSH1 0x4 DUP6 ADD SSTORE PUSH2 0x4B7 JUMP JUMPDEST ADD MLOAD PUSH0 NOT PUSH1 0xF8 DUP5 PUSH1 0x3 SHL AND SHR NOT AND SWAP1 SSTORE PUSH0 DUP1 DUP1 PUSH2 0x63A JUMP JUMPDEST SWAP2 SWAP3 PUSH1 0x20 PUSH1 0x1 DUP2 SWAP3 DUP7 DUP6 ADD MLOAD DUP2 SSTORE ADD SWAP5 ADD SWAP3 ADD PUSH2 0x613 JUMP JUMPDEST PUSH1 0x4 DUP6 ADD PUSH0 MSTORE PUSH1 0x20 PUSH0 KECCAK256 PUSH1 0x1F DUP5 ADD PUSH1 0x5 SHR DUP2 ADD PUSH1 0x20 DUP6 LT PUSH2 0x6B7 JUMPI JUMPDEST PUSH1 0x1F DUP4 ADD PUSH1 0x5 SHR DUP3 ADD DUP2 LT PUSH2 0x6AC JUMPI POP POP PUSH2 0x47D JUMP JUMPDEST PUSH0 DUP2 SSTORE PUSH1 0x1 ADD PUSH2 0x696 JUMP JUMPDEST POP DUP1 PUSH2 0x696 JUMP JUMPDEST ADD MLOAD SWAP1 POP PUSH0 DUP1 PUSH2 0x407 JUMP JUMPDEST SWAP3 POP DUP5 PUSH0 MSTORE PUSH1 0x20 PUSH0 KECCAK256 SWAP1 PUSH0 SWAP4 JUMPDEST PUSH1 0x1F NOT DUP5 AND DUP6 LT PUSH2 0x716 JUMPI PUSH1 0x1 SWAP5 POP DUP4 PUSH1 0x1F NOT DUP2 AND LT PUSH2 0x6FE JUMPI JUMPDEST POP POP POP DUP2 SHL ADD DUP3 SSTORE PUSH2 0x41B JUMP JUMPDEST ADD MLOAD PUSH0 NOT PUSH1 0xF8 DUP5 PUSH1 0x3 SHL AND SHR NOT AND SWAP1 SSTORE PUSH0 DUP1 DUP1 PUSH2 0x6F1 JUMP JUMPDEST DUP2 DUP2 ADD MLOAD DUP4 SSTORE PUSH1 0x20 SWAP5 DUP6 ADD SWAP5 PUSH1 0x1 SWAP1 SWAP4 ADD SWAP3 SWAP1 SWAP2 ADD SWAP1 PUSH2 0x6D6 JUMP JUMPDEST SWAP1 SWAP2 POP DUP5 PUSH0 MSTORE PUSH1 0x20 PUSH0 KECCAK256 PUSH1 0x1F DUP5 ADD PUSH1 0x5 SHR DUP2 ADD PUSH1 0x20 DUP6 LT PUSH2 0x777 JUMPI JUMPDEST SWAP1 DUP5 SWAP4 SWAP3 SWAP2 JUMPDEST PUSH1 0x1F DUP4 ADD PUSH1 0x5 SHR DUP3 ADD DUP2 LT PUSH2 0x769 JUMPI POP POP PUSH2 0x3F1 JUMP JUMPDEST PUSH0 DUP2 SSTORE DUP6 SWAP5 POP PUSH1 0x1 ADD PUSH2 0x753 JUMP JUMPDEST POP DUP1 PUSH2 0x74D JUMP JUMPDEST ADD MLOAD SWAP1 POP PUSH0 DUP1 PUSH2 0x324 JUMP JUMPDEST SWAP1 DUP4 PUSH0 MSTORE PUSH1 0x20 PUSH0 KECCAK256 SWAP2 PUSH0 JUMPDEST PUSH1 0x1F NOT DUP6 AND DUP2 LT PUSH2 0x7DC JUMPI POP SWAP2 DUP4 SWAP2 PUSH1 0x1 SWAP4 PUSH2 0x3A4 SWAP8 SWAP7 SWAP6 PUSH1 0x1F NOT DUP2 AND LT PUSH2 0x7C4 JUMPI JUMPDEST POP POP POP DUP2 SHL ADD SWAP1 SSTORE PUSH2 0x338 JUMP JUMPDEST ADD MLOAD PUSH0 NOT PUSH1 0xF8 DUP5 PUSH1 0x3 SHL AND SHR NOT AND SWAP1 SSTORE PUSH0 DUP1 DUP1 PUSH2 0x7B7 JUMP JUMPDEST SWAP2 SWAP3 PUSH1 0x20 PUSH1 0x1 DUP2 SWAP3 DUP7 DUP6 ADD MLOAD DUP2 SSTORE ADD SWAP5 ADD SWAP3 ADD PUSH2 0x794 JUMP JUMPDEST DUP4 PUSH0 MSTORE PUSH1 0x20 PUSH0 KECCAK256 PUSH1 0x1F DUP5 ADD PUSH1 0x5 SHR DUP2 ADD PUSH1 0x20 DUP6 LT PUSH2 0x82E JUMPI JUMPDEST PUSH1 0x1F DUP4 ADD PUSH1 0x5 SHR DUP3 ADD DUP2 LT PUSH2 0x823 JUMPI POP POP PUSH2 0x306 JUMP JUMPDEST PUSH0 DUP2 SSTORE PUSH1 0x1 ADD PUSH2 0x80D JUMP JUMPDEST POP DUP1 PUSH2 0x80D JUMP JUMPDEST PUSH1 0x20 PUSH2 0x86F SWAP2 PUSH1 0x40 MLOAD DUP1 SWAP4 DUP2 SWAP3 PUSH4 0xA85BD01 PUSH1 0xE1 SHL DUP4 MSTORE CALLER PUSH1 0x4 DUP5 ADD MSTORE PUSH0 PUSH1 0x24 DUP5 ADD MSTORE DUP11 PUSH1 0x44 DUP5 ADD MSTORE PUSH1 0x80 PUSH1 0x64 DUP5 ADD MSTORE PUSH1 0x84 DUP4 ADD SWAP1 PUSH2 0x1717 JUMP JUMPDEST SUB DUP2 PUSH0 PUSH1 0x44 CALLDATALOAD PUSH1 0x1 PUSH1 0x1 PUSH1 0xA0 SHL SUB AND GAS CALL PUSH0 SWAP2 DUP2 PUSH2 0x92C JUMPI JUMPDEST POP PUSH2 0x8EC JUMPI RETURNDATASIZE ISZERO PUSH2 0x8E5 JUMPI RETURNDATASIZE PUSH2 0x89D DUP2 PUSH2 0x1822 JUMP JUMPDEST SWAP1 PUSH2 0x8AB PUSH1 0x40 MLOAD SWAP3 DUP4 PUSH2 0x1801 JUMP JUMPDEST DUP2 MSTORE RETURNDATASIZE PUSH0 PUSH1 0x20 DUP4 ADD RETURNDATACOPY JUMPDEST DUP1 MLOAD SWAP1 DUP2 PUSH2 0x8E0 JUMPI PUSH1 0x40 MLOAD PUSH4 0x32505749 PUSH1 0xE1 SHL DUP2 MSTORE PUSH1 0x44 CALLDATALOAD PUSH1 0x1 PUSH1 0x1 PUSH1 0xA0 SHL SUB AND PUSH1 0x4 DUP3 ADD MSTORE PUSH1 0x24 SWAP1 REVERT JUMPDEST PUSH1 0x20 ADD REVERT JUMPDEST PUSH1 0x60 PUSH2 0x8B5 JUMP JUMPDEST PUSH1 0x1 PUSH1 0x1 PUSH1 0xE0 SHL SUB NOT AND PUSH4 0x757A42FF PUSH1 0xE1 SHL ADD PUSH2 0x909 JUMPI PUSH0 PUSH2 0x2C9 JUMP JUMPDEST PUSH1 0x40 MLOAD PUSH4 0x32505749 PUSH1 0xE1 SHL DUP2 MSTORE PUSH1 0x44 CALLDATALOAD PUSH1 0x1 PUSH1 0x1 PUSH1 0xA0 SHL SUB AND PUSH1 0x4 DUP3 ADD MSTORE PUSH1 0x24 SWAP1 REVERT JUMPDEST SWAP1 SWAP2 POP PUSH1 0x20 DUP2 RETURNDATASIZE PUSH1 0x20 GT PUSH2 0x96D JUMPI JUMPDEST DUP2 PUSH2 0x948 PUSH1 0x20 SWAP4 DUP4 PUSH2 0x1801 JUMP JUMPDEST DUP2 ADD SUB SLT PUSH2 0x969 JUMPI MLOAD PUSH1 0x1 PUSH1 0x1 PUSH1 0xE0 SHL SUB NOT DUP2 AND DUP2 SUB PUSH2 0x969 JUMPI SWAP1 PUSH0 PUSH2 0x888 JUMP JUMPDEST PUSH0 DUP1 REVERT JUMPDEST RETURNDATASIZE SWAP2 POP PUSH2 0x93B JUMP JUMPDEST PUSH1 0x40 MLOAD PUSH4 0x39E35637 PUSH1 0xE1 SHL DUP2 MSTORE PUSH0 PUSH1 0x4 DUP3 ADD MSTORE PUSH1 0x24 SWAP1 REVERT JUMPDEST PUSH0 DUP8 DUP2 MSTORE PUSH1 0x4 PUSH1 0x20 MSTORE PUSH1 0x40 SWAP1 KECCAK256 DUP1 SLOAD PUSH1 0x1 PUSH1 0x1 PUSH1 0xA0 SHL SUB NOT AND SWAP1 SSTORE DUP1 PUSH0 MSTORE PUSH1 0x3 PUSH1 0x20 MSTORE PUSH1 0x40 PUSH0 KECCAK256 PUSH0 NOT DUP2 SLOAD ADD SWAP1 SSTORE PUSH2 0x256 JUMP JUMPDEST PUSH1 0x40 MLOAD PUSH3 0x461BCD PUSH1 0xE5 SHL DUP2 MSTORE PUSH1 0x20 PUSH1 0x4 DUP3 ADD MSTORE PUSH1 0x27 PUSH1 0x24 DUP3 ADD MSTORE PUSH32 0x547275737452656769737472793A206167656E7420616C726561647920726567 PUSH1 0x44 DUP3 ADD MSTORE PUSH7 0x1A5CDD195C9959 PUSH1 0xCA SHL PUSH1 0x64 DUP3 ADD MSTORE PUSH1 0x84 SWAP1 REVERT JUMPDEST PUSH1 0x64 PUSH1 0x40 MLOAD PUSH3 0x461BCD PUSH1 0xE5 SHL DUP2 MSTORE PUSH1 0x20 PUSH1 0x4 DUP3 ADD MSTORE PUSH1 0x20 PUSH1 0x24 DUP3 ADD MSTORE PUSH32 0x547275737452656769737472793A20656D707479206D65746164617461555249 PUSH1 0x44 DUP3 ADD MSTORE REVERT JUMPDEST PUSH1 0x40 MLOAD PUSH3 0x461BCD PUSH1 0xE5 SHL DUP2 MSTORE PUSH1 0x20 PUSH1 0x4 DUP3 ADD MSTORE PUSH1 0x1C PUSH1 0x24 DUP3 ADD MSTORE PUSH32 0x547275737452656769737472793A207A65726F206F70657261746F7200000000 PUSH1 0x44 DUP3 ADD MSTORE PUSH1 0x64 SWAP1 REVERT JUMPDEST PUSH1 0x40 MLOAD PUSH3 0x461BCD PUSH1 0xE5 SHL DUP2 MSTORE PUSH1 0x20 PUSH1 0x4 DUP3 ADD MSTORE PUSH1 0x1E PUSH1 0x24 DUP3 ADD MSTORE PUSH32 0x547275737452656769737472793A20656D707479206D6F64656C486173680000 PUSH1 0x44 DUP3 ADD MSTORE PUSH1 0x64 SWAP1 REVERT JUMPDEST PUSH1 0x40 MLOAD PUSH3 0x461BCD PUSH1 0xE5 SHL DUP2 MSTORE PUSH1 0x20 PUSH1 0x4 DUP3 ADD MSTORE PUSH1 0x1C PUSH1 0x24 DUP3 ADD MSTORE PUSH32 0x547275737452656769737472793A20656D707479206167656E74496400000000 PUSH1 0x44 DUP3 ADD MSTORE PUSH1 0x64 SWAP1 REVERT JUMPDEST PUSH1 0x40 MLOAD PUSH4 0x3EE5AEB5 PUSH1 0xE0 SHL DUP2 MSTORE PUSH1 0x4 SWAP1 REVERT JUMPDEST CALLVALUE PUSH2 0x969 JUMPI PUSH1 0x20 CALLDATASIZE PUSH1 0x3 NOT ADD SLT PUSH2 0x969 JUMPI PUSH2 0xB53 PUSH2 0x173C JUMP JUMPDEST PUSH2 0xB5B PUSH2 0x1C47 JUMP JUMPDEST PUSH1 0x1 PUSH1 0x1 PUSH1 0xA0 SHL SUB SWAP1 DUP2 AND SWAP1 DUP2 ISZERO PUSH2 0xBA9 JUMPI PUSH1 0x7 SLOAD DUP3 PUSH1 0x1 PUSH1 0x1 PUSH1 0x60 SHL SUB PUSH1 0xA0 SHL DUP3 AND OR PUSH1 0x7 SSTORE AND PUSH32 0x8BE0079C531659141344CD1FD0A4F28419497F9722A3DAAFE3B4186F6B6457E0 PUSH0 DUP1 LOG3 STOP JUMPDEST PUSH1 0x40 MLOAD PUSH4 0x1E4FBDF7 PUSH1 0xE0 SHL DUP2 MSTORE PUSH0 PUSH1 0x4 DUP3 ADD MSTORE PUSH1 0x24 SWAP1 REVERT JUMPDEST CALLVALUE PUSH2 0x969 JUMPI PUSH1 0x40 CALLDATASIZE PUSH1 0x3 NOT ADD SLT PUSH2 0x969 JUMPI PUSH2 0xBDA PUSH2 0x173C JUMP JUMPDEST PUSH2 0xBE2 PUSH2 0x1752 JUMP JUMPDEST SWAP1 PUSH1 0x1 DUP1 PUSH1 0xA0 SHL SUB DUP1 SWAP2 AND PUSH0 MSTORE PUSH1 0x5 PUSH1 0x20 MSTORE PUSH1 0x40 PUSH0 KECCAK256 SWAP2 AND PUSH0 MSTORE PUSH1 0x20 MSTORE PUSH1 0x20 PUSH1 0xFF PUSH1 0x40 PUSH0 KECCAK256 SLOAD AND PUSH1 0x40 MLOAD SWAP1 ISZERO ISZERO DUP2 MSTORE RETURN JUMPDEST CALLVALUE PUSH2 0x969 JUMPI PUSH1 0x20 CALLDATASIZE PUSH1 0x3 NOT ADD SLT PUSH2 0x969 JUMPI PUSH2 0xC46 PUSH2 0xC32 PUSH1 0x4 CALLDATALOAD PUSH2 0x1B5B JUMP JUMPDEST PUSH1 0x40 MLOAD SWAP2 DUP3 SWAP2 PUSH1 0x20 DUP4 MSTORE PUSH1 0x20 DUP4 ADD SWAP1 PUSH2 0x1717 JUMP JUMPDEST SUB SWAP1 RETURN JUMPDEST CALLVALUE PUSH2 0x969 JUMPI PUSH1 0x40 CALLDATASIZE PUSH1 0x3 NOT ADD SLT PUSH2 0x969 JUMPI PUSH1 0x4 CALLDATALOAD PUSH1 0x1 PUSH1 0x1 PUSH1 0x40 SHL SUB DUP2 GT PUSH2 0x969 JUMPI PUSH2 0xC7D PUSH2 0xC8B SWAP2 CALLDATASIZE SWAP1 PUSH1 0x4 ADD PUSH2 0x179D JUMP JUMPDEST PUSH2 0xC85 PUSH2 0x1752 JUMP JUMPDEST SWAP2 PUSH2 0x1DBD JUMP JUMPDEST PUSH0 MSTORE PUSH1 0xA PUSH1 0x20 MSTORE PUSH1 0x20 PUSH1 0x40 PUSH0 KECCAK256 SLOAD ISZERO ISZERO PUSH1 0x40 MLOAD SWAP1 DUP2 MSTORE RETURN JUMPDEST CALLVALUE PUSH2 0x969 JUMPI PUSH1 0x80 CALLDATASIZE PUSH1 0x3 NOT ADD SLT PUSH2 0x969 JUMPI PUSH2 0xCBC PUSH2 0x173C JUMP JUMPDEST PUSH2 0xCC4 PUSH2 0x1752 JUMP JUMPDEST SWAP1 PUSH1 0x44 CALLDATALOAD PUSH1 0x64 CALLDATALOAD SWAP3 PUSH1 0x1 PUSH1 0x1 PUSH1 0x40 SHL SUB DUP5 GT PUSH2 0x969 JUMPI CALLDATASIZE PUSH1 0x23 DUP6 ADD SLT ISZERO PUSH2 0x969 JUMPI PUSH2 0xCFC PUSH2 0xD0E SWAP5 CALLDATASIZE SWAP1 PUSH1 0x24 DUP2 PUSH1 0x4 ADD CALLDATALOAD SWAP2 ADD PUSH2 0x183D JUMP JUMPDEST SWAP3 PUSH2 0xD08 DUP4 DUP4 DUP4 PUSH2 0x194D JUMP JUMPDEST CALLER PUSH2 0x1C73 JUMP JUMPDEST STOP JUMPDEST CALLVALUE PUSH2 0x969 JUMPI PUSH1 0x40 CALLDATASIZE PUSH1 0x3 NOT ADD SLT PUSH2 0x969 JUMPI PUSH2 0xD29 PUSH2 0x173C JUMP JUMPDEST PUSH1 0x24 CALLDATALOAD SWAP1 DUP2 ISZERO ISZERO SWAP1 DUP2 DUP4 SUB PUSH2 0x969 JUMPI CALLER ISZERO PUSH2 0xDC0 JUMPI PUSH1 0x1 PUSH1 0x1 PUSH1 0xA0 SHL SUB AND SWAP2 DUP3 ISZERO PUSH2 0xDA7 JUMPI PUSH2 0xD79 SWAP1 CALLER PUSH0 MSTORE PUSH1 0x5 PUSH1 0x20 MSTORE PUSH1 0x40 PUSH0 KECCAK256 DUP5 PUSH0 MSTORE PUSH1 0x20 MSTORE PUSH1 0x40 PUSH0 KECCAK256 SWAP1 PUSH1 0xFF DUP1 NOT DUP4 SLOAD AND SWAP2 ISZERO ISZERO AND OR SWAP1 SSTORE JUMP JUMPDEST PUSH1 0x40 MLOAD SWAP1 DUP2 MSTORE PUSH32 0x17307EAB39AB6107E8899845AD3D59BD9653F200F220920489CA2B5937696C31 PUSH1 0x20 CALLER SWAP3 LOG3 STOP JUMPDEST PUSH1 0x40 MLOAD PUSH4 0xB611743 PUSH1 0xE3 SHL DUP2 MSTORE PUSH1 0x4 DUP2 ADD DUP5 SWAP1 MSTORE PUSH1 0x24 SWAP1 REVERT JUMPDEST PUSH1 0x40 MLOAD PUSH4 0xA9FBF51F PUSH1 0xE0 SHL DUP2 MSTORE PUSH0 PUSH1 0x4 DUP3 ADD MSTORE PUSH1 0x24 SWAP1 REVERT JUMPDEST CALLVALUE PUSH2 0x969 JUMPI PUSH0 CALLDATASIZE PUSH1 0x3 NOT ADD SLT PUSH2 0x969 JUMPI PUSH1 0x40 MLOAD PUSH0 PUSH1 0x1 DUP3 PUSH1 0x1 SLOAD SWAP3 PUSH2 0xDFC DUP5 PUSH2 0x1873 JUMP JUMPDEST SWAP3 DUP4 DUP4 MSTORE PUSH1 0x20 SWAP5 DUP6 PUSH1 0x1 DUP3 AND SWAP2 DUP3 PUSH0 EQ PUSH2 0xE96 JUMPI POP POP PUSH1 0x1 EQ PUSH2 0xE3B JUMPI JUMPDEST POP PUSH2 0xE27 SWAP3 POP SUB DUP4 PUSH2 0x1801 JUMP JUMPDEST PUSH2 0xC46 PUSH1 0x40 MLOAD SWAP3 DUP3 DUP5 SWAP4 DUP5 MSTORE DUP4 ADD SWAP1 PUSH2 0x1717 JUMP JUMPDEST DUP5 SWAP2 POP PUSH1 0x1 PUSH0 MSTORE PUSH32 0xB10E2D527612073B26EECDFD717E6A320CF44B4AFAC2B0732D9FCBE2B7FA0CF6 SWAP1 PUSH0 SWAP2 JUMPDEST DUP6 DUP4 LT PUSH2 0xE7E JUMPI POP POP PUSH2 0xE27 SWAP4 POP DUP3 ADD ADD DUP6 PUSH2 0xE1A JUMP JUMPDEST DUP1 SLOAD DUP4 DUP10 ADD DUP6 ADD MSTORE DUP8 SWAP5 POP DUP7 SWAP4 SWAP1 SWAP3 ADD SWAP2 DUP2 ADD PUSH2 0xE67 JUMP JUMPDEST PUSH1 0xFF NOT AND DUP6 DUP3 ADD MSTORE PUSH2 0xE27 SWAP6 ISZERO ISZERO PUSH1 0x5 SHL DUP6 ADD ADD SWAP3 POP DUP8 SWAP2 POP PUSH2 0xE1A SWAP1 POP JUMP JUMPDEST CALLVALUE PUSH2 0x969 JUMPI PUSH1 0x40 CALLDATASIZE PUSH1 0x3 NOT ADD SLT PUSH2 0x969 JUMPI PUSH1 0x4 CALLDATALOAD PUSH1 0x24 CALLDATALOAD PUSH1 0x1 PUSH1 0x1 PUSH1 0x40 SHL SUB DUP2 GT PUSH2 0x969 JUMPI PUSH2 0xEE9 SWAP1 CALLDATASIZE SWAP1 PUSH1 0x4 ADD PUSH2 0x179D JUMP JUMPDEST PUSH2 0xEF4 SWAP3 SWAP2 SWAP3 PUSH2 0x1C47 JUMP JUMPDEST DUP2 PUSH0 MSTORE PUSH1 0x20 SWAP3 PUSH1 0x2 DUP5 MSTORE PUSH2 0xF15 PUSH1 0x1 DUP1 PUSH1 0xA0 SHL SUB PUSH1 0x40 PUSH0 KECCAK256 SLOAD AND ISZERO ISZERO PUSH2 0x1AE3 JUMP JUMPDEST DUP3 PUSH0 MSTORE PUSH1 0x9 DUP5 MSTORE PUSH1 0xFF PUSH1 0x7 PUSH1 0x40 PUSH0 KECCAK256 ADD SLOAD AND PUSH2 0xF81 JUMPI SWAP3 PUSH2 0xF7C DUP4 SWAP5 PUSH32 0x37EC22ACF5D9778EA37B449F7834D99ACB0C9632E381D2CEBA59480D79CA91A7 SWAP5 PUSH0 MSTORE PUSH1 0x9 DUP4 MSTORE PUSH1 0x7 PUSH1 0x40 PUSH0 KECCAK256 ADD PUSH1 0x1 PUSH1 0xFF NOT DUP3 SLOAD AND OR SWAP1 SSTORE PUSH1 0x40 MLOAD SWAP4 DUP4 DUP6 SWAP5 DUP6 MSTORE DUP5 ADD SWAP2 PUSH2 0x1B3B JUMP JUMPDEST SUB SWAP1 LOG2 STOP JUMPDEST PUSH1 0x40 MLOAD PUSH3 0x461BCD PUSH1 0xE5 SHL DUP2 MSTORE PUSH1 0x4 DUP2 ADD DUP6 SWAP1 MSTORE PUSH1 0x1E PUSH1 0x24 DUP3 ADD MSTORE PUSH32 0x547275737452656769737472793A20616C7265616479207265766F6B65640000 PUSH1 0x44 DUP3 ADD MSTORE PUSH1 0x64 SWAP1 REVERT JUMPDEST CALLVALUE PUSH2 0x969 JUMPI PUSH1 0x20 DUP1 PUSH1 0x3 NOT CALLDATASIZE ADD SLT PUSH2 0x969 JUMPI PUSH2 0x10E2 SWAP1 PUSH1 0x4 CALLDATALOAD PUSH0 PUSH1 0xE0 PUSH1 0x40 MLOAD PUSH2 0xFEE DUP2 PUSH2 0x17CA JUMP JUMPDEST PUSH1 0x60 DUP2 MSTORE DUP3 DUP6 DUP3 ADD MSTORE DUP3 PUSH1 0x40 DUP3 ADD MSTORE DUP3 PUSH1 0x60 DUP3 ADD MSTORE PUSH1 0x60 PUSH1 0x80 DUP3 ADD MSTORE DUP3 PUSH1 0xA0 DUP3 ADD MSTORE DUP3 PUSH1 0xC0 DUP3 ADD MSTORE ADD MSTORE DUP1 PUSH0 MSTORE PUSH1 0x2 DUP3 MSTORE PUSH1 0x1 DUP1 PUSH1 0xA0 SHL SUB SWAP1 PUSH2 0x1038 DUP3 PUSH1 0x40 PUSH0 KECCAK256 SLOAD AND ISZERO ISZERO PUSH2 0x1AE3 JUMP JUMPDEST PUSH0 MSTORE PUSH1 0x9 DUP3 MSTORE PUSH1 0x40 PUSH0 KECCAK256 SWAP2 PUSH1 0x40 MLOAD SWAP3 PUSH2 0x1050 DUP5 PUSH2 0x17CA JUMP JUMPDEST PUSH2 0x1059 DUP2 PUSH2 0x18AB JUMP JUMPDEST DUP5 MSTORE PUSH1 0x1 DUP2 ADD SLOAD SWAP1 DUP3 DUP6 ADD SWAP2 DUP3 MSTORE PUSH2 0x1108 DUP5 PUSH1 0x2 DUP4 ADD SLOAD AND SWAP3 PUSH1 0x40 DUP8 ADD SWAP4 DUP5 MSTORE PUSH1 0x3 DUP4 ADD SLOAD PUSH1 0x60 DUP9 ADD SWAP1 DUP2 MSTORE PUSH2 0x1091 PUSH1 0x4 DUP6 ADD PUSH2 0x18AB JUMP JUMPDEST SWAP1 PUSH1 0x80 DUP10 ADD SWAP2 DUP3 MSTORE PUSH1 0x5 DUP6 ADD SLOAD SWAP8 PUSH1 0xA0 DUP11 ADD SWAP9 DUP10 MSTORE PUSH1 0xFF PUSH1 0x7 PUSH1 0x6 DUP9 ADD SLOAD SWAP8 PUSH1 0xC0 DUP14 ADD SWAP9 DUP10 MSTORE ADD SLOAD AND SWAP7 PUSH1 0xE0 DUP12 ADD SWAP8 ISZERO ISZERO DUP9 MSTORE PUSH1 0x40 MLOAD SWAP12 DUP13 SWAP12 DUP11 DUP14 MSTORE MLOAD DUP13 PUSH2 0x100 SWAP12 DUP13 SWAP2 ADD MSTORE PUSH2 0x120 DUP14 ADD SWAP1 PUSH2 0x1717 JUMP JUMPDEST SWAP5 MLOAD PUSH1 0x40 DUP13 ADD MSTORE MLOAD AND PUSH1 0x60 DUP11 ADD MSTORE MLOAD PUSH1 0x80 DUP10 ADD MSTORE MLOAD DUP8 DUP3 SUB PUSH1 0x1F NOT ADD PUSH1 0xA0 DUP10 ADD MSTORE PUSH2 0x1717 JUMP JUMPDEST SWAP4 MLOAD PUSH1 0xC0 DUP7 ADD MSTORE MLOAD PUSH1 0xE0 DUP6 ADD MSTORE MLOAD ISZERO ISZERO SWAP1 DUP4 ADD MSTORE SUB SWAP1 RETURN JUMPDEST CALLVALUE PUSH2 0x969 JUMPI PUSH0 CALLDATASIZE PUSH1 0x3 NOT ADD SLT PUSH2 0x969 JUMPI PUSH1 0x7 SLOAD PUSH1 0x40 MLOAD PUSH1 0x1 PUSH1 0x1 PUSH1 0xA0 SHL SUB SWAP1 SWAP2 AND DUP2 MSTORE PUSH1 0x20 SWAP1 RETURN JUMPDEST CALLVALUE PUSH2 0x969 JUMPI PUSH1 0x20 DUP1 PUSH1 0x3 NOT CALLDATASIZE ADD SLT PUSH2 0x969 JUMPI PUSH1 0x1 PUSH1 0x1 PUSH1 0xA0 SHL SUB PUSH2 0x116A PUSH2 0x173C JUMP JUMPDEST AND PUSH0 MSTORE PUSH1 0xB DUP2 MSTORE PUSH1 0x40 PUSH0 KECCAK256 PUSH1 0x40 MLOAD SWAP1 DUP2 DUP4 DUP3 SLOAD SWAP2 DUP3 DUP2 MSTORE ADD SWAP1 DUP2 SWAP3 PUSH0 MSTORE DUP5 PUSH0 KECCAK256 SWAP1 PUSH0 JUMPDEST DUP7 DUP3 DUP3 LT PUSH2 0x11E2 JUMPI DUP7 DUP7 PUSH2 0x11A3 DUP3 DUP9 SUB DUP4 PUSH2 0x1801 JUMP JUMPDEST PUSH1 0x40 MLOAD SWAP3 DUP4 SWAP3 DUP2 DUP5 ADD SWAP1 DUP3 DUP6 MSTORE MLOAD DUP1 SWAP2 MSTORE PUSH1 0x40 DUP5 ADD SWAP3 SWAP2 PUSH0 JUMPDEST DUP3 DUP2 LT PUSH2 0x11CB JUMPI POP POP POP POP SUB SWAP1 RETURN JUMPDEST DUP4 MLOAD DUP6 MSTORE DUP7 SWAP6 POP SWAP4 DUP2 ADD SWAP4 SWAP3 DUP2 ADD SWAP3 PUSH1 0x1 ADD PUSH2 0x11BC JUMP JUMPDEST DUP4 SLOAD DUP6 MSTORE SWAP1 SWAP4 ADD SWAP3 PUSH1 0x1 SWAP3 DUP4 ADD SWAP3 ADD PUSH2 0x118D JUMP JUMPDEST CALLVALUE PUSH2 0x969 JUMPI PUSH0 CALLDATASIZE PUSH1 0x3 NOT ADD SLT PUSH2 0x969 JUMPI PUSH2 0x120E PUSH2 0x1C47 JUMP JUMPDEST PUSH1 0x7 DUP1 SLOAD PUSH1 0x1 PUSH1 0x1 PUSH1 0xA0 SHL SUB NOT DUP2 AND SWAP1 SWAP2 SSTORE PUSH0 SWAP1 PUSH1 0x1 PUSH1 0x1 PUSH1 0xA0 SHL SUB AND PUSH32 0x8BE0079C531659141344CD1FD0A4F28419497F9722A3DAAFE3B4186F6B6457E0 DUP3 DUP1 LOG3 STOP JUMPDEST CALLVALUE PUSH2 0x969 JUMPI PUSH1 0x20 CALLDATASIZE PUSH1 0x3 NOT ADD SLT PUSH2 0x969 JUMPI PUSH1 0x1 PUSH1 0x1 PUSH1 0xA0 SHL SUB PUSH2 0x1272 PUSH2 0x173C JUMP JUMPDEST AND DUP1 ISZERO PUSH2 0x128F JUMPI PUSH0 MSTORE PUSH1 0x3 PUSH1 0x20 MSTORE PUSH1 0x20 PUSH1 0x40 PUSH0 KECCAK256 SLOAD PUSH1 0x40 MLOAD SWAP1 DUP2 MSTORE RETURN JUMPDEST PUSH1 0x40 MLOAD PUSH4 0x22718AD9 PUSH1 0xE2 SHL DUP2 MSTORE PUSH0 PUSH1 0x4 DUP3 ADD MSTORE PUSH1 0x24 SWAP1 REVERT JUMPDEST CALLVALUE PUSH2 0x969 JUMPI PUSH1 0x20 CALLDATASIZE PUSH1 0x3 NOT ADD SLT PUSH2 0x969 JUMPI PUSH1 0x20 PUSH2 0x12C5 PUSH1 0x4 CALLDATALOAD PUSH2 0x1C0D JUMP JUMPDEST PUSH1 0x40 MLOAD PUSH1 0x1 PUSH1 0x1 PUSH1 0xA0 SHL SUB SWAP1 SWAP2 AND DUP2 MSTORE RETURN JUMPDEST CALLVALUE PUSH2 0x969 JUMPI PUSH2 0xD0E PUSH2 0x12E8 CALLDATASIZE PUSH2 0x1768 JUMP JUMPDEST SWAP1 PUSH1 0x40 MLOAD SWAP3 PUSH2 0x12F6 DUP5 PUSH2 0x17E6 JUMP JUMPDEST PUSH0 DUP5 MSTORE PUSH2 0xD08 DUP4 DUP4 DUP4 PUSH2 0x194D JUMP JUMPDEST CALLVALUE PUSH2 0x969 JUMPI PUSH1 0x60 CALLDATASIZE PUSH1 0x3 NOT ADD SLT PUSH2 0x969 JUMPI PUSH1 0x4 CALLDATALOAD PUSH1 0x24 CALLDATALOAD PUSH1 0x44 CALLDATALOAD PUSH1 0x1 PUSH1 0x1 PUSH1 0x40 SHL SUB DUP2 GT PUSH2 0x969 JUMPI PUSH2 0x133A SWAP1 CALLDATASIZE SWAP1 PUSH1 0x4 ADD PUSH2 0x179D JUMP JUMPDEST SWAP2 SWAP1 PUSH2 0x1344 PUSH2 0x1C47 JUMP JUMPDEST DUP4 PUSH0 MSTORE PUSH1 0x20 SWAP3 PUSH1 0x2 DUP5 MSTORE PUSH2 0x1365 PUSH1 0x1 DUP1 PUSH1 0xA0 SHL SUB PUSH1 0x40 PUSH0 KECCAK256 SLOAD AND ISZERO ISZERO PUSH2 0x1AE3 JUMP JUMPDEST DUP5 PUSH0 MSTORE PUSH1 0x9 DUP5 MSTORE PUSH1 0xFF PUSH1 0x7 PUSH1 0x40 PUSH0 KECCAK256 ADD SLOAD AND PUSH2 0x142A JUMPI PUSH1 0x64 DUP4 GT PUSH2 0x13DB JUMPI PUSH32 0xB7C84712665DF0D714E505C1F4A18ED67BA3F194D661239118F437F02BE654EA SWAP4 SWAP3 SWAP2 PUSH2 0xF7C SWAP2 DUP7 PUSH0 MSTORE PUSH1 0x9 DUP6 MSTORE PUSH1 0x5 PUSH1 0x40 PUSH0 KECCAK256 ADD SWAP4 DUP1 DUP6 SLOAD SWAP6 SSTORE PUSH1 0x40 MLOAD SWAP6 DUP7 SWAP6 DUP7 MSTORE DUP6 ADD MSTORE PUSH1 0x60 PUSH1 0x40 DUP6 ADD MSTORE PUSH1 0x60 DUP5 ADD SWAP2 PUSH2 0x1B3B JUMP JUMPDEST PUSH1 0x40 MLOAD PUSH3 0x461BCD PUSH1 0xE5 SHL DUP2 MSTORE PUSH1 0x4 DUP2 ADD DUP6 SWAP1 MSTORE PUSH1 0x21 PUSH1 0x24 DUP3 ADD MSTORE PUSH32 0x547275737452656769737472793A2073636F7265206F7574206F662072616E67 PUSH1 0x44 DUP3 ADD MSTORE PUSH1 0x65 PUSH1 0xF8 SHL PUSH1 0x64 DUP3 ADD MSTORE PUSH1 0x84 SWAP1 REVERT JUMPDEST PUSH1 0x40 MLOAD PUSH3 0x461BCD PUSH1 0xE5 SHL DUP2 MSTORE PUSH1 0x4 DUP2 ADD DUP6 SWAP1 MSTORE PUSH1 0x21 PUSH1 0x24 DUP3 ADD MSTORE PUSH32 0x547275737452656769737472793A2063726564656E7469616C207265766F6B65 PUSH1 0x44 DUP3 ADD MSTORE PUSH1 0x19 PUSH1 0xFA SHL PUSH1 0x64 DUP3 ADD MSTORE PUSH1 0x84 SWAP1 REVERT JUMPDEST CALLVALUE PUSH2 0x969 JUMPI PUSH2 0xD0E PUSH2 0x148A CALLDATASIZE PUSH2 0x1768 JUMP JUMPDEST SWAP2 PUSH2 0x194D JUMP JUMPDEST CALLVALUE PUSH2 0x969 JUMPI PUSH0 CALLDATASIZE PUSH1 0x3 NOT ADD SLT PUSH2 0x969 JUMPI PUSH1 0x20 PUSH1 0x8 SLOAD PUSH1 0x40 MLOAD SWAP1 DUP2 MSTORE RETURN JUMPDEST CALLVALUE PUSH2 0x969 JUMPI PUSH1 0x40 CALLDATASIZE PUSH1 0x3 NOT ADD SLT PUSH2 0x969 JUMPI PUSH2 0x14C6 PUSH2 0x173C JUMP JUMPDEST PUSH1 0x24 CALLDATALOAD PUSH2 0x14D2 DUP2 PUSH2 0x1C0D JUMP JUMPDEST CALLER ISZERO ISZERO DUP1 PUSH2 0x157B JUMPI JUMPDEST DUP1 PUSH2 0x1552 JUMPI JUMPDEST PUSH2 0x153A JUMPI PUSH1 0x1 PUSH1 0x1 PUSH1 0xA0 SHL SUB SWAP3 DUP4 AND SWAP3 DUP3 SWAP2 DUP5 SWAP2 AND PUSH32 0x8C5BE1E5EBEC7D5BD14F71427D1E84F3DD0314C0F7B2291E5B200AC8C7C3B925 PUSH0 DUP1 LOG4 PUSH0 SWAP1 DUP2 MSTORE PUSH1 0x4 PUSH1 0x20 MSTORE PUSH1 0x40 SWAP1 KECCAK256 DUP1 SLOAD PUSH1 0x1 PUSH1 0x1 PUSH1 0xA0 SHL SUB NOT AND SWAP1 SWAP2 OR SWAP1 SSTORE STOP JUMPDEST PUSH1 0x40 MLOAD PUSH4 0xA9FBF51F PUSH1 0xE0 SHL DUP2 MSTORE CALLER PUSH1 0x4 DUP3 ADD MSTORE PUSH1 0x24 SWAP1 REVERT JUMPDEST POP PUSH1 0x1 DUP1 PUSH1 0xA0 SHL SUB DUP2 AND PUSH0 MSTORE PUSH1 0x5 PUSH1 0x20 MSTORE PUSH1 0x40 PUSH0 KECCAK256 CALLER PUSH0 MSTORE PUSH1 0x20 MSTORE PUSH1 0xFF PUSH1 0x40 PUSH0 KECCAK256 SLOAD AND ISZERO PUSH2 0x14E1 JUMP JUMPDEST POP PUSH1 0x1 PUSH1 0x1 PUSH1 0xA0 SHL SUB DUP2 AND CALLER EQ ISZERO PUSH2 0x14DB JUMP JUMPDEST CALLVALUE PUSH2 0x969 JUMPI PUSH1 0x20 CALLDATASIZE PUSH1 0x3 NOT ADD SLT PUSH2 0x969 JUMPI PUSH1 0x4 CALLDATALOAD PUSH2 0x15AB DUP2 PUSH2 0x1C0D JUMP JUMPDEST POP PUSH0 MSTORE PUSH1 0x4 PUSH1 0x20 MSTORE PUSH1 0x20 PUSH1 0x1 DUP1 PUSH1 0xA0 SHL SUB PUSH1 0x40 PUSH0 KECCAK256 SLOAD AND PUSH1 0x40 MLOAD SWAP1 DUP2 MSTORE RETURN JUMPDEST CALLVALUE PUSH2 0x969 JUMPI PUSH0 CALLDATASIZE PUSH1 0x3 NOT ADD SLT PUSH2 0x969 JUMPI PUSH1 0x40 MLOAD PUSH0 DUP1 SLOAD SWAP1 DUP3 PUSH2 0x15EB DUP4 PUSH2 0x1873 JUMP JUMPDEST SWAP2 DUP3 DUP3 MSTORE PUSH1 0x20 SWAP4 PUSH1 0x1 SWAP1 DUP6 PUSH1 0x1 DUP3 AND SWAP2 DUP3 PUSH0 EQ PUSH2 0xE96 JUMPI POP POP PUSH1 0x1 EQ PUSH2 0x1618 JUMPI POP PUSH2 0xE27 SWAP3 POP SUB DUP4 PUSH2 0x1801 JUMP JUMPDEST PUSH0 DUP1 DUP1 MSTORE DUP6 SWAP3 POP SWAP1 PUSH32 0x290DECD9548B62A8D60345A988386FC84BA6BC95484008F6362F93160EF3E563 JUMPDEST DUP6 DUP4 LT PUSH2 0x1659 JUMPI POP POP PUSH2 0xE27 SWAP4 POP DUP3 ADD ADD DUP6 PUSH2 0xE1A JUMP JUMPDEST DUP1 SLOAD DUP4 DUP10 ADD DUP6 ADD MSTORE DUP8 SWAP5 POP DUP7 SWAP4 SWAP1 SWAP3 ADD SWAP2 DUP2 ADD PUSH2 0x1642 JUMP JUMPDEST CALLVALUE PUSH2 0x969 JUMPI PUSH1 0x20 CALLDATASIZE PUSH1 0x3 NOT ADD SLT PUSH2 0x969 JUMPI PUSH1 0x4 CALLDATALOAD SWAP1 PUSH4 0xFFFFFFFF PUSH1 0xE0 SHL DUP3 AND DUP1 SWAP3 SUB PUSH2 0x969 JUMPI PUSH1 0x20 SWAP2 PUSH4 0x24832483 PUSH1 0xE1 SHL DUP2 EQ SWAP1 DUP2 ISZERO PUSH2 0x16B3 JUMPI JUMPDEST POP ISZERO ISZERO DUP2 MSTORE RETURN JUMPDEST PUSH4 0x80AC58CD PUSH1 0xE0 SHL DUP2 EQ SWAP2 POP DUP2 ISZERO PUSH2 0x16E5 JUMPI JUMPDEST DUP2 ISZERO PUSH2 0x16D4 JUMPI JUMPDEST POP DUP4 PUSH2 0x16AC JUMP JUMPDEST PUSH4 0x1FFC9A7 PUSH1 0xE0 SHL EQ SWAP1 POP DUP4 PUSH2 0x16CD JUMP JUMPDEST PUSH4 0x5B5E139F PUSH1 0xE0 SHL DUP2 EQ SWAP2 POP PUSH2 0x16C6 JUMP JUMPDEST PUSH0 JUMPDEST DUP4 DUP2 LT PUSH2 0x1707 JUMPI POP POP PUSH0 SWAP2 ADD MSTORE JUMP JUMPDEST DUP2 DUP2 ADD MLOAD DUP4 DUP3 ADD MSTORE PUSH1 0x20 ADD PUSH2 0x16F8 JUMP JUMPDEST SWAP1 PUSH1 0x20 SWAP2 PUSH2 0x1730 DUP2 MLOAD DUP1 SWAP3 DUP2 DUP6 MSTORE DUP6 DUP1 DUP7 ADD SWAP2 ADD PUSH2 0x16F6 JUMP JUMPDEST PUSH1 0x1F ADD PUSH1 0x1F NOT AND ADD ADD SWAP1 JUMP JUMPDEST PUSH1 0x4 CALLDATALOAD SWAP1 PUSH1 0x1 PUSH1 0x1 PUSH1 0xA0 SHL SUB DUP3 AND DUP3 SUB PUSH2 0x969 JUMPI JUMP JUMPDEST PUSH1 0x24 CALLDATALOAD SWAP1 PUSH1 0x1 PUSH1 0x1 PUSH1 0xA0 SHL SUB DUP3 AND DUP3 SUB PUSH2 0x969 JUMPI JUMP JUMPDEST PUSH1 0x60 SWAP1 PUSH1 0x3 NOT ADD SLT PUSH2 0x969 JUMPI PUSH1 0x1 PUSH1 0x1 PUSH1 0xA0 SHL SUB SWAP1 PUSH1 0x4 CALLDATALOAD DUP3 DUP2 AND DUP2 SUB PUSH2 0x969 JUMPI SWAP2 PUSH1 0x24 CALLDATALOAD SWAP1 DUP2 AND DUP2 SUB PUSH2 0x969 JUMPI SWAP1 PUSH1 0x44 CALLDATALOAD SWAP1 JUMP JUMPDEST SWAP2 DUP2 PUSH1 0x1F DUP5 ADD SLT ISZERO PUSH2 0x969 JUMPI DUP3 CALLDATALOAD SWAP2 PUSH1 0x1 PUSH1 0x1 PUSH1 0x40 SHL SUB DUP4 GT PUSH2 0x969 JUMPI PUSH1 0x20 DUP4 DUP2 DUP7 ADD SWAP6 ADD ADD GT PUSH2 0x969 JUMPI JUMP JUMPDEST PUSH2 0x100 DUP2 ADD SWAP1 DUP2 LT PUSH1 0x1 PUSH1 0x1 PUSH1 0x40 SHL SUB DUP3 GT OR PUSH2 0x5D2 JUMPI PUSH1 0x40 MSTORE JUMP JUMPDEST PUSH1 0x20 DUP2 ADD SWAP1 DUP2 LT PUSH1 0x1 PUSH1 0x1 PUSH1 0x40 SHL SUB DUP3 GT OR PUSH2 0x5D2 JUMPI PUSH1 0x40 MSTORE JUMP JUMPDEST SWAP1 PUSH1 0x1F DUP1 NOT SWAP2 ADD AND DUP2 ADD SWAP1 DUP2 LT PUSH1 0x1 PUSH1 0x1 PUSH1 0x40 SHL SUB DUP3 GT OR PUSH2 0x5D2 JUMPI PUSH1 0x40 MSTORE JUMP JUMPDEST PUSH1 0x1 PUSH1 0x1 PUSH1 0x40 SHL SUB DUP2 GT PUSH2 0x5D2 JUMPI PUSH1 0x1F ADD PUSH1 0x1F NOT AND PUSH1 0x20 ADD SWAP1 JUMP JUMPDEST SWAP3 SWAP2 SWAP3 PUSH2 0x1849 DUP3 PUSH2 0x1822 JUMP JUMPDEST SWAP2 PUSH2 0x1857 PUSH1 0x40 MLOAD SWAP4 DUP5 PUSH2 0x1801 JUMP JUMPDEST DUP3 SWAP5 DUP2 DUP5 MSTORE DUP2 DUP4 ADD GT PUSH2 0x969 JUMPI DUP3 DUP2 PUSH1 0x20 SWAP4 DUP5 PUSH0 SWAP7 ADD CALLDATACOPY ADD ADD MSTORE JUMP JUMPDEST SWAP1 PUSH1 0x1 DUP3 DUP2 SHR SWAP3 AND DUP1 ISZERO PUSH2 0x18A1 JUMPI JUMPDEST PUSH1 0x20 DUP4 LT EQ PUSH2 0x188D JUMPI JUMP JUMPDEST PUSH4 0x4E487B71 PUSH1 0xE0 SHL PUSH0 MSTORE PUSH1 0x22 PUSH1 0x4 MSTORE PUSH1 0x24 PUSH0 REVERT JUMPDEST SWAP2 PUSH1 0x7F AND SWAP2 PUSH2 0x1882 JUMP JUMPDEST SWAP1 PUSH1 0x40 MLOAD SWAP2 DUP3 PUSH0 DUP3 SLOAD PUSH2 0x18BD DUP2 PUSH2 0x1873 JUMP JUMPDEST SWAP1 DUP2 DUP5 MSTORE PUSH1 0x20 SWAP5 PUSH1 0x1 SWAP2 PUSH1 0x1 DUP2 AND SWAP1 DUP2 PUSH0 EQ PUSH2 0x192B JUMPI POP PUSH1 0x1 EQ PUSH2 0x18ED JUMPI JUMPDEST POP POP POP PUSH2 0x18EB SWAP3 POP SUB DUP4 PUSH2 0x1801 JUMP JUMPDEST JUMP JUMPDEST PUSH0 SWAP1 DUP2 MSTORE DUP6 DUP2 KECCAK256 SWAP6 SWAP4 POP SWAP2 SWAP1 JUMPDEST DUP2 DUP4 LT PUSH2 0x1913 JUMPI POP POP PUSH2 0x18EB SWAP4 POP DUP3 ADD ADD PUSH0 DUP1 DUP1 PUSH2 0x18DC JUMP JUMPDEST DUP6 SLOAD DUP9 DUP5 ADD DUP6 ADD MSTORE SWAP5 DUP6 ADD SWAP5 DUP8 SWAP5 POP SWAP2 DUP4 ADD SWAP2 PUSH2 0x18FA JUMP JUMPDEST SWAP3 POP POP POP PUSH2 0x18EB SWAP5 SWAP3 POP PUSH1 0xFF NOT AND DUP3 DUP5 ADD MSTORE ISZERO ISZERO PUSH1 0x5 SHL DUP3 ADD ADD PUSH0 DUP1 DUP1 PUSH2 0x18DC JUMP JUMPDEST PUSH1 0x1 PUSH1 0x1 PUSH1 0xA0 SHL SUB SWAP2 DUP3 AND SWAP3 SWAP1 SWAP2 DUP4 ISZERO PUSH2 0x1ACB JUMPI DUP2 PUSH0 MSTORE PUSH1 0x20 SWAP3 PUSH1 0x2 DUP5 MSTORE DUP3 PUSH1 0x40 SWAP6 DUP4 DUP8 PUSH0 KECCAK256 SLOAD AND SWAP6 CALLER ISZERO ISZERO DUP1 PUSH2 0x1A39 JUMPI JUMPDEST POP PUSH1 0x2 SWAP1 DUP8 PUSH2 0x1A08 JUMPI JUMPDEST DUP3 PUSH0 MSTORE PUSH1 0x3 DUP2 MSTORE DUP9 PUSH0 KECCAK256 PUSH1 0x1 DUP2 SLOAD ADD SWAP1 SSTORE DUP4 PUSH0 MSTORE MSTORE DUP7 PUSH0 KECCAK256 DUP2 PUSH1 0x1 PUSH1 0x1 PUSH1 0x60 SHL SUB PUSH1 0xA0 SHL DUP3 SLOAD AND OR SWAP1 SSTORE DUP6 PUSH32 0xDDF252AD1BE2C89B69C2B068FC378DAA952BA7F163C4A11628F55A4DF523B3EF PUSH0 DUP1 LOG4 AND SWAP3 DUP4 DUP4 SUB PUSH2 0x19E7 JUMPI POP POP POP POP JUMP JUMPDEST PUSH1 0x64 SWAP5 POP MLOAD SWAP3 PUSH4 0x64283D7B PUSH1 0xE0 SHL DUP5 MSTORE PUSH1 0x4 DUP5 ADD MSTORE PUSH1 0x24 DUP4 ADD MSTORE PUSH1 0x44 DUP3 ADD MSTORE REVERT JUMPDEST PUSH0 DUP5 DUP2 MSTORE PUSH1 0x4 PUSH1 0x20 MSTORE PUSH1 0x40 DUP2 KECCAK256 DUP1 SLOAD PUSH1 0x1 PUSH1 0x1 PUSH1 0xA0 SHL SUB NOT AND SWAP1 SSTORE DUP9 DUP2 MSTORE PUSH1 0x3 DUP3 MSTORE DUP10 SWAP1 KECCAK256 DUP1 SLOAD PUSH0 NOT ADD SWAP1 SSTORE PUSH2 0x1989 JUMP JUMPDEST SWAP2 SWAP3 POP SWAP1 DUP1 PUSH2 0x1A8A JUMPI JUMPDEST ISZERO PUSH2 0x1A51 JUMPI SWAP1 DUP5 SWAP2 PUSH0 PUSH2 0x197F JUMP JUMPDEST DUP7 DUP6 DUP8 PUSH2 0x1A6E JUMPI PUSH1 0x24 SWAP2 MLOAD SWAP1 PUSH4 0x7E273289 PUSH1 0xE0 SHL DUP3 MSTORE PUSH1 0x4 DUP3 ADD MSTORE REVERT JUMPDEST PUSH1 0x44 SWAP2 MLOAD SWAP1 PUSH4 0x177E802F PUSH1 0xE0 SHL DUP3 MSTORE CALLER PUSH1 0x4 DUP4 ADD MSTORE PUSH1 0x24 DUP3 ADD MSTORE REVERT JUMPDEST POP CALLER DUP7 EQ DUP1 ISZERO PUSH2 0x1AAF JUMPI JUMPDEST DUP1 PUSH2 0x1A43 JUMPI POP DUP5 PUSH0 MSTORE PUSH1 0x4 DUP2 MSTORE CALLER DUP5 DUP9 PUSH0 KECCAK256 SLOAD AND EQ PUSH2 0x1A43 JUMP JUMPDEST POP DUP6 PUSH0 MSTORE PUSH1 0x5 DUP2 MSTORE DUP7 PUSH0 KECCAK256 CALLER PUSH0 MSTORE DUP2 MSTORE PUSH1 0xFF DUP8 PUSH0 KECCAK256 SLOAD AND PUSH2 0x1A95 JUMP JUMPDEST PUSH1 0x40 MLOAD PUSH4 0x32505749 PUSH1 0xE1 SHL DUP2 MSTORE PUSH0 PUSH1 0x4 DUP3 ADD MSTORE PUSH1 0x24 SWAP1 REVERT JUMPDEST ISZERO PUSH2 0x1AEA JUMPI JUMP JUMPDEST PUSH1 0x40 MLOAD PUSH3 0x461BCD PUSH1 0xE5 SHL DUP2 MSTORE PUSH1 0x20 PUSH1 0x4 DUP3 ADD MSTORE PUSH1 0x23 PUSH1 0x24 DUP3 ADD MSTORE PUSH32 0x547275737452656769737472793A20746F6B656E20646F6573206E6F74206578 PUSH1 0x44 DUP3 ADD MSTORE PUSH3 0x1A5CDD PUSH1 0xEA SHL PUSH1 0x64 DUP3 ADD MSTORE PUSH1 0x84 SWAP1 REVERT JUMPDEST SWAP1 DUP1 PUSH1 0x20 SWAP4 SWAP3 DUP2 DUP5 MSTORE DUP5 DUP5 ADD CALLDATACOPY PUSH0 DUP3 DUP3 ADD DUP5 ADD MSTORE PUSH1 0x1F ADD PUSH1 0x1F NOT AND ADD ADD SWAP1 JUMP JUMPDEST PUSH2 0x1B64 DUP2 PUSH2 0x1C0D JUMP JUMPDEST POP PUSH1 0x40 MLOAD SWAP1 PUSH2 0x1B72 DUP3 PUSH2 0x17E6 JUMP JUMPDEST PUSH0 DUP3 MSTORE DUP1 PUSH0 MSTORE PUSH1 0x20 PUSH1 0x6 DUP2 MSTORE PUSH2 0x1B8A PUSH1 0x40 PUSH0 KECCAK256 PUSH2 0x18AB JUMP JUMPDEST SWAP3 DUP1 MLOAD SWAP4 DUP5 ISZERO PUSH2 0x1C05 JUMPI DUP1 MLOAD PUSH2 0x1BC8 JUMPI POP POP POP PUSH2 0x1BA7 SWAP2 POP PUSH2 0x1C0D JUMP JUMPDEST POP PUSH0 PUSH1 0x40 MLOAD PUSH2 0x1BB5 DUP2 PUSH2 0x17E6 JUMP JUMPDEST MSTORE PUSH1 0x40 MLOAD PUSH2 0x1BC2 DUP2 PUSH2 0x17E6 JUMP JUMPDEST PUSH0 DUP2 MSTORE SWAP1 JUMP JUMPDEST PUSH2 0x1C02 SWAP4 POP DUP5 PUSH2 0x1BE2 PUSH1 0x40 MLOAD SWAP7 DUP8 SWAP5 DUP7 DUP1 DUP8 ADD SWAP2 ADD PUSH2 0x16F6 JUMP JUMPDEST DUP3 ADD PUSH2 0x1BF6 DUP3 MLOAD DUP1 SWAP4 DUP7 DUP1 DUP6 ADD SWAP2 ADD PUSH2 0x16F6 JUMP JUMPDEST ADD SUB DUP1 DUP5 MSTORE ADD DUP3 PUSH2 0x1801 JUMP JUMPDEST SWAP1 JUMP JUMPDEST SWAP4 POP POP POP POP SWAP1 JUMP JUMPDEST PUSH0 DUP2 DUP2 MSTORE PUSH1 0x2 PUSH1 0x20 MSTORE PUSH1 0x40 SWAP1 KECCAK256 SLOAD PUSH1 0x1 PUSH1 0x1 PUSH1 0xA0 SHL SUB AND SWAP1 DUP2 ISZERO PUSH2 0x1C2F JUMPI POP SWAP1 JUMP JUMPDEST PUSH1 0x24 SWAP1 PUSH1 0x40 MLOAD SWAP1 PUSH4 0x7E273289 PUSH1 0xE0 SHL DUP3 MSTORE PUSH1 0x4 DUP3 ADD MSTORE REVERT JUMPDEST PUSH1 0x7 SLOAD PUSH1 0x1 PUSH1 0x1 PUSH1 0xA0 SHL SUB AND CALLER SUB PUSH2 0x1C5B JUMPI JUMP JUMPDEST PUSH1 0x40 MLOAD PUSH4 0x118CDAA7 PUSH1 0xE0 SHL DUP2 MSTORE CALLER PUSH1 0x4 DUP3 ADD MSTORE PUSH1 0x24 SWAP1 REVERT JUMPDEST SWAP3 SWAP4 SWAP1 SWAP2 SWAP4 DUP5 EXTCODESIZE PUSH2 0x1C86 JUMPI JUMPDEST POP POP POP POP POP JUMP JUMPDEST PUSH1 0x40 MLOAD PUSH4 0xA85BD01 PUSH1 0xE1 SHL DUP1 DUP3 MSTORE PUSH1 0x1 PUSH1 0x1 PUSH1 0xA0 SHL SUB SWAP6 DUP7 AND PUSH1 0x4 DUP4 ADD MSTORE SWAP4 DUP6 AND PUSH1 0x24 DUP3 ADD MSTORE PUSH1 0x44 DUP2 ADD SWAP2 SWAP1 SWAP2 MSTORE PUSH1 0x80 PUSH1 0x64 DUP3 ADD MSTORE PUSH1 0x20 SWAP6 SWAP5 SWAP1 SWAP4 AND SWAP4 SWAP3 SWAP1 DUP6 SWAP1 DUP3 SWAP1 DUP2 SWAP1 PUSH2 0x1CD9 SWAP1 PUSH1 0x84 DUP4 ADD SWAP1 PUSH2 0x1717 JUMP JUMPDEST SUB DUP2 PUSH0 DUP9 GAS CALL PUSH0 SWAP2 DUP2 PUSH2 0x1D7D JUMPI JUMPDEST POP PUSH2 0x1D46 JUMPI POP POP POP RETURNDATASIZE PUSH0 EQ PUSH2 0x1D3E JUMPI RETURNDATASIZE SWAP2 PUSH2 0x1D01 DUP4 PUSH2 0x1822 JUMP JUMPDEST SWAP3 PUSH2 0x1D0F PUSH1 0x40 MLOAD SWAP5 DUP6 PUSH2 0x1801 JUMP JUMPDEST DUP4 MSTORE RETURNDATASIZE PUSH0 DUP3 DUP6 ADD RETURNDATACOPY JUMPDEST DUP3 MLOAD SWAP3 DUP4 PUSH2 0x1D39 JUMPI PUSH1 0x40 MLOAD PUSH4 0x32505749 PUSH1 0xE1 SHL DUP2 MSTORE PUSH1 0x4 DUP2 ADD DUP5 SWAP1 MSTORE PUSH1 0x24 SWAP1 REVERT JUMPDEST ADD SWAP1 POP REVERT JUMPDEST PUSH1 0x60 SWAP2 PUSH2 0x1D18 JUMP JUMPDEST SWAP2 SWAP4 POP PUSH1 0x1 PUSH1 0x1 PUSH1 0xE0 SHL SUB NOT SWAP1 SWAP2 AND SUB PUSH2 0x1D65 JUMPI POP PUSH0 DUP1 DUP1 DUP1 DUP1 PUSH2 0x1C7F JUMP JUMPDEST PUSH1 0x24 SWAP1 PUSH1 0x40 MLOAD SWAP1 PUSH4 0x32505749 PUSH1 0xE1 SHL DUP3 MSTORE PUSH1 0x4 DUP3 ADD MSTORE REVERT JUMPDEST SWAP1 SWAP2 POP DUP6 DUP2 DUP2 RETURNDATASIZE DUP4 GT PUSH2 0x1DB6 JUMPI JUMPDEST PUSH2 0x1D95 DUP2 DUP4 PUSH2 0x1801 JUMP JUMPDEST DUP2 ADD SUB SLT PUSH2 0x969 JUMPI MLOAD PUSH1 0x1 PUSH1 0x1 PUSH1 0xE0 SHL SUB NOT DUP2 AND DUP2 SUB PUSH2 0x969 JUMPI SWAP1 PUSH0 PUSH2 0x1CE7 JUMP JUMPDEST POP RETURNDATASIZE PUSH2 0x1D8B JUMP JUMPDEST SWAP2 SWAP1 PUSH1 0x34 PUSH2 0x1DF7 SWAP2 PUSH1 0x40 MLOAD SWAP4 DUP2 DUP6 SWAP3 PUSH1 0x20 DUP5 ADD SWAP8 DUP9 CALLDATACOPY DUP3 ADD SWAP1 PUSH1 0x1 PUSH1 0x1 PUSH1 0x60 SHL SUB NOT SWAP1 PUSH1 0x60 SHL AND PUSH1 0x20 DUP3 ADD MSTORE SUB PUSH1 0x14 DUP2 ADD DUP5 MSTORE ADD DUP3 PUSH2 0x1801 JUMP JUMPDEST MLOAD SWAP1 KECCAK256 SWAP1 JUMP INVALID LOG2 PUSH5 0x6970667358 0x22 SLT KECCAK256 0xEF PUSH9 0xCFEB699C7AE4729C7 0xC6 0xD3 XOR DUP2 GASPRICE 0xB9 PUSH4 0x8CBA2D49 BALANCE LOG4 MLOAD 0xE7 0xAC 0xB8 0xE0 0xDB DIV PUSH10 0x64736F6C634300081800 CALLER "},"methodIdentifiers":{"approve(address,uint256)":"095ea7b3","balanceOf(address)":"70a08231","getAgentsByOperator(address)":"72ae3e8f","getApproved(uint256)":"081812fc","isApprovedForAll(address,address)":"e985e9c5","isRegistered(string,address)":"bd290b81","mintCredential(string,bytes32,address,bytes32,string)":"fc7d519b","name()":"06fdde03","owner()":"8da5cb5b","ownerOf(uint256)":"6352211e","renounceOwnership()":"715018a6","revokeCredential(uint256,string)":"957a3205","safeTransferFrom(address,address,uint256)":"42842e0e","safeTransferFrom(address,address,uint256,bytes)":"b88d4fde","setApprovalForAll(address,bool)":"a22cb465","supportsInterface(bytes4)":"01ffc9a7","symbol()":"95d89b41","tokenURI(uint256)":"c87b56dd","totalSupply()":"18160ddd","transferFrom(address,address,uint256)":"23b872dd","transferOwnership(address)":"f2fde38b","updateScore(uint256,uint256,string)":"3a08a4e3","verifyAgent(uint256)":"9563f046"}}}}}