{"contracts/evm/src/AgentMarketPlace.sol":{"AgentMarketplace":{"abi":[{"inputs":[],"stateMutability":"nonpayable","type":"constructor"},{"inputs":[{"internalType":"address","name":"owner","type":"address"}],"name":"OwnableInvalidOwner","type":"error"},{"inputs":[{"internalType":"address","name":"account","type":"address"}],"name":"OwnableUnauthorizedAccount","type":"error"},{"inputs":[],"name":"ReentrancyGuardReentrantCall","type":"error"},{"anonymous":false,"inputs":[{"indexed":true,"internalType":"bytes32","name":"agentKey","type":"bytes32"},{"indexed":false,"internalType":"string","name":"agentId","type":"string"},{"indexed":true,"internalType":"address","name":"operator","type":"address"},{"indexed":false,"internalType":"string","name":"teeEndpoint","type":"string"},{"indexed":false,"internalType":"uint256","name":"stake","type":"uint256"}],"name":"AgentRegistered","type":"event"},{"anonymous":false,"inputs":[{"indexed":true,"internalType":"bytes32","name":"agentKey","type":"bytes32"},{"indexed":false,"internalType":"uint256","name":"slashedAmount","type":"uint256"}],"name":"AgentSlashed","type":"event"},{"anonymous":false,"inputs":[{"indexed":true,"internalType":"bytes32","name":"agentKey","type":"bytes32"},{"indexed":false,"internalType":"uint256","name":"newStake","type":"uint256"}],"name":"AgentStakeUpdated","type":"event"},{"anonymous":false,"inputs":[{"indexed":true,"internalType":"bytes32","name":"agentKey","type":"bytes32"},{"indexed":false,"internalType":"enum AgentMarketplace.AgentStatus","name":"status","type":"uint8"}],"name":"AgentStatusChanged","type":"event"},{"anonymous":false,"inputs":[{"indexed":true,"internalType":"uint256","name":"jobId","type":"uint256"},{"indexed":true,"internalType":"bytes32","name":"agentKey","type":"bytes32"},{"indexed":false,"internalType":"string","name":"resultCID","type":"string"},{"indexed":false,"internalType":"bytes32","name":"resultHash","type":"bytes32"}],"name":"JobCompleted","type":"event"},{"anonymous":false,"inputs":[{"indexed":true,"internalType":"uint256","name":"jobId","type":"uint256"},{"indexed":true,"internalType":"address","name":"requester","type":"address"},{"indexed":true,"internalType":"bytes32","name":"agentKey","type":"bytes32"},{"indexed":false,"internalType":"uint256","name":"fee","type":"uint256"}],"name":"JobCreated","type":"event"},{"anonymous":false,"inputs":[{"indexed":true,"internalType":"uint256","name":"jobId","type":"uint256"},{"indexed":true,"internalType":"address","name":"disputer","type":"address"}],"name":"JobDisputed","type":"event"},{"anonymous":false,"inputs":[{"indexed":true,"internalType":"uint256","name":"jobId","type":"uint256"},{"indexed":true,"internalType":"bytes32","name":"agentKey","type":"bytes32"}],"name":"JobFailed","type":"event"},{"anonymous":false,"inputs":[{"indexed":true,"internalType":"address","name":"previousOwner","type":"address"},{"indexed":true,"internalType":"address","name":"newOwner","type":"address"}],"name":"OwnershipTransferred","type":"event"},{"inputs":[],"name":"DISPUTE_WINDOW","outputs":[{"internalType":"uint256","name":"","type":"uint256"}],"stateMutability":"view","type":"function"},{"inputs":[],"name":"JOB_EXPIRY","outputs":[{"internalType":"uint256","name":"","type":"uint256"}],"stateMutability":"view","type":"function"},{"inputs":[],"name":"MIN_STAKE","outputs":[{"internalType":"uint256","name":"","type":"uint256"}],"stateMutability":"view","type":"function"},{"inputs":[{"internalType":"string","name":"agentId","type":"string"},{"internalType":"address","name":"agentOperator","type":"address"},{"internalType":"bytes","name":"encryptedPayload","type":"bytes"},{"internalType":"bytes32","name":"payloadHash","type":"bytes32"}],"name":"createJob","outputs":[{"internalType":"uint256","name":"jobId","type":"uint256"}],"stateMutability":"payable","type":"function"},{"inputs":[{"internalType":"uint256","name":"jobId","type":"uint256"}],"name":"disputeJob","outputs":[],"stateMutability":"nonpayable","type":"function"},{"inputs":[{"internalType":"string","name":"agentId","type":"string"},{"internalType":"address","name":"operator","type":"address"}],"name":"getAgent","outputs":[{"components":[{"internalType":"string","name":"agentId","type":"string"},{"internalType":"address","name":"operator","type":"address"},{"internalType":"string","name":"teeEndpoint","type":"string"},{"internalType":"bytes","name":"encPubKey","type":"bytes"},{"internalType":"uint256","name":"stake","type":"uint256"},{"internalType":"uint256","name":"tokenId","type":"uint256"},{"internalType":"uint256","name":"jobsCompleted","type":"uint256"},{"internalType":"uint256","name":"jobsFailed","type":"uint256"},{"internalType":"uint256","name":"registeredAt","type":"uint256"},{"internalType":"enum AgentMarketplace.AgentStatus","name":"status","type":"uint8"}],"internalType":"struct AgentMarketplace.Agent","name":"","type":"tuple"}],"stateMutability":"view","type":"function"},{"inputs":[{"internalType":"string","name":"agentId","type":"string"},{"internalType":"address","name":"operator","type":"address"}],"name":"getAgentJobs","outputs":[{"internalType":"uint256[]","name":"","type":"uint256[]"}],"stateMutability":"view","type":"function"},{"inputs":[{"internalType":"uint256","name":"jobId","type":"uint256"}],"name":"getJob","outputs":[{"components":[{"internalType":"uint256","name":"jobId","type":"uint256"},{"internalType":"address","name":"requester","type":"address"},{"internalType":"bytes32","name":"agentKey","type":"bytes32"},{"internalType":"bytes","name":"encryptedPayload","type":"bytes"},{"internalType":"bytes32","name":"payloadHash","type":"bytes32"},{"internalType":"string","name":"resultCID","type":"string"},{"internalType":"bytes32","name":"resultHash","type":"bytes32"},{"internalType":"uint256","name":"fee","type":"uint256"},{"internalType":"uint256","name":"createdAt","type":"uint256"},{"internalType":"uint256","name":"completedAt","type":"uint256"},{"internalType":"enum AgentMarketplace.JobStatus","name":"status","type":"uint8"}],"internalType":"struct AgentMarketplace.Job","name":"","type":"tuple"}],"stateMutability":"view","type":"function"},{"inputs":[{"internalType":"address","name":"operator","type":"address"}],"name":"getOperatorAgents","outputs":[{"internalType":"bytes32[]","name":"","type":"bytes32[]"}],"stateMutability":"view","type":"function"},{"inputs":[{"internalType":"address","name":"requester","type":"address"}],"name":"getRequesterJobs","outputs":[{"internalType":"uint256[]","name":"","type":"uint256[]"}],"stateMutability":"view","type":"function"},{"inputs":[{"internalType":"string","name":"agentId","type":"string"},{"internalType":"address","name":"operator","type":"address"}],"name":"isAgentAvailable","outputs":[{"internalType":"bool","name":"","type":"bool"}],"stateMutability":"view","type":"function"},{"inputs":[],"name":"owner","outputs":[{"internalType":"address","name":"","type":"address"}],"stateMutability":"view","type":"function"},{"inputs":[],"name":"platformFeeAccrued","outputs":[{"internalType":"uint256","name":"","type":"uint256"}],"stateMutability":"view","type":"function"},{"inputs":[],"name":"platformFeeBps","outputs":[{"internalType":"uint256","name":"","type":"uint256"}],"stateMutability":"view","type":"function"},{"inputs":[{"internalType":"string","name":"agentId","type":"string"},{"internalType":"string","name":"teeEndpoint","type":"string"},{"internalType":"bytes","name":"encPubKey","type":"bytes"}],"name":"registerAgent","outputs":[],"stateMutability":"payable","type":"function"},{"inputs":[],"name":"renounceOwnership","outputs":[],"stateMutability":"nonpayable","type":"function"},{"inputs":[{"internalType":"uint256","name":"jobId","type":"uint256"},{"internalType":"bool","name":"slashAgent","type":"bool"}],"name":"resolveDispute","outputs":[],"stateMutability":"nonpayable","type":"function"},{"inputs":[{"internalType":"uint256","name":"bps","type":"uint256"}],"name":"setPlatformFee","outputs":[],"stateMutability":"nonpayable","type":"function"},{"inputs":[{"internalType":"string","name":"agentId","type":"string"},{"internalType":"uint256","name":"tokenId","type":"uint256"}],"name":"setTokenId","outputs":[],"stateMutability":"nonpayable","type":"function"},{"inputs":[{"internalType":"uint256","name":"jobId","type":"uint256"},{"internalType":"string","name":"resultCID","type":"string"},{"internalType":"bytes32","name":"resultHash","type":"bytes32"}],"name":"submitResult","outputs":[],"stateMutability":"nonpayable","type":"function"},{"inputs":[{"internalType":"string","name":"agentId","type":"string"}],"name":"topUpStake","outputs":[],"stateMutability":"payable","type":"function"},{"inputs":[],"name":"totalJobs","outputs":[{"internalType":"uint256","name":"","type":"uint256"}],"stateMutability":"view","type":"function"},{"inputs":[{"internalType":"address","name":"newOwner","type":"address"}],"name":"transferOwnership","outputs":[],"stateMutability":"nonpayable","type":"function"},{"inputs":[],"name":"withdrawPlatformFees","outputs":[],"stateMutability":"nonpayable","type":"function"},{"stateMutability":"payable","type":"receive"}],"evm":{"bytecode":{"linkReferences":{},"object":"608080604052346100a157331561008c575f8054336001600160a01b03198216811783556040519290916001600160a01b0316907f8be0079c531659141344cd1fd0a4f28419497f9722a3daafe3b4186f6b6457e09080a360017f9b779b17422d0df92223018b32b4d1fa46e071723d6817e2486d003becc55f005560c86007556123b990816100a68239f35b631e4fbdf760e01b81525f6004820152602490fd5b5f80fdfe6080604052600436101561001a575b3615610018575f80fd5b005b5f3560e01c806301a4163e146119ef5780631197f4c21461198957806312e8e2c3146119235780631ace87b31461190657806322dcd13e146118e957806323f57563146117e157806334b25ee2146116075780635fa42e72146115c75780636a000177146113f6578063715018a61461139f5780637a1779a9146113455780638d0dcfea146113285780638da5cb5b14611301578063991483af1461127b578063a46a5661146111cd578063b65066b114610c7c578063bf22c45714610a93578063c1bc65761461045b578063cb1c2b5c14610439578063d0b7830b1461039c578063d452e21b1461037f578063d93d9beb146101cc578063f2fde38b146101475763f585dc570361000e5734610143575f3660031901126101435760206040516202a3008152f35b5f80fd5b3461014357602036600319011261014357610160611ae2565b610168612309565b6001600160a01b039081169081156101b4575f54826001600160601b0360a01b8216175f55167f8be0079c531659141344cd1fd0a4f28419497f9722a3daafe3b4186f6b6457e05f80a3005b604051631e4fbdf760e01b81525f6004820152602490fd5b34610143576020366003190112610143576004356101e8612334565b5f81815260046020526040902060018101546001600160a01b0316330361033a57600a81019081549060ff82166006811015610326576002036102e157600901546202a30081018091116102cd57421161027d5760ff1916600417905533907e7a04c23fac86b9f00290f402ccec895256f0b46ad331c80038b783acbfe4195f80a360015f8051602061236483398151915255005b60405162461bcd60e51b815260206004820152602260248201527f4d61726b6574706c6163653a20646973707574652077696e646f7720636c6f73604482015261195960f21b6064820152608490fd5b634e487b7160e01b5f52601160045260245ffd5b60405162461bcd60e51b815260206004820152601a60248201527f4d61726b6574706c6163653a206e6f7420636f6d706c657465640000000000006044820152606490fd5b634e487b7160e01b5f52602160045260245ffd5b60405162461bcd60e51b815260206004820152601a60248201527f4d61726b6574706c6163653a206e6f74207265717565737465720000000000006044820152606490fd5b34610143575f366003190112610143576020604051620151808152f35b34610143575f366003190112610143576103b4612309565b6103bc612334565b5f8080806008548160085560018060a01b038254165af16103db611c9b565b50156103f45760015f8051602061236483398151915255005b60405162461bcd60e51b815260206004820152601c60248201527f4d61726b6574706c6163653a207769746864726177206661696c6564000000006044820152606490fd5b34610143575f36600319011261014357602060405167016345785d8a00008152f35b6060366003190112610143576004356001600160401b03811161014357610486903690600401611ab5565b906024356001600160401b038111610143576104a6903690600401611ab5565b6044929183356001600160401b038111610143576104c8903690600401611ab5565b906104d1612334565b8615610a4f578315610a0b57604182036109c75767016345785d8a00003410610983576104ff3388876122c9565b95865f526002602052600860405f20015461093f5750610550906040519261052684611bff565b610531368a89612244565b8452336020850152610544368787612244565b60408501523691612244565b60608201523460808201525f60a08201525f60c08201525f60e0820152426101008201526001610120820152845f52600260205260405f2081518051906001600160401b0382116107cd576105af826105a98554611cca565b85611ddf565b602090601f83116001146108d7576105de92915f918361085e575b50508160011b915f199060031b1c19161790565b81555b6001810160018060a01b036020840151166001600160601b0360a01b82541617905560408201518051906001600160401b0382116107cd576106338261062a6002860154611cca565b60028601611ddf565b602090601f83116001146108695761066192915f918361085e5750508160011b915f199060031b1c19161790565b60028201555b60608201518051906001600160401b0382116107cd576106978261068e6003860154611cca565b60038601611ddf565b602090601f83116001146107ec578260099361012095936106cc935f926107e15750508160011b915f199060031b1c19161790565b60038201555b6080840151600482015560a0840151600582015560c0840151600682015560e0840151600782015561010084015160088201550191015160048110156103265760ff80198354169116179055335f52600360205260405f20918254600160401b8110156107cd577ffddba675844b1ef09bd3117348016e6846b7584c6a2662e33b6eae8234e260a4948661078b610775846107ad98600161079f9701815561227a565b819391549060031b91821b915f19901b19161790565b905560405197606089526060890191611e2e565b918683036020880152611e2e565b923460408201528033940390a360015f8051602061236483398151915255005b634e487b7160e01b5f52604160045260245ffd5b015190508c806105ca565b90600384015f5260205f20915f5b601f1985168110610846575092610120949260019260099583601f1981161061082e575b505050811b0160038201556106d2565b01515f1960f88460031b161c191690558b808061081e565b919260206001819286850151815501940192016107fa565b015190508a806105ca565b9190600284015f5260205f20905f935b601f19841685106108bc576001945083601f198116106108a4575b505050811b016002820155610667565b01515f1960f88460031b161c19169055898080610894565b81810151835560209485019460019093019290910190610879565b9190835f5260205f20905f935b601f1984168510610924576001945083601f1981161061090c575b505050811b0181556105e1565b01515f1960f88460031b161c191690558980806108ff565b818101518355602094850194600190930192909101906108e4565b6064907f4d61726b6574706c6163653a20616c72656164792072656769737465726564006040519162461bcd60e51b835260206004840152601f6024840152820152fd5b60405162461bcd60e51b815260206004820152601f60248201527f4d61726b6574706c6163653a20696e73756666696369656e74207374616b650081880152606490fd5b60405162461bcd60e51b815260206004820152601b60248201527f4d61726b6574706c6163653a20696e76616c6964207075626b6579000000000081880152606490fd5b60405162461bcd60e51b815260206004820152601b60248201527f4d61726b6574706c6163653a20656d70747920656e64706f696e74000000000081880152606490fd5b60405162461bcd60e51b815260206004820152601a60248201527f4d61726b6574706c6163653a20656d707479206167656e74496400000000000081880152606490fd5b34610143576020366003190112610143576004355f610140604051610ab781611c1b565b828152826020820152826040820152606080820152826080820152606060a08201528260c08201528260e082015282610100820152826101208201520152805f526004602052610b0f600860405f2001541515611d93565b5f52600460205260405f2060ff600a60405192610b2b84611c1b565b8054845260018101546001600160a01b03166020850152600281015460408086019190915251610b6981610b628160038601611d02565b0382611c37565b606085015260048101546080850152604051610b8c81610b628160058601611d02565b60a0850152600681015460c0850152600781015460e08501526008810154610100850152600981015461012085015201541660068110156103265761014082015260405190602082528051602083015260018060a01b03602082015116604083015260408101516060830152606081015190610140610c3c610c1c61016094856080880152610180870190611b75565b608084015160a087015260a0840151601f198783030160c0880152611b75565b9160c081015160e086015260e081015161010086015261010081015161012086015261012081015182860152015160068110156103265783928301520390f35b6080366003190112610143576004356001600160401b03811161014357610ca7903690600401611ab5565b602435916001600160a01b038316830361014357604480356001600160401b03811161014357610cdb903690600401611ab5565b949093606493610ce9612334565b8615611189578435156111455734156111015790610d0792916122c9565b91825f52600260205260405f20916008830154156110c05760ff60098401541660048110156103265760010361107f5750610d6e60015494610d4886611c72565b60015560405196610d5888611c1b565b8688523360208901528560408901523691612244565b60608601523560808501526040518060208101106001600160401b036020830111176107cd57602081016040525f815260a08501525f60c08501523460e0850152426101008501525f6101208501525f610140850152825f52600460205260405f20845181556001810160018060a01b036020870151166001600160601b0360a01b8254161790556040850151600282015560608501518051906001600160401b0382116107cd57610e278261068e6003860154611cca565b602090601f831160011461101157610e5592915f91836110065750508160011b915f199060031b1c19161790565b60038201555b6080850151600482015560a08501518051906001600160401b0382116107cd57610e9582610e8c6005860154611cca565b60058601611ddf565b602090601f8311600114610f945782600a936101409593610eca935f9261085e5750508160011b915f199060031b1c19161790565b60058201555b60c0870151600682015560e087015160078201556101008701516008820155610120870151600982015501940151600681101561032657600260099160209660ff199160ff838354169116179055845f5260058752610f328660405f206122a3565b335f5260068752610f468660405f206122a3565b828401541617910155604051348152827f737fc62fbb05dd9fb7c799e68796a2d7c8324e310af7b656c0580e7b3cf8bf8a853393a460015f8051602061236483398151915255604051908152f35b90600584015f5260205f20915f5b601f1985168110610fee5750926101409492600192600a9583601f19811610610fd6575b505050811b016005820155610ed0565b01515f1960f88460031b161c19169055898080610fc6565b91926020600181928685015181550194019201610fa2565b0151905088806105ca565b9190600384015f5260205f20905f935b601f1984168510611064576001945083601f1981161061104c575b505050811b016003820155610e5b565b01515f1960f88460031b161c1916905587808061103c565b81810151835560209485019460019093019290910190611021565b7f4d61726b6574706c6163653a206167656e74206e6f7420617661696c61626c656040519162461bcd60e51b83526020600484015260206024840152820152fd5b7f4d61726b6574706c6163653a206167656e74206e6f7420666f756e64000000006040519162461bcd60e51b835260206004840152601c6024840152820152fd5b5050507f4d61726b6574706c6163653a20666565207265717569726564000000000000006040519162461bcd60e51b83526020600484015260196024840152820152fd5b5050507f4d61726b6574706c6163653a20656d707479207061796c6f61644861736800006040519162461bcd60e51b835260206004840152601e6024840152820152fd5b5050507f4d61726b6574706c6163653a20656d707479207061796c6f61640000000000006040519162461bcd60e51b835260206004840152601a6024840152820152fd5b3461014357602080600319360112610143576001600160a01b036111ef611ae2565b165f526003815260405f20604051908183825491828152019081925f52845f20905f5b8682821061126757868661122882880383611c37565b60405192839281840190828552518091526040840192915f5b82811061125057505050500390f35b835185528695509381019392810192600101611241565b835485529093019260019283019201611212565b3461014357602080600319360112610143576001600160a01b0361129d611ae2565b165f52600660205260405f20906040519081602084549182815201935f5260205f20915f905b8282106112ea576112e6856112da81890382611c37565b60405191829182611b3a565b0390f35b8354865294850194600193840193909101906112c3565b34610143575f366003190112610143575f546040516001600160a01b039091168152602090f35b34610143575f366003190112610143576020600854604051908152f35b34610143576060366003190112610143576024356001600160401b0381116101435761137861138c913690600401611ab5565b611380612334565b60443591600435611e4e565b60015f8051602061236483398151915255005b34610143575f366003190112610143576113b7612309565b5f80546001600160a01b0319811682556001600160a01b03167f8be0079c531659141344cd1fd0a4f28419497f9722a3daafe3b4186f6b6457e08280a3005b346101435761145561140736611af8565b915f61012060405161141881611bff565b60608152826020820152606060408201526060808201528260808201528260a08201528260c08201528260e08201528261010082015201526122c9565b5f52600260205260405f2060ff60096040519261147184611bff565b60405161148281610b628185611d02565b845260018101546001600160a01b031660208501526040516114ab81610b628160028601611d02565b60408501526040516114c481610b628160038601611d02565b606085015260048101546080850152600581015460a0850152600681015460c0850152600781015460e08501526008810154610100850152015416600481101561032657610120820152604051906020825261012061157b61153483516101406020870152610160860190611b75565b60208401516001600160a01b0316604086810191909152840151858203601f1990810160608801529161156691611b75565b90606085015190868303016080870152611b75565b91608081015160a085015260a081015160c085015260c081015160e085015260e08101516101008501526101008101518285015201519060048210156103265782916101408301520390f35b34610143576115de6115d836611af8565b916122c9565b5f52600260205260ff600960405f20015416600481101561032657602090600160405191148152f35b346101435760403660031901126101435760043560243580151581036101435761162f612309565b611637612334565b815f52600460205260405f2090600a82019060ff82541660068110156103265760040361179c57600283019283545f52600260205260405f20916116bc575b5050805460ff1916600317905554907fefdfb2a64ccdc4310d96e46478d8abb2193119f109f32b931f7ef5e9082251035f80a360015f8051602061236483398151915255005b5f80808093600760048701968754976116d9600a8a04809a611c65565b905560098101600360ff19825416179055016116f58154611c72565b905561171286600760018060a01b03600185015416930154611c58565b905af161171d611c9b565b5015611757577faa04a725eaba29075755f1b66efa6fad4d4b2fdfa4a0d921b811ddd545ee071f6020845492604051908152a28380611676565b60405162461bcd60e51b815260206004820152601a60248201527f4d61726b6574706c6163653a20726566756e64206661696c65640000000000006044820152606490fd5b60405162461bcd60e51b815260206004820152601960248201527f4d61726b6574706c6163653a206e6f74206469737075746564000000000000006044820152606490fd5b602080600319360112610143576004356001600160401b0381116101435761181061181f913690600401611ab5565b611818612334565b33916122c9565b90815f5260028152611839600860405f2001541515611bb3565b34156118a5577fd4d3c177d6ea3206b75c2503e3c35f91192bab6a0f59b80e985e7e385de1909790825f5260028152600460405f200161187a348254611c58565b9055825f5260028152600460405f200154604051908152a260015f8051602061236483398151915255005b6064906040519062461bcd60e51b82526004820152601760248201527f4d61726b6574706c6163653a207a65726f207374616b650000000000000000006044820152fd5b34610143575f366003190112610143576020600754604051908152f35b34610143575f366003190112610143576020600154604051908152f35b346101435760203660031901126101435760043561193f612309565b6103e8811161194d57600755005b60405162461bcd60e51b81526020600482015260146024820152734d61726b6574706c6163653a206d61782031302560601b6044820152606490fd5b346101435761199a6115d836611af8565b5f526020600560205260405f20906040519081602084549182815201935f5260205f20915f905b8282106119d8576112e6856112da81890382611c37565b8354865294850194600193840193909101906119c1565b34610143576040366003190112610143576004356001600160401b03811161014357611818611a22913690600401611ab5565b805f526002602052611a3c600860405f2001541515611bb3565b805f5260026020523360018060a01b03600160405f2001541603611a70575f526002602052602435600560405f2001555f80f35b60405162461bcd60e51b815260206004820152601960248201527f4d61726b6574706c6163653a206e6f74206f70657261746f72000000000000006044820152606490fd5b9181601f84011215610143578235916001600160401b038311610143576020838186019501011161014357565b600435906001600160a01b038216820361014357565b604060031982011261014357600435906001600160401b03821161014357611b2291600401611ab5565b90916024356001600160a01b03811681036101435790565b60209060206040818301928281528551809452019301915f5b828110611b61575050505090565b835185529381019392810192600101611b53565b91908251928382525f5b848110611b9f575050825f602080949584010152601f8019910116010190565b602081830181015184830182015201611b7f565b15611bba57565b60405162461bcd60e51b815260206004820152601b60248201527f4d61726b6574706c6163653a206e6f74207265676973746572656400000000006044820152606490fd5b61014081019081106001600160401b038211176107cd57604052565b61016081019081106001600160401b038211176107cd57604052565b90601f801991011681019081106001600160401b038211176107cd57604052565b919082018092116102cd57565b919082039182116102cd57565b5f1981146102cd5760010190565b6001600160401b0381116107cd57601f01601f191660200190565b3d15611cc5573d90611cac82611c80565b91611cba6040519384611c37565b82523d5f602084013e565b606090565b90600182811c92168015611cf8575b6020831014611ce457565b634e487b7160e01b5f52602260045260245ffd5b91607f1691611cd9565b80545f9392611d1082611cca565b918282526020936001916001811690815f14611d745750600114611d36575b5050505050565b90939495505f92919252835f2092845f945b838610611d6057505050500101905f80808080611d2f565b805485870183015294019385908201611d48565b60ff19168685015250505090151560051b010191505f80808080611d2f565b15611d9a57565b60405162461bcd60e51b815260206004820152601a60248201527f4d61726b6574706c6163653a206a6f62206e6f7420666f756e640000000000006044820152606490fd5b601f8211611dec57505050565b5f5260205f20906020601f840160051c83019310611e24575b601f0160051c01905b818110611e19575050565b5f8155600101611e0e565b9091508190611e05565b908060209392818452848401375f828201840152601f01601f1916010190565b9190825f52600460205260405f20916008830154611e6d811515611d93565b600a8401549360ff85166006811015610326578015908115612239575b50156121f457600281019485545f52600260205260405f209260018060a01b0360018501541633036121af57841561216a578815612125576201518081018091116102cd5742116120ca57506001600160401b0383116107cd57611efe83611ef56005840154611cca565b60058401611ddf565b5f9083601f811160011461205e5780611f2e916007945f91612053575b508160011b915f199060031b1c19161790565b60058201555b87600682015560ff19600281600a8401541617600a8301554260098301556001600985019182541617905560068301611f6d8154611c72565b90550154600754918282029282840414821517156102cd575f809392819392611fa8611f9f6127108596048094611c65565b92600854611c58565b600855600101546001600160a01b03165af1611fc2611c9b565b501561200e577fd87a17d3fcce28b13d9152d90968b23871adaf28a6b91226bd3ddf12cb29b56c925494612003604051938493604085526040850191611e2e565b9060208301520390a3565b60405162461bcd60e51b815260206004820152601a60248201527f4d61726b6574706c6163653a207061796f7574206661696c65640000000000006044820152606490fd5b90508701355f611f1b565b50600581015f5260205f205f925b601f19861684106120b2576007935085601f19811610612099575b5050600184811b016005820155611f34565b8601355f19600387901b60f8161c191690555f80612087565b8681013582556020938401936001909201910161206c565b9250909250600793949550600a600560ff198094161791015560016009830191825416179055016120fb8154611c72565b905554907fefdfb2a64ccdc4310d96e46478d8abb2193119f109f32b931f7ef5e9082251035f80a3565b60405162461bcd60e51b815260206004820152601d60248201527f4d61726b6574706c6163653a20656d70747920726573756c74486173680000006044820152606490fd5b60405162461bcd60e51b815260206004820152601c60248201527f4d61726b6574706c6163653a20656d70747920726573756c74434944000000006044820152606490fd5b60405162461bcd60e51b815260206004820152601f60248201527f4d61726b6574706c6163653a206e6f74206167656e74206f70657261746f72006044820152606490fd5b60405162461bcd60e51b815260206004820152601960248201527f4d61726b6574706c6163653a206a6f62206e6f74206f70656e000000000000006044820152606490fd5b60019150145f611e8a565b92919261225082611c80565b9161225e6040519384611c37565b829481845281830111610143578281602093845f960137010152565b805482101561228f575f5260205f2001905f90565b634e487b7160e01b5f52603260045260245ffd5b805490600160401b8210156107cd57816107759160016122c59401815561227a565b9055565b919060346123039160405193818592602084019788378201906001600160601b03199060601b166020820152036014810184520182611c37565b51902090565b5f546001600160a01b0316330361231c57565b60405163118cdaa760e01b8152336004820152602490fd5b5f8051602061236483398151915260028154146123515760029055565b604051633ee5aeb560e01b8152600490fdfe9b779b17422d0df92223018b32b4d1fa46e071723d6817e2486d003becc55f00a2646970667358221220e35ab79ddf7b4c34de902b215229766103f1a8b80eb30fff215c7232912004d664736f6c63430008180033","opcodes":"PUSH1 0x80 DUP1 PUSH1 0x40 MSTORE CALLVALUE PUSH2 0xA1 JUMPI CALLER ISZERO PUSH2 0x8C JUMPI PUSH0 DUP1 SLOAD CALLER PUSH1 0x1 PUSH1 0x1 PUSH1 0xA0 SHL SUB NOT DUP3 AND DUP2 OR DUP4 SSTORE PUSH1 0x40 MLOAD SWAP3 SWAP1 SWAP2 PUSH1 0x1 PUSH1 0x1 PUSH1 0xA0 SHL SUB AND SWAP1 PUSH32 0x8BE0079C531659141344CD1FD0A4F28419497F9722A3DAAFE3B4186F6B6457E0 SWAP1 DUP1 LOG3 PUSH1 0x1 PUSH32 0x9B779B17422D0DF92223018B32B4D1FA46E071723D6817E2486D003BECC55F00 SSTORE PUSH1 0xC8 PUSH1 0x7 SSTORE PUSH2 0x23B9 SWAP1 DUP2 PUSH2 0xA6 DUP3 CODECOPY RETURN JUMPDEST PUSH4 0x1E4FBDF7 PUSH1 0xE0 SHL DUP2 MSTORE PUSH0 PUSH1 0x4 DUP3 ADD MSTORE PUSH1 0x24 SWAP1 REVERT JUMPDEST PUSH0 DUP1 REVERT INVALID PUSH1 0x80 PUSH1 0x40 MSTORE PUSH1 0x4 CALLDATASIZE LT ISZERO PUSH2 0x1A JUMPI JUMPDEST CALLDATASIZE ISZERO PUSH2 0x18 JUMPI PUSH0 DUP1 REVERT JUMPDEST STOP JUMPDEST PUSH0 CALLDATALOAD PUSH1 0xE0 SHR DUP1 PUSH4 0x1A4163E EQ PUSH2 0x19EF JUMPI DUP1 PUSH4 0x1197F4C2 EQ PUSH2 0x1989 JUMPI DUP1 PUSH4 0x12E8E2C3 EQ PUSH2 0x1923 JUMPI DUP1 PUSH4 0x1ACE87B3 EQ PUSH2 0x1906 JUMPI DUP1 PUSH4 0x22DCD13E EQ PUSH2 0x18E9 JUMPI DUP1 PUSH4 0x23F57563 EQ PUSH2 0x17E1 JUMPI DUP1 PUSH4 0x34B25EE2 EQ PUSH2 0x1607 JUMPI DUP1 PUSH4 0x5FA42E72 EQ PUSH2 0x15C7 JUMPI DUP1 PUSH4 0x6A000177 EQ PUSH2 0x13F6 JUMPI DUP1 PUSH4 0x715018A6 EQ PUSH2 0x139F JUMPI DUP1 PUSH4 0x7A1779A9 EQ PUSH2 0x1345 JUMPI DUP1 PUSH4 0x8D0DCFEA EQ PUSH2 0x1328 JUMPI DUP1 PUSH4 0x8DA5CB5B EQ PUSH2 0x1301 JUMPI DUP1 PUSH4 0x991483AF EQ PUSH2 0x127B JUMPI DUP1 PUSH4 0xA46A5661 EQ PUSH2 0x11CD JUMPI DUP1 PUSH4 0xB65066B1 EQ PUSH2 0xC7C JUMPI DUP1 PUSH4 0xBF22C457 EQ PUSH2 0xA93 JUMPI DUP1 PUSH4 0xC1BC6576 EQ PUSH2 0x45B JUMPI DUP1 PUSH4 0xCB1C2B5C EQ PUSH2 0x439 JUMPI DUP1 PUSH4 0xD0B7830B EQ PUSH2 0x39C JUMPI DUP1 PUSH4 0xD452E21B EQ PUSH2 0x37F JUMPI DUP1 PUSH4 0xD93D9BEB EQ PUSH2 0x1CC JUMPI DUP1 PUSH4 0xF2FDE38B EQ PUSH2 0x147 JUMPI PUSH4 0xF585DC57 SUB PUSH2 0xE JUMPI CALLVALUE PUSH2 0x143 JUMPI PUSH0 CALLDATASIZE PUSH1 0x3 NOT ADD SLT PUSH2 0x143 JUMPI PUSH1 0x20 PUSH1 0x40 MLOAD PUSH3 0x2A300 DUP2 MSTORE RETURN JUMPDEST PUSH0 DUP1 REVERT JUMPDEST CALLVALUE PUSH2 0x143 JUMPI PUSH1 0x20 CALLDATASIZE PUSH1 0x3 NOT ADD SLT PUSH2 0x143 JUMPI PUSH2 0x160 PUSH2 0x1AE2 JUMP JUMPDEST PUSH2 0x168 PUSH2 0x2309 JUMP JUMPDEST PUSH1 0x1 PUSH1 0x1 PUSH1 0xA0 SHL SUB SWAP1 DUP2 AND SWAP1 DUP2 ISZERO PUSH2 0x1B4 JUMPI PUSH0 SLOAD DUP3 PUSH1 0x1 PUSH1 0x1 PUSH1 0x60 SHL SUB PUSH1 0xA0 SHL DUP3 AND OR PUSH0 SSTORE AND PUSH32 0x8BE0079C531659141344CD1FD0A4F28419497F9722A3DAAFE3B4186F6B6457E0 PUSH0 DUP1 LOG3 STOP JUMPDEST PUSH1 0x40 MLOAD PUSH4 0x1E4FBDF7 PUSH1 0xE0 SHL DUP2 MSTORE PUSH0 PUSH1 0x4 DUP3 ADD MSTORE PUSH1 0x24 SWAP1 REVERT JUMPDEST CALLVALUE PUSH2 0x143 JUMPI PUSH1 0x20 CALLDATASIZE PUSH1 0x3 NOT ADD SLT PUSH2 0x143 JUMPI PUSH1 0x4 CALLDATALOAD PUSH2 0x1E8 PUSH2 0x2334 JUMP JUMPDEST PUSH0 DUP2 DUP2 MSTORE PUSH1 0x4 PUSH1 0x20 MSTORE PUSH1 0x40 SWAP1 KECCAK256 PUSH1 0x1 DUP2 ADD SLOAD PUSH1 0x1 PUSH1 0x1 PUSH1 0xA0 SHL SUB AND CALLER SUB PUSH2 0x33A JUMPI PUSH1 0xA DUP2 ADD SWAP1 DUP2 SLOAD SWAP1 PUSH1 0xFF DUP3 AND PUSH1 0x6 DUP2 LT ISZERO PUSH2 0x326 JUMPI PUSH1 0x2 SUB PUSH2 0x2E1 JUMPI PUSH1 0x9 ADD SLOAD PUSH3 0x2A300 DUP2 ADD DUP1 SWAP2 GT PUSH2 0x2CD JUMPI TIMESTAMP GT PUSH2 0x27D JUMPI PUSH1 0xFF NOT AND PUSH1 0x4 OR SWAP1 SSTORE CALLER SWAP1 PUSH31 0x7A04C23FAC86B9F00290F402CCEC895256F0B46AD331C80038B783ACBFE419 PUSH0 DUP1 LOG3 PUSH1 0x1 PUSH0 DUP1 MLOAD PUSH1 0x20 PUSH2 0x2364 DUP4 CODECOPY DUP2 MLOAD SWAP2 MSTORE SSTORE STOP JUMPDEST PUSH1 0x40 MLOAD PUSH3 0x461BCD PUSH1 0xE5 SHL DUP2 MSTORE PUSH1 0x20 PUSH1 0x4 DUP3 ADD MSTORE PUSH1 0x22 PUSH1 0x24 DUP3 ADD MSTORE PUSH32 0x4D61726B6574706C6163653A20646973707574652077696E646F7720636C6F73 PUSH1 0x44 DUP3 ADD MSTORE PUSH2 0x1959 PUSH1 0xF2 SHL PUSH1 0x64 DUP3 ADD MSTORE PUSH1 0x84 SWAP1 REVERT JUMPDEST PUSH4 0x4E487B71 PUSH1 0xE0 SHL PUSH0 MSTORE PUSH1 0x11 PUSH1 0x4 MSTORE PUSH1 0x24 PUSH0 REVERT JUMPDEST PUSH1 0x40 MLOAD PUSH3 0x461BCD PUSH1 0xE5 SHL DUP2 MSTORE PUSH1 0x20 PUSH1 0x4 DUP3 ADD MSTORE PUSH1 0x1A PUSH1 0x24 DUP3 ADD MSTORE PUSH32 0x4D61726B6574706C6163653A206E6F7420636F6D706C65746564000000000000 PUSH1 0x44 DUP3 ADD MSTORE PUSH1 0x64 SWAP1 REVERT JUMPDEST PUSH4 0x4E487B71 PUSH1 0xE0 SHL PUSH0 MSTORE PUSH1 0x21 PUSH1 0x4 MSTORE PUSH1 0x24 PUSH0 REVERT JUMPDEST PUSH1 0x40 MLOAD PUSH3 0x461BCD PUSH1 0xE5 SHL DUP2 MSTORE PUSH1 0x20 PUSH1 0x4 DUP3 ADD MSTORE PUSH1 0x1A PUSH1 0x24 DUP3 ADD MSTORE PUSH32 0x4D61726B6574706C6163653A206E6F7420726571756573746572000000000000 PUSH1 0x44 DUP3 ADD MSTORE PUSH1 0x64 SWAP1 REVERT JUMPDEST CALLVALUE PUSH2 0x143 JUMPI PUSH0 CALLDATASIZE PUSH1 0x3 NOT ADD SLT PUSH2 0x143 JUMPI PUSH1 0x20 PUSH1 0x40 MLOAD PUSH3 0x15180 DUP2 MSTORE RETURN JUMPDEST CALLVALUE PUSH2 0x143 JUMPI PUSH0 CALLDATASIZE PUSH1 0x3 NOT ADD SLT PUSH2 0x143 JUMPI PUSH2 0x3B4 PUSH2 0x2309 JUMP JUMPDEST PUSH2 0x3BC PUSH2 0x2334 JUMP JUMPDEST PUSH0 DUP1 DUP1 DUP1 PUSH1 0x8 SLOAD DUP2 PUSH1 0x8 SSTORE PUSH1 0x1 DUP1 PUSH1 0xA0 SHL SUB DUP3 SLOAD AND GAS CALL PUSH2 0x3DB PUSH2 0x1C9B JUMP JUMPDEST POP ISZERO PUSH2 0x3F4 JUMPI PUSH1 0x1 PUSH0 DUP1 MLOAD PUSH1 0x20 PUSH2 0x2364 DUP4 CODECOPY DUP2 MLOAD SWAP2 MSTORE SSTORE STOP JUMPDEST PUSH1 0x40 MLOAD PUSH3 0x461BCD PUSH1 0xE5 SHL DUP2 MSTORE PUSH1 0x20 PUSH1 0x4 DUP3 ADD MSTORE PUSH1 0x1C PUSH1 0x24 DUP3 ADD MSTORE PUSH32 0x4D61726B6574706C6163653A207769746864726177206661696C656400000000 PUSH1 0x44 DUP3 ADD MSTORE PUSH1 0x64 SWAP1 REVERT JUMPDEST CALLVALUE PUSH2 0x143 JUMPI PUSH0 CALLDATASIZE PUSH1 0x3 NOT ADD SLT PUSH2 0x143 JUMPI PUSH1 0x20 PUSH1 0x40 MLOAD PUSH8 0x16345785D8A0000 DUP2 MSTORE RETURN JUMPDEST PUSH1 0x60 CALLDATASIZE PUSH1 0x3 NOT ADD SLT PUSH2 0x143 JUMPI PUSH1 0x4 CALLDATALOAD PUSH1 0x1 PUSH1 0x1 PUSH1 0x40 SHL SUB DUP2 GT PUSH2 0x143 JUMPI PUSH2 0x486 SWAP1 CALLDATASIZE SWAP1 PUSH1 0x4 ADD PUSH2 0x1AB5 JUMP JUMPDEST SWAP1 PUSH1 0x24 CALLDATALOAD PUSH1 0x1 PUSH1 0x1 PUSH1 0x40 SHL SUB DUP2 GT PUSH2 0x143 JUMPI PUSH2 0x4A6 SWAP1 CALLDATASIZE SWAP1 PUSH1 0x4 ADD PUSH2 0x1AB5 JUMP JUMPDEST PUSH1 0x44 SWAP3 SWAP2 DUP4 CALLDATALOAD PUSH1 0x1 PUSH1 0x1 PUSH1 0x40 SHL SUB DUP2 GT PUSH2 0x143 JUMPI PUSH2 0x4C8 SWAP1 CALLDATASIZE SWAP1 PUSH1 0x4 ADD PUSH2 0x1AB5 JUMP JUMPDEST SWAP1 PUSH2 0x4D1 PUSH2 0x2334 JUMP JUMPDEST DUP7 ISZERO PUSH2 0xA4F JUMPI DUP4 ISZERO PUSH2 0xA0B JUMPI PUSH1 0x41 DUP3 SUB PUSH2 0x9C7 JUMPI PUSH8 0x16345785D8A0000 CALLVALUE LT PUSH2 0x983 JUMPI PUSH2 0x4FF CALLER DUP9 DUP8 PUSH2 0x22C9 JUMP JUMPDEST SWAP6 DUP7 PUSH0 MSTORE PUSH1 0x2 PUSH1 0x20 MSTORE PUSH1 0x8 PUSH1 0x40 PUSH0 KECCAK256 ADD SLOAD PUSH2 0x93F JUMPI POP PUSH2 0x550 SWAP1 PUSH1 0x40 MLOAD SWAP3 PUSH2 0x526 DUP5 PUSH2 0x1BFF JUMP JUMPDEST PUSH2 0x531 CALLDATASIZE DUP11 DUP10 PUSH2 0x2244 JUMP JUMPDEST DUP5 MSTORE CALLER PUSH1 0x20 DUP6 ADD MSTORE PUSH2 0x544 CALLDATASIZE DUP8 DUP8 PUSH2 0x2244 JUMP JUMPDEST PUSH1 0x40 DUP6 ADD MSTORE CALLDATASIZE SWAP2 PUSH2 0x2244 JUMP JUMPDEST PUSH1 0x60 DUP3 ADD MSTORE CALLVALUE PUSH1 0x80 DUP3 ADD MSTORE PUSH0 PUSH1 0xA0 DUP3 ADD MSTORE PUSH0 PUSH1 0xC0 DUP3 ADD MSTORE PUSH0 PUSH1 0xE0 DUP3 ADD MSTORE TIMESTAMP PUSH2 0x100 DUP3 ADD MSTORE PUSH1 0x1 PUSH2 0x120 DUP3 ADD MSTORE DUP5 PUSH0 MSTORE PUSH1 0x2 PUSH1 0x20 MSTORE PUSH1 0x40 PUSH0 KECCAK256 DUP2 MLOAD DUP1 MLOAD SWAP1 PUSH1 0x1 PUSH1 0x1 PUSH1 0x40 SHL SUB DUP3 GT PUSH2 0x7CD JUMPI PUSH2 0x5AF DUP3 PUSH2 0x5A9 DUP6 SLOAD PUSH2 0x1CCA JUMP JUMPDEST DUP6 PUSH2 0x1DDF JUMP JUMPDEST PUSH1 0x20 SWAP1 PUSH1 0x1F DUP4 GT PUSH1 0x1 EQ PUSH2 0x8D7 JUMPI PUSH2 0x5DE SWAP3 SWAP2 PUSH0 SWAP2 DUP4 PUSH2 0x85E JUMPI JUMPDEST POP POP DUP2 PUSH1 0x1 SHL SWAP2 PUSH0 NOT SWAP1 PUSH1 0x3 SHL SHR NOT AND OR SWAP1 JUMP JUMPDEST DUP2 SSTORE JUMPDEST PUSH1 0x1 DUP2 ADD PUSH1 0x1 DUP1 PUSH1 0xA0 SHL SUB PUSH1 0x20 DUP5 ADD MLOAD AND PUSH1 0x1 PUSH1 0x1 PUSH1 0x60 SHL SUB PUSH1 0xA0 SHL DUP3 SLOAD AND OR SWAP1 SSTORE PUSH1 0x40 DUP3 ADD MLOAD DUP1 MLOAD SWAP1 PUSH1 0x1 PUSH1 0x1 PUSH1 0x40 SHL SUB DUP3 GT PUSH2 0x7CD JUMPI PUSH2 0x633 DUP3 PUSH2 0x62A PUSH1 0x2 DUP7 ADD SLOAD PUSH2 0x1CCA JUMP JUMPDEST PUSH1 0x2 DUP7 ADD PUSH2 0x1DDF JUMP JUMPDEST PUSH1 0x20 SWAP1 PUSH1 0x1F DUP4 GT PUSH1 0x1 EQ PUSH2 0x869 JUMPI PUSH2 0x661 SWAP3 SWAP2 PUSH0 SWAP2 DUP4 PUSH2 0x85E JUMPI POP POP DUP2 PUSH1 0x1 SHL SWAP2 PUSH0 NOT SWAP1 PUSH1 0x3 SHL SHR NOT AND OR SWAP1 JUMP JUMPDEST PUSH1 0x2 DUP3 ADD SSTORE JUMPDEST PUSH1 0x60 DUP3 ADD MLOAD DUP1 MLOAD SWAP1 PUSH1 0x1 PUSH1 0x1 PUSH1 0x40 SHL SUB DUP3 GT PUSH2 0x7CD JUMPI PUSH2 0x697 DUP3 PUSH2 0x68E PUSH1 0x3 DUP7 ADD SLOAD PUSH2 0x1CCA JUMP JUMPDEST PUSH1 0x3 DUP7 ADD PUSH2 0x1DDF JUMP JUMPDEST PUSH1 0x20 SWAP1 PUSH1 0x1F DUP4 GT PUSH1 0x1 EQ PUSH2 0x7EC JUMPI DUP3 PUSH1 0x9 SWAP4 PUSH2 0x120 SWAP6 SWAP4 PUSH2 0x6CC SWAP4 PUSH0 SWAP3 PUSH2 0x7E1 JUMPI POP POP DUP2 PUSH1 0x1 SHL SWAP2 PUSH0 NOT SWAP1 PUSH1 0x3 SHL SHR NOT AND OR SWAP1 JUMP JUMPDEST PUSH1 0x3 DUP3 ADD SSTORE JUMPDEST PUSH1 0x80 DUP5 ADD MLOAD PUSH1 0x4 DUP3 ADD SSTORE PUSH1 0xA0 DUP5 ADD MLOAD PUSH1 0x5 DUP3 ADD SSTORE PUSH1 0xC0 DUP5 ADD MLOAD PUSH1 0x6 DUP3 ADD SSTORE PUSH1 0xE0 DUP5 ADD MLOAD PUSH1 0x7 DUP3 ADD SSTORE PUSH2 0x100 DUP5 ADD MLOAD PUSH1 0x8 DUP3 ADD SSTORE ADD SWAP2 ADD MLOAD PUSH1 0x4 DUP2 LT ISZERO PUSH2 0x326 JUMPI PUSH1 0xFF DUP1 NOT DUP4 SLOAD AND SWAP2 AND OR SWAP1 SSTORE CALLER PUSH0 MSTORE PUSH1 0x3 PUSH1 0x20 MSTORE PUSH1 0x40 PUSH0 KECCAK256 SWAP2 DUP3 SLOAD PUSH1 0x1 PUSH1 0x40 SHL DUP2 LT ISZERO PUSH2 0x7CD JUMPI PUSH32 0xFDDBA675844B1EF09BD3117348016E6846B7584C6A2662E33B6EAE8234E260A4 SWAP5 DUP7 PUSH2 0x78B PUSH2 0x775 DUP5 PUSH2 0x7AD SWAP9 PUSH1 0x1 PUSH2 0x79F SWAP8 ADD DUP2 SSTORE PUSH2 0x227A JUMP JUMPDEST DUP2 SWAP4 SWAP2 SLOAD SWAP1 PUSH1 0x3 SHL SWAP2 DUP3 SHL SWAP2 PUSH0 NOT SWAP1 SHL NOT AND OR SWAP1 JUMP JUMPDEST SWAP1 SSTORE PUSH1 0x40 MLOAD SWAP8 PUSH1 0x60 DUP10 MSTORE PUSH1 0x60 DUP10 ADD SWAP2 PUSH2 0x1E2E JUMP JUMPDEST SWAP2 DUP7 DUP4 SUB PUSH1 0x20 DUP9 ADD MSTORE PUSH2 0x1E2E JUMP JUMPDEST SWAP3 CALLVALUE PUSH1 0x40 DUP3 ADD MSTORE DUP1 CALLER SWAP5 SUB SWAP1 LOG3 PUSH1 0x1 PUSH0 DUP1 MLOAD PUSH1 0x20 PUSH2 0x2364 DUP4 CODECOPY DUP2 MLOAD SWAP2 MSTORE SSTORE STOP JUMPDEST PUSH4 0x4E487B71 PUSH1 0xE0 SHL PUSH0 MSTORE PUSH1 0x41 PUSH1 0x4 MSTORE PUSH1 0x24 PUSH0 REVERT JUMPDEST ADD MLOAD SWAP1 POP DUP13 DUP1 PUSH2 0x5CA JUMP JUMPDEST SWAP1 PUSH1 0x3 DUP5 ADD PUSH0 MSTORE PUSH1 0x20 PUSH0 KECCAK256 SWAP2 PUSH0 JUMPDEST PUSH1 0x1F NOT DUP6 AND DUP2 LT PUSH2 0x846 JUMPI POP SWAP3 PUSH2 0x120 SWAP5 SWAP3 PUSH1 0x1 SWAP3 PUSH1 0x9 SWAP6 DUP4 PUSH1 0x1F NOT DUP2 AND LT PUSH2 0x82E JUMPI JUMPDEST POP POP POP DUP2 SHL ADD PUSH1 0x3 DUP3 ADD SSTORE PUSH2 0x6D2 JUMP JUMPDEST ADD MLOAD PUSH0 NOT PUSH1 0xF8 DUP5 PUSH1 0x3 SHL AND SHR NOT AND SWAP1 SSTORE DUP12 DUP1 DUP1 PUSH2 0x81E JUMP JUMPDEST SWAP2 SWAP3 PUSH1 0x20 PUSH1 0x1 DUP2 SWAP3 DUP7 DUP6 ADD MLOAD DUP2 SSTORE ADD SWAP5 ADD SWAP3 ADD PUSH2 0x7FA JUMP JUMPDEST ADD MLOAD SWAP1 POP DUP11 DUP1 PUSH2 0x5CA JUMP JUMPDEST SWAP2 SWAP1 PUSH1 0x2 DUP5 ADD PUSH0 MSTORE PUSH1 0x20 PUSH0 KECCAK256 SWAP1 PUSH0 SWAP4 JUMPDEST PUSH1 0x1F NOT DUP5 AND DUP6 LT PUSH2 0x8BC JUMPI PUSH1 0x1 SWAP5 POP DUP4 PUSH1 0x1F NOT DUP2 AND LT PUSH2 0x8A4 JUMPI JUMPDEST POP POP POP DUP2 SHL ADD PUSH1 0x2 DUP3 ADD SSTORE PUSH2 0x667 JUMP JUMPDEST ADD MLOAD PUSH0 NOT PUSH1 0xF8 DUP5 PUSH1 0x3 SHL AND SHR NOT AND SWAP1 SSTORE DUP10 DUP1 DUP1 PUSH2 0x894 JUMP JUMPDEST DUP2 DUP2 ADD MLOAD DUP4 SSTORE PUSH1 0x20 SWAP5 DUP6 ADD SWAP5 PUSH1 0x1 SWAP1 SWAP4 ADD SWAP3 SWAP1 SWAP2 ADD SWAP1 PUSH2 0x879 JUMP JUMPDEST SWAP2 SWAP1 DUP4 PUSH0 MSTORE PUSH1 0x20 PUSH0 KECCAK256 SWAP1 PUSH0 SWAP4 JUMPDEST PUSH1 0x1F NOT DUP5 AND DUP6 LT PUSH2 0x924 JUMPI PUSH1 0x1 SWAP5 POP DUP4 PUSH1 0x1F NOT DUP2 AND LT PUSH2 0x90C JUMPI JUMPDEST POP POP POP DUP2 SHL ADD DUP2 SSTORE PUSH2 0x5E1 JUMP JUMPDEST ADD MLOAD PUSH0 NOT PUSH1 0xF8 DUP5 PUSH1 0x3 SHL AND SHR NOT AND SWAP1 SSTORE DUP10 DUP1 DUP1 PUSH2 0x8FF JUMP JUMPDEST DUP2 DUP2 ADD MLOAD DUP4 SSTORE PUSH1 0x20 SWAP5 DUP6 ADD SWAP5 PUSH1 0x1 SWAP1 SWAP4 ADD SWAP3 SWAP1 SWAP2 ADD SWAP1 PUSH2 0x8E4 JUMP JUMPDEST PUSH1 0x64 SWAP1 PUSH32 0x4D61726B6574706C6163653A20616C7265616479207265676973746572656400 PUSH1 0x40 MLOAD SWAP2 PUSH3 0x461BCD PUSH1 0xE5 SHL DUP4 MSTORE PUSH1 0x20 PUSH1 0x4 DUP5 ADD MSTORE PUSH1 0x1F PUSH1 0x24 DUP5 ADD MSTORE DUP3 ADD MSTORE REVERT JUMPDEST PUSH1 0x40 MLOAD PUSH3 0x461BCD PUSH1 0xE5 SHL DUP2 MSTORE PUSH1 0x20 PUSH1 0x4 DUP3 ADD MSTORE PUSH1 0x1F PUSH1 0x24 DUP3 ADD MSTORE PUSH32 0x4D61726B6574706C6163653A20696E73756666696369656E74207374616B6500 DUP2 DUP9 ADD MSTORE PUSH1 0x64 SWAP1 REVERT JUMPDEST PUSH1 0x40 MLOAD PUSH3 0x461BCD PUSH1 0xE5 SHL DUP2 MSTORE PUSH1 0x20 PUSH1 0x4 DUP3 ADD MSTORE PUSH1 0x1B PUSH1 0x24 DUP3 ADD MSTORE PUSH32 0x4D61726B6574706C6163653A20696E76616C6964207075626B65790000000000 DUP2 DUP9 ADD MSTORE PUSH1 0x64 SWAP1 REVERT JUMPDEST PUSH1 0x40 MLOAD PUSH3 0x461BCD PUSH1 0xE5 SHL DUP2 MSTORE PUSH1 0x20 PUSH1 0x4 DUP3 ADD MSTORE PUSH1 0x1B PUSH1 0x24 DUP3 ADD MSTORE PUSH32 0x4D61726B6574706C6163653A20656D70747920656E64706F696E740000000000 DUP2 DUP9 ADD MSTORE PUSH1 0x64 SWAP1 REVERT JUMPDEST PUSH1 0x40 MLOAD PUSH3 0x461BCD PUSH1 0xE5 SHL DUP2 MSTORE PUSH1 0x20 PUSH1 0x4 DUP3 ADD MSTORE PUSH1 0x1A PUSH1 0x24 DUP3 ADD MSTORE PUSH32 0x4D61726B6574706C6163653A20656D707479206167656E744964000000000000 DUP2 DUP9 ADD MSTORE PUSH1 0x64 SWAP1 REVERT JUMPDEST CALLVALUE PUSH2 0x143 JUMPI PUSH1 0x20 CALLDATASIZE PUSH1 0x3 NOT ADD SLT PUSH2 0x143 JUMPI PUSH1 0x4 CALLDATALOAD PUSH0 PUSH2 0x140 PUSH1 0x40 MLOAD PUSH2 0xAB7 DUP2 PUSH2 0x1C1B JUMP JUMPDEST DUP3 DUP2 MSTORE DUP3 PUSH1 0x20 DUP3 ADD MSTORE DUP3 PUSH1 0x40 DUP3 ADD MSTORE PUSH1 0x60 DUP1 DUP3 ADD MSTORE DUP3 PUSH1 0x80 DUP3 ADD MSTORE PUSH1 0x60 PUSH1 0xA0 DUP3 ADD MSTORE DUP3 PUSH1 0xC0 DUP3 ADD MSTORE DUP3 PUSH1 0xE0 DUP3 ADD MSTORE DUP3 PUSH2 0x100 DUP3 ADD MSTORE DUP3 PUSH2 0x120 DUP3 ADD MSTORE ADD MSTORE DUP1 PUSH0 MSTORE PUSH1 0x4 PUSH1 0x20 MSTORE PUSH2 0xB0F PUSH1 0x8 PUSH1 0x40 PUSH0 KECCAK256 ADD SLOAD ISZERO ISZERO PUSH2 0x1D93 JUMP JUMPDEST PUSH0 MSTORE PUSH1 0x4 PUSH1 0x20 MSTORE PUSH1 0x40 PUSH0 KECCAK256 PUSH1 0xFF PUSH1 0xA PUSH1 0x40 MLOAD SWAP3 PUSH2 0xB2B DUP5 PUSH2 0x1C1B JUMP JUMPDEST DUP1 SLOAD DUP5 MSTORE PUSH1 0x1 DUP2 ADD SLOAD PUSH1 0x1 PUSH1 0x1 PUSH1 0xA0 SHL SUB AND PUSH1 0x20 DUP6 ADD MSTORE PUSH1 0x2 DUP2 ADD SLOAD PUSH1 0x40 DUP1 DUP7 ADD SWAP2 SWAP1 SWAP2 MSTORE MLOAD PUSH2 0xB69 DUP2 PUSH2 0xB62 DUP2 PUSH1 0x3 DUP7 ADD PUSH2 0x1D02 JUMP JUMPDEST SUB DUP3 PUSH2 0x1C37 JUMP JUMPDEST PUSH1 0x60 DUP6 ADD MSTORE PUSH1 0x4 DUP2 ADD SLOAD PUSH1 0x80 DUP6 ADD MSTORE PUSH1 0x40 MLOAD PUSH2 0xB8C DUP2 PUSH2 0xB62 DUP2 PUSH1 0x5 DUP7 ADD PUSH2 0x1D02 JUMP JUMPDEST PUSH1 0xA0 DUP6 ADD MSTORE PUSH1 0x6 DUP2 ADD SLOAD PUSH1 0xC0 DUP6 ADD MSTORE PUSH1 0x7 DUP2 ADD SLOAD PUSH1 0xE0 DUP6 ADD MSTORE PUSH1 0x8 DUP2 ADD SLOAD PUSH2 0x100 DUP6 ADD MSTORE PUSH1 0x9 DUP2 ADD SLOAD PUSH2 0x120 DUP6 ADD MSTORE ADD SLOAD AND PUSH1 0x6 DUP2 LT ISZERO PUSH2 0x326 JUMPI PUSH2 0x140 DUP3 ADD MSTORE PUSH1 0x40 MLOAD SWAP1 PUSH1 0x20 DUP3 MSTORE DUP1 MLOAD PUSH1 0x20 DUP4 ADD MSTORE PUSH1 0x1 DUP1 PUSH1 0xA0 SHL SUB PUSH1 0x20 DUP3 ADD MLOAD AND PUSH1 0x40 DUP4 ADD MSTORE PUSH1 0x40 DUP2 ADD MLOAD PUSH1 0x60 DUP4 ADD MSTORE PUSH1 0x60 DUP2 ADD MLOAD SWAP1 PUSH2 0x140 PUSH2 0xC3C PUSH2 0xC1C PUSH2 0x160 SWAP5 DUP6 PUSH1 0x80 DUP9 ADD MSTORE PUSH2 0x180 DUP8 ADD SWAP1 PUSH2 0x1B75 JUMP JUMPDEST PUSH1 0x80 DUP5 ADD MLOAD PUSH1 0xA0 DUP8 ADD MSTORE PUSH1 0xA0 DUP5 ADD MLOAD PUSH1 0x1F NOT DUP8 DUP4 SUB ADD PUSH1 0xC0 DUP9 ADD MSTORE PUSH2 0x1B75 JUMP JUMPDEST SWAP2 PUSH1 0xC0 DUP2 ADD MLOAD PUSH1 0xE0 DUP7 ADD MSTORE PUSH1 0xE0 DUP2 ADD MLOAD PUSH2 0x100 DUP7 ADD MSTORE PUSH2 0x100 DUP2 ADD MLOAD PUSH2 0x120 DUP7 ADD MSTORE PUSH2 0x120 DUP2 ADD MLOAD DUP3 DUP7 ADD MSTORE ADD MLOAD PUSH1 0x6 DUP2 LT ISZERO PUSH2 0x326 JUMPI DUP4 SWAP3 DUP4 ADD MSTORE SUB SWAP1 RETURN JUMPDEST PUSH1 0x80 CALLDATASIZE PUSH1 0x3 NOT ADD SLT PUSH2 0x143 JUMPI PUSH1 0x4 CALLDATALOAD PUSH1 0x1 PUSH1 0x1 PUSH1 0x40 SHL SUB DUP2 GT PUSH2 0x143 JUMPI PUSH2 0xCA7 SWAP1 CALLDATASIZE SWAP1 PUSH1 0x4 ADD PUSH2 0x1AB5 JUMP JUMPDEST PUSH1 0x24 CALLDATALOAD SWAP2 PUSH1 0x1 PUSH1 0x1 PUSH1 0xA0 SHL SUB DUP4 AND DUP4 SUB PUSH2 0x143 JUMPI PUSH1 0x44 DUP1 CALLDATALOAD PUSH1 0x1 PUSH1 0x1 PUSH1 0x40 SHL SUB DUP2 GT PUSH2 0x143 JUMPI PUSH2 0xCDB SWAP1 CALLDATASIZE SWAP1 PUSH1 0x4 ADD PUSH2 0x1AB5 JUMP JUMPDEST SWAP5 SWAP1 SWAP4 PUSH1 0x64 SWAP4 PUSH2 0xCE9 PUSH2 0x2334 JUMP JUMPDEST DUP7 ISZERO PUSH2 0x1189 JUMPI DUP5 CALLDATALOAD ISZERO PUSH2 0x1145 JUMPI CALLVALUE ISZERO PUSH2 0x1101 JUMPI SWAP1 PUSH2 0xD07 SWAP3 SWAP2 PUSH2 0x22C9 JUMP JUMPDEST SWAP2 DUP3 PUSH0 MSTORE PUSH1 0x2 PUSH1 0x20 MSTORE PUSH1 0x40 PUSH0 KECCAK256 SWAP2 PUSH1 0x8 DUP4 ADD SLOAD ISZERO PUSH2 0x10C0 JUMPI PUSH1 0xFF PUSH1 0x9 DUP5 ADD SLOAD AND PUSH1 0x4 DUP2 LT ISZERO PUSH2 0x326 JUMPI PUSH1 0x1 SUB PUSH2 0x107F JUMPI POP PUSH2 0xD6E PUSH1 0x1 SLOAD SWAP5 PUSH2 0xD48 DUP7 PUSH2 0x1C72 JUMP JUMPDEST PUSH1 0x1 SSTORE PUSH1 0x40 MLOAD SWAP7 PUSH2 0xD58 DUP9 PUSH2 0x1C1B JUMP JUMPDEST DUP7 DUP9 MSTORE CALLER PUSH1 0x20 DUP10 ADD MSTORE DUP6 PUSH1 0x40 DUP10 ADD MSTORE CALLDATASIZE SWAP2 PUSH2 0x2244 JUMP JUMPDEST PUSH1 0x60 DUP7 ADD MSTORE CALLDATALOAD PUSH1 0x80 DUP6 ADD MSTORE PUSH1 0x40 MLOAD DUP1 PUSH1 0x20 DUP2 ADD LT PUSH1 0x1 PUSH1 0x1 PUSH1 0x40 SHL SUB PUSH1 0x20 DUP4 ADD GT OR PUSH2 0x7CD JUMPI PUSH1 0x20 DUP2 ADD PUSH1 0x40 MSTORE PUSH0 DUP2 MSTORE PUSH1 0xA0 DUP6 ADD MSTORE PUSH0 PUSH1 0xC0 DUP6 ADD MSTORE CALLVALUE PUSH1 0xE0 DUP6 ADD MSTORE TIMESTAMP PUSH2 0x100 DUP6 ADD MSTORE PUSH0 PUSH2 0x120 DUP6 ADD MSTORE PUSH0 PUSH2 0x140 DUP6 ADD MSTORE DUP3 PUSH0 MSTORE PUSH1 0x4 PUSH1 0x20 MSTORE PUSH1 0x40 PUSH0 KECCAK256 DUP5 MLOAD DUP2 SSTORE PUSH1 0x1 DUP2 ADD PUSH1 0x1 DUP1 PUSH1 0xA0 SHL SUB PUSH1 0x20 DUP8 ADD MLOAD AND PUSH1 0x1 PUSH1 0x1 PUSH1 0x60 SHL SUB PUSH1 0xA0 SHL DUP3 SLOAD AND OR SWAP1 SSTORE PUSH1 0x40 DUP6 ADD MLOAD PUSH1 0x2 DUP3 ADD SSTORE PUSH1 0x60 DUP6 ADD MLOAD DUP1 MLOAD SWAP1 PUSH1 0x1 PUSH1 0x1 PUSH1 0x40 SHL SUB DUP3 GT PUSH2 0x7CD JUMPI PUSH2 0xE27 DUP3 PUSH2 0x68E PUSH1 0x3 DUP7 ADD SLOAD PUSH2 0x1CCA JUMP JUMPDEST PUSH1 0x20 SWAP1 PUSH1 0x1F DUP4 GT PUSH1 0x1 EQ PUSH2 0x1011 JUMPI PUSH2 0xE55 SWAP3 SWAP2 PUSH0 SWAP2 DUP4 PUSH2 0x1006 JUMPI POP POP DUP2 PUSH1 0x1 SHL SWAP2 PUSH0 NOT SWAP1 PUSH1 0x3 SHL SHR NOT AND OR SWAP1 JUMP JUMPDEST PUSH1 0x3 DUP3 ADD SSTORE JUMPDEST PUSH1 0x80 DUP6 ADD MLOAD PUSH1 0x4 DUP3 ADD SSTORE PUSH1 0xA0 DUP6 ADD MLOAD DUP1 MLOAD SWAP1 PUSH1 0x1 PUSH1 0x1 PUSH1 0x40 SHL SUB DUP3 GT PUSH2 0x7CD JUMPI PUSH2 0xE95 DUP3 PUSH2 0xE8C PUSH1 0x5 DUP7 ADD SLOAD PUSH2 0x1CCA JUMP JUMPDEST PUSH1 0x5 DUP7 ADD PUSH2 0x1DDF JUMP JUMPDEST PUSH1 0x20 SWAP1 PUSH1 0x1F DUP4 GT PUSH1 0x1 EQ PUSH2 0xF94 JUMPI DUP3 PUSH1 0xA SWAP4 PUSH2 0x140 SWAP6 SWAP4 PUSH2 0xECA SWAP4 PUSH0 SWAP3 PUSH2 0x85E JUMPI POP POP DUP2 PUSH1 0x1 SHL SWAP2 PUSH0 NOT SWAP1 PUSH1 0x3 SHL SHR NOT AND OR SWAP1 JUMP JUMPDEST PUSH1 0x5 DUP3 ADD SSTORE JUMPDEST PUSH1 0xC0 DUP8 ADD MLOAD PUSH1 0x6 DUP3 ADD SSTORE PUSH1 0xE0 DUP8 ADD MLOAD PUSH1 0x7 DUP3 ADD SSTORE PUSH2 0x100 DUP8 ADD MLOAD PUSH1 0x8 DUP3 ADD SSTORE PUSH2 0x120 DUP8 ADD MLOAD PUSH1 0x9 DUP3 ADD SSTORE ADD SWAP5 ADD MLOAD PUSH1 0x6 DUP2 LT ISZERO PUSH2 0x326 JUMPI PUSH1 0x2 PUSH1 0x9 SWAP2 PUSH1 0x20 SWAP7 PUSH1 0xFF NOT SWAP2 PUSH1 0xFF DUP4 DUP4 SLOAD AND SWAP2 AND OR SWAP1 SSTORE DUP5 PUSH0 MSTORE PUSH1 0x5 DUP8 MSTORE PUSH2 0xF32 DUP7 PUSH1 0x40 PUSH0 KECCAK256 PUSH2 0x22A3 JUMP JUMPDEST CALLER PUSH0 MSTORE PUSH1 0x6 DUP8 MSTORE PUSH2 0xF46 DUP7 PUSH1 0x40 PUSH0 KECCAK256 PUSH2 0x22A3 JUMP JUMPDEST DUP3 DUP5 ADD SLOAD AND OR SWAP2 ADD SSTORE PUSH1 0x40 MLOAD CALLVALUE DUP2 MSTORE DUP3 PUSH32 0x737FC62FBB05DD9FB7C799E68796A2D7C8324E310AF7B656C0580E7B3CF8BF8A DUP6 CALLER SWAP4 LOG4 PUSH1 0x1 PUSH0 DUP1 MLOAD PUSH1 0x20 PUSH2 0x2364 DUP4 CODECOPY DUP2 MLOAD SWAP2 MSTORE SSTORE PUSH1 0x40 MLOAD SWAP1 DUP2 MSTORE RETURN JUMPDEST SWAP1 PUSH1 0x5 DUP5 ADD PUSH0 MSTORE PUSH1 0x20 PUSH0 KECCAK256 SWAP2 PUSH0 JUMPDEST PUSH1 0x1F NOT DUP6 AND DUP2 LT PUSH2 0xFEE JUMPI POP SWAP3 PUSH2 0x140 SWAP5 SWAP3 PUSH1 0x1 SWAP3 PUSH1 0xA SWAP6 DUP4 PUSH1 0x1F NOT DUP2 AND LT PUSH2 0xFD6 JUMPI JUMPDEST POP POP POP DUP2 SHL ADD PUSH1 0x5 DUP3 ADD SSTORE PUSH2 0xED0 JUMP JUMPDEST ADD MLOAD PUSH0 NOT PUSH1 0xF8 DUP5 PUSH1 0x3 SHL AND SHR NOT AND SWAP1 SSTORE DUP10 DUP1 DUP1 PUSH2 0xFC6 JUMP JUMPDEST SWAP2 SWAP3 PUSH1 0x20 PUSH1 0x1 DUP2 SWAP3 DUP7 DUP6 ADD MLOAD DUP2 SSTORE ADD SWAP5 ADD SWAP3 ADD PUSH2 0xFA2 JUMP JUMPDEST ADD MLOAD SWAP1 POP DUP9 DUP1 PUSH2 0x5CA JUMP JUMPDEST SWAP2 SWAP1 PUSH1 0x3 DUP5 ADD PUSH0 MSTORE PUSH1 0x20 PUSH0 KECCAK256 SWAP1 PUSH0 SWAP4 JUMPDEST PUSH1 0x1F NOT DUP5 AND DUP6 LT PUSH2 0x1064 JUMPI PUSH1 0x1 SWAP5 POP DUP4 PUSH1 0x1F NOT DUP2 AND LT PUSH2 0x104C JUMPI JUMPDEST POP POP POP DUP2 SHL ADD PUSH1 0x3 DUP3 ADD SSTORE PUSH2 0xE5B JUMP JUMPDEST ADD MLOAD PUSH0 NOT PUSH1 0xF8 DUP5 PUSH1 0x3 SHL AND SHR NOT AND SWAP1 SSTORE DUP8 DUP1 DUP1 PUSH2 0x103C JUMP JUMPDEST DUP2 DUP2 ADD MLOAD DUP4 SSTORE PUSH1 0x20 SWAP5 DUP6 ADD SWAP5 PUSH1 0x1 SWAP1 SWAP4 ADD SWAP3 SWAP1 SWAP2 ADD SWAP1 PUSH2 0x1021 JUMP JUMPDEST PUSH32 0x4D61726B6574706C6163653A206167656E74206E6F7420617661696C61626C65 PUSH1 0x40 MLOAD SWAP2 PUSH3 0x461BCD PUSH1 0xE5 SHL DUP4 MSTORE PUSH1 0x20 PUSH1 0x4 DUP5 ADD MSTORE PUSH1 0x20 PUSH1 0x24 DUP5 ADD MSTORE DUP3 ADD MSTORE REVERT JUMPDEST PUSH32 0x4D61726B6574706C6163653A206167656E74206E6F7420666F756E6400000000 PUSH1 0x40 MLOAD SWAP2 PUSH3 0x461BCD PUSH1 0xE5 SHL DUP4 MSTORE PUSH1 0x20 PUSH1 0x4 DUP5 ADD MSTORE PUSH1 0x1C PUSH1 0x24 DUP5 ADD MSTORE DUP3 ADD MSTORE REVERT JUMPDEST POP POP POP PUSH32 0x4D61726B6574706C6163653A2066656520726571756972656400000000000000 PUSH1 0x40 MLOAD SWAP2 PUSH3 0x461BCD PUSH1 0xE5 SHL DUP4 MSTORE PUSH1 0x20 PUSH1 0x4 DUP5 ADD MSTORE PUSH1 0x19 PUSH1 0x24 DUP5 ADD MSTORE DUP3 ADD MSTORE REVERT JUMPDEST POP POP POP PUSH32 0x4D61726B6574706C6163653A20656D707479207061796C6F6164486173680000 PUSH1 0x40 MLOAD SWAP2 PUSH3 0x461BCD PUSH1 0xE5 SHL DUP4 MSTORE PUSH1 0x20 PUSH1 0x4 DUP5 ADD MSTORE PUSH1 0x1E PUSH1 0x24 DUP5 ADD MSTORE DUP3 ADD MSTORE REVERT JUMPDEST POP POP POP PUSH32 0x4D61726B6574706C6163653A20656D707479207061796C6F6164000000000000 PUSH1 0x40 MLOAD SWAP2 PUSH3 0x461BCD PUSH1 0xE5 SHL DUP4 MSTORE PUSH1 0x20 PUSH1 0x4 DUP5 ADD MSTORE PUSH1 0x1A PUSH1 0x24 DUP5 ADD MSTORE DUP3 ADD MSTORE REVERT JUMPDEST CALLVALUE PUSH2 0x143 JUMPI PUSH1 0x20 DUP1 PUSH1 0x3 NOT CALLDATASIZE ADD SLT PUSH2 0x143 JUMPI PUSH1 0x1 PUSH1 0x1 PUSH1 0xA0 SHL SUB PUSH2 0x11EF PUSH2 0x1AE2 JUMP JUMPDEST AND PUSH0 MSTORE PUSH1 0x3 DUP2 MSTORE PUSH1 0x40 PUSH0 KECCAK256 PUSH1 0x40 MLOAD SWAP1 DUP2 DUP4 DUP3 SLOAD SWAP2 DUP3 DUP2 MSTORE ADD SWAP1 DUP2 SWAP3 PUSH0 MSTORE DUP5 PUSH0 KECCAK256 SWAP1 PUSH0 JUMPDEST DUP7 DUP3 DUP3 LT PUSH2 0x1267 JUMPI DUP7 DUP7 PUSH2 0x1228 DUP3 DUP9 SUB DUP4 PUSH2 0x1C37 JUMP JUMPDEST PUSH1 0x40 MLOAD SWAP3 DUP4 SWAP3 DUP2 DUP5 ADD SWAP1 DUP3 DUP6 MSTORE MLOAD DUP1 SWAP2 MSTORE PUSH1 0x40 DUP5 ADD SWAP3 SWAP2 PUSH0 JUMPDEST DUP3 DUP2 LT PUSH2 0x1250 JUMPI POP POP POP POP SUB SWAP1 RETURN JUMPDEST DUP4 MLOAD DUP6 MSTORE DUP7 SWAP6 POP SWAP4 DUP2 ADD SWAP4 SWAP3 DUP2 ADD SWAP3 PUSH1 0x1 ADD PUSH2 0x1241 JUMP JUMPDEST DUP4 SLOAD DUP6 MSTORE SWAP1 SWAP4 ADD SWAP3 PUSH1 0x1 SWAP3 DUP4 ADD SWAP3 ADD PUSH2 0x1212 JUMP JUMPDEST CALLVALUE PUSH2 0x143 JUMPI PUSH1 0x20 DUP1 PUSH1 0x3 NOT CALLDATASIZE ADD SLT PUSH2 0x143 JUMPI PUSH1 0x1 PUSH1 0x1 PUSH1 0xA0 SHL SUB PUSH2 0x129D PUSH2 0x1AE2 JUMP JUMPDEST AND PUSH0 MSTORE PUSH1 0x6 PUSH1 0x20 MSTORE PUSH1 0x40 PUSH0 KECCAK256 SWAP1 PUSH1 0x40 MLOAD SWAP1 DUP2 PUSH1 0x20 DUP5 SLOAD SWAP2 DUP3 DUP2 MSTORE ADD SWAP4 PUSH0 MSTORE PUSH1 0x20 PUSH0 KECCAK256 SWAP2 PUSH0 SWAP1 JUMPDEST DUP3 DUP3 LT PUSH2 0x12EA JUMPI PUSH2 0x12E6 DUP6 PUSH2 0x12DA DUP2 DUP10 SUB DUP3 PUSH2 0x1C37 JUMP JUMPDEST PUSH1 0x40 MLOAD SWAP2 DUP3 SWAP2 DUP3 PUSH2 0x1B3A JUMP JUMPDEST SUB SWAP1 RETURN JUMPDEST DUP4 SLOAD DUP7 MSTORE SWAP5 DUP6 ADD SWAP5 PUSH1 0x1 SWAP4 DUP5 ADD SWAP4 SWAP1 SWAP2 ADD SWAP1 PUSH2 0x12C3 JUMP JUMPDEST CALLVALUE PUSH2 0x143 JUMPI PUSH0 CALLDATASIZE PUSH1 0x3 NOT ADD SLT PUSH2 0x143 JUMPI PUSH0 SLOAD PUSH1 0x40 MLOAD PUSH1 0x1 PUSH1 0x1 PUSH1 0xA0 SHL SUB SWAP1 SWAP2 AND DUP2 MSTORE PUSH1 0x20 SWAP1 RETURN JUMPDEST CALLVALUE PUSH2 0x143 JUMPI PUSH0 CALLDATASIZE PUSH1 0x3 NOT ADD SLT PUSH2 0x143 JUMPI PUSH1 0x20 PUSH1 0x8 SLOAD PUSH1 0x40 MLOAD SWAP1 DUP2 MSTORE RETURN JUMPDEST CALLVALUE PUSH2 0x143 JUMPI PUSH1 0x60 CALLDATASIZE PUSH1 0x3 NOT ADD SLT PUSH2 0x143 JUMPI PUSH1 0x24 CALLDATALOAD PUSH1 0x1 PUSH1 0x1 PUSH1 0x40 SHL SUB DUP2 GT PUSH2 0x143 JUMPI PUSH2 0x1378 PUSH2 0x138C SWAP2 CALLDATASIZE SWAP1 PUSH1 0x4 ADD PUSH2 0x1AB5 JUMP JUMPDEST PUSH2 0x1380 PUSH2 0x2334 JUMP JUMPDEST PUSH1 0x44 CALLDATALOAD SWAP2 PUSH1 0x4 CALLDATALOAD PUSH2 0x1E4E JUMP JUMPDEST PUSH1 0x1 PUSH0 DUP1 MLOAD PUSH1 0x20 PUSH2 0x2364 DUP4 CODECOPY DUP2 MLOAD SWAP2 MSTORE SSTORE STOP JUMPDEST CALLVALUE PUSH2 0x143 JUMPI PUSH0 CALLDATASIZE PUSH1 0x3 NOT ADD SLT PUSH2 0x143 JUMPI PUSH2 0x13B7 PUSH2 0x2309 JUMP JUMPDEST PUSH0 DUP1 SLOAD PUSH1 0x1 PUSH1 0x1 PUSH1 0xA0 SHL SUB NOT DUP2 AND DUP3 SSTORE PUSH1 0x1 PUSH1 0x1 PUSH1 0xA0 SHL SUB AND PUSH32 0x8BE0079C531659141344CD1FD0A4F28419497F9722A3DAAFE3B4186F6B6457E0 DUP3 DUP1 LOG3 STOP JUMPDEST CALLVALUE PUSH2 0x143 JUMPI PUSH2 0x1455 PUSH2 0x1407 CALLDATASIZE PUSH2 0x1AF8 JUMP JUMPDEST SWAP2 PUSH0 PUSH2 0x120 PUSH1 0x40 MLOAD PUSH2 0x1418 DUP2 PUSH2 0x1BFF JUMP JUMPDEST PUSH1 0x60 DUP2 MSTORE DUP3 PUSH1 0x20 DUP3 ADD MSTORE PUSH1 0x60 PUSH1 0x40 DUP3 ADD MSTORE PUSH1 0x60 DUP1 DUP3 ADD MSTORE DUP3 PUSH1 0x80 DUP3 ADD MSTORE DUP3 PUSH1 0xA0 DUP3 ADD MSTORE DUP3 PUSH1 0xC0 DUP3 ADD MSTORE DUP3 PUSH1 0xE0 DUP3 ADD MSTORE DUP3 PUSH2 0x100 DUP3 ADD MSTORE ADD MSTORE PUSH2 0x22C9 JUMP JUMPDEST PUSH0 MSTORE PUSH1 0x2 PUSH1 0x20 MSTORE PUSH1 0x40 PUSH0 KECCAK256 PUSH1 0xFF PUSH1 0x9 PUSH1 0x40 MLOAD SWAP3 PUSH2 0x1471 DUP5 PUSH2 0x1BFF JUMP JUMPDEST PUSH1 0x40 MLOAD PUSH2 0x1482 DUP2 PUSH2 0xB62 DUP2 DUP6 PUSH2 0x1D02 JUMP JUMPDEST DUP5 MSTORE PUSH1 0x1 DUP2 ADD SLOAD PUSH1 0x1 PUSH1 0x1 PUSH1 0xA0 SHL SUB AND PUSH1 0x20 DUP6 ADD MSTORE PUSH1 0x40 MLOAD PUSH2 0x14AB DUP2 PUSH2 0xB62 DUP2 PUSH1 0x2 DUP7 ADD PUSH2 0x1D02 JUMP JUMPDEST PUSH1 0x40 DUP6 ADD MSTORE PUSH1 0x40 MLOAD PUSH2 0x14C4 DUP2 PUSH2 0xB62 DUP2 PUSH1 0x3 DUP7 ADD PUSH2 0x1D02 JUMP JUMPDEST PUSH1 0x60 DUP6 ADD MSTORE PUSH1 0x4 DUP2 ADD SLOAD PUSH1 0x80 DUP6 ADD MSTORE PUSH1 0x5 DUP2 ADD SLOAD PUSH1 0xA0 DUP6 ADD MSTORE PUSH1 0x6 DUP2 ADD SLOAD PUSH1 0xC0 DUP6 ADD MSTORE PUSH1 0x7 DUP2 ADD SLOAD PUSH1 0xE0 DUP6 ADD MSTORE PUSH1 0x8 DUP2 ADD SLOAD PUSH2 0x100 DUP6 ADD MSTORE ADD SLOAD AND PUSH1 0x4 DUP2 LT ISZERO PUSH2 0x326 JUMPI PUSH2 0x120 DUP3 ADD MSTORE PUSH1 0x40 MLOAD SWAP1 PUSH1 0x20 DUP3 MSTORE PUSH2 0x120 PUSH2 0x157B PUSH2 0x1534 DUP4 MLOAD PUSH2 0x140 PUSH1 0x20 DUP8 ADD MSTORE PUSH2 0x160 DUP7 ADD SWAP1 PUSH2 0x1B75 JUMP JUMPDEST PUSH1 0x20 DUP5 ADD MLOAD PUSH1 0x1 PUSH1 0x1 PUSH1 0xA0 SHL SUB AND PUSH1 0x40 DUP7 DUP2 ADD SWAP2 SWAP1 SWAP2 MSTORE DUP5 ADD MLOAD DUP6 DUP3 SUB PUSH1 0x1F NOT SWAP1 DUP2 ADD PUSH1 0x60 DUP9 ADD MSTORE SWAP2 PUSH2 0x1566 SWAP2 PUSH2 0x1B75 JUMP JUMPDEST SWAP1 PUSH1 0x60 DUP6 ADD MLOAD SWAP1 DUP7 DUP4 SUB ADD PUSH1 0x80 DUP8 ADD MSTORE PUSH2 0x1B75 JUMP JUMPDEST SWAP2 PUSH1 0x80 DUP2 ADD MLOAD PUSH1 0xA0 DUP6 ADD MSTORE PUSH1 0xA0 DUP2 ADD MLOAD PUSH1 0xC0 DUP6 ADD MSTORE PUSH1 0xC0 DUP2 ADD MLOAD PUSH1 0xE0 DUP6 ADD MSTORE PUSH1 0xE0 DUP2 ADD MLOAD PUSH2 0x100 DUP6 ADD MSTORE PUSH2 0x100 DUP2 ADD MLOAD DUP3 DUP6 ADD MSTORE ADD MLOAD SWAP1 PUSH1 0x4 DUP3 LT ISZERO PUSH2 0x326 JUMPI DUP3 SWAP2 PUSH2 0x140 DUP4 ADD MSTORE SUB SWAP1 RETURN JUMPDEST CALLVALUE PUSH2 0x143 JUMPI PUSH2 0x15DE PUSH2 0x15D8 CALLDATASIZE PUSH2 0x1AF8 JUMP JUMPDEST SWAP2 PUSH2 0x22C9 JUMP JUMPDEST PUSH0 MSTORE PUSH1 0x2 PUSH1 0x20 MSTORE PUSH1 0xFF PUSH1 0x9 PUSH1 0x40 PUSH0 KECCAK256 ADD SLOAD AND PUSH1 0x4 DUP2 LT ISZERO PUSH2 0x326 JUMPI PUSH1 0x20 SWAP1 PUSH1 0x1 PUSH1 0x40 MLOAD SWAP2 EQ DUP2 MSTORE RETURN JUMPDEST CALLVALUE PUSH2 0x143 JUMPI PUSH1 0x40 CALLDATASIZE PUSH1 0x3 NOT ADD SLT PUSH2 0x143 JUMPI PUSH1 0x4 CALLDATALOAD PUSH1 0x24 CALLDATALOAD DUP1 ISZERO ISZERO DUP2 SUB PUSH2 0x143 JUMPI PUSH2 0x162F PUSH2 0x2309 JUMP JUMPDEST PUSH2 0x1637 PUSH2 0x2334 JUMP JUMPDEST DUP2 PUSH0 MSTORE PUSH1 0x4 PUSH1 0x20 MSTORE PUSH1 0x40 PUSH0 KECCAK256 SWAP1 PUSH1 0xA DUP3 ADD SWAP1 PUSH1 0xFF DUP3 SLOAD AND PUSH1 0x6 DUP2 LT ISZERO PUSH2 0x326 JUMPI PUSH1 0x4 SUB PUSH2 0x179C JUMPI PUSH1 0x2 DUP4 ADD SWAP3 DUP4 SLOAD PUSH0 MSTORE PUSH1 0x2 PUSH1 0x20 MSTORE PUSH1 0x40 PUSH0 KECCAK256 SWAP2 PUSH2 0x16BC JUMPI JUMPDEST POP POP DUP1 SLOAD PUSH1 0xFF NOT AND PUSH1 0x3 OR SWAP1 SSTORE SLOAD SWAP1 PUSH32 0xEFDFB2A64CCDC4310D96E46478D8ABB2193119F109F32B931F7EF5E908225103 PUSH0 DUP1 LOG3 PUSH1 0x1 PUSH0 DUP1 MLOAD PUSH1 0x20 PUSH2 0x2364 DUP4 CODECOPY DUP2 MLOAD SWAP2 MSTORE SSTORE STOP JUMPDEST PUSH0 DUP1 DUP1 DUP1 SWAP4 PUSH1 0x7 PUSH1 0x4 DUP8 ADD SWAP7 DUP8 SLOAD SWAP8 PUSH2 0x16D9 PUSH1 0xA DUP11 DIV DUP1 SWAP11 PUSH2 0x1C65 JUMP JUMPDEST SWAP1 SSTORE PUSH1 0x9 DUP2 ADD PUSH1 0x3 PUSH1 0xFF NOT DUP3 SLOAD AND OR SWAP1 SSTORE ADD PUSH2 0x16F5 DUP2 SLOAD PUSH2 0x1C72 JUMP JUMPDEST SWAP1 SSTORE PUSH2 0x1712 DUP7 PUSH1 0x7 PUSH1 0x1 DUP1 PUSH1 0xA0 SHL SUB PUSH1 0x1 DUP6 ADD SLOAD AND SWAP4 ADD SLOAD PUSH2 0x1C58 JUMP JUMPDEST SWAP1 GAS CALL PUSH2 0x171D PUSH2 0x1C9B JUMP JUMPDEST POP ISZERO PUSH2 0x1757 JUMPI PUSH32 0xAA04A725EABA29075755F1B66EFA6FAD4D4B2FDFA4A0D921B811DDD545EE071F PUSH1 0x20 DUP5 SLOAD SWAP3 PUSH1 0x40 MLOAD SWAP1 DUP2 MSTORE LOG2 DUP4 DUP1 PUSH2 0x1676 JUMP JUMPDEST PUSH1 0x40 MLOAD PUSH3 0x461BCD PUSH1 0xE5 SHL DUP2 MSTORE PUSH1 0x20 PUSH1 0x4 DUP3 ADD MSTORE PUSH1 0x1A PUSH1 0x24 DUP3 ADD MSTORE PUSH32 0x4D61726B6574706C6163653A20726566756E64206661696C6564000000000000 PUSH1 0x44 DUP3 ADD MSTORE PUSH1 0x64 SWAP1 REVERT JUMPDEST PUSH1 0x40 MLOAD PUSH3 0x461BCD PUSH1 0xE5 SHL DUP2 MSTORE PUSH1 0x20 PUSH1 0x4 DUP3 ADD MSTORE PUSH1 0x19 PUSH1 0x24 DUP3 ADD MSTORE PUSH32 0x4D61726B6574706C6163653A206E6F7420646973707574656400000000000000 PUSH1 0x44 DUP3 ADD MSTORE PUSH1 0x64 SWAP1 REVERT JUMPDEST PUSH1 0x20 DUP1 PUSH1 0x3 NOT CALLDATASIZE ADD SLT PUSH2 0x143 JUMPI PUSH1 0x4 CALLDATALOAD PUSH1 0x1 PUSH1 0x1 PUSH1 0x40 SHL SUB DUP2 GT PUSH2 0x143 JUMPI PUSH2 0x1810 PUSH2 0x181F SWAP2 CALLDATASIZE SWAP1 PUSH1 0x4 ADD PUSH2 0x1AB5 JUMP JUMPDEST PUSH2 0x1818 PUSH2 0x2334 JUMP JUMPDEST CALLER SWAP2 PUSH2 0x22C9 JUMP JUMPDEST SWAP1 DUP2 PUSH0 MSTORE PUSH1 0x2 DUP2 MSTORE PUSH2 0x1839 PUSH1 0x8 PUSH1 0x40 PUSH0 KECCAK256 ADD SLOAD ISZERO ISZERO PUSH2 0x1BB3 JUMP JUMPDEST CALLVALUE ISZERO PUSH2 0x18A5 JUMPI PUSH32 0xD4D3C177D6EA3206B75C2503E3C35F91192BAB6A0F59B80E985E7E385DE19097 SWAP1 DUP3 PUSH0 MSTORE PUSH1 0x2 DUP2 MSTORE PUSH1 0x4 PUSH1 0x40 PUSH0 KECCAK256 ADD PUSH2 0x187A CALLVALUE DUP3 SLOAD PUSH2 0x1C58 JUMP JUMPDEST SWAP1 SSTORE DUP3 PUSH0 MSTORE PUSH1 0x2 DUP2 MSTORE PUSH1 0x4 PUSH1 0x40 PUSH0 KECCAK256 ADD SLOAD PUSH1 0x40 MLOAD SWAP1 DUP2 MSTORE LOG2 PUSH1 0x1 PUSH0 DUP1 MLOAD PUSH1 0x20 PUSH2 0x2364 DUP4 CODECOPY DUP2 MLOAD SWAP2 MSTORE SSTORE STOP JUMPDEST PUSH1 0x64 SWAP1 PUSH1 0x40 MLOAD SWAP1 PUSH3 0x461BCD PUSH1 0xE5 SHL DUP3 MSTORE PUSH1 0x4 DUP3 ADD MSTORE PUSH1 0x17 PUSH1 0x24 DUP3 ADD MSTORE PUSH32 0x4D61726B6574706C6163653A207A65726F207374616B65000000000000000000 PUSH1 0x44 DUP3 ADD MSTORE REVERT JUMPDEST CALLVALUE PUSH2 0x143 JUMPI PUSH0 CALLDATASIZE PUSH1 0x3 NOT ADD SLT PUSH2 0x143 JUMPI PUSH1 0x20 PUSH1 0x7 SLOAD PUSH1 0x40 MLOAD SWAP1 DUP2 MSTORE RETURN JUMPDEST CALLVALUE PUSH2 0x143 JUMPI PUSH0 CALLDATASIZE PUSH1 0x3 NOT ADD SLT PUSH2 0x143 JUMPI PUSH1 0x20 PUSH1 0x1 SLOAD PUSH1 0x40 MLOAD SWAP1 DUP2 MSTORE RETURN JUMPDEST CALLVALUE PUSH2 0x143 JUMPI PUSH1 0x20 CALLDATASIZE PUSH1 0x3 NOT ADD SLT PUSH2 0x143 JUMPI PUSH1 0x4 CALLDATALOAD PUSH2 0x193F PUSH2 0x2309 JUMP JUMPDEST PUSH2 0x3E8 DUP2 GT PUSH2 0x194D JUMPI PUSH1 0x7 SSTORE STOP JUMPDEST PUSH1 0x40 MLOAD PUSH3 0x461BCD PUSH1 0xE5 SHL DUP2 MSTORE PUSH1 0x20 PUSH1 0x4 DUP3 ADD MSTORE PUSH1 0x14 PUSH1 0x24 DUP3 ADD MSTORE PUSH20 0x4D61726B6574706C6163653A206D617820313025 PUSH1 0x60 SHL PUSH1 0x44 DUP3 ADD MSTORE PUSH1 0x64 SWAP1 REVERT JUMPDEST CALLVALUE PUSH2 0x143 JUMPI PUSH2 0x199A PUSH2 0x15D8 CALLDATASIZE PUSH2 0x1AF8 JUMP JUMPDEST PUSH0 MSTORE PUSH1 0x20 PUSH1 0x5 PUSH1 0x20 MSTORE PUSH1 0x40 PUSH0 KECCAK256 SWAP1 PUSH1 0x40 MLOAD SWAP1 DUP2 PUSH1 0x20 DUP5 SLOAD SWAP2 DUP3 DUP2 MSTORE ADD SWAP4 PUSH0 MSTORE PUSH1 0x20 PUSH0 KECCAK256 SWAP2 PUSH0 SWAP1 JUMPDEST DUP3 DUP3 LT PUSH2 0x19D8 JUMPI PUSH2 0x12E6 DUP6 PUSH2 0x12DA DUP2 DUP10 SUB DUP3 PUSH2 0x1C37 JUMP JUMPDEST DUP4 SLOAD DUP7 MSTORE SWAP5 DUP6 ADD SWAP5 PUSH1 0x1 SWAP4 DUP5 ADD SWAP4 SWAP1 SWAP2 ADD SWAP1 PUSH2 0x19C1 JUMP JUMPDEST CALLVALUE PUSH2 0x143 JUMPI PUSH1 0x40 CALLDATASIZE PUSH1 0x3 NOT ADD SLT PUSH2 0x143 JUMPI PUSH1 0x4 CALLDATALOAD PUSH1 0x1 PUSH1 0x1 PUSH1 0x40 SHL SUB DUP2 GT PUSH2 0x143 JUMPI PUSH2 0x1818 PUSH2 0x1A22 SWAP2 CALLDATASIZE SWAP1 PUSH1 0x4 ADD PUSH2 0x1AB5 JUMP JUMPDEST DUP1 PUSH0 MSTORE PUSH1 0x2 PUSH1 0x20 MSTORE PUSH2 0x1A3C PUSH1 0x8 PUSH1 0x40 PUSH0 KECCAK256 ADD SLOAD ISZERO ISZERO PUSH2 0x1BB3 JUMP JUMPDEST DUP1 PUSH0 MSTORE PUSH1 0x2 PUSH1 0x20 MSTORE CALLER PUSH1 0x1 DUP1 PUSH1 0xA0 SHL SUB PUSH1 0x1 PUSH1 0x40 PUSH0 KECCAK256 ADD SLOAD AND SUB PUSH2 0x1A70 JUMPI PUSH0 MSTORE PUSH1 0x2 PUSH1 0x20 MSTORE PUSH1 0x24 CALLDATALOAD PUSH1 0x5 PUSH1 0x40 PUSH0 KECCAK256 ADD SSTORE PUSH0 DUP1 RETURN JUMPDEST PUSH1 0x40 MLOAD PUSH3 0x461BCD PUSH1 0xE5 SHL DUP2 MSTORE PUSH1 0x20 PUSH1 0x4 DUP3 ADD MSTORE PUSH1 0x19 PUSH1 0x24 DUP3 ADD MSTORE PUSH32 0x4D61726B6574706C6163653A206E6F74206F70657261746F7200000000000000 PUSH1 0x44 DUP3 ADD MSTORE PUSH1 0x64 SWAP1 REVERT JUMPDEST SWAP2 DUP2 PUSH1 0x1F DUP5 ADD SLT ISZERO PUSH2 0x143 JUMPI DUP3 CALLDATALOAD SWAP2 PUSH1 0x1 PUSH1 0x1 PUSH1 0x40 SHL SUB DUP4 GT PUSH2 0x143 JUMPI PUSH1 0x20 DUP4 DUP2 DUP7 ADD SWAP6 ADD ADD GT PUSH2 0x143 JUMPI JUMP JUMPDEST PUSH1 0x4 CALLDATALOAD SWAP1 PUSH1 0x1 PUSH1 0x1 PUSH1 0xA0 SHL SUB DUP3 AND DUP3 SUB PUSH2 0x143 JUMPI JUMP JUMPDEST PUSH1 0x40 PUSH1 0x3 NOT DUP3 ADD SLT PUSH2 0x143 JUMPI PUSH1 0x4 CALLDATALOAD SWAP1 PUSH1 0x1 PUSH1 0x1 PUSH1 0x40 SHL SUB DUP3 GT PUSH2 0x143 JUMPI PUSH2 0x1B22 SWAP2 PUSH1 0x4 ADD PUSH2 0x1AB5 JUMP JUMPDEST SWAP1 SWAP2 PUSH1 0x24 CALLDATALOAD PUSH1 0x1 PUSH1 0x1 PUSH1 0xA0 SHL SUB DUP2 AND DUP2 SUB PUSH2 0x143 JUMPI SWAP1 JUMP JUMPDEST PUSH1 0x20 SWAP1 PUSH1 0x20 PUSH1 0x40 DUP2 DUP4 ADD SWAP3 DUP3 DUP2 MSTORE DUP6 MLOAD DUP1 SWAP5 MSTORE ADD SWAP4 ADD SWAP2 PUSH0 JUMPDEST DUP3 DUP2 LT PUSH2 0x1B61 JUMPI POP POP POP POP SWAP1 JUMP JUMPDEST DUP4 MLOAD DUP6 MSTORE SWAP4 DUP2 ADD SWAP4 SWAP3 DUP2 ADD SWAP3 PUSH1 0x1 ADD PUSH2 0x1B53 JUMP JUMPDEST SWAP2 SWAP1 DUP3 MLOAD SWAP3 DUP4 DUP3 MSTORE PUSH0 JUMPDEST DUP5 DUP2 LT PUSH2 0x1B9F JUMPI POP POP DUP3 PUSH0 PUSH1 0x20 DUP1 SWAP5 SWAP6 DUP5 ADD ADD MSTORE PUSH1 0x1F DUP1 NOT SWAP2 ADD AND ADD ADD SWAP1 JUMP JUMPDEST PUSH1 0x20 DUP2 DUP4 ADD DUP2 ADD MLOAD DUP5 DUP4 ADD DUP3 ADD MSTORE ADD PUSH2 0x1B7F JUMP JUMPDEST ISZERO PUSH2 0x1BBA JUMPI JUMP JUMPDEST PUSH1 0x40 MLOAD PUSH3 0x461BCD PUSH1 0xE5 SHL DUP2 MSTORE PUSH1 0x20 PUSH1 0x4 DUP3 ADD MSTORE PUSH1 0x1B PUSH1 0x24 DUP3 ADD MSTORE PUSH32 0x4D61726B6574706C6163653A206E6F7420726567697374657265640000000000 PUSH1 0x44 DUP3 ADD MSTORE PUSH1 0x64 SWAP1 REVERT JUMPDEST PUSH2 0x140 DUP2 ADD SWAP1 DUP2 LT PUSH1 0x1 PUSH1 0x1 PUSH1 0x40 SHL SUB DUP3 GT OR PUSH2 0x7CD JUMPI PUSH1 0x40 MSTORE JUMP JUMPDEST PUSH2 0x160 DUP2 ADD SWAP1 DUP2 LT PUSH1 0x1 PUSH1 0x1 PUSH1 0x40 SHL SUB DUP3 GT OR PUSH2 0x7CD JUMPI PUSH1 0x40 MSTORE JUMP JUMPDEST SWAP1 PUSH1 0x1F DUP1 NOT SWAP2 ADD AND DUP2 ADD SWAP1 DUP2 LT PUSH1 0x1 PUSH1 0x1 PUSH1 0x40 SHL SUB DUP3 GT OR PUSH2 0x7CD JUMPI PUSH1 0x40 MSTORE JUMP JUMPDEST SWAP2 SWAP1 DUP3 ADD DUP1 SWAP3 GT PUSH2 0x2CD JUMPI JUMP JUMPDEST SWAP2 SWAP1 DUP3 SUB SWAP2 DUP3 GT PUSH2 0x2CD JUMPI JUMP JUMPDEST PUSH0 NOT DUP2 EQ PUSH2 0x2CD JUMPI PUSH1 0x1 ADD SWAP1 JUMP JUMPDEST PUSH1 0x1 PUSH1 0x1 PUSH1 0x40 SHL SUB DUP2 GT PUSH2 0x7CD JUMPI PUSH1 0x1F ADD PUSH1 0x1F NOT AND PUSH1 0x20 ADD SWAP1 JUMP JUMPDEST RETURNDATASIZE ISZERO PUSH2 0x1CC5 JUMPI RETURNDATASIZE SWAP1 PUSH2 0x1CAC DUP3 PUSH2 0x1C80 JUMP JUMPDEST SWAP2 PUSH2 0x1CBA PUSH1 0x40 MLOAD SWAP4 DUP5 PUSH2 0x1C37 JUMP JUMPDEST DUP3 MSTORE RETURNDATASIZE PUSH0 PUSH1 0x20 DUP5 ADD RETURNDATACOPY JUMP JUMPDEST PUSH1 0x60 SWAP1 JUMP JUMPDEST SWAP1 PUSH1 0x1 DUP3 DUP2 SHR SWAP3 AND DUP1 ISZERO PUSH2 0x1CF8 JUMPI JUMPDEST PUSH1 0x20 DUP4 LT EQ PUSH2 0x1CE4 JUMPI JUMP JUMPDEST PUSH4 0x4E487B71 PUSH1 0xE0 SHL PUSH0 MSTORE PUSH1 0x22 PUSH1 0x4 MSTORE PUSH1 0x24 PUSH0 REVERT JUMPDEST SWAP2 PUSH1 0x7F AND SWAP2 PUSH2 0x1CD9 JUMP JUMPDEST DUP1 SLOAD PUSH0 SWAP4 SWAP3 PUSH2 0x1D10 DUP3 PUSH2 0x1CCA JUMP JUMPDEST SWAP2 DUP3 DUP3 MSTORE PUSH1 0x20 SWAP4 PUSH1 0x1 SWAP2 PUSH1 0x1 DUP2 AND SWAP1 DUP2 PUSH0 EQ PUSH2 0x1D74 JUMPI POP PUSH1 0x1 EQ PUSH2 0x1D36 JUMPI JUMPDEST POP POP POP POP POP JUMP JUMPDEST SWAP1 SWAP4 SWAP5 SWAP6 POP PUSH0 SWAP3 SWAP2 SWAP3 MSTORE DUP4 PUSH0 KECCAK256 SWAP3 DUP5 PUSH0 SWAP5 JUMPDEST DUP4 DUP7 LT PUSH2 0x1D60 JUMPI POP POP POP POP ADD ADD SWAP1 PUSH0 DUP1 DUP1 DUP1 DUP1 PUSH2 0x1D2F JUMP JUMPDEST DUP1 SLOAD DUP6 DUP8 ADD DUP4 ADD MSTORE SWAP5 ADD SWAP4 DUP6 SWAP1 DUP3 ADD PUSH2 0x1D48 JUMP JUMPDEST PUSH1 0xFF NOT AND DUP7 DUP6 ADD MSTORE POP POP POP SWAP1 ISZERO ISZERO PUSH1 0x5 SHL ADD ADD SWAP2 POP PUSH0 DUP1 DUP1 DUP1 DUP1 PUSH2 0x1D2F JUMP JUMPDEST ISZERO PUSH2 0x1D9A JUMPI JUMP JUMPDEST PUSH1 0x40 MLOAD PUSH3 0x461BCD PUSH1 0xE5 SHL DUP2 MSTORE PUSH1 0x20 PUSH1 0x4 DUP3 ADD MSTORE PUSH1 0x1A PUSH1 0x24 DUP3 ADD MSTORE PUSH32 0x4D61726B6574706C6163653A206A6F62206E6F7420666F756E64000000000000 PUSH1 0x44 DUP3 ADD MSTORE PUSH1 0x64 SWAP1 REVERT JUMPDEST PUSH1 0x1F DUP3 GT PUSH2 0x1DEC JUMPI POP POP POP JUMP JUMPDEST PUSH0 MSTORE PUSH1 0x20 PUSH0 KECCAK256 SWAP1 PUSH1 0x20 PUSH1 0x1F DUP5 ADD PUSH1 0x5 SHR DUP4 ADD SWAP4 LT PUSH2 0x1E24 JUMPI JUMPDEST PUSH1 0x1F ADD PUSH1 0x5 SHR ADD SWAP1 JUMPDEST DUP2 DUP2 LT PUSH2 0x1E19 JUMPI POP POP JUMP JUMPDEST PUSH0 DUP2 SSTORE PUSH1 0x1 ADD PUSH2 0x1E0E JUMP JUMPDEST SWAP1 SWAP2 POP DUP2 SWAP1 PUSH2 0x1E05 JUMP JUMPDEST SWAP1 DUP1 PUSH1 0x20 SWAP4 SWAP3 DUP2 DUP5 MSTORE DUP5 DUP5 ADD CALLDATACOPY PUSH0 DUP3 DUP3 ADD DUP5 ADD MSTORE PUSH1 0x1F ADD PUSH1 0x1F NOT AND ADD ADD SWAP1 JUMP JUMPDEST SWAP2 SWAP1 DUP3 PUSH0 MSTORE PUSH1 0x4 PUSH1 0x20 MSTORE PUSH1 0x40 PUSH0 KECCAK256 SWAP2 PUSH1 0x8 DUP4 ADD SLOAD PUSH2 0x1E6D DUP2 ISZERO ISZERO PUSH2 0x1D93 JUMP JUMPDEST PUSH1 0xA DUP5 ADD SLOAD SWAP4 PUSH1 0xFF DUP6 AND PUSH1 0x6 DUP2 LT ISZERO PUSH2 0x326 JUMPI DUP1 ISZERO SWAP1 DUP2 ISZERO PUSH2 0x2239 JUMPI JUMPDEST POP ISZERO PUSH2 0x21F4 JUMPI PUSH1 0x2 DUP2 ADD SWAP5 DUP6 SLOAD PUSH0 MSTORE PUSH1 0x2 PUSH1 0x20 MSTORE PUSH1 0x40 PUSH0 KECCAK256 SWAP3 PUSH1 0x1 DUP1 PUSH1 0xA0 SHL SUB PUSH1 0x1 DUP6 ADD SLOAD AND CALLER SUB PUSH2 0x21AF JUMPI DUP5 ISZERO PUSH2 0x216A JUMPI DUP9 ISZERO PUSH2 0x2125 JUMPI PUSH3 0x15180 DUP2 ADD DUP1 SWAP2 GT PUSH2 0x2CD JUMPI TIMESTAMP GT PUSH2 0x20CA JUMPI POP PUSH1 0x1 PUSH1 0x1 PUSH1 0x40 SHL SUB DUP4 GT PUSH2 0x7CD JUMPI PUSH2 0x1EFE DUP4 PUSH2 0x1EF5 PUSH1 0x5 DUP5 ADD SLOAD PUSH2 0x1CCA JUMP JUMPDEST PUSH1 0x5 DUP5 ADD PUSH2 0x1DDF JUMP JUMPDEST PUSH0 SWAP1 DUP4 PUSH1 0x1F DUP2 GT PUSH1 0x1 EQ PUSH2 0x205E JUMPI DUP1 PUSH2 0x1F2E SWAP2 PUSH1 0x7 SWAP5 PUSH0 SWAP2 PUSH2 0x2053 JUMPI JUMPDEST POP DUP2 PUSH1 0x1 SHL SWAP2 PUSH0 NOT SWAP1 PUSH1 0x3 SHL SHR NOT AND OR SWAP1 JUMP JUMPDEST PUSH1 0x5 DUP3 ADD SSTORE JUMPDEST DUP8 PUSH1 0x6 DUP3 ADD SSTORE PUSH1 0xFF NOT PUSH1 0x2 DUP2 PUSH1 0xA DUP5 ADD SLOAD AND OR PUSH1 0xA DUP4 ADD SSTORE TIMESTAMP PUSH1 0x9 DUP4 ADD SSTORE PUSH1 0x1 PUSH1 0x9 DUP6 ADD SWAP2 DUP3 SLOAD AND OR SWAP1 SSTORE PUSH1 0x6 DUP4 ADD PUSH2 0x1F6D DUP2 SLOAD PUSH2 0x1C72 JUMP JUMPDEST SWAP1 SSTORE ADD SLOAD PUSH1 0x7 SLOAD SWAP2 DUP3 DUP3 MUL SWAP3 DUP3 DUP5 DIV EQ DUP3 ISZERO OR ISZERO PUSH2 0x2CD JUMPI PUSH0 DUP1 SWAP4 SWAP3 DUP2 SWAP4 SWAP3 PUSH2 0x1FA8 PUSH2 0x1F9F PUSH2 0x2710 DUP6 SWAP7 DIV DUP1 SWAP5 PUSH2 0x1C65 JUMP JUMPDEST SWAP3 PUSH1 0x8 SLOAD PUSH2 0x1C58 JUMP JUMPDEST PUSH1 0x8 SSTORE PUSH1 0x1 ADD SLOAD PUSH1 0x1 PUSH1 0x1 PUSH1 0xA0 SHL SUB AND GAS CALL PUSH2 0x1FC2 PUSH2 0x1C9B JUMP JUMPDEST POP ISZERO PUSH2 0x200E JUMPI PUSH32 0xD87A17D3FCCE28B13D9152D90968B23871ADAF28A6B91226BD3DDF12CB29B56C SWAP3 SLOAD SWAP5 PUSH2 0x2003 PUSH1 0x40 MLOAD SWAP4 DUP5 SWAP4 PUSH1 0x40 DUP6 MSTORE PUSH1 0x40 DUP6 ADD SWAP2 PUSH2 0x1E2E JUMP JUMPDEST SWAP1 PUSH1 0x20 DUP4 ADD MSTORE SUB SWAP1 LOG3 JUMP JUMPDEST PUSH1 0x40 MLOAD PUSH3 0x461BCD PUSH1 0xE5 SHL DUP2 MSTORE PUSH1 0x20 PUSH1 0x4 DUP3 ADD MSTORE PUSH1 0x1A PUSH1 0x24 DUP3 ADD MSTORE PUSH32 0x4D61726B6574706C6163653A207061796F7574206661696C6564000000000000 PUSH1 0x44 DUP3 ADD MSTORE PUSH1 0x64 SWAP1 REVERT JUMPDEST SWAP1 POP DUP8 ADD CALLDATALOAD PUSH0 PUSH2 0x1F1B JUMP JUMPDEST POP PUSH1 0x5 DUP2 ADD PUSH0 MSTORE PUSH1 0x20 PUSH0 KECCAK256 PUSH0 SWAP3 JUMPDEST PUSH1 0x1F NOT DUP7 AND DUP5 LT PUSH2 0x20B2 JUMPI PUSH1 0x7 SWAP4 POP DUP6 PUSH1 0x1F NOT DUP2 AND LT PUSH2 0x2099 JUMPI JUMPDEST POP POP PUSH1 0x1 DUP5 DUP2 SHL ADD PUSH1 0x5 DUP3 ADD SSTORE PUSH2 0x1F34 JUMP JUMPDEST DUP7 ADD CALLDATALOAD PUSH0 NOT PUSH1 0x3 DUP8 SWAP1 SHL PUSH1 0xF8 AND SHR NOT AND SWAP1 SSTORE PUSH0 DUP1 PUSH2 0x2087 JUMP JUMPDEST DUP7 DUP2 ADD CALLDATALOAD DUP3 SSTORE PUSH1 0x20 SWAP4 DUP5 ADD SWAP4 PUSH1 0x1 SWAP1 SWAP3 ADD SWAP2 ADD PUSH2 0x206C JUMP JUMPDEST SWAP3 POP SWAP1 SWAP3 POP PUSH1 0x7 SWAP4 SWAP5 SWAP6 POP PUSH1 0xA PUSH1 0x5 PUSH1 0xFF NOT DUP1 SWAP5 AND OR SWAP2 ADD SSTORE PUSH1 0x1 PUSH1 0x9 DUP4 ADD SWAP2 DUP3 SLOAD AND OR SWAP1 SSTORE ADD PUSH2 0x20FB DUP2 SLOAD PUSH2 0x1C72 JUMP JUMPDEST SWAP1 SSTORE SLOAD SWAP1 PUSH32 0xEFDFB2A64CCDC4310D96E46478D8ABB2193119F109F32B931F7EF5E908225103 PUSH0 DUP1 LOG3 JUMP JUMPDEST PUSH1 0x40 MLOAD PUSH3 0x461BCD PUSH1 0xE5 SHL DUP2 MSTORE PUSH1 0x20 PUSH1 0x4 DUP3 ADD MSTORE PUSH1 0x1D PUSH1 0x24 DUP3 ADD MSTORE PUSH32 0x4D61726B6574706C6163653A20656D70747920726573756C7448617368000000 PUSH1 0x44 DUP3 ADD MSTORE PUSH1 0x64 SWAP1 REVERT JUMPDEST PUSH1 0x40 MLOAD PUSH3 0x461BCD PUSH1 0xE5 SHL DUP2 MSTORE PUSH1 0x20 PUSH1 0x4 DUP3 ADD MSTORE PUSH1 0x1C PUSH1 0x24 DUP3 ADD MSTORE PUSH32 0x4D61726B6574706C6163653A20656D70747920726573756C7443494400000000 PUSH1 0x44 DUP3 ADD MSTORE PUSH1 0x64 SWAP1 REVERT JUMPDEST PUSH1 0x40 MLOAD PUSH3 0x461BCD PUSH1 0xE5 SHL DUP2 MSTORE PUSH1 0x20 PUSH1 0x4 DUP3 ADD MSTORE PUSH1 0x1F PUSH1 0x24 DUP3 ADD MSTORE PUSH32 0x4D61726B6574706C6163653A206E6F74206167656E74206F70657261746F7200 PUSH1 0x44 DUP3 ADD MSTORE PUSH1 0x64 SWAP1 REVERT JUMPDEST PUSH1 0x40 MLOAD PUSH3 0x461BCD PUSH1 0xE5 SHL DUP2 MSTORE PUSH1 0x20 PUSH1 0x4 DUP3 ADD MSTORE PUSH1 0x19 PUSH1 0x24 DUP3 ADD MSTORE PUSH32 0x4D61726B6574706C6163653A206A6F62206E6F74206F70656E00000000000000 PUSH1 0x44 DUP3 ADD MSTORE PUSH1 0x64 SWAP1 REVERT JUMPDEST PUSH1 0x1 SWAP2 POP EQ PUSH0 PUSH2 0x1E8A JUMP JUMPDEST SWAP3 SWAP2 SWAP3 PUSH2 0x2250 DUP3 PUSH2 0x1C80 JUMP JUMPDEST SWAP2 PUSH2 0x225E PUSH1 0x40 MLOAD SWAP4 DUP5 PUSH2 0x1C37 JUMP JUMPDEST DUP3 SWAP5 DUP2 DUP5 MSTORE DUP2 DUP4 ADD GT PUSH2 0x143 JUMPI DUP3 DUP2 PUSH1 0x20 SWAP4 DUP5 PUSH0 SWAP7 ADD CALLDATACOPY ADD ADD MSTORE JUMP JUMPDEST DUP1 SLOAD DUP3 LT ISZERO PUSH2 0x228F JUMPI PUSH0 MSTORE PUSH1 0x20 PUSH0 KECCAK256 ADD SWAP1 PUSH0 SWAP1 JUMP JUMPDEST PUSH4 0x4E487B71 PUSH1 0xE0 SHL PUSH0 MSTORE PUSH1 0x32 PUSH1 0x4 MSTORE PUSH1 0x24 PUSH0 REVERT JUMPDEST DUP1 SLOAD SWAP1 PUSH1 0x1 PUSH1 0x40 SHL DUP3 LT ISZERO PUSH2 0x7CD JUMPI DUP2 PUSH2 0x775 SWAP2 PUSH1 0x1 PUSH2 0x22C5 SWAP5 ADD DUP2 SSTORE PUSH2 0x227A JUMP JUMPDEST SWAP1 SSTORE JUMP JUMPDEST SWAP2 SWAP1 PUSH1 0x34 PUSH2 0x2303 SWAP2 PUSH1 0x40 MLOAD SWAP4 DUP2 DUP6 SWAP3 PUSH1 0x20 DUP5 ADD SWAP8 DUP9 CALLDATACOPY DUP3 ADD SWAP1 PUSH1 0x1 PUSH1 0x1 PUSH1 0x60 SHL SUB NOT SWAP1 PUSH1 0x60 SHL AND PUSH1 0x20 DUP3 ADD MSTORE SUB PUSH1 0x14 DUP2 ADD DUP5 MSTORE ADD DUP3 PUSH2 0x1C37 JUMP JUMPDEST MLOAD SWAP1 KECCAK256 SWAP1 JUMP JUMPDEST PUSH0 SLOAD PUSH1 0x1 PUSH1 0x1 PUSH1 0xA0 SHL SUB AND CALLER SUB PUSH2 0x231C JUMPI JUMP JUMPDEST PUSH1 0x40 MLOAD PUSH4 0x118CDAA7 PUSH1 0xE0 SHL DUP2 MSTORE CALLER PUSH1 0x4 DUP3 ADD MSTORE PUSH1 0x24 SWAP1 REVERT JUMPDEST PUSH0 DUP1 MLOAD PUSH1 0x20 PUSH2 0x2364 DUP4 CODECOPY DUP2 MLOAD SWAP2 MSTORE PUSH1 0x2 DUP2 SLOAD EQ PUSH2 0x2351 JUMPI PUSH1 0x2 SWAP1 SSTORE JUMP JUMPDEST PUSH1 0x40 MLOAD PUSH4 0x3EE5AEB5 PUSH1 0xE0 SHL DUP2 MSTORE PUSH1 0x4 SWAP1 REVERT INVALID SWAP12 PUSH24 0x9B17422D0DF92223018B32B4D1FA46E071723D6817E2486D STOP EXTCODESIZE 0xEC 0xC5 PUSH0 STOP LOG2 PUSH5 0x6970667358 0x22 SLT KECCAK256 0xE3 GAS 0xB7 SWAP14 0xDF PUSH28 0x4C34DE902B215229766103F1A8B80EB30FFF215C7232912004D66473 PUSH16 0x6C634300081800330000000000000000 "},"methodIdentifiers":{"DISPUTE_WINDOW()":"f585dc57","JOB_EXPIRY()":"d452e21b","MIN_STAKE()":"cb1c2b5c","createJob(string,address,bytes,bytes32)":"b65066b1","disputeJob(uint256)":"d93d9beb","getAgent(string,address)":"6a000177","getAgentJobs(string,address)":"1197f4c2","getJob(uint256)":"bf22c457","getOperatorAgents(address)":"a46a5661","getRequesterJobs(address)":"991483af","isAgentAvailable(string,address)":"5fa42e72","owner()":"8da5cb5b","platformFeeAccrued()":"8d0dcfea","platformFeeBps()":"22dcd13e","registerAgent(string,string,bytes)":"c1bc6576","renounceOwnership()":"715018a6","resolveDispute(uint256,bool)":"34b25ee2","setPlatformFee(uint256)":"12e8e2c3","setTokenId(string,uint256)":"01a4163e","submitResult(uint256,string,bytes32)":"7a1779a9","topUpStake(string)":"23f57563","totalJobs()":"1ace87b3","transferOwnership(address)":"f2fde38b","withdrawPlatformFees()":"d0b7830b"}}}}}