{"contracts/evm/src/IntentVault.sol":{"IntentVault":{"abi":[{"inputs":[],"stateMutability":"nonpayable","type":"constructor"},{"inputs":[],"name":"ECDSAInvalidSignature","type":"error"},{"inputs":[{"internalType":"uint256","name":"length","type":"uint256"}],"name":"ECDSAInvalidSignatureLength","type":"error"},{"inputs":[{"internalType":"bytes32","name":"s","type":"bytes32"}],"name":"ECDSAInvalidSignatureS","type":"error"},{"inputs":[{"internalType":"address","name":"owner","type":"address"}],"name":"OwnableInvalidOwner","type":"error"},{"inputs":[{"internalType":"address","name":"account","type":"address"}],"name":"OwnableUnauthorizedAccount","type":"error"},{"inputs":[],"name":"ReentrancyGuardReentrantCall","type":"error"},{"anonymous":false,"inputs":[{"indexed":true,"internalType":"address","name":"executor","type":"address"}],"name":"ExecutorAdded","type":"event"},{"anonymous":false,"inputs":[{"indexed":true,"internalType":"address","name":"executor","type":"address"}],"name":"ExecutorRemoved","type":"event"},{"anonymous":false,"inputs":[{"indexed":true,"internalType":"bytes32","name":"intentId","type":"bytes32"}],"name":"IntentCancelled","type":"event"},{"anonymous":false,"inputs":[{"indexed":true,"internalType":"bytes32","name":"intentId","type":"bytes32"},{"indexed":false,"internalType":"bool","name":"success","type":"bool"},{"indexed":false,"internalType":"string","name":"resultCID","type":"string"},{"indexed":false,"internalType":"uint256","name":"timestamp","type":"uint256"}],"name":"IntentExecuted","type":"event"},{"anonymous":false,"inputs":[{"indexed":true,"internalType":"bytes32","name":"intentId","type":"bytes32"},{"indexed":true,"internalType":"address","name":"submitter","type":"address"},{"indexed":false,"internalType":"string","name":"spec","type":"string"},{"indexed":false,"internalType":"uint256","name":"timestamp","type":"uint256"}],"name":"IntentSubmitted","type":"event"},{"anonymous":false,"inputs":[{"indexed":true,"internalType":"address","name":"previousOwner","type":"address"},{"indexed":true,"internalType":"address","name":"newOwner","type":"address"}],"name":"OwnershipTransferred","type":"event"},{"inputs":[{"internalType":"address","name":"executor","type":"address"}],"name":"addExecutor","outputs":[],"stateMutability":"nonpayable","type":"function"},{"inputs":[{"internalType":"address","name":"","type":"address"}],"name":"authorisedExecutors","outputs":[{"internalType":"bool","name":"","type":"bool"}],"stateMutability":"view","type":"function"},{"inputs":[{"internalType":"bytes32","name":"intentId","type":"bytes32"}],"name":"cancelIntent","outputs":[],"stateMutability":"nonpayable","type":"function"},{"inputs":[{"internalType":"bytes32","name":"intentId","type":"bytes32"}],"name":"getIntent","outputs":[{"components":[{"internalType":"bytes32","name":"intentId","type":"bytes32"},{"internalType":"address","name":"submitter","type":"address"},{"internalType":"string","name":"spec","type":"string"},{"internalType":"enum IntentVault.IntentStatus","name":"status","type":"uint8"},{"internalType":"string","name":"resultCID","type":"string"},{"internalType":"bool","name":"success","type":"bool"},{"internalType":"uint256","name":"submittedAt","type":"uint256"},{"internalType":"uint256","name":"executedAt","type":"uint256"},{"internalType":"uint256","name":"nonce","type":"uint256"}],"internalType":"struct IntentVault.Intent","name":"","type":"tuple"}],"stateMutability":"view","type":"function"},{"inputs":[{"internalType":"bytes32","name":"intentId","type":"bytes32"}],"name":"getIntentStatus","outputs":[{"internalType":"enum IntentVault.IntentStatus","name":"","type":"uint8"}],"stateMutability":"view","type":"function"},{"inputs":[{"internalType":"address","name":"user","type":"address"}],"name":"getUserIntents","outputs":[{"internalType":"bytes32[]","name":"","type":"bytes32[]"}],"stateMutability":"view","type":"function"},{"inputs":[{"internalType":"bytes32","name":"intentId","type":"bytes32"},{"internalType":"bool","name":"success","type":"bool"},{"internalType":"string","name":"resultCID","type":"string"}],"name":"markExecuted","outputs":[],"stateMutability":"nonpayable","type":"function"},{"inputs":[{"internalType":"address","name":"","type":"address"}],"name":"nonces","outputs":[{"internalType":"uint256","name":"","type":"uint256"}],"stateMutability":"view","type":"function"},{"inputs":[],"name":"owner","outputs":[{"internalType":"address","name":"","type":"address"}],"stateMutability":"view","type":"function"},{"inputs":[{"internalType":"address","name":"executor","type":"address"}],"name":"removeExecutor","outputs":[],"stateMutability":"nonpayable","type":"function"},{"inputs":[],"name":"renounceOwnership","outputs":[],"stateMutability":"nonpayable","type":"function"},{"inputs":[{"internalType":"string","name":"spec","type":"string"},{"internalType":"bytes","name":"signature","type":"bytes"}],"name":"submitIntent","outputs":[{"internalType":"bytes32","name":"intentId","type":"bytes32"}],"stateMutability":"nonpayable","type":"function"},{"inputs":[{"internalType":"address","name":"newOwner","type":"address"}],"name":"transferOwnership","outputs":[],"stateMutability":"nonpayable","type":"function"}],"evm":{"bytecode":{"linkReferences":{},"object":"608080604052346100b357331561009e575f8054336001600160a01b03198216811783556040519290916001600160a01b0316907f8be0079c531659141344cd1fd0a4f28419497f9722a3daafe3b4186f6b6457e09080a360017f9b779b17422d0df92223018b32b4d1fa46e071723d6817e2486d003becc55f0055335f52600460205260405f20600160ff198254161790556114ae90816100b88239f35b631e4fbdf760e01b81525f6004820152602490fd5b5f80fdfe60806040526004361015610011575f80fd5b5f3560e01c80631f5a0bbe14610ffe5780632478842914610f96578063473a0fd014610c2c578063715018a614610bd55780637afff77c14610b945780637ecebe0014610b58578063837f43f714610b215780638da5cb5b14610afa578063d55f960d146109df578063d6b3d46e146103c4578063f13c46aa146101ea578063f2fde38b1461015e5763fa3209b2146100a8575f80fd5b3461015a5760208060031936011261015a576004356001600160a01b0381169081900361015a575f526002815260405f20604051908183825491828152019081925f52845f20905f5b86828210610146578686610107828803836111be565b60405192839281840190828552518091526040840192915f5b82811061012f57505050500390f35b835185528695509381019392810192600101610120565b8354855290930192600192830192016100f1565b5f80fd5b3461015a57602036600319011261015a576004356001600160a01b038181169182900361015a5761018d6112c8565b81156101d2575f54826bffffffffffffffffffffffff60a01b8216175f55167f8be0079c531659141344cd1fd0a4f28419497f9722a3daafe3b4186f6b6457e05f80a3005b604051631e4fbdf760e01b81525f6004820152602490fd5b3461015a5760208060031936011261015a5760405160043561020b826111a1565b5f82525f83830152606060408301525f6060830152606060808301525f60a08301525f60c08301525f60e08301525f61010080930152805f5260018352600660405f20015415610386575f526001825260405f206040519161026c836111a1565b8154835260018201546001600160a01b03908116858501908152909161029460028501611226565b936040860194855260ff60038201541693606087019460058110156103725785526102c160048301611226565b9460808801958652600583015460ff169660a08901971515885260068401549260c08a0193845260078501549460e08b019586526008015496868b019788526040519b8c9b818d5251908c0152511660408a01525195610120968760608b01526101408a0161032f916110a4565b915160808a0161033e91611097565b51888203601f190160a08a015261035591906110a4565b9551151560c08801525160e0870152519085015251908301520390f35b634e487b7160e01b5f52602160045260245ffd5b60405162461bcd60e51b8152600481018490526016602482015275125b9d195b9d15985d5b1d0e881b9bdd08199bdd5b9960521b6044820152606490fd5b3461015a57604036600319011261015a5760043567ffffffffffffffff811161015a576103f5903690600401611069565b60243567ffffffffffffffff811161015a57610415903690600401611069565b919061041f6112f3565b811561099a57611000821161095557335f5260036020526104bd6104b460405f2054946104ae60405194602086013360601b96878252888b60348301376104796054828b81018d60348201520360348101845201826111be565b5190207f19457468657265756d205369676e6564204d6573736167653a0a3332000000005f52601c52603c5f209236916111e0565b90611322565b9092919261135c565b336001600160a01b03909116036109105760405160208101918252828560348301376105026074828581018760348201524260548201520360548101845201826111be565b51902091825f526001602052600660405f2001546108cb57335f52600360205260405f2080545f1981146108b757600101905560405190610542826111a1565b8382523360208301526105563684876111e0565b60408301525f606083015260405180602081011067ffffffffffffffff6020830111176107ad57602081016040525f815260808301525f60a08301524260c08301525f60e0830152610100820152825f52600160205260405f2090805182556001820160018060a01b036020830151166bffffffffffffffffffffffff60a01b825416179055604081015180519067ffffffffffffffff82116107ad5761060d8261060460028701546110fa565b60028701611132565b602090601f83116001146108495761063c92915f918361083e575b50508160011b915f199060031b1c19161790565b60028301555b606081015160058110156103725761065d90600384016110e2565b608081015180519067ffffffffffffffff82116107ad5761068e8261068560048701546110fa565b60048701611132565b602090601f83116001146107cc578261010093600895936106c3935f926107c15750508160011b915f199060031b1c19161790565b60048501555b6106e860a08201511515600586019060ff801983541691151516179055565b60c0810151600685015560e081015160078501550151910155335f52600260205260405f2092835493680100000000000000008510156107ad5760018501808255851015610799576107748492836020977fd0d54c5e087eeeb405ac03e324f90d89b0e5f51be5a10effb9750984003069cb945f52885f20015560405194604086526040860191611181565b9242868201528033940390a360015f8051602061145983398151915255604051908152f35b634e487b7160e01b5f52603260045260245ffd5b634e487b7160e01b5f52604160045260245ffd5b015190508a80610628565b90600485015f5260205f20915f5b601f1985168110610826575092600894926001926101009583601f1981161061080e575b505050811b0160048501556106c9565b01515f1960f88460031b161c191690558980806107fe565b919260206001819286850151815501940192016107da565b015190508880610628565b9190600285015f5260205f20905f935b601f198416851061089c576001945083601f19811610610884575b505050811b016002830155610642565b01515f1960f88460031b161c19169055878080610874565b81810151835560209485019460019093019290910190610859565b634e487b7160e01b5f52601160045260245ffd5b60405162461bcd60e51b815260206004820152601d60248201527f496e74656e745661756c743a206475706c696361746520696e74656e740000006044820152606490fd5b60405162461bcd60e51b815260206004820152601e60248201527f496e74656e745661756c743a20696e76616c6964207369676e617475726500006044820152606490fd5b60405162461bcd60e51b815260206004820152601a60248201527f496e74656e745661756c743a207370656320746f6f206c6f6e670000000000006044820152606490fd5b60405162461bcd60e51b815260206004820152601760248201527f496e74656e745661756c743a20656d70747920737065630000000000000000006044820152606490fd5b3461015a57602036600319011261015a576004356109fb6112f3565b805f52600160205260405f2060018060a01b036001820154163303610ab557600301805460ff8116600581101561037257610a705760ff191660041790557fc08eb64db16a39d2848960af04e3f16fb404d9d436a9f0e9d7d0d4854715c9dc5f80a260015f8051602061145983398151915255005b60405162461bcd60e51b815260206004820152601860248201527f496e74656e745661756c743a206e6f742070656e64696e6700000000000000006044820152606490fd5b60405162461bcd60e51b815260206004820152601a60248201527f496e74656e745661756c743a206e6f74207375626d69747465720000000000006044820152606490fd5b3461015a575f36600319011261015a575f546040516001600160a01b039091168152602090f35b3461015a57602036600319011261015a576004355f526001602052602060ff600360405f20015416610b566040518092611097565bf35b3461015a57602036600319011261015a576004356001600160a01b0381169081900361015a575f526003602052602060405f2054604051908152f35b3461015a57602036600319011261015a576004356001600160a01b0381169081900361015a575f526004602052602060ff60405f2054166040519015158152f35b3461015a575f36600319011261015a57610bed6112c8565b5f80546001600160a01b0319811682556001600160a01b03167f8be0079c531659141344cd1fd0a4f28419497f9722a3daafe3b4186f6b6457e08280a3005b3461015a57606036600319011261015a576024600435813580151580820361015a5767ffffffffffffffff9160443583811161015a57610c70903690600401611069565b9091610c7a6112f3565b335f526020946004865260ff60405f20541615610f47578215610f0357865f5260019788875260405f2092600684015415610ebf576003840160ff8154166005811015610eac578b8115918215610ea2575b505015610e5e5790610cea610cff92825f14610e56576002906110e2565b600585019060ff801983541691151516179055565b60048301918411610e435750610d1f83610d1983546110fa565b83611132565b5f601f8411600114610dba57918391610d7583610d95967f0b05fba0cc15f817a6ee8cd25279bd1e84810062a562f345467205b92fd68e029a9998965f91610daf575b508160011b915f199060031b1c19161790565b90555b600742910155606060405195869586528501526060840191611181565b4260408301520390a25f8051602061145983398151915255005b90508601358d610d62565b601f19841690825f52875f20915f5b8b828210610e2e57505091859391610d95967f0b05fba0cc15f817a6ee8cd25279bd1e84810062a562f345467205b92fd68e029a9998969410610e15575b50508983811b019055610d78565b8501355f19600386901b60f8161c191690558a80610e07565b88840135855590930192918901918901610dc9565b634e487b7160e01b5f9081526041600452fd5b6003906110e2565b60405162461bcd60e51b8152600481018a9052601f818501527f496e74656e745661756c743a20696e74656e74206e6f742070656e64696e67006044820152606490fd5b1490508b8d610ccc565b83634e487b7160e01b5f5260216004525ffd5b60405162461bcd60e51b815260048101899052601d818401527f496e74656e745661756c743a20696e74656e74206e6f7420666f756e640000006044820152606490fd5b60405162461bcd60e51b815260048101879052601c818a01527f496e74656e745661756c743a20656d70747920726573756c74434944000000006044820152606490fd5b60405162461bcd60e51b8152600481018790526022818a01527f496e74656e745661756c743a20756e617574686f72697365642065786563757460448201526137b960f11b6064820152608490fd5b3461015a57602036600319011261015a576004356001600160a01b0381169081900361015a57610fc46112c8565b805f52600460205260405f2060ff1981541690557f4a2cf608bfb427f53279ec7f0eadf48913b9346ccefc3af138dbdec14ea0907d5f80a2005b3461015a57602036600319011261015a576004356001600160a01b0381169081900361015a5761102c6112c8565b805f52600460205260405f20600160ff198254161790557fae5b7c3b000f575c241001dc9bcb3d8778376889353b07121115574eceff78c55f80a2005b9181601f8401121561015a5782359167ffffffffffffffff831161015a576020838186019501011161015a57565b9060058210156103725752565b91908251928382525f5b8481106110ce575050825f602080949584010152601f8019910116010190565b6020818301810151848301820152016110ae565b9060058110156103725760ff80198354169116179055565b90600182811c92168015611128575b602083101461111457565b634e487b7160e01b5f52602260045260245ffd5b91607f1691611109565b601f821161113f57505050565b5f5260205f20906020601f840160051c83019310611177575b601f0160051c01905b81811061116c575050565b5f8155600101611161565b9091508190611158565b908060209392818452848401375f828201840152601f01601f1916010190565b610120810190811067ffffffffffffffff8211176107ad57604052565b90601f8019910116810190811067ffffffffffffffff8211176107ad57604052565b92919267ffffffffffffffff82116107ad576040519161120a601f8201601f1916602001846111be565b82948184528183011161015a578281602093845f960137010152565b9060405191825f8254611238816110fa565b908184526020946001916001811690815f146112a65750600114611268575b505050611266925003836111be565b565b5f90815285812095935091905b81831061128e57505061126693508201015f8080611257565b85548884018501529485019487945091830191611275565b9250505061126694925060ff191682840152151560051b8201015f8080611257565b5f546001600160a01b031633036112db57565b60405163118cdaa760e01b8152336004820152602490fd5b5f8051602061145983398151915260028154146113105760029055565b604051633ee5aeb560e01b8152600490fd5b81519190604183036113525761134b9250602082015190606060408401519301515f1a906113cb565b9192909190565b50505f9160029190565b6004811015610372578061136e575050565b600181036113885760405163f645eedf60e01b8152600490fd5b600281036113a95760405163fce698f760e01b815260048101839052602490fd5b6003146113b35750565b602490604051906335e2f38360e21b82526004820152fd5b91907f7fffffffffffffffffffffffffffffff5d576e7357a4501ddfe92f46681b20a0841161144d579160209360809260ff5f9560405194855216868401526040830152606082015282805260015afa15611442575f516001600160a01b0381161561143857905f905f90565b505f906001905f90565b6040513d5f823e3d90fd5b5050505f916003919056fe9b779b17422d0df92223018b32b4d1fa46e071723d6817e2486d003becc55f00a2646970667358221220d1c3c3ff36565ce3d1dacd66797da8b7e7308ae7ffc5eb50cc5abdbcc5b4b7d364736f6c63430008180033","opcodes":"PUSH1 0x80 DUP1 PUSH1 0x40 MSTORE CALLVALUE PUSH2 0xB3 JUMPI CALLER ISZERO PUSH2 0x9E JUMPI PUSH0 DUP1 SLOAD CALLER PUSH1 0x1 PUSH1 0x1 PUSH1 0xA0 SHL SUB NOT DUP3 AND DUP2 OR DUP4 SSTORE PUSH1 0x40 MLOAD SWAP3 SWAP1 SWAP2 PUSH1 0x1 PUSH1 0x1 PUSH1 0xA0 SHL SUB AND SWAP1 PUSH32 0x8BE0079C531659141344CD1FD0A4F28419497F9722A3DAAFE3B4186F6B6457E0 SWAP1 DUP1 LOG3 PUSH1 0x1 PUSH32 0x9B779B17422D0DF92223018B32B4D1FA46E071723D6817E2486D003BECC55F00 SSTORE CALLER PUSH0 MSTORE PUSH1 0x4 PUSH1 0x20 MSTORE PUSH1 0x40 PUSH0 KECCAK256 PUSH1 0x1 PUSH1 0xFF NOT DUP3 SLOAD AND OR SWAP1 SSTORE PUSH2 0x14AE SWAP1 DUP2 PUSH2 0xB8 DUP3 CODECOPY RETURN JUMPDEST PUSH4 0x1E4FBDF7 PUSH1 0xE0 SHL DUP2 MSTORE PUSH0 PUSH1 0x4 DUP3 ADD MSTORE PUSH1 0x24 SWAP1 REVERT JUMPDEST PUSH0 DUP1 REVERT INVALID PUSH1 0x80 PUSH1 0x40 MSTORE PUSH1 0x4 CALLDATASIZE LT ISZERO PUSH2 0x11 JUMPI PUSH0 DUP1 REVERT JUMPDEST PUSH0 CALLDATALOAD PUSH1 0xE0 SHR DUP1 PUSH4 0x1F5A0BBE EQ PUSH2 0xFFE JUMPI DUP1 PUSH4 0x24788429 EQ PUSH2 0xF96 JUMPI DUP1 PUSH4 0x473A0FD0 EQ PUSH2 0xC2C JUMPI DUP1 PUSH4 0x715018A6 EQ PUSH2 0xBD5 JUMPI DUP1 PUSH4 0x7AFFF77C EQ PUSH2 0xB94 JUMPI DUP1 PUSH4 0x7ECEBE00 EQ PUSH2 0xB58 JUMPI DUP1 PUSH4 0x837F43F7 EQ PUSH2 0xB21 JUMPI DUP1 PUSH4 0x8DA5CB5B EQ PUSH2 0xAFA JUMPI DUP1 PUSH4 0xD55F960D EQ PUSH2 0x9DF JUMPI DUP1 PUSH4 0xD6B3D46E EQ PUSH2 0x3C4 JUMPI DUP1 PUSH4 0xF13C46AA EQ PUSH2 0x1EA JUMPI DUP1 PUSH4 0xF2FDE38B EQ PUSH2 0x15E JUMPI PUSH4 0xFA3209B2 EQ PUSH2 0xA8 JUMPI PUSH0 DUP1 REVERT JUMPDEST CALLVALUE PUSH2 0x15A JUMPI PUSH1 0x20 DUP1 PUSH1 0x3 NOT CALLDATASIZE ADD SLT PUSH2 0x15A JUMPI PUSH1 0x4 CALLDATALOAD PUSH1 0x1 PUSH1 0x1 PUSH1 0xA0 SHL SUB DUP2 AND SWAP1 DUP2 SWAP1 SUB PUSH2 0x15A JUMPI PUSH0 MSTORE PUSH1 0x2 DUP2 MSTORE PUSH1 0x40 PUSH0 KECCAK256 PUSH1 0x40 MLOAD SWAP1 DUP2 DUP4 DUP3 SLOAD SWAP2 DUP3 DUP2 MSTORE ADD SWAP1 DUP2 SWAP3 PUSH0 MSTORE DUP5 PUSH0 KECCAK256 SWAP1 PUSH0 JUMPDEST DUP7 DUP3 DUP3 LT PUSH2 0x146 JUMPI DUP7 DUP7 PUSH2 0x107 DUP3 DUP9 SUB DUP4 PUSH2 0x11BE JUMP JUMPDEST PUSH1 0x40 MLOAD SWAP3 DUP4 SWAP3 DUP2 DUP5 ADD SWAP1 DUP3 DUP6 MSTORE MLOAD DUP1 SWAP2 MSTORE PUSH1 0x40 DUP5 ADD SWAP3 SWAP2 PUSH0 JUMPDEST DUP3 DUP2 LT PUSH2 0x12F JUMPI POP POP POP POP SUB SWAP1 RETURN JUMPDEST DUP4 MLOAD DUP6 MSTORE DUP7 SWAP6 POP SWAP4 DUP2 ADD SWAP4 SWAP3 DUP2 ADD SWAP3 PUSH1 0x1 ADD PUSH2 0x120 JUMP JUMPDEST DUP4 SLOAD DUP6 MSTORE SWAP1 SWAP4 ADD SWAP3 PUSH1 0x1 SWAP3 DUP4 ADD SWAP3 ADD PUSH2 0xF1 JUMP JUMPDEST PUSH0 DUP1 REVERT JUMPDEST CALLVALUE PUSH2 0x15A JUMPI PUSH1 0x20 CALLDATASIZE PUSH1 0x3 NOT ADD SLT PUSH2 0x15A JUMPI PUSH1 0x4 CALLDATALOAD PUSH1 0x1 PUSH1 0x1 PUSH1 0xA0 SHL SUB DUP2 DUP2 AND SWAP2 DUP3 SWAP1 SUB PUSH2 0x15A JUMPI PUSH2 0x18D PUSH2 0x12C8 JUMP JUMPDEST DUP2 ISZERO PUSH2 0x1D2 JUMPI PUSH0 SLOAD DUP3 PUSH12 0xFFFFFFFFFFFFFFFFFFFFFFFF PUSH1 0xA0 SHL DUP3 AND OR PUSH0 SSTORE AND PUSH32 0x8BE0079C531659141344CD1FD0A4F28419497F9722A3DAAFE3B4186F6B6457E0 PUSH0 DUP1 LOG3 STOP JUMPDEST PUSH1 0x40 MLOAD PUSH4 0x1E4FBDF7 PUSH1 0xE0 SHL DUP2 MSTORE PUSH0 PUSH1 0x4 DUP3 ADD MSTORE PUSH1 0x24 SWAP1 REVERT JUMPDEST CALLVALUE PUSH2 0x15A JUMPI PUSH1 0x20 DUP1 PUSH1 0x3 NOT CALLDATASIZE ADD SLT PUSH2 0x15A JUMPI PUSH1 0x40 MLOAD PUSH1 0x4 CALLDATALOAD PUSH2 0x20B DUP3 PUSH2 0x11A1 JUMP JUMPDEST PUSH0 DUP3 MSTORE PUSH0 DUP4 DUP4 ADD MSTORE PUSH1 0x60 PUSH1 0x40 DUP4 ADD MSTORE PUSH0 PUSH1 0x60 DUP4 ADD MSTORE PUSH1 0x60 PUSH1 0x80 DUP4 ADD MSTORE PUSH0 PUSH1 0xA0 DUP4 ADD MSTORE PUSH0 PUSH1 0xC0 DUP4 ADD MSTORE PUSH0 PUSH1 0xE0 DUP4 ADD MSTORE PUSH0 PUSH2 0x100 DUP1 SWAP4 ADD MSTORE DUP1 PUSH0 MSTORE PUSH1 0x1 DUP4 MSTORE PUSH1 0x6 PUSH1 0x40 PUSH0 KECCAK256 ADD SLOAD ISZERO PUSH2 0x386 JUMPI PUSH0 MSTORE PUSH1 0x1 DUP3 MSTORE PUSH1 0x40 PUSH0 KECCAK256 PUSH1 0x40 MLOAD SWAP2 PUSH2 0x26C DUP4 PUSH2 0x11A1 JUMP JUMPDEST DUP2 SLOAD DUP4 MSTORE PUSH1 0x1 DUP3 ADD SLOAD PUSH1 0x1 PUSH1 0x1 PUSH1 0xA0 SHL SUB SWAP1 DUP2 AND DUP6 DUP6 ADD SWAP1 DUP2 MSTORE SWAP1 SWAP2 PUSH2 0x294 PUSH1 0x2 DUP6 ADD PUSH2 0x1226 JUMP JUMPDEST SWAP4 PUSH1 0x40 DUP7 ADD SWAP5 DUP6 MSTORE PUSH1 0xFF PUSH1 0x3 DUP3 ADD SLOAD AND SWAP4 PUSH1 0x60 DUP8 ADD SWAP5 PUSH1 0x5 DUP2 LT ISZERO PUSH2 0x372 JUMPI DUP6 MSTORE PUSH2 0x2C1 PUSH1 0x4 DUP4 ADD PUSH2 0x1226 JUMP JUMPDEST SWAP5 PUSH1 0x80 DUP9 ADD SWAP6 DUP7 MSTORE PUSH1 0x5 DUP4 ADD SLOAD PUSH1 0xFF AND SWAP7 PUSH1 0xA0 DUP10 ADD SWAP8 ISZERO ISZERO DUP9 MSTORE PUSH1 0x6 DUP5 ADD SLOAD SWAP3 PUSH1 0xC0 DUP11 ADD SWAP4 DUP5 MSTORE PUSH1 0x7 DUP6 ADD SLOAD SWAP5 PUSH1 0xE0 DUP12 ADD SWAP6 DUP7 MSTORE PUSH1 0x8 ADD SLOAD SWAP7 DUP7 DUP12 ADD SWAP8 DUP9 MSTORE PUSH1 0x40 MLOAD SWAP12 DUP13 SWAP12 DUP2 DUP14 MSTORE MLOAD SWAP1 DUP13 ADD MSTORE MLOAD AND PUSH1 0x40 DUP11 ADD MSTORE MLOAD SWAP6 PUSH2 0x120 SWAP7 DUP8 PUSH1 0x60 DUP12 ADD MSTORE PUSH2 0x140 DUP11 ADD PUSH2 0x32F SWAP2 PUSH2 0x10A4 JUMP JUMPDEST SWAP2 MLOAD PUSH1 0x80 DUP11 ADD PUSH2 0x33E SWAP2 PUSH2 0x1097 JUMP JUMPDEST MLOAD DUP9 DUP3 SUB PUSH1 0x1F NOT ADD PUSH1 0xA0 DUP11 ADD MSTORE PUSH2 0x355 SWAP2 SWAP1 PUSH2 0x10A4 JUMP JUMPDEST SWAP6 MLOAD ISZERO ISZERO PUSH1 0xC0 DUP9 ADD MSTORE MLOAD PUSH1 0xE0 DUP8 ADD MSTORE MLOAD SWAP1 DUP6 ADD MSTORE MLOAD SWAP1 DUP4 ADD MSTORE SUB SWAP1 RETURN JUMPDEST PUSH4 0x4E487B71 PUSH1 0xE0 SHL PUSH0 MSTORE PUSH1 0x21 PUSH1 0x4 MSTORE PUSH1 0x24 PUSH0 REVERT JUMPDEST PUSH1 0x40 MLOAD PUSH3 0x461BCD PUSH1 0xE5 SHL DUP2 MSTORE PUSH1 0x4 DUP2 ADD DUP5 SWAP1 MSTORE PUSH1 0x16 PUSH1 0x24 DUP3 ADD MSTORE PUSH22 0x125B9D195B9D15985D5B1D0E881B9BDD08199BDD5B99 PUSH1 0x52 SHL PUSH1 0x44 DUP3 ADD MSTORE PUSH1 0x64 SWAP1 REVERT JUMPDEST CALLVALUE PUSH2 0x15A JUMPI PUSH1 0x40 CALLDATASIZE PUSH1 0x3 NOT ADD SLT PUSH2 0x15A JUMPI PUSH1 0x4 CALLDATALOAD PUSH8 0xFFFFFFFFFFFFFFFF DUP2 GT PUSH2 0x15A JUMPI PUSH2 0x3F5 SWAP1 CALLDATASIZE SWAP1 PUSH1 0x4 ADD PUSH2 0x1069 JUMP JUMPDEST PUSH1 0x24 CALLDATALOAD PUSH8 0xFFFFFFFFFFFFFFFF DUP2 GT PUSH2 0x15A JUMPI PUSH2 0x415 SWAP1 CALLDATASIZE SWAP1 PUSH1 0x4 ADD PUSH2 0x1069 JUMP JUMPDEST SWAP2 SWAP1 PUSH2 0x41F PUSH2 0x12F3 JUMP JUMPDEST DUP2 ISZERO PUSH2 0x99A JUMPI PUSH2 0x1000 DUP3 GT PUSH2 0x955 JUMPI CALLER PUSH0 MSTORE PUSH1 0x3 PUSH1 0x20 MSTORE PUSH2 0x4BD PUSH2 0x4B4 PUSH1 0x40 PUSH0 KECCAK256 SLOAD SWAP5 PUSH2 0x4AE PUSH1 0x40 MLOAD SWAP5 PUSH1 0x20 DUP7 ADD CALLER PUSH1 0x60 SHL SWAP7 DUP8 DUP3 MSTORE DUP9 DUP12 PUSH1 0x34 DUP4 ADD CALLDATACOPY PUSH2 0x479 PUSH1 0x54 DUP3 DUP12 DUP2 ADD DUP14 PUSH1 0x34 DUP3 ADD MSTORE SUB PUSH1 0x34 DUP2 ADD DUP5 MSTORE ADD DUP3 PUSH2 0x11BE JUMP JUMPDEST MLOAD SWAP1 KECCAK256 PUSH32 0x19457468657265756D205369676E6564204D6573736167653A0A333200000000 PUSH0 MSTORE PUSH1 0x1C MSTORE PUSH1 0x3C PUSH0 KECCAK256 SWAP3 CALLDATASIZE SWAP2 PUSH2 0x11E0 JUMP JUMPDEST SWAP1 PUSH2 0x1322 JUMP JUMPDEST SWAP1 SWAP3 SWAP2 SWAP3 PUSH2 0x135C JUMP JUMPDEST CALLER PUSH1 0x1 PUSH1 0x1 PUSH1 0xA0 SHL SUB SWAP1 SWAP2 AND SUB PUSH2 0x910 JUMPI PUSH1 0x40 MLOAD PUSH1 0x20 DUP2 ADD SWAP2 DUP3 MSTORE DUP3 DUP6 PUSH1 0x34 DUP4 ADD CALLDATACOPY PUSH2 0x502 PUSH1 0x74 DUP3 DUP6 DUP2 ADD DUP8 PUSH1 0x34 DUP3 ADD MSTORE TIMESTAMP PUSH1 0x54 DUP3 ADD MSTORE SUB PUSH1 0x54 DUP2 ADD DUP5 MSTORE ADD DUP3 PUSH2 0x11BE JUMP JUMPDEST MLOAD SWAP1 KECCAK256 SWAP2 DUP3 PUSH0 MSTORE PUSH1 0x1 PUSH1 0x20 MSTORE PUSH1 0x6 PUSH1 0x40 PUSH0 KECCAK256 ADD SLOAD PUSH2 0x8CB JUMPI CALLER PUSH0 MSTORE PUSH1 0x3 PUSH1 0x20 MSTORE PUSH1 0x40 PUSH0 KECCAK256 DUP1 SLOAD PUSH0 NOT DUP2 EQ PUSH2 0x8B7 JUMPI PUSH1 0x1 ADD SWAP1 SSTORE PUSH1 0x40 MLOAD SWAP1 PUSH2 0x542 DUP3 PUSH2 0x11A1 JUMP JUMPDEST DUP4 DUP3 MSTORE CALLER PUSH1 0x20 DUP4 ADD MSTORE PUSH2 0x556 CALLDATASIZE DUP5 DUP8 PUSH2 0x11E0 JUMP JUMPDEST PUSH1 0x40 DUP4 ADD MSTORE PUSH0 PUSH1 0x60 DUP4 ADD MSTORE PUSH1 0x40 MLOAD DUP1 PUSH1 0x20 DUP2 ADD LT PUSH8 0xFFFFFFFFFFFFFFFF PUSH1 0x20 DUP4 ADD GT OR PUSH2 0x7AD JUMPI PUSH1 0x20 DUP2 ADD PUSH1 0x40 MSTORE PUSH0 DUP2 MSTORE PUSH1 0x80 DUP4 ADD MSTORE PUSH0 PUSH1 0xA0 DUP4 ADD MSTORE TIMESTAMP PUSH1 0xC0 DUP4 ADD MSTORE PUSH0 PUSH1 0xE0 DUP4 ADD MSTORE PUSH2 0x100 DUP3 ADD MSTORE DUP3 PUSH0 MSTORE PUSH1 0x1 PUSH1 0x20 MSTORE PUSH1 0x40 PUSH0 KECCAK256 SWAP1 DUP1 MLOAD DUP3 SSTORE PUSH1 0x1 DUP3 ADD PUSH1 0x1 DUP1 PUSH1 0xA0 SHL SUB PUSH1 0x20 DUP4 ADD MLOAD AND PUSH12 0xFFFFFFFFFFFFFFFFFFFFFFFF PUSH1 0xA0 SHL DUP3 SLOAD AND OR SWAP1 SSTORE PUSH1 0x40 DUP2 ADD MLOAD DUP1 MLOAD SWAP1 PUSH8 0xFFFFFFFFFFFFFFFF DUP3 GT PUSH2 0x7AD JUMPI PUSH2 0x60D DUP3 PUSH2 0x604 PUSH1 0x2 DUP8 ADD SLOAD PUSH2 0x10FA JUMP JUMPDEST PUSH1 0x2 DUP8 ADD PUSH2 0x1132 JUMP JUMPDEST PUSH1 0x20 SWAP1 PUSH1 0x1F DUP4 GT PUSH1 0x1 EQ PUSH2 0x849 JUMPI PUSH2 0x63C SWAP3 SWAP2 PUSH0 SWAP2 DUP4 PUSH2 0x83E JUMPI JUMPDEST POP POP DUP2 PUSH1 0x1 SHL SWAP2 PUSH0 NOT SWAP1 PUSH1 0x3 SHL SHR NOT AND OR SWAP1 JUMP JUMPDEST PUSH1 0x2 DUP4 ADD SSTORE JUMPDEST PUSH1 0x60 DUP2 ADD MLOAD PUSH1 0x5 DUP2 LT ISZERO PUSH2 0x372 JUMPI PUSH2 0x65D SWAP1 PUSH1 0x3 DUP5 ADD PUSH2 0x10E2 JUMP JUMPDEST PUSH1 0x80 DUP2 ADD MLOAD DUP1 MLOAD SWAP1 PUSH8 0xFFFFFFFFFFFFFFFF DUP3 GT PUSH2 0x7AD JUMPI PUSH2 0x68E DUP3 PUSH2 0x685 PUSH1 0x4 DUP8 ADD SLOAD PUSH2 0x10FA JUMP JUMPDEST PUSH1 0x4 DUP8 ADD PUSH2 0x1132 JUMP JUMPDEST PUSH1 0x20 SWAP1 PUSH1 0x1F DUP4 GT PUSH1 0x1 EQ PUSH2 0x7CC JUMPI DUP3 PUSH2 0x100 SWAP4 PUSH1 0x8 SWAP6 SWAP4 PUSH2 0x6C3 SWAP4 PUSH0 SWAP3 PUSH2 0x7C1 JUMPI POP POP DUP2 PUSH1 0x1 SHL SWAP2 PUSH0 NOT SWAP1 PUSH1 0x3 SHL SHR NOT AND OR SWAP1 JUMP JUMPDEST PUSH1 0x4 DUP6 ADD SSTORE JUMPDEST PUSH2 0x6E8 PUSH1 0xA0 DUP3 ADD MLOAD ISZERO ISZERO PUSH1 0x5 DUP7 ADD SWAP1 PUSH1 0xFF DUP1 NOT DUP4 SLOAD AND SWAP2 ISZERO ISZERO AND OR SWAP1 SSTORE JUMP JUMPDEST PUSH1 0xC0 DUP2 ADD MLOAD PUSH1 0x6 DUP6 ADD SSTORE PUSH1 0xE0 DUP2 ADD MLOAD PUSH1 0x7 DUP6 ADD SSTORE ADD MLOAD SWAP2 ADD SSTORE CALLER PUSH0 MSTORE PUSH1 0x2 PUSH1 0x20 MSTORE PUSH1 0x40 PUSH0 KECCAK256 SWAP3 DUP4 SLOAD SWAP4 PUSH9 0x10000000000000000 DUP6 LT ISZERO PUSH2 0x7AD JUMPI PUSH1 0x1 DUP6 ADD DUP1 DUP3 SSTORE DUP6 LT ISZERO PUSH2 0x799 JUMPI PUSH2 0x774 DUP5 SWAP3 DUP4 PUSH1 0x20 SWAP8 PUSH32 0xD0D54C5E087EEEB405AC03E324F90D89B0E5F51BE5A10EFFB9750984003069CB SWAP5 PUSH0 MSTORE DUP9 PUSH0 KECCAK256 ADD SSTORE PUSH1 0x40 MLOAD SWAP5 PUSH1 0x40 DUP7 MSTORE PUSH1 0x40 DUP7 ADD SWAP2 PUSH2 0x1181 JUMP JUMPDEST SWAP3 TIMESTAMP DUP7 DUP3 ADD MSTORE DUP1 CALLER SWAP5 SUB SWAP1 LOG3 PUSH1 0x1 PUSH0 DUP1 MLOAD PUSH1 0x20 PUSH2 0x1459 DUP4 CODECOPY DUP2 MLOAD SWAP2 MSTORE SSTORE PUSH1 0x40 MLOAD SWAP1 DUP2 MSTORE RETURN JUMPDEST PUSH4 0x4E487B71 PUSH1 0xE0 SHL PUSH0 MSTORE PUSH1 0x32 PUSH1 0x4 MSTORE PUSH1 0x24 PUSH0 REVERT JUMPDEST PUSH4 0x4E487B71 PUSH1 0xE0 SHL PUSH0 MSTORE PUSH1 0x41 PUSH1 0x4 MSTORE PUSH1 0x24 PUSH0 REVERT JUMPDEST ADD MLOAD SWAP1 POP DUP11 DUP1 PUSH2 0x628 JUMP JUMPDEST SWAP1 PUSH1 0x4 DUP6 ADD PUSH0 MSTORE PUSH1 0x20 PUSH0 KECCAK256 SWAP2 PUSH0 JUMPDEST PUSH1 0x1F NOT DUP6 AND DUP2 LT PUSH2 0x826 JUMPI POP SWAP3 PUSH1 0x8 SWAP5 SWAP3 PUSH1 0x1 SWAP3 PUSH2 0x100 SWAP6 DUP4 PUSH1 0x1F NOT DUP2 AND LT PUSH2 0x80E JUMPI JUMPDEST POP POP POP DUP2 SHL ADD PUSH1 0x4 DUP6 ADD SSTORE PUSH2 0x6C9 JUMP JUMPDEST ADD MLOAD PUSH0 NOT PUSH1 0xF8 DUP5 PUSH1 0x3 SHL AND SHR NOT AND SWAP1 SSTORE DUP10 DUP1 DUP1 PUSH2 0x7FE JUMP JUMPDEST SWAP2 SWAP3 PUSH1 0x20 PUSH1 0x1 DUP2 SWAP3 DUP7 DUP6 ADD MLOAD DUP2 SSTORE ADD SWAP5 ADD SWAP3 ADD PUSH2 0x7DA JUMP JUMPDEST ADD MLOAD SWAP1 POP DUP9 DUP1 PUSH2 0x628 JUMP JUMPDEST SWAP2 SWAP1 PUSH1 0x2 DUP6 ADD PUSH0 MSTORE PUSH1 0x20 PUSH0 KECCAK256 SWAP1 PUSH0 SWAP4 JUMPDEST PUSH1 0x1F NOT DUP5 AND DUP6 LT PUSH2 0x89C JUMPI PUSH1 0x1 SWAP5 POP DUP4 PUSH1 0x1F NOT DUP2 AND LT PUSH2 0x884 JUMPI JUMPDEST POP POP POP DUP2 SHL ADD PUSH1 0x2 DUP4 ADD SSTORE PUSH2 0x642 JUMP JUMPDEST ADD MLOAD PUSH0 NOT PUSH1 0xF8 DUP5 PUSH1 0x3 SHL AND SHR NOT AND SWAP1 SSTORE DUP8 DUP1 DUP1 PUSH2 0x874 JUMP JUMPDEST DUP2 DUP2 ADD MLOAD DUP4 SSTORE PUSH1 0x20 SWAP5 DUP6 ADD SWAP5 PUSH1 0x1 SWAP1 SWAP4 ADD SWAP3 SWAP1 SWAP2 ADD SWAP1 PUSH2 0x859 JUMP JUMPDEST PUSH4 0x4E487B71 PUSH1 0xE0 SHL PUSH0 MSTORE PUSH1 0x11 PUSH1 0x4 MSTORE PUSH1 0x24 PUSH0 REVERT JUMPDEST PUSH1 0x40 MLOAD PUSH3 0x461BCD PUSH1 0xE5 SHL DUP2 MSTORE PUSH1 0x20 PUSH1 0x4 DUP3 ADD MSTORE PUSH1 0x1D PUSH1 0x24 DUP3 ADD MSTORE PUSH32 0x496E74656E745661756C743A206475706C696361746520696E74656E74000000 PUSH1 0x44 DUP3 ADD MSTORE PUSH1 0x64 SWAP1 REVERT JUMPDEST PUSH1 0x40 MLOAD PUSH3 0x461BCD PUSH1 0xE5 SHL DUP2 MSTORE PUSH1 0x20 PUSH1 0x4 DUP3 ADD MSTORE PUSH1 0x1E PUSH1 0x24 DUP3 ADD MSTORE PUSH32 0x496E74656E745661756C743A20696E76616C6964207369676E61747572650000 PUSH1 0x44 DUP3 ADD MSTORE PUSH1 0x64 SWAP1 REVERT JUMPDEST PUSH1 0x40 MLOAD PUSH3 0x461BCD PUSH1 0xE5 SHL DUP2 MSTORE PUSH1 0x20 PUSH1 0x4 DUP3 ADD MSTORE PUSH1 0x1A PUSH1 0x24 DUP3 ADD MSTORE PUSH32 0x496E74656E745661756C743A207370656320746F6F206C6F6E67000000000000 PUSH1 0x44 DUP3 ADD MSTORE PUSH1 0x64 SWAP1 REVERT JUMPDEST PUSH1 0x40 MLOAD PUSH3 0x461BCD PUSH1 0xE5 SHL DUP2 MSTORE PUSH1 0x20 PUSH1 0x4 DUP3 ADD MSTORE PUSH1 0x17 PUSH1 0x24 DUP3 ADD MSTORE PUSH32 0x496E74656E745661756C743A20656D7074792073706563000000000000000000 PUSH1 0x44 DUP3 ADD MSTORE PUSH1 0x64 SWAP1 REVERT JUMPDEST CALLVALUE PUSH2 0x15A JUMPI PUSH1 0x20 CALLDATASIZE PUSH1 0x3 NOT ADD SLT PUSH2 0x15A JUMPI PUSH1 0x4 CALLDATALOAD PUSH2 0x9FB PUSH2 0x12F3 JUMP JUMPDEST DUP1 PUSH0 MSTORE PUSH1 0x1 PUSH1 0x20 MSTORE PUSH1 0x40 PUSH0 KECCAK256 PUSH1 0x1 DUP1 PUSH1 0xA0 SHL SUB PUSH1 0x1 DUP3 ADD SLOAD AND CALLER SUB PUSH2 0xAB5 JUMPI PUSH1 0x3 ADD DUP1 SLOAD PUSH1 0xFF DUP2 AND PUSH1 0x5 DUP2 LT ISZERO PUSH2 0x372 JUMPI PUSH2 0xA70 JUMPI PUSH1 0xFF NOT AND PUSH1 0x4 OR SWAP1 SSTORE PUSH32 0xC08EB64DB16A39D2848960AF04E3F16FB404D9D436A9F0E9D7D0D4854715C9DC PUSH0 DUP1 LOG2 PUSH1 0x1 PUSH0 DUP1 MLOAD PUSH1 0x20 PUSH2 0x1459 DUP4 CODECOPY DUP2 MLOAD SWAP2 MSTORE SSTORE STOP JUMPDEST PUSH1 0x40 MLOAD PUSH3 0x461BCD PUSH1 0xE5 SHL DUP2 MSTORE PUSH1 0x20 PUSH1 0x4 DUP3 ADD MSTORE PUSH1 0x18 PUSH1 0x24 DUP3 ADD MSTORE PUSH32 0x496E74656E745661756C743A206E6F742070656E64696E670000000000000000 PUSH1 0x44 DUP3 ADD MSTORE PUSH1 0x64 SWAP1 REVERT JUMPDEST PUSH1 0x40 MLOAD PUSH3 0x461BCD PUSH1 0xE5 SHL DUP2 MSTORE PUSH1 0x20 PUSH1 0x4 DUP3 ADD MSTORE PUSH1 0x1A PUSH1 0x24 DUP3 ADD MSTORE PUSH32 0x496E74656E745661756C743A206E6F74207375626D6974746572000000000000 PUSH1 0x44 DUP3 ADD MSTORE PUSH1 0x64 SWAP1 REVERT JUMPDEST CALLVALUE PUSH2 0x15A JUMPI PUSH0 CALLDATASIZE PUSH1 0x3 NOT ADD SLT PUSH2 0x15A JUMPI PUSH0 SLOAD PUSH1 0x40 MLOAD PUSH1 0x1 PUSH1 0x1 PUSH1 0xA0 SHL SUB SWAP1 SWAP2 AND DUP2 MSTORE PUSH1 0x20 SWAP1 RETURN JUMPDEST CALLVALUE PUSH2 0x15A JUMPI PUSH1 0x20 CALLDATASIZE PUSH1 0x3 NOT ADD SLT PUSH2 0x15A JUMPI PUSH1 0x4 CALLDATALOAD PUSH0 MSTORE PUSH1 0x1 PUSH1 0x20 MSTORE PUSH1 0x20 PUSH1 0xFF PUSH1 0x3 PUSH1 0x40 PUSH0 KECCAK256 ADD SLOAD AND PUSH2 0xB56 PUSH1 0x40 MLOAD DUP1 SWAP3 PUSH2 0x1097 JUMP JUMPDEST RETURN JUMPDEST CALLVALUE PUSH2 0x15A JUMPI PUSH1 0x20 CALLDATASIZE PUSH1 0x3 NOT ADD SLT PUSH2 0x15A JUMPI PUSH1 0x4 CALLDATALOAD PUSH1 0x1 PUSH1 0x1 PUSH1 0xA0 SHL SUB DUP2 AND SWAP1 DUP2 SWAP1 SUB PUSH2 0x15A JUMPI PUSH0 MSTORE PUSH1 0x3 PUSH1 0x20 MSTORE PUSH1 0x20 PUSH1 0x40 PUSH0 KECCAK256 SLOAD PUSH1 0x40 MLOAD SWAP1 DUP2 MSTORE RETURN JUMPDEST CALLVALUE PUSH2 0x15A JUMPI PUSH1 0x20 CALLDATASIZE PUSH1 0x3 NOT ADD SLT PUSH2 0x15A JUMPI PUSH1 0x4 CALLDATALOAD PUSH1 0x1 PUSH1 0x1 PUSH1 0xA0 SHL SUB DUP2 AND SWAP1 DUP2 SWAP1 SUB PUSH2 0x15A JUMPI PUSH0 MSTORE PUSH1 0x4 PUSH1 0x20 MSTORE PUSH1 0x20 PUSH1 0xFF PUSH1 0x40 PUSH0 KECCAK256 SLOAD AND PUSH1 0x40 MLOAD SWAP1 ISZERO ISZERO DUP2 MSTORE RETURN JUMPDEST CALLVALUE PUSH2 0x15A JUMPI PUSH0 CALLDATASIZE PUSH1 0x3 NOT ADD SLT PUSH2 0x15A JUMPI PUSH2 0xBED PUSH2 0x12C8 JUMP JUMPDEST PUSH0 DUP1 SLOAD PUSH1 0x1 PUSH1 0x1 PUSH1 0xA0 SHL SUB NOT DUP2 AND DUP3 SSTORE PUSH1 0x1 PUSH1 0x1 PUSH1 0xA0 SHL SUB AND PUSH32 0x8BE0079C531659141344CD1FD0A4F28419497F9722A3DAAFE3B4186F6B6457E0 DUP3 DUP1 LOG3 STOP JUMPDEST CALLVALUE PUSH2 0x15A JUMPI PUSH1 0x60 CALLDATASIZE PUSH1 0x3 NOT ADD SLT PUSH2 0x15A JUMPI PUSH1 0x24 PUSH1 0x4 CALLDATALOAD DUP2 CALLDATALOAD DUP1 ISZERO ISZERO DUP1 DUP3 SUB PUSH2 0x15A JUMPI PUSH8 0xFFFFFFFFFFFFFFFF SWAP2 PUSH1 0x44 CALLDATALOAD DUP4 DUP2 GT PUSH2 0x15A JUMPI PUSH2 0xC70 SWAP1 CALLDATASIZE SWAP1 PUSH1 0x4 ADD PUSH2 0x1069 JUMP JUMPDEST SWAP1 SWAP2 PUSH2 0xC7A PUSH2 0x12F3 JUMP JUMPDEST CALLER PUSH0 MSTORE PUSH1 0x20 SWAP5 PUSH1 0x4 DUP7 MSTORE PUSH1 0xFF PUSH1 0x40 PUSH0 KECCAK256 SLOAD AND ISZERO PUSH2 0xF47 JUMPI DUP3 ISZERO PUSH2 0xF03 JUMPI DUP7 PUSH0 MSTORE PUSH1 0x1 SWAP8 DUP9 DUP8 MSTORE PUSH1 0x40 PUSH0 KECCAK256 SWAP3 PUSH1 0x6 DUP5 ADD SLOAD ISZERO PUSH2 0xEBF JUMPI PUSH1 0x3 DUP5 ADD PUSH1 0xFF DUP2 SLOAD AND PUSH1 0x5 DUP2 LT ISZERO PUSH2 0xEAC JUMPI DUP12 DUP2 ISZERO SWAP2 DUP3 ISZERO PUSH2 0xEA2 JUMPI JUMPDEST POP POP ISZERO PUSH2 0xE5E JUMPI SWAP1 PUSH2 0xCEA PUSH2 0xCFF SWAP3 DUP3 PUSH0 EQ PUSH2 0xE56 JUMPI PUSH1 0x2 SWAP1 PUSH2 0x10E2 JUMP JUMPDEST PUSH1 0x5 DUP6 ADD SWAP1 PUSH1 0xFF DUP1 NOT DUP4 SLOAD AND SWAP2 ISZERO ISZERO AND OR SWAP1 SSTORE JUMP JUMPDEST PUSH1 0x4 DUP4 ADD SWAP2 DUP5 GT PUSH2 0xE43 JUMPI POP PUSH2 0xD1F DUP4 PUSH2 0xD19 DUP4 SLOAD PUSH2 0x10FA JUMP JUMPDEST DUP4 PUSH2 0x1132 JUMP JUMPDEST PUSH0 PUSH1 0x1F DUP5 GT PUSH1 0x1 EQ PUSH2 0xDBA JUMPI SWAP2 DUP4 SWAP2 PUSH2 0xD75 DUP4 PUSH2 0xD95 SWAP7 PUSH32 0xB05FBA0CC15F817A6EE8CD25279BD1E84810062A562F345467205B92FD68E02 SWAP11 SWAP10 SWAP9 SWAP7 PUSH0 SWAP2 PUSH2 0xDAF JUMPI JUMPDEST POP DUP2 PUSH1 0x1 SHL SWAP2 PUSH0 NOT SWAP1 PUSH1 0x3 SHL SHR NOT AND OR SWAP1 JUMP JUMPDEST SWAP1 SSTORE JUMPDEST PUSH1 0x7 TIMESTAMP SWAP2 ADD SSTORE PUSH1 0x60 PUSH1 0x40 MLOAD SWAP6 DUP7 SWAP6 DUP7 MSTORE DUP6 ADD MSTORE PUSH1 0x60 DUP5 ADD SWAP2 PUSH2 0x1181 JUMP JUMPDEST TIMESTAMP PUSH1 0x40 DUP4 ADD MSTORE SUB SWAP1 LOG2 PUSH0 DUP1 MLOAD PUSH1 0x20 PUSH2 0x1459 DUP4 CODECOPY DUP2 MLOAD SWAP2 MSTORE SSTORE STOP JUMPDEST SWAP1 POP DUP7 ADD CALLDATALOAD DUP14 PUSH2 0xD62 JUMP JUMPDEST PUSH1 0x1F NOT DUP5 AND SWAP1 DUP3 PUSH0 MSTORE DUP8 PUSH0 KECCAK256 SWAP2 PUSH0 JUMPDEST DUP12 DUP3 DUP3 LT PUSH2 0xE2E JUMPI POP POP SWAP2 DUP6 SWAP4 SWAP2 PUSH2 0xD95 SWAP7 PUSH32 0xB05FBA0CC15F817A6EE8CD25279BD1E84810062A562F345467205B92FD68E02 SWAP11 SWAP10 SWAP9 SWAP7 SWAP5 LT PUSH2 0xE15 JUMPI JUMPDEST POP POP DUP10 DUP4 DUP2 SHL ADD SWAP1 SSTORE PUSH2 0xD78 JUMP JUMPDEST DUP6 ADD CALLDATALOAD PUSH0 NOT PUSH1 0x3 DUP7 SWAP1 SHL PUSH1 0xF8 AND SHR NOT AND SWAP1 SSTORE DUP11 DUP1 PUSH2 0xE07 JUMP JUMPDEST DUP9 DUP5 ADD CALLDATALOAD DUP6 SSTORE SWAP1 SWAP4 ADD SWAP3 SWAP2 DUP10 ADD SWAP2 DUP10 ADD PUSH2 0xDC9 JUMP JUMPDEST PUSH4 0x4E487B71 PUSH1 0xE0 SHL PUSH0 SWAP1 DUP2 MSTORE PUSH1 0x41 PUSH1 0x4 MSTORE REVERT JUMPDEST PUSH1 0x3 SWAP1 PUSH2 0x10E2 JUMP JUMPDEST PUSH1 0x40 MLOAD PUSH3 0x461BCD PUSH1 0xE5 SHL DUP2 MSTORE PUSH1 0x4 DUP2 ADD DUP11 SWAP1 MSTORE PUSH1 0x1F DUP2 DUP6 ADD MSTORE PUSH32 0x496E74656E745661756C743A20696E74656E74206E6F742070656E64696E6700 PUSH1 0x44 DUP3 ADD MSTORE PUSH1 0x64 SWAP1 REVERT JUMPDEST EQ SWAP1 POP DUP12 DUP14 PUSH2 0xCCC JUMP JUMPDEST DUP4 PUSH4 0x4E487B71 PUSH1 0xE0 SHL PUSH0 MSTORE PUSH1 0x21 PUSH1 0x4 MSTORE PUSH0 REVERT JUMPDEST PUSH1 0x40 MLOAD PUSH3 0x461BCD PUSH1 0xE5 SHL DUP2 MSTORE PUSH1 0x4 DUP2 ADD DUP10 SWAP1 MSTORE PUSH1 0x1D DUP2 DUP5 ADD MSTORE PUSH32 0x496E74656E745661756C743A20696E74656E74206E6F7420666F756E64000000 PUSH1 0x44 DUP3 ADD MSTORE PUSH1 0x64 SWAP1 REVERT JUMPDEST PUSH1 0x40 MLOAD PUSH3 0x461BCD PUSH1 0xE5 SHL DUP2 MSTORE PUSH1 0x4 DUP2 ADD DUP8 SWAP1 MSTORE PUSH1 0x1C DUP2 DUP11 ADD MSTORE PUSH32 0x496E74656E745661756C743A20656D70747920726573756C7443494400000000 PUSH1 0x44 DUP3 ADD MSTORE PUSH1 0x64 SWAP1 REVERT JUMPDEST PUSH1 0x40 MLOAD PUSH3 0x461BCD PUSH1 0xE5 SHL DUP2 MSTORE PUSH1 0x4 DUP2 ADD DUP8 SWAP1 MSTORE PUSH1 0x22 DUP2 DUP11 ADD MSTORE PUSH32 0x496E74656E745661756C743A20756E617574686F726973656420657865637574 PUSH1 0x44 DUP3 ADD MSTORE PUSH2 0x37B9 PUSH1 0xF1 SHL PUSH1 0x64 DUP3 ADD MSTORE PUSH1 0x84 SWAP1 REVERT JUMPDEST CALLVALUE PUSH2 0x15A JUMPI PUSH1 0x20 CALLDATASIZE PUSH1 0x3 NOT ADD SLT PUSH2 0x15A JUMPI PUSH1 0x4 CALLDATALOAD PUSH1 0x1 PUSH1 0x1 PUSH1 0xA0 SHL SUB DUP2 AND SWAP1 DUP2 SWAP1 SUB PUSH2 0x15A JUMPI PUSH2 0xFC4 PUSH2 0x12C8 JUMP JUMPDEST DUP1 PUSH0 MSTORE PUSH1 0x4 PUSH1 0x20 MSTORE PUSH1 0x40 PUSH0 KECCAK256 PUSH1 0xFF NOT DUP2 SLOAD AND SWAP1 SSTORE PUSH32 0x4A2CF608BFB427F53279EC7F0EADF48913B9346CCEFC3AF138DBDEC14EA0907D PUSH0 DUP1 LOG2 STOP JUMPDEST CALLVALUE PUSH2 0x15A JUMPI PUSH1 0x20 CALLDATASIZE PUSH1 0x3 NOT ADD SLT PUSH2 0x15A JUMPI PUSH1 0x4 CALLDATALOAD PUSH1 0x1 PUSH1 0x1 PUSH1 0xA0 SHL SUB DUP2 AND SWAP1 DUP2 SWAP1 SUB PUSH2 0x15A JUMPI PUSH2 0x102C PUSH2 0x12C8 JUMP JUMPDEST DUP1 PUSH0 MSTORE PUSH1 0x4 PUSH1 0x20 MSTORE PUSH1 0x40 PUSH0 KECCAK256 PUSH1 0x1 PUSH1 0xFF NOT DUP3 SLOAD AND OR SWAP1 SSTORE PUSH32 0xAE5B7C3B000F575C241001DC9BCB3D8778376889353B07121115574ECEFF78C5 PUSH0 DUP1 LOG2 STOP JUMPDEST SWAP2 DUP2 PUSH1 0x1F DUP5 ADD SLT ISZERO PUSH2 0x15A JUMPI DUP3 CALLDATALOAD SWAP2 PUSH8 0xFFFFFFFFFFFFFFFF DUP4 GT PUSH2 0x15A JUMPI PUSH1 0x20 DUP4 DUP2 DUP7 ADD SWAP6 ADD ADD GT PUSH2 0x15A JUMPI JUMP JUMPDEST SWAP1 PUSH1 0x5 DUP3 LT ISZERO PUSH2 0x372 JUMPI MSTORE JUMP JUMPDEST SWAP2 SWAP1 DUP3 MLOAD SWAP3 DUP4 DUP3 MSTORE PUSH0 JUMPDEST DUP5 DUP2 LT PUSH2 0x10CE JUMPI POP POP DUP3 PUSH0 PUSH1 0x20 DUP1 SWAP5 SWAP6 DUP5 ADD ADD MSTORE PUSH1 0x1F DUP1 NOT SWAP2 ADD AND ADD ADD SWAP1 JUMP JUMPDEST PUSH1 0x20 DUP2 DUP4 ADD DUP2 ADD MLOAD DUP5 DUP4 ADD DUP3 ADD MSTORE ADD PUSH2 0x10AE JUMP JUMPDEST SWAP1 PUSH1 0x5 DUP2 LT ISZERO PUSH2 0x372 JUMPI PUSH1 0xFF DUP1 NOT DUP4 SLOAD AND SWAP2 AND OR SWAP1 SSTORE JUMP JUMPDEST SWAP1 PUSH1 0x1 DUP3 DUP2 SHR SWAP3 AND DUP1 ISZERO PUSH2 0x1128 JUMPI JUMPDEST PUSH1 0x20 DUP4 LT EQ PUSH2 0x1114 JUMPI JUMP JUMPDEST PUSH4 0x4E487B71 PUSH1 0xE0 SHL PUSH0 MSTORE PUSH1 0x22 PUSH1 0x4 MSTORE PUSH1 0x24 PUSH0 REVERT JUMPDEST SWAP2 PUSH1 0x7F AND SWAP2 PUSH2 0x1109 JUMP JUMPDEST PUSH1 0x1F DUP3 GT PUSH2 0x113F JUMPI POP POP POP JUMP JUMPDEST PUSH0 MSTORE PUSH1 0x20 PUSH0 KECCAK256 SWAP1 PUSH1 0x20 PUSH1 0x1F DUP5 ADD PUSH1 0x5 SHR DUP4 ADD SWAP4 LT PUSH2 0x1177 JUMPI JUMPDEST PUSH1 0x1F ADD PUSH1 0x5 SHR ADD SWAP1 JUMPDEST DUP2 DUP2 LT PUSH2 0x116C JUMPI POP POP JUMP JUMPDEST PUSH0 DUP2 SSTORE PUSH1 0x1 ADD PUSH2 0x1161 JUMP JUMPDEST SWAP1 SWAP2 POP DUP2 SWAP1 PUSH2 0x1158 JUMP JUMPDEST SWAP1 DUP1 PUSH1 0x20 SWAP4 SWAP3 DUP2 DUP5 MSTORE DUP5 DUP5 ADD CALLDATACOPY PUSH0 DUP3 DUP3 ADD DUP5 ADD MSTORE PUSH1 0x1F ADD PUSH1 0x1F NOT AND ADD ADD SWAP1 JUMP JUMPDEST PUSH2 0x120 DUP2 ADD SWAP1 DUP2 LT PUSH8 0xFFFFFFFFFFFFFFFF DUP3 GT OR PUSH2 0x7AD JUMPI PUSH1 0x40 MSTORE JUMP JUMPDEST SWAP1 PUSH1 0x1F DUP1 NOT SWAP2 ADD AND DUP2 ADD SWAP1 DUP2 LT PUSH8 0xFFFFFFFFFFFFFFFF DUP3 GT OR PUSH2 0x7AD JUMPI PUSH1 0x40 MSTORE JUMP JUMPDEST SWAP3 SWAP2 SWAP3 PUSH8 0xFFFFFFFFFFFFFFFF DUP3 GT PUSH2 0x7AD JUMPI PUSH1 0x40 MLOAD SWAP2 PUSH2 0x120A PUSH1 0x1F DUP3 ADD PUSH1 0x1F NOT AND PUSH1 0x20 ADD DUP5 PUSH2 0x11BE JUMP JUMPDEST DUP3 SWAP5 DUP2 DUP5 MSTORE DUP2 DUP4 ADD GT PUSH2 0x15A JUMPI DUP3 DUP2 PUSH1 0x20 SWAP4 DUP5 PUSH0 SWAP7 ADD CALLDATACOPY ADD ADD MSTORE JUMP JUMPDEST SWAP1 PUSH1 0x40 MLOAD SWAP2 DUP3 PUSH0 DUP3 SLOAD PUSH2 0x1238 DUP2 PUSH2 0x10FA JUMP JUMPDEST SWAP1 DUP2 DUP5 MSTORE PUSH1 0x20 SWAP5 PUSH1 0x1 SWAP2 PUSH1 0x1 DUP2 AND SWAP1 DUP2 PUSH0 EQ PUSH2 0x12A6 JUMPI POP PUSH1 0x1 EQ PUSH2 0x1268 JUMPI JUMPDEST POP POP POP PUSH2 0x1266 SWAP3 POP SUB DUP4 PUSH2 0x11BE JUMP JUMPDEST JUMP JUMPDEST PUSH0 SWAP1 DUP2 MSTORE DUP6 DUP2 KECCAK256 SWAP6 SWAP4 POP SWAP2 SWAP1 JUMPDEST DUP2 DUP4 LT PUSH2 0x128E JUMPI POP POP PUSH2 0x1266 SWAP4 POP DUP3 ADD ADD PUSH0 DUP1 DUP1 PUSH2 0x1257 JUMP JUMPDEST DUP6 SLOAD DUP9 DUP5 ADD DUP6 ADD MSTORE SWAP5 DUP6 ADD SWAP5 DUP8 SWAP5 POP SWAP2 DUP4 ADD SWAP2 PUSH2 0x1275 JUMP JUMPDEST SWAP3 POP POP POP PUSH2 0x1266 SWAP5 SWAP3 POP PUSH1 0xFF NOT AND DUP3 DUP5 ADD MSTORE ISZERO ISZERO PUSH1 0x5 SHL DUP3 ADD ADD PUSH0 DUP1 DUP1 PUSH2 0x1257 JUMP JUMPDEST PUSH0 SLOAD PUSH1 0x1 PUSH1 0x1 PUSH1 0xA0 SHL SUB AND CALLER SUB PUSH2 0x12DB JUMPI JUMP JUMPDEST PUSH1 0x40 MLOAD PUSH4 0x118CDAA7 PUSH1 0xE0 SHL DUP2 MSTORE CALLER PUSH1 0x4 DUP3 ADD MSTORE PUSH1 0x24 SWAP1 REVERT JUMPDEST PUSH0 DUP1 MLOAD PUSH1 0x20 PUSH2 0x1459 DUP4 CODECOPY DUP2 MLOAD SWAP2 MSTORE PUSH1 0x2 DUP2 SLOAD EQ PUSH2 0x1310 JUMPI PUSH1 0x2 SWAP1 SSTORE JUMP JUMPDEST PUSH1 0x40 MLOAD PUSH4 0x3EE5AEB5 PUSH1 0xE0 SHL DUP2 MSTORE PUSH1 0x4 SWAP1 REVERT JUMPDEST DUP2 MLOAD SWAP2 SWAP1 PUSH1 0x41 DUP4 SUB PUSH2 0x1352 JUMPI PUSH2 0x134B SWAP3 POP PUSH1 0x20 DUP3 ADD MLOAD SWAP1 PUSH1 0x60 PUSH1 0x40 DUP5 ADD MLOAD SWAP4 ADD MLOAD PUSH0 BYTE SWAP1 PUSH2 0x13CB JUMP JUMPDEST SWAP2 SWAP3 SWAP1 SWAP2 SWAP1 JUMP JUMPDEST POP POP PUSH0 SWAP2 PUSH1 0x2 SWAP2 SWAP1 JUMP JUMPDEST PUSH1 0x4 DUP2 LT ISZERO PUSH2 0x372 JUMPI DUP1 PUSH2 0x136E JUMPI POP POP JUMP JUMPDEST PUSH1 0x1 DUP2 SUB PUSH2 0x1388 JUMPI PUSH1 0x40 MLOAD PUSH4 0xF645EEDF PUSH1 0xE0 SHL DUP2 MSTORE PUSH1 0x4 SWAP1 REVERT JUMPDEST PUSH1 0x2 DUP2 SUB PUSH2 0x13A9 JUMPI PUSH1 0x40 MLOAD PUSH4 0xFCE698F7 PUSH1 0xE0 SHL DUP2 MSTORE PUSH1 0x4 DUP2 ADD DUP4 SWAP1 MSTORE PUSH1 0x24 SWAP1 REVERT JUMPDEST PUSH1 0x3 EQ PUSH2 0x13B3 JUMPI POP JUMP JUMPDEST PUSH1 0x24 SWAP1 PUSH1 0x40 MLOAD SWAP1 PUSH4 0x35E2F383 PUSH1 0xE2 SHL DUP3 MSTORE PUSH1 0x4 DUP3 ADD MSTORE REVERT JUMPDEST SWAP2 SWAP1 PUSH32 0x7FFFFFFFFFFFFFFFFFFFFFFFFFFFFFFF5D576E7357A4501DDFE92F46681B20A0 DUP5 GT PUSH2 0x144D JUMPI SWAP2 PUSH1 0x20 SWAP4 PUSH1 0x80 SWAP3 PUSH1 0xFF PUSH0 SWAP6 PUSH1 0x40 MLOAD SWAP5 DUP6 MSTORE AND DUP7 DUP5 ADD MSTORE PUSH1 0x40 DUP4 ADD MSTORE PUSH1 0x60 DUP3 ADD MSTORE DUP3 DUP1 MSTORE PUSH1 0x1 GAS STATICCALL ISZERO PUSH2 0x1442 JUMPI PUSH0 MLOAD PUSH1 0x1 PUSH1 0x1 PUSH1 0xA0 SHL SUB DUP2 AND ISZERO PUSH2 0x1438 JUMPI SWAP1 PUSH0 SWAP1 PUSH0 SWAP1 JUMP JUMPDEST POP PUSH0 SWAP1 PUSH1 0x1 SWAP1 PUSH0 SWAP1 JUMP JUMPDEST PUSH1 0x40 MLOAD RETURNDATASIZE PUSH0 DUP3 RETURNDATACOPY RETURNDATASIZE SWAP1 REVERT JUMPDEST POP POP POP PUSH0 SWAP2 PUSH1 0x3 SWAP2 SWAP1 JUMP INVALID SWAP12 PUSH24 0x9B17422D0DF92223018B32B4D1FA46E071723D6817E2486D STOP EXTCODESIZE 0xEC 0xC5 PUSH0 STOP LOG2 PUSH5 0x6970667358 0x22 SLT KECCAK256 0xD1 0xC3 0xC3 SELFDESTRUCT CALLDATASIZE JUMP TLOAD 0xE3 0xD1 0xDA 0xCD PUSH7 0x797DA8B7E7308A 0xE7 SELFDESTRUCT 0xC5 0xEB POP 0xCC GAS 0xBD 0xBC 0xC5 0xB4 0xB7 0xD3 PUSH5 0x736F6C6343 STOP ADDMOD XOR STOP CALLER "},"methodIdentifiers":{"addExecutor(address)":"1f5a0bbe","authorisedExecutors(address)":"7afff77c","cancelIntent(bytes32)":"d55f960d","getIntent(bytes32)":"f13c46aa","getIntentStatus(bytes32)":"837f43f7","getUserIntents(address)":"fa3209b2","markExecuted(bytes32,bool,string)":"473a0fd0","nonces(address)":"7ecebe00","owner()":"8da5cb5b","removeExecutor(address)":"24788429","renounceOwnership()":"715018a6","submitIntent(string,bytes)":"d6b3d46e","transferOwnership(address)":"f2fde38b"}}}}}