{"contracts/AuditRegistry.sol":{"AuditRegistry":{"abi":[{"inputs":[],"stateMutability":"nonpayable","type":"constructor"},{"inputs":[],"name":"ECDSAInvalidSignature","type":"error"},{"inputs":[{"internalType":"uint256","name":"length","type":"uint256"}],"name":"ECDSAInvalidSignatureLength","type":"error"},{"inputs":[{"internalType":"bytes32","name":"s","type":"bytes32"}],"name":"ECDSAInvalidSignatureS","type":"error"},{"inputs":[{"internalType":"address","name":"owner","type":"address"}],"name":"OwnableInvalidOwner","type":"error"},{"inputs":[{"internalType":"address","name":"account","type":"address"}],"name":"OwnableUnauthorizedAccount","type":"error"},{"inputs":[],"name":"ReentrancyGuardReentrantCall","type":"error"},{"anonymous":false,"inputs":[{"indexed":true,"internalType":"uint256","name":"auditId","type":"uint256"},{"indexed":true,"internalType":"address","name":"contractAddr","type":"address"},{"indexed":false,"internalType":"bytes32","name":"reportHash","type":"bytes32"},{"indexed":false,"internalType":"bytes32","name":"merkleRoot","type":"bytes32"},{"indexed":false,"internalType":"string","name":"reportCID","type":"string"},{"indexed":true,"internalType":"address","name":"auditor","type":"address"},{"indexed":false,"internalType":"uint256","name":"score","type":"uint256"}],"name":"AuditSubmitted","type":"event"},{"anonymous":false,"inputs":[{"indexed":true,"internalType":"address","name":"auditor","type":"address"}],"name":"AuditorAdded","type":"event"},{"anonymous":false,"inputs":[{"indexed":true,"internalType":"address","name":"auditor","type":"address"}],"name":"AuditorRemoved","type":"event"},{"anonymous":false,"inputs":[{"indexed":true,"internalType":"address","name":"previousOwner","type":"address"},{"indexed":true,"internalType":"address","name":"newOwner","type":"address"}],"name":"OwnershipTransferred","type":"event"},{"inputs":[{"internalType":"address","name":"auditor","type":"address"}],"name":"addAuditor","outputs":[],"stateMutability":"nonpayable","type":"function"},{"inputs":[{"internalType":"address","name":"","type":"address"}],"name":"authorisedAuditors","outputs":[{"internalType":"bool","name":"","type":"bool"}],"stateMutability":"view","type":"function"},{"inputs":[{"internalType":"address","name":"contractAddr","type":"address"}],"name":"getAudit","outputs":[{"components":[{"internalType":"uint256","name":"auditId","type":"uint256"},{"internalType":"address","name":"contractAddr","type":"address"},{"internalType":"bytes32","name":"reportHash","type":"bytes32"},{"internalType":"bytes32","name":"merkleRoot","type":"bytes32"},{"internalType":"string","name":"reportCID","type":"string"},{"internalType":"address","name":"auditor","type":"address"},{"internalType":"uint256","name":"timestamp","type":"uint256"},{"internalType":"uint256","name":"blockNumber","type":"uint256"},{"internalType":"uint256","name":"score","type":"uint256"}],"internalType":"struct AuditRegistry.AuditRecord","name":"","type":"tuple"}],"stateMutability":"view","type":"function"},{"inputs":[{"internalType":"address","name":"contractAddr","type":"address"}],"name":"getAuditHistory","outputs":[{"components":[{"internalType":"uint256","name":"auditId","type":"uint256"},{"internalType":"address","name":"contractAddr","type":"address"},{"internalType":"bytes32","name":"reportHash","type":"bytes32"},{"internalType":"bytes32","name":"merkleRoot","type":"bytes32"},{"internalType":"string","name":"reportCID","type":"string"},{"internalType":"address","name":"auditor","type":"address"},{"internalType":"uint256","name":"timestamp","type":"uint256"},{"internalType":"uint256","name":"blockNumber","type":"uint256"},{"internalType":"uint256","name":"score","type":"uint256"}],"internalType":"struct AuditRegistry.AuditRecord[]","name":"","type":"tuple[]"}],"stateMutability":"view","type":"function"},{"inputs":[],"name":"owner","outputs":[{"internalType":"address","name":"","type":"address"}],"stateMutability":"view","type":"function"},{"inputs":[{"internalType":"address","name":"auditor","type":"address"}],"name":"removeAuditor","outputs":[],"stateMutability":"nonpayable","type":"function"},{"inputs":[],"name":"renounceOwnership","outputs":[],"stateMutability":"nonpayable","type":"function"},{"inputs":[{"internalType":"address","name":"contractAddr","type":"address"},{"internalType":"bytes32","name":"reportHash","type":"bytes32"},{"internalType":"bytes32","name":"merkleRoot","type":"bytes32"},{"internalType":"string","name":"reportCID","type":"string"},{"internalType":"bytes","name":"auditorSig","type":"bytes"},{"internalType":"uint256","name":"score","type":"uint256"}],"name":"submitAudit","outputs":[{"internalType":"uint256","name":"auditId","type":"uint256"}],"stateMutability":"nonpayable","type":"function"},{"inputs":[],"name":"totalAudits","outputs":[{"internalType":"uint256","name":"","type":"uint256"}],"stateMutability":"view","type":"function"},{"inputs":[{"internalType":"address","name":"newOwner","type":"address"}],"name":"transferOwnership","outputs":[],"stateMutability":"nonpayable","type":"function"},{"inputs":[{"internalType":"address","name":"contractAddr","type":"address"},{"internalType":"bytes32","name":"reportHash","type":"bytes32"}],"name":"verifyReport","outputs":[{"internalType":"bool","name":"","type":"bool"}],"stateMutability":"view","type":"function"}],"evm":{"bytecode":{"linkReferences":{},"object":"608080604052346100d85733156100c3575f8054336001600160a01b03198216811783556040519290916001600160a01b0316907f8be0079c531659141344cd1fd0a4f28419497f9722a3daafe3b4186f6b6457e09080a360017f9b779b17422d0df92223018b32b4d1fa46e071723d6817e2486d003becc55f0055335f52600460205260405f20600160ff19825416179055337f2c31044378cc14466459f09320dd4057d7ad6e99b194c0800c78227383a252965f80a2610fe590816100dd8239f35b631e4fbdf760e01b81525f6004820152602490fd5b5f80fdfe6080806040526004361015610012575f80fd5b5f3560e01c9081634a07147f14610aed575080636199845d14610a005780636670c4bf14610910578063715018a6146108b957806387a425fb1461087c5780638da5cb5b14610855578063aafb23e814610824578063d68c2258146101eb578063e429cef114610183578063e6116cfd1461011e5763f2fde38b14610095575f80fd5b3461011a57602036600319011261011a576100ae610b07565b6100b6610e3a565b6001600160a01b03908116908115610102575f54826001600160601b0360a01b8216175f55167f8be0079c531659141344cd1fd0a4f28419497f9722a3daafe3b4186f6b6457e05f80a3005b604051631e4fbdf760e01b81525f6004820152602490fd5b5f80fd5b3461011a57602036600319011261011a57610137610b07565b61013f610e3a565b6001600160a01b03165f818152600460205260408120805460ff191690557fd3e803f2dfdacd206b7d19aa46d847206386d84e3dc6b8de0926e54affa6fddc9080a2005b3461011a57602036600319011261011a5761019c610b07565b6101a4610e3a565b6001600160a01b03165f818152600460205260408120805460ff191660011790557f2c31044378cc14466459f09320dd4057d7ad6e99b194c0800c78227383a252969080a2005b3461011a5760c036600319011261011a57610204610b07565b60449060643567ffffffffffffffff811161011a57610227903690600401610bc5565b60849291923567ffffffffffffffff811161011a5761024a903690600401610bc5565b9060027f9b779b17422d0df92223018b32b4d1fa46e071723d6817e2486d003becc55f0054146108125760027f9b779b17422d0df92223018b32b4d1fa46e071723d6817e2486d003becc55f00556001600160a01b038416156107ce576024351561078a57821561074657606460a435116106f857610310949591610301610307927f19457468657265756d205369676e6564204d6573736167653a0a3332000000005f52602435601c52603c5f20923691610df4565b90610e65565b90959195610e9f565b6001600160a01b0384165f9081526004602052604090205460ff16156106a857600154935f198514610694576001850160015560405161034f81610bf3565b8581526001600160a01b038516602082015260243560408201528235606082015261037b368589610df4565b60808201526001600160a01b0382811660a08301524260c08301524360e083015260a43561010083015285165f90815260026020526040902080546801000000000000000081101561066d576103d691600182018155610d74565b91909161068157805182556001820160018060a01b036020830151166001600160601b0360a01b8254161790556040810151600283015560608101516003830155608081015180519067ffffffffffffffff821161066d5761043b6004850154610c32565b601f8111610629575b50918895939160209a95938b90601f83116001146105885760a09593837f3e2e642ad358d03dad9fd65ece9abd3f3ea5ff368701fdaf51e4f76b05f7affd99989694600894610100945f9261057d575b50508160011b915f199060031b1c19161760048501555b60058401600180891b0388830151166001600160601b03891b82541617905560c0810151600685015560e081015160078501550151910155855f5260038a5260405f20600180851b0389166001600160601b03851b825416179055866040519485936024358552358c85015260806040850152816080850152848401375f82880184015260a43560608301525f196001841b01908116971695601f01601f19168101030190a460017f9b779b17422d0df92223018b32b4d1fa46e071723d6817e2486d003becc55f0055604051908152f35b015190505f80610494565b9796959493929190600484015f528c5f20985f5b601f198416811061060f5750926001837f3e2e642ad358d03dad9fd65ece9abd3f3ea5ff368701fdaf51e4f76b05f7affd9a9b6101009460a09a999897600897601f198116106105f7575b505050811b0160048501556104ab565b01515f1960f88460031b161c191690555f80806105e7565b828201518b556001909a01998d9950918e01918e0161059c565b600485015f5260205f20601f840160051c810160208510610666575b601f830160051c8201811061065b575050610444565b5f8155600101610645565b5080610645565b634e487b7160e01b5f52604160045260245ffd5b634e487b7160e01b5f525f60045260245ffd5b634e487b7160e01b5f52601160045260245ffd5b6084907f417564697452656769737472793a20756e617574686f726973656420617564696040519162461bcd60e51b83526020600484015260236024840152820152623a37b960e91b6064820152fd5b60405162461bcd60e51b815260206004820152602160248201527f417564697452656769737472793a2073636f7265206f7574206f662072616e6781880152606560f81b6064820152608490fd5b60405162461bcd60e51b815260206004820152601e60248201527f417564697452656769737472793a20656d707479207265706f7274434944000081880152606490fd5b60405162461bcd60e51b815260206004820152601f60248201527f417564697452656769737472793a20656d707479207265706f7274486173680081880152606490fd5b60405162461bcd60e51b815260206004820181905260248201527f417564697452656769737472793a207a65726f20636f6e74726163744164647281880152606490fd5b604051633ee5aeb560e01b8152600490fd5b3461011a57604036600319011261011a57602061084b610842610b07565b60243590610da1565b6040519015158152f35b3461011a575f36600319011261011a575f546040516001600160a01b039091168152602090f35b3461011a57602036600319011261011a576001600160a01b0361089d610b07565b165f526004602052602060ff60405f2054166040519015158152f35b3461011a575f36600319011261011a576108d1610e3a565b5f80546001600160a01b0319811682556001600160a01b03167f8be0079c531659141344cd1fd0a4f28419497f9722a3daafe3b4186f6b6457e08280a3005b3461011a5760208060031936011261011a5761092a610b07565b5f61010060405161093a81610bf3565b8281528285820152826040820152826060820152606060808201528260a08201528260c08201528260e0820152015260018060a01b03165f526002815260405f2080549081156109bb575f198201918211610694576109a29161099c91610d74565b50610c6a565b906109b7604051928284938452830190610b1d565b0390f35b60405162461bcd60e51b815260048101849052601d60248201527f417564697452656769737472793a206e6f20617564697420666f756e640000006044820152606490fd5b3461011a5760208060031936011261011a576001600160a01b03610a22610b07565b165f526002815260405f2080549067ffffffffffffffff821161066d57829060405192610a54838260051b0185610c10565b80845282840180925f52835f205f915b838310610aca5750505050604051918083019381845251809452604083019360408160051b85010192915f955b828710610a9e5785850386f35b909192938280610aba600193603f198a82030186528851610b1d565b9601920196019592919092610a91565b600986600192610adc859a999a610c6a565b815201920192019190959495610a64565b3461011a575f36600319011261011a576020906001548152f35b600435906001600160a01b038216820361011a57565b906101208251825260209260208101519360018060a01b03809516602085015260408201516040850152606082015160608501526080820151836080860152805180948601525f5b848110610bb057505050610140935f85848601015260a08201511660a084015260c081015160c084015260e081015160e08401526101008091015190830152601f8019910116010190565b81810183015186820161014001528201610b65565b9181601f8401121561011a5782359167ffffffffffffffff831161011a576020838186019501011161011a57565b610120810190811067ffffffffffffffff82111761066d57604052565b90601f8019910116810190811067ffffffffffffffff82111761066d57604052565b90600182811c92168015610c60575b6020831014610c4c57565b634e487b7160e01b5f52602260045260245ffd5b91607f1691610c41565b90604051610c7781610bf3565b80928054825260018060a01b03600181600184015416906020918286015260028401546040860152600384015460608601526004840191604051925f92815491610cc083610c32565b8087529260018116908115610d535750600114610d1b575b505050509181610cf061010095936008950382610c10565b608086015260058201541660a0850152600681015460c0850152600781015460e08501520154910152565b5f908152838120939450925b828410610d405750505082010181610cf0816008610cd8565b8054868501860152928401928101610d27565b60ff191685880152505050151560051b830101905081610cf0816008610cd8565b8054821015610d8d575f52600960205f20910201905f90565b634e487b7160e01b5f52603260045260245ffd5b6001600160a01b03165f9081526002602081905260408220805493925b848110610dce5750505050505f90565b8383610dda8385610d74565b50015414610dea57600101610dbe565b5050505050600190565b92919267ffffffffffffffff821161066d5760405191610e1e601f8201601f191660200184610c10565b82948184528183011161011a578281602093845f960137010152565b5f546001600160a01b03163303610e4d57565b60405163118cdaa760e01b8152336004820152602490fd5b8151919060418303610e9557610e8e9250602082015190606060408401519301515f1a90610f22565b9192909190565b50505f9160029190565b6004811015610f0e5780610eb1575050565b60018103610ecb5760405163f645eedf60e01b8152600490fd5b60028103610eec5760405163fce698f760e01b815260048101839052602490fd5b600314610ef65750565b602490604051906335e2f38360e21b82526004820152fd5b634e487b7160e01b5f52602160045260245ffd5b91907f7fffffffffffffffffffffffffffffff5d576e7357a4501ddfe92f46681b20a08411610fa4579160209360809260ff5f9560405194855216868401526040830152606082015282805260015afa15610f99575f516001600160a01b03811615610f8f57905f905f90565b505f906001905f90565b6040513d5f823e3d90fd5b5050505f916003919056fea26469706673582212209a41bb2c5d0f9eaf1480f9bd8d69d1e3dfdae07b1c55b52ce8e0821bfc17660e64736f6c63430008180033","opcodes":"PUSH1 0x80 DUP1 PUSH1 0x40 MSTORE CALLVALUE PUSH2 0xD8 JUMPI CALLER ISZERO PUSH2 0xC3 JUMPI PUSH0 DUP1 SLOAD CALLER PUSH1 0x1 PUSH1 0x1 PUSH1 0xA0 SHL SUB NOT DUP3 AND DUP2 OR DUP4 SSTORE PUSH1 0x40 MLOAD SWAP3 SWAP1 SWAP2 PUSH1 0x1 PUSH1 0x1 PUSH1 0xA0 SHL SUB AND SWAP1 PUSH32 0x8BE0079C531659141344CD1FD0A4F28419497F9722A3DAAFE3B4186F6B6457E0 SWAP1 DUP1 LOG3 PUSH1 0x1 PUSH32 0x9B779B17422D0DF92223018B32B4D1FA46E071723D6817E2486D003BECC55F00 SSTORE CALLER PUSH0 MSTORE PUSH1 0x4 PUSH1 0x20 MSTORE PUSH1 0x40 PUSH0 KECCAK256 PUSH1 0x1 PUSH1 0xFF NOT DUP3 SLOAD AND OR SWAP1 SSTORE CALLER PUSH32 0x2C31044378CC14466459F09320DD4057D7AD6E99B194C0800C78227383A25296 PUSH0 DUP1 LOG2 PUSH2 0xFE5 SWAP1 DUP2 PUSH2 0xDD DUP3 CODECOPY RETURN JUMPDEST PUSH4 0x1E4FBDF7 PUSH1 0xE0 SHL DUP2 MSTORE PUSH0 PUSH1 0x4 DUP3 ADD MSTORE PUSH1 0x24 SWAP1 REVERT JUMPDEST PUSH0 DUP1 REVERT INVALID PUSH1 0x80 DUP1 PUSH1 0x40 MSTORE PUSH1 0x4 CALLDATASIZE LT ISZERO PUSH2 0x12 JUMPI PUSH0 DUP1 REVERT JUMPDEST PUSH0 CALLDATALOAD PUSH1 0xE0 SHR SWAP1 DUP2 PUSH4 0x4A07147F EQ PUSH2 0xAED JUMPI POP DUP1 PUSH4 0x6199845D EQ PUSH2 0xA00 JUMPI DUP1 PUSH4 0x6670C4BF EQ PUSH2 0x910 JUMPI DUP1 PUSH4 0x715018A6 EQ PUSH2 0x8B9 JUMPI DUP1 PUSH4 0x87A425FB EQ PUSH2 0x87C JUMPI DUP1 PUSH4 0x8DA5CB5B EQ PUSH2 0x855 JUMPI DUP1 PUSH4 0xAAFB23E8 EQ PUSH2 0x824 JUMPI DUP1 PUSH4 0xD68C2258 EQ PUSH2 0x1EB JUMPI DUP1 PUSH4 0xE429CEF1 EQ PUSH2 0x183 JUMPI DUP1 PUSH4 0xE6116CFD EQ PUSH2 0x11E JUMPI PUSH4 0xF2FDE38B EQ PUSH2 0x95 JUMPI PUSH0 DUP1 REVERT JUMPDEST CALLVALUE PUSH2 0x11A JUMPI PUSH1 0x20 CALLDATASIZE PUSH1 0x3 NOT ADD SLT PUSH2 0x11A JUMPI PUSH2 0xAE PUSH2 0xB07 JUMP JUMPDEST PUSH2 0xB6 PUSH2 0xE3A JUMP JUMPDEST PUSH1 0x1 PUSH1 0x1 PUSH1 0xA0 SHL SUB SWAP1 DUP2 AND SWAP1 DUP2 ISZERO PUSH2 0x102 JUMPI PUSH0 SLOAD DUP3 PUSH1 0x1 PUSH1 0x1 PUSH1 0x60 SHL SUB PUSH1 0xA0 SHL DUP3 AND OR PUSH0 SSTORE AND PUSH32 0x8BE0079C531659141344CD1FD0A4F28419497F9722A3DAAFE3B4186F6B6457E0 PUSH0 DUP1 LOG3 STOP JUMPDEST PUSH1 0x40 MLOAD PUSH4 0x1E4FBDF7 PUSH1 0xE0 SHL DUP2 MSTORE PUSH0 PUSH1 0x4 DUP3 ADD MSTORE PUSH1 0x24 SWAP1 REVERT JUMPDEST PUSH0 DUP1 REVERT JUMPDEST CALLVALUE PUSH2 0x11A JUMPI PUSH1 0x20 CALLDATASIZE PUSH1 0x3 NOT ADD SLT PUSH2 0x11A JUMPI PUSH2 0x137 PUSH2 0xB07 JUMP JUMPDEST PUSH2 0x13F PUSH2 0xE3A JUMP JUMPDEST PUSH1 0x1 PUSH1 0x1 PUSH1 0xA0 SHL SUB AND PUSH0 DUP2 DUP2 MSTORE PUSH1 0x4 PUSH1 0x20 MSTORE PUSH1 0x40 DUP2 KECCAK256 DUP1 SLOAD PUSH1 0xFF NOT AND SWAP1 SSTORE PUSH32 0xD3E803F2DFDACD206B7D19AA46D847206386D84E3DC6B8DE0926E54AFFA6FDDC SWAP1 DUP1 LOG2 STOP JUMPDEST CALLVALUE PUSH2 0x11A JUMPI PUSH1 0x20 CALLDATASIZE PUSH1 0x3 NOT ADD SLT PUSH2 0x11A JUMPI PUSH2 0x19C PUSH2 0xB07 JUMP JUMPDEST PUSH2 0x1A4 PUSH2 0xE3A JUMP JUMPDEST PUSH1 0x1 PUSH1 0x1 PUSH1 0xA0 SHL SUB AND PUSH0 DUP2 DUP2 MSTORE PUSH1 0x4 PUSH1 0x20 MSTORE PUSH1 0x40 DUP2 KECCAK256 DUP1 SLOAD PUSH1 0xFF NOT AND PUSH1 0x1 OR SWAP1 SSTORE PUSH32 0x2C31044378CC14466459F09320DD4057D7AD6E99B194C0800C78227383A25296 SWAP1 DUP1 LOG2 STOP JUMPDEST CALLVALUE PUSH2 0x11A JUMPI PUSH1 0xC0 CALLDATASIZE PUSH1 0x3 NOT ADD SLT PUSH2 0x11A JUMPI PUSH2 0x204 PUSH2 0xB07 JUMP JUMPDEST PUSH1 0x44 SWAP1 PUSH1 0x64 CALLDATALOAD PUSH8 0xFFFFFFFFFFFFFFFF DUP2 GT PUSH2 0x11A JUMPI PUSH2 0x227 SWAP1 CALLDATASIZE SWAP1 PUSH1 0x4 ADD PUSH2 0xBC5 JUMP JUMPDEST PUSH1 0x84 SWAP3 SWAP2 SWAP3 CALLDATALOAD PUSH8 0xFFFFFFFFFFFFFFFF DUP2 GT PUSH2 0x11A JUMPI PUSH2 0x24A SWAP1 CALLDATASIZE SWAP1 PUSH1 0x4 ADD PUSH2 0xBC5 JUMP JUMPDEST SWAP1 PUSH1 0x2 PUSH32 0x9B779B17422D0DF92223018B32B4D1FA46E071723D6817E2486D003BECC55F00 SLOAD EQ PUSH2 0x812 JUMPI PUSH1 0x2 PUSH32 0x9B779B17422D0DF92223018B32B4D1FA46E071723D6817E2486D003BECC55F00 SSTORE PUSH1 0x1 PUSH1 0x1 PUSH1 0xA0 SHL SUB DUP5 AND ISZERO PUSH2 0x7CE JUMPI PUSH1 0x24 CALLDATALOAD ISZERO PUSH2 0x78A JUMPI DUP3 ISZERO PUSH2 0x746 JUMPI PUSH1 0x64 PUSH1 0xA4 CALLDATALOAD GT PUSH2 0x6F8 JUMPI PUSH2 0x310 SWAP5 SWAP6 SWAP2 PUSH2 0x301 PUSH2 0x307 SWAP3 PUSH32 0x19457468657265756D205369676E6564204D6573736167653A0A333200000000 PUSH0 MSTORE PUSH1 0x24 CALLDATALOAD PUSH1 0x1C MSTORE PUSH1 0x3C PUSH0 KECCAK256 SWAP3 CALLDATASIZE SWAP2 PUSH2 0xDF4 JUMP JUMPDEST SWAP1 PUSH2 0xE65 JUMP JUMPDEST SWAP1 SWAP6 SWAP2 SWAP6 PUSH2 0xE9F JUMP JUMPDEST PUSH1 0x1 PUSH1 0x1 PUSH1 0xA0 SHL SUB DUP5 AND PUSH0 SWAP1 DUP2 MSTORE PUSH1 0x4 PUSH1 0x20 MSTORE PUSH1 0x40 SWAP1 KECCAK256 SLOAD PUSH1 0xFF AND ISZERO PUSH2 0x6A8 JUMPI PUSH1 0x1 SLOAD SWAP4 PUSH0 NOT DUP6 EQ PUSH2 0x694 JUMPI PUSH1 0x1 DUP6 ADD PUSH1 0x1 SSTORE PUSH1 0x40 MLOAD PUSH2 0x34F DUP2 PUSH2 0xBF3 JUMP JUMPDEST DUP6 DUP2 MSTORE PUSH1 0x1 PUSH1 0x1 PUSH1 0xA0 SHL SUB DUP6 AND PUSH1 0x20 DUP3 ADD MSTORE PUSH1 0x24 CALLDATALOAD PUSH1 0x40 DUP3 ADD MSTORE DUP3 CALLDATALOAD PUSH1 0x60 DUP3 ADD MSTORE PUSH2 0x37B CALLDATASIZE DUP6 DUP10 PUSH2 0xDF4 JUMP JUMPDEST PUSH1 0x80 DUP3 ADD MSTORE PUSH1 0x1 PUSH1 0x1 PUSH1 0xA0 SHL SUB DUP3 DUP2 AND PUSH1 0xA0 DUP4 ADD MSTORE TIMESTAMP PUSH1 0xC0 DUP4 ADD MSTORE NUMBER PUSH1 0xE0 DUP4 ADD MSTORE PUSH1 0xA4 CALLDATALOAD PUSH2 0x100 DUP4 ADD MSTORE DUP6 AND PUSH0 SWAP1 DUP2 MSTORE PUSH1 0x2 PUSH1 0x20 MSTORE PUSH1 0x40 SWAP1 KECCAK256 DUP1 SLOAD PUSH9 0x10000000000000000 DUP2 LT ISZERO PUSH2 0x66D JUMPI PUSH2 0x3D6 SWAP2 PUSH1 0x1 DUP3 ADD DUP2 SSTORE PUSH2 0xD74 JUMP JUMPDEST SWAP2 SWAP1 SWAP2 PUSH2 0x681 JUMPI DUP1 MLOAD DUP3 SSTORE PUSH1 0x1 DUP3 ADD PUSH1 0x1 DUP1 PUSH1 0xA0 SHL SUB PUSH1 0x20 DUP4 ADD MLOAD AND PUSH1 0x1 PUSH1 0x1 PUSH1 0x60 SHL SUB PUSH1 0xA0 SHL DUP3 SLOAD AND OR SWAP1 SSTORE PUSH1 0x40 DUP2 ADD MLOAD PUSH1 0x2 DUP4 ADD SSTORE PUSH1 0x60 DUP2 ADD MLOAD PUSH1 0x3 DUP4 ADD SSTORE PUSH1 0x80 DUP2 ADD MLOAD DUP1 MLOAD SWAP1 PUSH8 0xFFFFFFFFFFFFFFFF DUP3 GT PUSH2 0x66D JUMPI PUSH2 0x43B PUSH1 0x4 DUP6 ADD SLOAD PUSH2 0xC32 JUMP JUMPDEST PUSH1 0x1F DUP2 GT PUSH2 0x629 JUMPI JUMPDEST POP SWAP2 DUP9 SWAP6 SWAP4 SWAP2 PUSH1 0x20 SWAP11 SWAP6 SWAP4 DUP12 SWAP1 PUSH1 0x1F DUP4 GT PUSH1 0x1 EQ PUSH2 0x588 JUMPI PUSH1 0xA0 SWAP6 SWAP4 DUP4 PUSH32 0x3E2E642AD358D03DAD9FD65ECE9ABD3F3EA5FF368701FDAF51E4F76B05F7AFFD SWAP10 SWAP9 SWAP7 SWAP5 PUSH1 0x8 SWAP5 PUSH2 0x100 SWAP5 PUSH0 SWAP3 PUSH2 0x57D JUMPI JUMPDEST POP POP DUP2 PUSH1 0x1 SHL SWAP2 PUSH0 NOT SWAP1 PUSH1 0x3 SHL SHR NOT AND OR PUSH1 0x4 DUP6 ADD SSTORE JUMPDEST PUSH1 0x5 DUP5 ADD PUSH1 0x1 DUP1 DUP10 SHL SUB DUP9 DUP4 ADD MLOAD AND PUSH1 0x1 PUSH1 0x1 PUSH1 0x60 SHL SUB DUP10 SHL DUP3 SLOAD AND OR SWAP1 SSTORE PUSH1 0xC0 DUP2 ADD MLOAD PUSH1 0x6 DUP6 ADD SSTORE PUSH1 0xE0 DUP2 ADD MLOAD PUSH1 0x7 DUP6 ADD SSTORE ADD MLOAD SWAP2 ADD SSTORE DUP6 PUSH0 MSTORE PUSH1 0x3 DUP11 MSTORE PUSH1 0x40 PUSH0 KECCAK256 PUSH1 0x1 DUP1 DUP6 SHL SUB DUP10 AND PUSH1 0x1 PUSH1 0x1 PUSH1 0x60 SHL SUB DUP6 SHL DUP3 SLOAD AND OR SWAP1 SSTORE DUP7 PUSH1 0x40 MLOAD SWAP5 DUP6 SWAP4 PUSH1 0x24 CALLDATALOAD DUP6 MSTORE CALLDATALOAD DUP13 DUP6 ADD MSTORE PUSH1 0x80 PUSH1 0x40 DUP6 ADD MSTORE DUP2 PUSH1 0x80 DUP6 ADD MSTORE DUP5 DUP5 ADD CALLDATACOPY PUSH0 DUP3 DUP9 ADD DUP5 ADD MSTORE PUSH1 0xA4 CALLDATALOAD PUSH1 0x60 DUP4 ADD MSTORE PUSH0 NOT PUSH1 0x1 DUP5 SHL ADD SWAP1 DUP2 AND SWAP8 AND SWAP6 PUSH1 0x1F ADD PUSH1 0x1F NOT AND DUP2 ADD SUB ADD SWAP1 LOG4 PUSH1 0x1 PUSH32 0x9B779B17422D0DF92223018B32B4D1FA46E071723D6817E2486D003BECC55F00 SSTORE PUSH1 0x40 MLOAD SWAP1 DUP2 MSTORE RETURN JUMPDEST ADD MLOAD SWAP1 POP PUSH0 DUP1 PUSH2 0x494 JUMP JUMPDEST SWAP8 SWAP7 SWAP6 SWAP5 SWAP4 SWAP3 SWAP2 SWAP1 PUSH1 0x4 DUP5 ADD PUSH0 MSTORE DUP13 PUSH0 KECCAK256 SWAP9 PUSH0 JUMPDEST PUSH1 0x1F NOT DUP5 AND DUP2 LT PUSH2 0x60F JUMPI POP SWAP3 PUSH1 0x1 DUP4 PUSH32 0x3E2E642AD358D03DAD9FD65ECE9ABD3F3EA5FF368701FDAF51E4F76B05F7AFFD SWAP11 SWAP12 PUSH2 0x100 SWAP5 PUSH1 0xA0 SWAP11 SWAP10 SWAP9 SWAP8 PUSH1 0x8 SWAP8 PUSH1 0x1F NOT DUP2 AND LT PUSH2 0x5F7 JUMPI JUMPDEST POP POP POP DUP2 SHL ADD PUSH1 0x4 DUP6 ADD SSTORE PUSH2 0x4AB JUMP JUMPDEST ADD MLOAD PUSH0 NOT PUSH1 0xF8 DUP5 PUSH1 0x3 SHL AND SHR NOT AND SWAP1 SSTORE PUSH0 DUP1 DUP1 PUSH2 0x5E7 JUMP JUMPDEST DUP3 DUP3 ADD MLOAD DUP12 SSTORE PUSH1 0x1 SWAP1 SWAP11 ADD SWAP10 DUP14 SWAP10 POP SWAP2 DUP15 ADD SWAP2 DUP15 ADD PUSH2 0x59C JUMP JUMPDEST PUSH1 0x4 DUP6 ADD PUSH0 MSTORE PUSH1 0x20 PUSH0 KECCAK256 PUSH1 0x1F DUP5 ADD PUSH1 0x5 SHR DUP2 ADD PUSH1 0x20 DUP6 LT PUSH2 0x666 JUMPI JUMPDEST PUSH1 0x1F DUP4 ADD PUSH1 0x5 SHR DUP3 ADD DUP2 LT PUSH2 0x65B JUMPI POP POP PUSH2 0x444 JUMP JUMPDEST PUSH0 DUP2 SSTORE PUSH1 0x1 ADD PUSH2 0x645 JUMP JUMPDEST POP DUP1 PUSH2 0x645 JUMP JUMPDEST PUSH4 0x4E487B71 PUSH1 0xE0 SHL PUSH0 MSTORE PUSH1 0x41 PUSH1 0x4 MSTORE PUSH1 0x24 PUSH0 REVERT JUMPDEST PUSH4 0x4E487B71 PUSH1 0xE0 SHL PUSH0 MSTORE PUSH0 PUSH1 0x4 MSTORE PUSH1 0x24 PUSH0 REVERT JUMPDEST PUSH4 0x4E487B71 PUSH1 0xE0 SHL PUSH0 MSTORE PUSH1 0x11 PUSH1 0x4 MSTORE PUSH1 0x24 PUSH0 REVERT JUMPDEST PUSH1 0x84 SWAP1 PUSH32 0x417564697452656769737472793A20756E617574686F72697365642061756469 PUSH1 0x40 MLOAD SWAP2 PUSH3 0x461BCD PUSH1 0xE5 SHL DUP4 MSTORE PUSH1 0x20 PUSH1 0x4 DUP5 ADD MSTORE PUSH1 0x23 PUSH1 0x24 DUP5 ADD MSTORE DUP3 ADD MSTORE PUSH3 0x3A37B9 PUSH1 0xE9 SHL PUSH1 0x64 DUP3 ADD MSTORE REVERT JUMPDEST PUSH1 0x40 MLOAD PUSH3 0x461BCD PUSH1 0xE5 SHL DUP2 MSTORE PUSH1 0x20 PUSH1 0x4 DUP3 ADD MSTORE PUSH1 0x21 PUSH1 0x24 DUP3 ADD MSTORE PUSH32 0x417564697452656769737472793A2073636F7265206F7574206F662072616E67 DUP2 DUP9 ADD MSTORE PUSH1 0x65 PUSH1 0xF8 SHL PUSH1 0x64 DUP3 ADD MSTORE PUSH1 0x84 SWAP1 REVERT JUMPDEST PUSH1 0x40 MLOAD PUSH3 0x461BCD PUSH1 0xE5 SHL DUP2 MSTORE PUSH1 0x20 PUSH1 0x4 DUP3 ADD MSTORE PUSH1 0x1E PUSH1 0x24 DUP3 ADD MSTORE PUSH32 0x417564697452656769737472793A20656D707479207265706F72744349440000 DUP2 DUP9 ADD MSTORE PUSH1 0x64 SWAP1 REVERT JUMPDEST PUSH1 0x40 MLOAD PUSH3 0x461BCD PUSH1 0xE5 SHL DUP2 MSTORE PUSH1 0x20 PUSH1 0x4 DUP3 ADD MSTORE PUSH1 0x1F PUSH1 0x24 DUP3 ADD MSTORE PUSH32 0x417564697452656769737472793A20656D707479207265706F72744861736800 DUP2 DUP9 ADD MSTORE PUSH1 0x64 SWAP1 REVERT JUMPDEST PUSH1 0x40 MLOAD PUSH3 0x461BCD PUSH1 0xE5 SHL DUP2 MSTORE PUSH1 0x20 PUSH1 0x4 DUP3 ADD DUP2 SWAP1 MSTORE PUSH1 0x24 DUP3 ADD MSTORE PUSH32 0x417564697452656769737472793A207A65726F20636F6E747261637441646472 DUP2 DUP9 ADD MSTORE PUSH1 0x64 SWAP1 REVERT JUMPDEST PUSH1 0x40 MLOAD PUSH4 0x3EE5AEB5 PUSH1 0xE0 SHL DUP2 MSTORE PUSH1 0x4 SWAP1 REVERT JUMPDEST CALLVALUE PUSH2 0x11A JUMPI PUSH1 0x40 CALLDATASIZE PUSH1 0x3 NOT ADD SLT PUSH2 0x11A JUMPI PUSH1 0x20 PUSH2 0x84B PUSH2 0x842 PUSH2 0xB07 JUMP JUMPDEST PUSH1 0x24 CALLDATALOAD SWAP1 PUSH2 0xDA1 JUMP JUMPDEST PUSH1 0x40 MLOAD SWAP1 ISZERO ISZERO DUP2 MSTORE RETURN JUMPDEST CALLVALUE PUSH2 0x11A JUMPI PUSH0 CALLDATASIZE PUSH1 0x3 NOT ADD SLT PUSH2 0x11A JUMPI PUSH0 SLOAD PUSH1 0x40 MLOAD PUSH1 0x1 PUSH1 0x1 PUSH1 0xA0 SHL SUB SWAP1 SWAP2 AND DUP2 MSTORE PUSH1 0x20 SWAP1 RETURN JUMPDEST CALLVALUE PUSH2 0x11A JUMPI PUSH1 0x20 CALLDATASIZE PUSH1 0x3 NOT ADD SLT PUSH2 0x11A JUMPI PUSH1 0x1 PUSH1 0x1 PUSH1 0xA0 SHL SUB PUSH2 0x89D PUSH2 0xB07 JUMP JUMPDEST AND PUSH0 MSTORE PUSH1 0x4 PUSH1 0x20 MSTORE PUSH1 0x20 PUSH1 0xFF PUSH1 0x40 PUSH0 KECCAK256 SLOAD AND PUSH1 0x40 MLOAD SWAP1 ISZERO ISZERO DUP2 MSTORE RETURN JUMPDEST CALLVALUE PUSH2 0x11A JUMPI PUSH0 CALLDATASIZE PUSH1 0x3 NOT ADD SLT PUSH2 0x11A JUMPI PUSH2 0x8D1 PUSH2 0xE3A JUMP JUMPDEST PUSH0 DUP1 SLOAD PUSH1 0x1 PUSH1 0x1 PUSH1 0xA0 SHL SUB NOT DUP2 AND DUP3 SSTORE PUSH1 0x1 PUSH1 0x1 PUSH1 0xA0 SHL SUB AND PUSH32 0x8BE0079C531659141344CD1FD0A4F28419497F9722A3DAAFE3B4186F6B6457E0 DUP3 DUP1 LOG3 STOP JUMPDEST CALLVALUE PUSH2 0x11A JUMPI PUSH1 0x20 DUP1 PUSH1 0x3 NOT CALLDATASIZE ADD SLT PUSH2 0x11A JUMPI PUSH2 0x92A PUSH2 0xB07 JUMP JUMPDEST PUSH0 PUSH2 0x100 PUSH1 0x40 MLOAD PUSH2 0x93A DUP2 PUSH2 0xBF3 JUMP JUMPDEST DUP3 DUP2 MSTORE DUP3 DUP6 DUP3 ADD MSTORE DUP3 PUSH1 0x40 DUP3 ADD MSTORE DUP3 PUSH1 0x60 DUP3 ADD MSTORE PUSH1 0x60 PUSH1 0x80 DUP3 ADD MSTORE DUP3 PUSH1 0xA0 DUP3 ADD MSTORE DUP3 PUSH1 0xC0 DUP3 ADD MSTORE DUP3 PUSH1 0xE0 DUP3 ADD MSTORE ADD MSTORE PUSH1 0x1 DUP1 PUSH1 0xA0 SHL SUB AND PUSH0 MSTORE PUSH1 0x2 DUP2 MSTORE PUSH1 0x40 PUSH0 KECCAK256 DUP1 SLOAD SWAP1 DUP2 ISZERO PUSH2 0x9BB JUMPI PUSH0 NOT DUP3 ADD SWAP2 DUP3 GT PUSH2 0x694 JUMPI PUSH2 0x9A2 SWAP2 PUSH2 0x99C SWAP2 PUSH2 0xD74 JUMP JUMPDEST POP PUSH2 0xC6A JUMP JUMPDEST SWAP1 PUSH2 0x9B7 PUSH1 0x40 MLOAD SWAP3 DUP3 DUP5 SWAP4 DUP5 MSTORE DUP4 ADD SWAP1 PUSH2 0xB1D JUMP JUMPDEST SUB SWAP1 RETURN JUMPDEST PUSH1 0x40 MLOAD PUSH3 0x461BCD PUSH1 0xE5 SHL DUP2 MSTORE PUSH1 0x4 DUP2 ADD DUP5 SWAP1 MSTORE PUSH1 0x1D PUSH1 0x24 DUP3 ADD MSTORE PUSH32 0x417564697452656769737472793A206E6F20617564697420666F756E64000000 PUSH1 0x44 DUP3 ADD MSTORE PUSH1 0x64 SWAP1 REVERT JUMPDEST CALLVALUE PUSH2 0x11A JUMPI PUSH1 0x20 DUP1 PUSH1 0x3 NOT CALLDATASIZE ADD SLT PUSH2 0x11A JUMPI PUSH1 0x1 PUSH1 0x1 PUSH1 0xA0 SHL SUB PUSH2 0xA22 PUSH2 0xB07 JUMP JUMPDEST AND PUSH0 MSTORE PUSH1 0x2 DUP2 MSTORE PUSH1 0x40 PUSH0 KECCAK256 DUP1 SLOAD SWAP1 PUSH8 0xFFFFFFFFFFFFFFFF DUP3 GT PUSH2 0x66D JUMPI DUP3 SWAP1 PUSH1 0x40 MLOAD SWAP3 PUSH2 0xA54 DUP4 DUP3 PUSH1 0x5 SHL ADD DUP6 PUSH2 0xC10 JUMP JUMPDEST DUP1 DUP5 MSTORE DUP3 DUP5 ADD DUP1 SWAP3 PUSH0 MSTORE DUP4 PUSH0 KECCAK256 PUSH0 SWAP2 JUMPDEST DUP4 DUP4 LT PUSH2 0xACA JUMPI POP POP POP POP PUSH1 0x40 MLOAD SWAP2 DUP1 DUP4 ADD SWAP4 DUP2 DUP5 MSTORE MLOAD DUP1 SWAP5 MSTORE PUSH1 0x40 DUP4 ADD SWAP4 PUSH1 0x40 DUP2 PUSH1 0x5 SHL DUP6 ADD ADD SWAP3 SWAP2 PUSH0 SWAP6 JUMPDEST DUP3 DUP8 LT PUSH2 0xA9E JUMPI DUP6 DUP6 SUB DUP7 RETURN JUMPDEST SWAP1 SWAP2 SWAP3 SWAP4 DUP3 DUP1 PUSH2 0xABA PUSH1 0x1 SWAP4 PUSH1 0x3F NOT DUP11 DUP3 SUB ADD DUP7 MSTORE DUP9 MLOAD PUSH2 0xB1D JUMP JUMPDEST SWAP7 ADD SWAP3 ADD SWAP7 ADD SWAP6 SWAP3 SWAP2 SWAP1 SWAP3 PUSH2 0xA91 JUMP JUMPDEST PUSH1 0x9 DUP7 PUSH1 0x1 SWAP3 PUSH2 0xADC DUP6 SWAP11 SWAP10 SWAP11 PUSH2 0xC6A JUMP JUMPDEST DUP2 MSTORE ADD SWAP3 ADD SWAP3 ADD SWAP2 SWAP1 SWAP6 SWAP5 SWAP6 PUSH2 0xA64 JUMP JUMPDEST CALLVALUE PUSH2 0x11A JUMPI PUSH0 CALLDATASIZE PUSH1 0x3 NOT ADD SLT PUSH2 0x11A JUMPI PUSH1 0x20 SWAP1 PUSH1 0x1 SLOAD DUP2 MSTORE RETURN JUMPDEST PUSH1 0x4 CALLDATALOAD SWAP1 PUSH1 0x1 PUSH1 0x1 PUSH1 0xA0 SHL SUB DUP3 AND DUP3 SUB PUSH2 0x11A JUMPI JUMP JUMPDEST SWAP1 PUSH2 0x120 DUP3 MLOAD DUP3 MSTORE PUSH1 0x20 SWAP3 PUSH1 0x20 DUP2 ADD MLOAD SWAP4 PUSH1 0x1 DUP1 PUSH1 0xA0 SHL SUB DUP1 SWAP6 AND PUSH1 0x20 DUP6 ADD MSTORE PUSH1 0x40 DUP3 ADD MLOAD PUSH1 0x40 DUP6 ADD MSTORE PUSH1 0x60 DUP3 ADD MLOAD PUSH1 0x60 DUP6 ADD MSTORE PUSH1 0x80 DUP3 ADD MLOAD DUP4 PUSH1 0x80 DUP7 ADD MSTORE DUP1 MLOAD DUP1 SWAP5 DUP7 ADD MSTORE PUSH0 JUMPDEST DUP5 DUP2 LT PUSH2 0xBB0 JUMPI POP POP POP PUSH2 0x140 SWAP4 PUSH0 DUP6 DUP5 DUP7 ADD ADD MSTORE PUSH1 0xA0 DUP3 ADD MLOAD AND PUSH1 0xA0 DUP5 ADD MSTORE PUSH1 0xC0 DUP2 ADD MLOAD PUSH1 0xC0 DUP5 ADD MSTORE PUSH1 0xE0 DUP2 ADD MLOAD PUSH1 0xE0 DUP5 ADD MSTORE PUSH2 0x100 DUP1 SWAP2 ADD MLOAD SWAP1 DUP4 ADD MSTORE PUSH1 0x1F DUP1 NOT SWAP2 ADD AND ADD ADD SWAP1 JUMP JUMPDEST DUP2 DUP2 ADD DUP4 ADD MLOAD DUP7 DUP3 ADD PUSH2 0x140 ADD MSTORE DUP3 ADD PUSH2 0xB65 JUMP JUMPDEST SWAP2 DUP2 PUSH1 0x1F DUP5 ADD SLT ISZERO PUSH2 0x11A JUMPI DUP3 CALLDATALOAD SWAP2 PUSH8 0xFFFFFFFFFFFFFFFF DUP4 GT PUSH2 0x11A JUMPI PUSH1 0x20 DUP4 DUP2 DUP7 ADD SWAP6 ADD ADD GT PUSH2 0x11A JUMPI JUMP JUMPDEST PUSH2 0x120 DUP2 ADD SWAP1 DUP2 LT PUSH8 0xFFFFFFFFFFFFFFFF DUP3 GT OR PUSH2 0x66D JUMPI PUSH1 0x40 MSTORE JUMP JUMPDEST SWAP1 PUSH1 0x1F DUP1 NOT SWAP2 ADD AND DUP2 ADD SWAP1 DUP2 LT PUSH8 0xFFFFFFFFFFFFFFFF DUP3 GT OR PUSH2 0x66D JUMPI PUSH1 0x40 MSTORE JUMP JUMPDEST SWAP1 PUSH1 0x1 DUP3 DUP2 SHR SWAP3 AND DUP1 ISZERO PUSH2 0xC60 JUMPI JUMPDEST PUSH1 0x20 DUP4 LT EQ PUSH2 0xC4C JUMPI JUMP JUMPDEST PUSH4 0x4E487B71 PUSH1 0xE0 SHL PUSH0 MSTORE PUSH1 0x22 PUSH1 0x4 MSTORE PUSH1 0x24 PUSH0 REVERT JUMPDEST SWAP2 PUSH1 0x7F AND SWAP2 PUSH2 0xC41 JUMP JUMPDEST SWAP1 PUSH1 0x40 MLOAD PUSH2 0xC77 DUP2 PUSH2 0xBF3 JUMP JUMPDEST DUP1 SWAP3 DUP1 SLOAD DUP3 MSTORE PUSH1 0x1 DUP1 PUSH1 0xA0 SHL SUB PUSH1 0x1 DUP2 PUSH1 0x1 DUP5 ADD SLOAD AND SWAP1 PUSH1 0x20 SWAP2 DUP3 DUP7 ADD MSTORE PUSH1 0x2 DUP5 ADD SLOAD PUSH1 0x40 DUP7 ADD MSTORE PUSH1 0x3 DUP5 ADD SLOAD PUSH1 0x60 DUP7 ADD MSTORE PUSH1 0x4 DUP5 ADD SWAP2 PUSH1 0x40 MLOAD SWAP3 PUSH0 SWAP3 DUP2 SLOAD SWAP2 PUSH2 0xCC0 DUP4 PUSH2 0xC32 JUMP JUMPDEST DUP1 DUP8 MSTORE SWAP3 PUSH1 0x1 DUP2 AND SWAP1 DUP2 ISZERO PUSH2 0xD53 JUMPI POP PUSH1 0x1 EQ PUSH2 0xD1B JUMPI JUMPDEST POP POP POP POP SWAP2 DUP2 PUSH2 0xCF0 PUSH2 0x100 SWAP6 SWAP4 PUSH1 0x8 SWAP6 SUB DUP3 PUSH2 0xC10 JUMP JUMPDEST PUSH1 0x80 DUP7 ADD MSTORE PUSH1 0x5 DUP3 ADD SLOAD AND PUSH1 0xA0 DUP6 ADD MSTORE PUSH1 0x6 DUP2 ADD SLOAD PUSH1 0xC0 DUP6 ADD MSTORE PUSH1 0x7 DUP2 ADD SLOAD PUSH1 0xE0 DUP6 ADD MSTORE ADD SLOAD SWAP2 ADD MSTORE JUMP JUMPDEST PUSH0 SWAP1 DUP2 MSTORE DUP4 DUP2 KECCAK256 SWAP4 SWAP5 POP SWAP3 JUMPDEST DUP3 DUP5 LT PUSH2 0xD40 JUMPI POP POP POP DUP3 ADD ADD DUP2 PUSH2 0xCF0 DUP2 PUSH1 0x8 PUSH2 0xCD8 JUMP JUMPDEST DUP1 SLOAD DUP7 DUP6 ADD DUP7 ADD MSTORE SWAP3 DUP5 ADD SWAP3 DUP2 ADD PUSH2 0xD27 JUMP JUMPDEST PUSH1 0xFF NOT AND DUP6 DUP9 ADD MSTORE POP POP POP ISZERO ISZERO PUSH1 0x5 SHL DUP4 ADD ADD SWAP1 POP DUP2 PUSH2 0xCF0 DUP2 PUSH1 0x8 PUSH2 0xCD8 JUMP JUMPDEST DUP1 SLOAD DUP3 LT ISZERO PUSH2 0xD8D JUMPI PUSH0 MSTORE PUSH1 0x9 PUSH1 0x20 PUSH0 KECCAK256 SWAP2 MUL ADD SWAP1 PUSH0 SWAP1 JUMP JUMPDEST PUSH4 0x4E487B71 PUSH1 0xE0 SHL PUSH0 MSTORE PUSH1 0x32 PUSH1 0x4 MSTORE PUSH1 0x24 PUSH0 REVERT JUMPDEST PUSH1 0x1 PUSH1 0x1 PUSH1 0xA0 SHL SUB AND PUSH0 SWAP1 DUP2 MSTORE PUSH1 0x2 PUSH1 0x20 DUP2 SWAP1 MSTORE PUSH1 0x40 DUP3 KECCAK256 DUP1 SLOAD SWAP4 SWAP3 JUMPDEST DUP5 DUP2 LT PUSH2 0xDCE JUMPI POP POP POP POP POP PUSH0 SWAP1 JUMP JUMPDEST DUP4 DUP4 PUSH2 0xDDA DUP4 DUP6 PUSH2 0xD74 JUMP JUMPDEST POP ADD SLOAD EQ PUSH2 0xDEA JUMPI PUSH1 0x1 ADD PUSH2 0xDBE JUMP JUMPDEST POP POP POP POP POP PUSH1 0x1 SWAP1 JUMP JUMPDEST SWAP3 SWAP2 SWAP3 PUSH8 0xFFFFFFFFFFFFFFFF DUP3 GT PUSH2 0x66D JUMPI PUSH1 0x40 MLOAD SWAP2 PUSH2 0xE1E PUSH1 0x1F DUP3 ADD PUSH1 0x1F NOT AND PUSH1 0x20 ADD DUP5 PUSH2 0xC10 JUMP JUMPDEST DUP3 SWAP5 DUP2 DUP5 MSTORE DUP2 DUP4 ADD GT PUSH2 0x11A JUMPI DUP3 DUP2 PUSH1 0x20 SWAP4 DUP5 PUSH0 SWAP7 ADD CALLDATACOPY ADD ADD MSTORE JUMP JUMPDEST PUSH0 SLOAD PUSH1 0x1 PUSH1 0x1 PUSH1 0xA0 SHL SUB AND CALLER SUB PUSH2 0xE4D JUMPI JUMP JUMPDEST PUSH1 0x40 MLOAD PUSH4 0x118CDAA7 PUSH1 0xE0 SHL DUP2 MSTORE CALLER PUSH1 0x4 DUP3 ADD MSTORE PUSH1 0x24 SWAP1 REVERT JUMPDEST DUP2 MLOAD SWAP2 SWAP1 PUSH1 0x41 DUP4 SUB PUSH2 0xE95 JUMPI PUSH2 0xE8E SWAP3 POP PUSH1 0x20 DUP3 ADD MLOAD SWAP1 PUSH1 0x60 PUSH1 0x40 DUP5 ADD MLOAD SWAP4 ADD MLOAD PUSH0 BYTE SWAP1 PUSH2 0xF22 JUMP JUMPDEST SWAP2 SWAP3 SWAP1 SWAP2 SWAP1 JUMP JUMPDEST POP POP PUSH0 SWAP2 PUSH1 0x2 SWAP2 SWAP1 JUMP JUMPDEST PUSH1 0x4 DUP2 LT ISZERO PUSH2 0xF0E JUMPI DUP1 PUSH2 0xEB1 JUMPI POP POP JUMP JUMPDEST PUSH1 0x1 DUP2 SUB PUSH2 0xECB JUMPI PUSH1 0x40 MLOAD PUSH4 0xF645EEDF PUSH1 0xE0 SHL DUP2 MSTORE PUSH1 0x4 SWAP1 REVERT JUMPDEST PUSH1 0x2 DUP2 SUB PUSH2 0xEEC JUMPI PUSH1 0x40 MLOAD PUSH4 0xFCE698F7 PUSH1 0xE0 SHL DUP2 MSTORE PUSH1 0x4 DUP2 ADD DUP4 SWAP1 MSTORE PUSH1 0x24 SWAP1 REVERT JUMPDEST PUSH1 0x3 EQ PUSH2 0xEF6 JUMPI POP JUMP JUMPDEST PUSH1 0x24 SWAP1 PUSH1 0x40 MLOAD SWAP1 PUSH4 0x35E2F383 PUSH1 0xE2 SHL DUP3 MSTORE PUSH1 0x4 DUP3 ADD MSTORE REVERT JUMPDEST PUSH4 0x4E487B71 PUSH1 0xE0 SHL PUSH0 MSTORE PUSH1 0x21 PUSH1 0x4 MSTORE PUSH1 0x24 PUSH0 REVERT JUMPDEST SWAP2 SWAP1 PUSH32 0x7FFFFFFFFFFFFFFFFFFFFFFFFFFFFFFF5D576E7357A4501DDFE92F46681B20A0 DUP5 GT PUSH2 0xFA4 JUMPI SWAP2 PUSH1 0x20 SWAP4 PUSH1 0x80 SWAP3 PUSH1 0xFF PUSH0 SWAP6 PUSH1 0x40 MLOAD SWAP5 DUP6 MSTORE AND DUP7 DUP5 ADD MSTORE PUSH1 0x40 DUP4 ADD MSTORE PUSH1 0x60 DUP3 ADD MSTORE DUP3 DUP1 MSTORE PUSH1 0x1 GAS STATICCALL ISZERO PUSH2 0xF99 JUMPI PUSH0 MLOAD PUSH1 0x1 PUSH1 0x1 PUSH1 0xA0 SHL SUB DUP2 AND ISZERO PUSH2 0xF8F JUMPI SWAP1 PUSH0 SWAP1 PUSH0 SWAP1 JUMP JUMPDEST POP PUSH0 SWAP1 PUSH1 0x1 SWAP1 PUSH0 SWAP1 JUMP JUMPDEST PUSH1 0x40 MLOAD RETURNDATASIZE PUSH0 DUP3 RETURNDATACOPY RETURNDATASIZE SWAP1 REVERT JUMPDEST POP POP POP PUSH0 SWAP2 PUSH1 0x3 SWAP2 SWAP1 JUMP INVALID LOG2 PUSH5 0x6970667358 0x22 SLT KECCAK256 SWAP11 COINBASE 0xBB 0x2C TSTORE 0xF SWAP15 0xAF EQ DUP1 0xF9 0xBD DUP14 PUSH10 0xD1E3DFDAE07B1C55B52C 0xE8 0xE0 DUP3 SHL 0xFC OR PUSH7 0xE64736F6C6343 STOP ADDMOD XOR STOP CALLER "},"methodIdentifiers":{"addAuditor(address)":"e429cef1","authorisedAuditors(address)":"87a425fb","getAudit(address)":"6670c4bf","getAuditHistory(address)":"6199845d","owner()":"8da5cb5b","removeAuditor(address)":"e6116cfd","renounceOwnership()":"715018a6","submitAudit(address,bytes32,bytes32,string,bytes,uint256)":"d68c2258","totalAudits()":"4a07147f","transferOwnership(address)":"f2fde38b","verifyReport(address,bytes32)":"aafb23e8"}}}}}