{"@chainlink/contracts/src/v0.8/functions/v1_0_0/libraries/FunctionsRequest.sol":{"FunctionsRequest":{"abi":[{"inputs":[],"name":"EmptyArgs","type":"error"},{"inputs":[],"name":"EmptySecrets","type":"error"},{"inputs":[],"name":"EmptySource","type":"error"},{"inputs":[],"name":"NoInlineSecrets","type":"error"},{"inputs":[],"name":"REQUEST_DATA_VERSION","outputs":[{"internalType":"uint16","name":"","type":"uint16"}],"stateMutability":"view","type":"function"}],"evm":{"bytecode":{"linkReferences":{},"object":"6080806040523460175760709081601c823930815050f35b5f80fdfe60808060405260043610156011575f80fd5b5f3560e01c635d641dfc146023575f80fd5b5f36600319011260365780600160209252f35b5f80fdfea26469706673582212204065d418ef604897f0aa71e21cf13ab9dbb47f8d9a40157e04a0566a1da8f6b364736f6c634300081c0033","opcodes":"PUSH1 0x80 DUP1 PUSH1 0x40 MSTORE CALLVALUE PUSH1 0x17 JUMPI PUSH1 0x70 SWAP1 DUP2 PUSH1 0x1C DUP3 CODECOPY ADDRESS DUP2 POP POP RETURN JUMPDEST PUSH0 DUP1 REVERT INVALID PUSH1 0x80 DUP1 PUSH1 0x40 MSTORE PUSH1 0x4 CALLDATASIZE LT ISZERO PUSH1 0x11 JUMPI PUSH0 DUP1 REVERT JUMPDEST PUSH0 CALLDATALOAD PUSH1 0xE0 SHR PUSH4 0x5D641DFC EQ PUSH1 0x23 JUMPI PUSH0 DUP1 REVERT JUMPDEST PUSH0 CALLDATASIZE PUSH1 0x3 NOT ADD SLT PUSH1 0x36 JUMPI DUP1 PUSH1 0x1 PUSH1 0x20 SWAP3 MSTORE RETURN JUMPDEST PUSH0 DUP1 REVERT INVALID LOG2 PUSH5 0x6970667358 0x22 SLT KECCAK256 BLOCKHASH PUSH6 0xD418EF604897 CREATE 0xAA PUSH18 0xE21CF13AB9DBB47F8D9A40157E04A0566A1D 0xA8 0xF6 0xB3 PUSH5 0x736F6C6343 STOP ADDMOD SHR STOP CALLER "},"methodIdentifiers":{"REQUEST_DATA_VERSION()":"5d641dfc"}}}}}