{"contracts/evm/src/FunctionsConsumer.sol":{"FunctionsConsumer":{"abi":[{"inputs":[{"internalType":"address","name":"router","type":"address"},{"internalType":"bytes32","name":"_donId","type":"bytes32"},{"internalType":"uint64","name":"_subscriptionId","type":"uint64"}],"stateMutability":"nonpayable","type":"constructor"},{"inputs":[],"name":"EmptyArgs","type":"error"},{"inputs":[],"name":"EmptySource","type":"error"},{"inputs":[],"name":"NoInlineSecrets","type":"error"},{"inputs":[],"name":"OnlyRouterCanFulfill","type":"error"},{"anonymous":false,"inputs":[{"indexed":true,"internalType":"bytes32","name":"requestId","type":"bytes32"},{"indexed":false,"internalType":"string","name":"specJson","type":"string"},{"indexed":false,"internalType":"bytes","name":"err","type":"bytes"}],"name":"IntentParsed","type":"event"},{"anonymous":false,"inputs":[{"indexed":true,"internalType":"address","name":"from","type":"address"},{"indexed":true,"internalType":"address","name":"to","type":"address"}],"name":"OwnershipTransferRequested","type":"event"},{"anonymous":false,"inputs":[{"indexed":true,"internalType":"address","name":"from","type":"address"},{"indexed":true,"internalType":"address","name":"to","type":"address"}],"name":"OwnershipTransferred","type":"event"},{"anonymous":false,"inputs":[{"indexed":true,"internalType":"bytes32","name":"id","type":"bytes32"}],"name":"RequestFulfilled","type":"event"},{"anonymous":false,"inputs":[{"indexed":true,"internalType":"bytes32","name":"id","type":"bytes32"}],"name":"RequestSent","type":"event"},{"anonymous":false,"inputs":[{"indexed":true,"internalType":"bytes32","name":"requestId","type":"bytes32"},{"indexed":true,"internalType":"address","name":"requester","type":"address"}],"name":"RequestSent","type":"event"},{"inputs":[],"name":"acceptOwnership","outputs":[],"stateMutability":"nonpayable","type":"function"},{"inputs":[],"name":"donId","outputs":[{"internalType":"bytes32","name":"","type":"bytes32"}],"stateMutability":"view","type":"function"},{"inputs":[{"internalType":"bytes32","name":"","type":"bytes32"}],"name":"errors","outputs":[{"internalType":"bytes","name":"","type":"bytes"}],"stateMutability":"view","type":"function"},{"inputs":[],"name":"gasLimit","outputs":[{"internalType":"uint32","name":"","type":"uint32"}],"stateMutability":"view","type":"function"},{"inputs":[{"internalType":"bytes32","name":"requestId","type":"bytes32"}],"name":"getError","outputs":[{"internalType":"bytes","name":"","type":"bytes"}],"stateMutability":"view","type":"function"},{"inputs":[{"internalType":"bytes32","name":"requestId","type":"bytes32"}],"name":"getSpec","outputs":[{"internalType":"string","name":"","type":"string"}],"stateMutability":"view","type":"function"},{"inputs":[{"internalType":"bytes32","name":"requestId","type":"bytes32"},{"internalType":"bytes","name":"response","type":"bytes"},{"internalType":"bytes","name":"err","type":"bytes"}],"name":"handleOracleFulfillment","outputs":[],"stateMutability":"nonpayable","type":"function"},{"inputs":[],"name":"latestRequestId","outputs":[{"internalType":"bytes32","name":"","type":"bytes32"}],"stateMutability":"view","type":"function"},{"inputs":[],"name":"latestSpec","outputs":[{"internalType":"string","name":"","type":"string"}],"stateMutability":"view","type":"function"},{"inputs":[],"name":"owner","outputs":[{"internalType":"address","name":"","type":"address"}],"stateMutability":"view","type":"function"},{"inputs":[{"internalType":"bytes32","name":"","type":"bytes32"}],"name":"parsedSpecs","outputs":[{"internalType":"string","name":"","type":"string"}],"stateMutability":"view","type":"function"},{"inputs":[{"internalType":"bytes32","name":"","type":"bytes32"}],"name":"requesters","outputs":[{"internalType":"address","name":"","type":"address"}],"stateMutability":"view","type":"function"},{"inputs":[{"internalType":"string","name":"source","type":"string"},{"internalType":"string[]","name":"args","type":"string[]"},{"internalType":"bytes","name":"encryptedSecretsRef","type":"bytes"}],"name":"sendParseRequest","outputs":[{"internalType":"bytes32","name":"requestId","type":"bytes32"}],"stateMutability":"nonpayable","type":"function"},{"inputs":[],"name":"subscriptionId","outputs":[{"internalType":"uint64","name":"","type":"uint64"}],"stateMutability":"view","type":"function"},{"inputs":[{"internalType":"address","name":"to","type":"address"}],"name":"transferOwnership","outputs":[],"stateMutability":"nonpayable","type":"function"},{"inputs":[{"internalType":"bytes32","name":"_donId","type":"bytes32"}],"name":"updateDonId","outputs":[],"stateMutability":"nonpayable","type":"function"},{"inputs":[{"internalType":"uint32","name":"_gasLimit","type":"uint32"}],"name":"updateGasLimit","outputs":[],"stateMutability":"nonpayable","type":"function"},{"inputs":[{"internalType":"uint64","name":"_subscriptionId","type":"uint64"}],"name":"updateSubscription","outputs":[],"stateMutability":"nonpayable","type":"function"}],"evm":{"bytecode":{"linkReferences":{},"object":"60a03461011457601f611cf738819003918201601f19168301916001600160401b03831184841017610118578084926060946040528339810103126101145780516001600160a01b038116908190036101145760208201516040909201516001600160401b03811691908290036101145760805233156100cf575f80546001600160a01b03191633179055600380546002939093556001600160601b0319909216176a0493e00000000000000000179055604051611bca908161012d82396080518181816102bd01526113090152f35b60405162461bcd60e51b815260206004820152601860248201527f43616e6e6f7420736574206f776e657220746f207a65726f00000000000000006044820152606490fd5b5f80fd5b634e487b7160e01b5f52604160045260245ffdfe60806040526004361015610011575f80fd5b5f3560e01c806306c3e1321461012a57806309c1ba2e146101255780630ca76175146101205780631aa46f591461011b5780631f87a3b51461010c57806334303bcd1461011657806360341518146101115780636a634a981461010c5780636df0c7471461010757806379ba50971461010257806382bcf9e0146100fd5780638da5cb5b146100f85780638dbe7b9d146100f3578063945a6698146100e95780639eb04ecc146100ee578063be41cee3146100e9578063f2fde38b146100e45763f68016b7146100df575f80fd5b6108d5565b610816565b6107ba565b6107e4565b61079d565b610776565b6106c3565b6105d9565b6105b8565b61037c565b6104e2565b6103be565b61032a565b610269565b610170565b3461016c57602036600319011261016c576004356001600160401b03811680910361016c57610157610aa0565b6001600160401b031960035416176003555f80f35b5f80fd5b3461016c575f36600319011261016c5760206001600160401b0360035416604051908152f35b634e487b7160e01b5f52604160045260245ffd5b60e081019081106001600160401b038211176101c557604052565b610196565b604081019081106001600160401b038211176101c557604052565b90601f801991011681019081106001600160401b038211176101c557604052565b9291926001600160401b0382116101c5576040519161022f601f8201601f1916602001846101e5565b82948184528183011161016c578281602093845f960137010152565b9080601f8301121561016c5781602061026693359101610206565b90565b3461016c57606036600319011261016c576004356024356001600160401b03811161016c5761029c90369060040161024b565b6044356001600160401b03811161016c576102bb90369060040161024b565b7f00000000000000000000000000000000000000000000000000000000000000006001600160a01b0316330361031b576102f59183610d23565b7f85e1543bf2f84fe80c6badbce3648c8539ad1df4d2b3d822938ca0538be727e65f80a2005b63c6829f8360e01b5f5260045ffd5b3461016c575f36600319011261016c576020600754604051908152f35b805180835260209291819084018484015e5f828201840152601f01601f1916010190565b906020610266928181520190610347565b3461016c57602036600319011261016c576004355f5260056020526103ba6103a660405f20610442565b604051918291602083526020830190610347565b0390f35b3461016c57602036600319011261016c5760043563ffffffff8116810361016c576103e7610aa0565b63ffffffff60401b6003549160401b169063ffffffff60401b1916176003555f80f35b90600182811c92168015610438575b602083101461042457565b634e487b7160e01b5f52602260045260245ffd5b91607f1691610419565b9060405191825f8254926104558461040a565b80845293600181169081156104c0575060011461047c575b5061047a925003836101e5565b565b90505f9291925260205f20905f915b8183106104a457505090602061047a928201015f61046d565b602091935080600191548385890101520191019091849261048b565b90506020925061047a94915060ff191682840152151560051b8201015f61046d565b3461016c575f36600319011261016c576040515f6008546105028161040a565b80845290600181169081156105945750600114610536575b6103ba8361052a818503826101e5565b6040519182918261036b565b60085f9081527ff3f7a9fe364faab93b216da50a3214154f22a0a2b415b23a84c8169e8b636ee3939250905b80821061057a5750909150810160200161052a61051a565b919260018160209254838588010152019101909291610562565b60ff191660208086019190915291151560051b8401909101915061052a905061051a565b3461016c57602036600319011261016c576004356105d4610aa0565b600255005b3461016c575f36600319011261016c576001546001600160a01b03163303610658575f546001600160a01b03165f80546001600160a01b03191633179055600180546001600160a01b031916905533906001600160a01b03167f8be0079c531659141344cd1fd0a4f28419497f9722a3daafe3b4186f6b6457e05f80a3005b60405162461bcd60e51b815260206004820152601660248201527526bab9ba10313290383937b837b9b2b21037bbb732b960511b6044820152606490fd5b9181601f8401121561016c578235916001600160401b03831161016c576020838186019501011161016c57565b3461016c57606036600319011261016c576004356001600160401b03811161016c576106f3903690600401610696565b6024356001600160401b03811161016c573660238201121561016c578060040135906001600160401b03821161016c573660248360051b8301011161016c57604435916001600160401b03831161016c576103ba946107669461075c6024953690600401610696565b959094019161097f565b6040519081529081906020820190565b3461016c575f36600319011261016c575f546040516001600160a01b039091168152602090f35b3461016c575f36600319011261016c576020600254604051908152f35b3461016c57602036600319011261016c576004355f5260066020526103ba6103a660405f20610442565b3461016c57602036600319011261016c576004355f526004602052602060018060a01b0360405f205416604051908152f35b3461016c57602036600319011261016c576004356001600160a01b0381169081900361016c57610844610aa0565b33811461089057600180546001600160a01b031916821790555f80546001600160a01b0316907fed8889f560326eb138920d842192f0eb3dd22b4f139c87a2c57538e05bae12789080a3005b60405162461bcd60e51b815260206004820152601760248201527f43616e6e6f74207472616e7366657220746f2073656c660000000000000000006044820152606490fd5b3461016c575f36600319011261016c57602063ffffffff60035460401c16604051908152f35b929190926001600160401b0384116101c5578360051b916020604051610923828601826101e5565b80968152019282019181831161016c5780935b838510610944575050505050565b84356001600160401b03811161016c57820183601f8201121561016c576020916109748583858095359101610206565b815201940193610936565b6109e89450946109d66109d0610a0f979593956040519661099f886101aa565b5f88525f60208901525f604089015260608089015260606080890152606060a0890152606060c08901523691610206565b85610ed8565b610a92575b80610a76575b50506110cf565b600354610a056001600160401b0382169160401c63ffffffff1690565b90600254926112b2565b90610a4533610a26845f52600460205260405f2090565b80546001600160a01b0319166001600160a01b03909216919091179055565b610a4e82600755565b33827f91f0d67c2f27abd6cfc317e120d5e80b31e97b9926b65d3887e59402fb20adfb5f80a3565b610a8b91610a859136916108fb565b82610f7c565b5f806109e1565b610a9b83610efd565b6109db565b5f546001600160a01b03163303610ab357565b60405162461bcd60e51b815260206004820152601660248201527527b7363c9031b0b63630b1363290313c9037bbb732b960511b6044820152606490fd5b601f8211610afe57505050565b5f5260205f20906020601f840160051c83019310610b36575b601f0160051c01905b818110610b2b575050565b5f8155600101610b20565b9091508190610b17565b90606061026692604081525f60408201528160208201520190610347565b9081516001600160401b0381116101c557610b8581610b7e60085461040a565b6008610af1565b602092601f8211600114610bc557610bb5929382915f92610bba575b50508160011b915f199060031b1c19161790565b600855565b015190505f80610ba1565b60085f52601f198216937ff3f7a9fe364faab93b216da50a3214154f22a0a2b415b23a84c8169e8b636ee3915f5b868110610c295750836001959610610c11575b505050811b01600855565b01515f1960f88460031b161c191690555f8080610c06565b91926020600181928685015181550194019201610bf3565b91909182516001600160401b0381116101c557610c6881610c62845461040a565b84610af1565b6020601f8211600114610c9b578190610c979394955f92610bba5750508160011b915f199060031b1c19161790565b9055565b601f19821690610cae845f5260205f2090565b915f5b818110610ce857509583600195969710610cd0575b505050811b019055565b01515f1960f88460031b161c191690555f8080610cc6565b9192602060018192868b015181550194019201610cb1565b610d14602092604083526040830190610347565b90828183039101525f81520190565b918051610d855750610d8081610d6b7f9304b2897060cab5f22ce3990c7c2123a47c1c09fa4d82835da567f4f16ccf1e93610d66865f52600560205260405f2090565b610c41565b610d7481610b5e565b60405191829182610d00565b0390a2565b9050815f52600660205260405f2081516001600160401b0381116101c557610db181610c62845461040a565b6020601f8211600114610e1e5791610e04827f9304b2897060cab5f22ce3990c7c2123a47c1c09fa4d82835da567f4f16ccf1e9593610d80955f91610e13575b508160011b915f199060031b1c19161790565b90555b60405191829182610b40565b90508401515f610df1565b601f19821690610e31845f5260205f2090565b915f5b818110610e93575092610d809492600192827f9304b2897060cab5f22ce3990c7c2123a47c1c09fa4d82835da567f4f16ccf1e989610610e7b575b5050811b019055610e07565b8501515f1960f88460031b161c191690555f80610e6f565b9192602060018192868a015181550194019201610e34565b634e487b7160e01b5f52602160045260245ffd5b60031115610ec957565b610eab565b60011115610ec957565b815115610eee575f808252604082015260600152565b6322ce3edd60e01b5f5260045ffd5b6080610f076113b7565b610f646040610f348151610f1b83826101e5565b60068152651cdb1bdd125160d21b6020820152846113e7565b610f3e5f8461167c565b610f4a815191826101e5565b60078152663b32b939b4b7b760c91b6020820152826113e7565b610f6e5f8261167c565b600260208401525151910152565b815115610f895760a00152565b63fe936cb760e01b5f5260045ffd5b60405190610fa76040836101e5565b600c82526b31b7b232a637b1b0ba34b7b760a11b6020830152565b60405190610fd16040836101e5565b60088252676c616e677561676560c01b6020830152565b60405190610ff76040836101e5565b6006825265736f7572636560d01b6020830152565b6040519061101b6040836101e5565b60048252636172677360e01b6020830152565b80518210156110425760209160051b010190565b634e487b7160e01b5f52603260045260245ffd5b604051906110656040836101e5565b600f82526e39b2b1b932ba39a637b1b0ba34b7b760891b6020830152565b604051906110926040836101e5565b60078252667365637265747360c81b6020830152565b604051906110b76040836101e5565b600982526862797465734172677360b81b6020830152565b6110d76113b7565b906110e96110e3610f98565b836113e7565b61110681516110f781610ebf565b61110081610ebf565b836114d0565b6111116110e3610fc2565b61112b604082015161112281610ece565b61110081610ece565b6111366110e3610fe8565b6111446060820151836113e7565b60a08101805151611240575b5060808101908151516111c3575b60c0915001805151611171575b50515190565b9161117d6110e36110a8565b61118682611531565b5f5b835180518210156111b057906111aa6111a38260019461102e565b5185611592565b01611188565b505091506111bd81611570565b5f61116b565b6020810180516111d281610ebf565b6111db81610ebf565b156112315760c09261121461122c926111fb6111f5611056565b886113e7565b5161120581610ebf565b61120e81610ebf565b866114d0565b61122561121f611083565b866113e7565b5184611592565b61115e565b63a80d31f760e01b5f5260045ffd5b9261125261124c61100c565b846113e7565b61125b83611531565b5f5b84518051821015611285579061127f6112788260019461102e565b51866113e7565b0161125d565b5050925061129282611570565b5f611150565b9081602091031261016c575190565b6040513d5f823e3d90fd5b92906020926001600160401b039263ffffffff6112f1604051978896879663230e93b160e11b885216600487015260a0602487015260a4860190610347565b6001604486015292166064840152608483015203815f7f00000000000000000000000000000000000000000000000000000000000000006001600160a01b03165af1908115611399575f9161136a575b50807f1131472297a800fee664d1d89cfa8f7676ff07189ecc53f80bbb5f4969099db85f80a290565b61138c915060203d602011611392575b61138481836101e5565b810190611298565b5f611341565b503d61137a565b6112a7565b604051906113ab826101ca565b5f602083606081520152565b6040516113c3816101ca565b5f6113cc61139e565b8083526113e2610100602085019284845261162b565b505290565b81516114389291906001600160401b03166017811161143b5781516114239161141d9061141660605b60ff1690565b1760ff1690565b9061186e565b505b519061142f61139e565b50805191611ad8565b50565b60ff8111611468578151611462919061145a90601860605b179061186e565b508251611a58565b50611425565b61ffff811161148d57815161146291906114859060196060611453565b5082516119df565b63ffffffff81116114b457815161146291906114ac90601a6060611453565b508251611966565b815161146291906114c890601b6060611453565b5082516118e8565b9061047a916114df81516117fe565b50604051916020830152602082526114f86040836101e5565b611592565b634e487b7160e01b5f52601160045260245ffd5b906020820180921161151f57565b6114fd565b9190820180921161151f57565b602090611540609f825161186e565b50018051906001820180921161151f5752565b601f1981019190821161151f57565b5f1981019190821161151f57565b60209061157f60ff825161186e565b500180515f1981019190821161151f5752565b81516114389291906001600160401b0316601781116115bf5781516114239161141d906114166040611410565b60ff81116115db578151611462919061145a9060186040611453565b61ffff81116115f857815161146291906114859060196040611453565b63ffffffff811161161757815161146291906114ac90601a6040611453565b815161146291906114c890601b6040611453565b9061163461139e565b50601f811680611662575b50806020830152604051908183525f8252810160200190811061016c5760405290565b6020036020811161151f57810180911161151f575f61163f565b906001600160401b038116601781116116a3575090516114389161141d906114165f611410565b905060ff81116116c757815161143892906116c09060185f611453565b5051611a58565b61ffff81116116ea57815161143892906116e39060195f611453565b50516119df565b63ffffffff811161170f578151611438929061170890601a5f611453565b5051611966565b8151611438929061172290601b5f611453565b50516118e8565b9061173261139e565b50805161173d61139e565b5061174b8251821115611ad1565b825151916117598284611524565b90602085015182116117d1575b6020918551838151968201019582116117c9575b505001905b60208110156117a3575f19906020036101000a019081199051169082511617905290565b90916117be6117b86117c49285518152611511565b93611511565b91611553565b61177f565b525f8061177a565b6117e36117dd836117e8565b86611b7d565b611766565b908160011b918083046002149015171561151f57565b61180661139e565b50805151600181019081811161151f57602083015181101561183f575b60c26020845192830101538051821161183b57505090565b5290565b8160011b8281046002148315171561151f57611868906118618551918661162b565b5084611729565b50611823565b9061187761139e565b50815151600181019182821161151f5760208401518210156118aa575b6020845192830101538051821161183b57505090565b8260011b8381046002148415171561151f576118d3906118cc8651918761162b565b5085611729565b50611894565b601f811161151f576101000a90565b906118f161139e565b5081515180600801918260081161151f576020840151831161193e575b61192061191b60086118d9565b611562565b90600885519384010191198251161790528051821161183b57505090565b8260011b8381046002148415171561151f57611960906118cc8651918761162b565b5061190e565b9061196f61139e565b5081515180600401918260041161151f57602084015183116119b7575b61199961191b60046118d9565b90600485519384010191198251161790528051821161183b57505090565b8260011b8381046002148415171561151f576119d9906118cc8651918761162b565b5061198c565b906119e861139e565b5081515180600201918260021161151f5760208401518311611a30575b611a1261191b60026118d9565b90600285519384010191198251161790528051821161183b57505090565b8260011b8381046002148415171561151f57611a52906118cc8651918761162b565b50611a05565b90611a6161139e565b5081515180600101918260011161151f5760208401518311611aa9575b611a8b61191b60016118d9565b90600185519384010191198251161790528051821161183b57505090565b8260011b8381046002148415171561151f57611acb906118cc8651918761162b565b50611a7e565b1561016c57565b91611ae161139e565b50611aef8251821115611ad1565b602083515192611aff8385611524565b828601518111611b66575b855183815196820101958211611b5e575b505001905b6020811015611b44575f19906020036101000a019081199051169082511617905290565b90916117be6117b8611b599285518152611511565b611b20565b525f80611b1b565b611b78611b72826117e8565b87611b7d565b611b0a565b9061143891611b8e8151928261162b565b5061172956fea26469706673582212206c49c259ce441588b38c0475ba56e3881ee75dfda6caf8ffce1d9b9c2ae0752064736f6c634300081c0033","opcodes":"PUSH1 0xA0 CALLVALUE PUSH2 0x114 JUMPI PUSH1 0x1F PUSH2 0x1CF7 CODESIZE DUP2 SWAP1 SUB SWAP2 DUP3 ADD PUSH1 0x1F NOT AND DUP4 ADD SWAP2 PUSH1 0x1 PUSH1 0x1 PUSH1 0x40 SHL SUB DUP4 GT DUP5 DUP5 LT OR PUSH2 0x118 JUMPI DUP1 DUP5 SWAP3 PUSH1 0x60 SWAP5 PUSH1 0x40 MSTORE DUP4 CODECOPY DUP2 ADD SUB SLT PUSH2 0x114 JUMPI DUP1 MLOAD PUSH1 0x1 PUSH1 0x1 PUSH1 0xA0 SHL SUB DUP2 AND SWAP1 DUP2 SWAP1 SUB PUSH2 0x114 JUMPI PUSH1 0x20 DUP3 ADD MLOAD PUSH1 0x40 SWAP1 SWAP3 ADD MLOAD PUSH1 0x1 PUSH1 0x1 PUSH1 0x40 SHL SUB DUP2 AND SWAP2 SWAP1 DUP3 SWAP1 SUB PUSH2 0x114 JUMPI PUSH1 0x80 MSTORE CALLER ISZERO PUSH2 0xCF JUMPI PUSH0 DUP1 SLOAD PUSH1 0x1 PUSH1 0x1 PUSH1 0xA0 SHL SUB NOT AND CALLER OR SWAP1 SSTORE PUSH1 0x3 DUP1 SLOAD PUSH1 0x2 SWAP4 SWAP1 SWAP4 SSTORE PUSH1 0x1 PUSH1 0x1 PUSH1 0x60 SHL SUB NOT SWAP1 SWAP3 AND OR PUSH11 0x493E00000000000000000 OR SWAP1 SSTORE PUSH1 0x40 MLOAD PUSH2 0x1BCA SWAP1 DUP2 PUSH2 0x12D DUP3 CODECOPY PUSH1 0x80 MLOAD DUP2 DUP2 DUP2 PUSH2 0x2BD ADD MSTORE PUSH2 0x1309 ADD MSTORE RETURN JUMPDEST PUSH1 0x40 MLOAD PUSH3 0x461BCD PUSH1 0xE5 SHL DUP2 MSTORE PUSH1 0x20 PUSH1 0x4 DUP3 ADD MSTORE PUSH1 0x18 PUSH1 0x24 DUP3 ADD MSTORE PUSH32 0x43616E6E6F7420736574206F776E657220746F207A65726F0000000000000000 PUSH1 0x44 DUP3 ADD MSTORE PUSH1 0x64 SWAP1 REVERT JUMPDEST PUSH0 DUP1 REVERT JUMPDEST PUSH4 0x4E487B71 PUSH1 0xE0 SHL PUSH0 MSTORE PUSH1 0x41 PUSH1 0x4 MSTORE PUSH1 0x24 PUSH0 REVERT INVALID PUSH1 0x80 PUSH1 0x40 MSTORE PUSH1 0x4 CALLDATASIZE LT ISZERO PUSH2 0x11 JUMPI PUSH0 DUP1 REVERT JUMPDEST PUSH0 CALLDATALOAD PUSH1 0xE0 SHR DUP1 PUSH4 0x6C3E132 EQ PUSH2 0x12A JUMPI DUP1 PUSH4 0x9C1BA2E EQ PUSH2 0x125 JUMPI DUP1 PUSH4 0xCA76175 EQ PUSH2 0x120 JUMPI DUP1 PUSH4 0x1AA46F59 EQ PUSH2 0x11B JUMPI DUP1 PUSH4 0x1F87A3B5 EQ PUSH2 0x10C JUMPI DUP1 PUSH4 0x34303BCD EQ PUSH2 0x116 JUMPI DUP1 PUSH4 0x60341518 EQ PUSH2 0x111 JUMPI DUP1 PUSH4 0x6A634A98 EQ PUSH2 0x10C JUMPI DUP1 PUSH4 0x6DF0C747 EQ PUSH2 0x107 JUMPI DUP1 PUSH4 0x79BA5097 EQ PUSH2 0x102 JUMPI DUP1 PUSH4 0x82BCF9E0 EQ PUSH2 0xFD JUMPI DUP1 PUSH4 0x8DA5CB5B EQ PUSH2 0xF8 JUMPI DUP1 PUSH4 0x8DBE7B9D EQ PUSH2 0xF3 JUMPI DUP1 PUSH4 0x945A6698 EQ PUSH2 0xE9 JUMPI DUP1 PUSH4 0x9EB04ECC EQ PUSH2 0xEE JUMPI DUP1 PUSH4 0xBE41CEE3 EQ PUSH2 0xE9 JUMPI DUP1 PUSH4 0xF2FDE38B EQ PUSH2 0xE4 JUMPI PUSH4 0xF68016B7 EQ PUSH2 0xDF JUMPI PUSH0 DUP1 REVERT JUMPDEST PUSH2 0x8D5 JUMP JUMPDEST PUSH2 0x816 JUMP JUMPDEST PUSH2 0x7BA JUMP JUMPDEST PUSH2 0x7E4 JUMP JUMPDEST PUSH2 0x79D JUMP JUMPDEST PUSH2 0x776 JUMP JUMPDEST PUSH2 0x6C3 JUMP JUMPDEST PUSH2 0x5D9 JUMP JUMPDEST PUSH2 0x5B8 JUMP JUMPDEST PUSH2 0x37C JUMP JUMPDEST PUSH2 0x4E2 JUMP JUMPDEST PUSH2 0x3BE JUMP JUMPDEST PUSH2 0x32A JUMP JUMPDEST PUSH2 0x269 JUMP JUMPDEST PUSH2 0x170 JUMP JUMPDEST CALLVALUE PUSH2 0x16C JUMPI PUSH1 0x20 CALLDATASIZE PUSH1 0x3 NOT ADD SLT PUSH2 0x16C JUMPI PUSH1 0x4 CALLDATALOAD PUSH1 0x1 PUSH1 0x1 PUSH1 0x40 SHL SUB DUP2 AND DUP1 SWAP2 SUB PUSH2 0x16C JUMPI PUSH2 0x157 PUSH2 0xAA0 JUMP JUMPDEST PUSH1 0x1 PUSH1 0x1 PUSH1 0x40 SHL SUB NOT PUSH1 0x3 SLOAD AND OR PUSH1 0x3 SSTORE PUSH0 DUP1 RETURN JUMPDEST PUSH0 DUP1 REVERT JUMPDEST CALLVALUE PUSH2 0x16C JUMPI PUSH0 CALLDATASIZE PUSH1 0x3 NOT ADD SLT PUSH2 0x16C JUMPI PUSH1 0x20 PUSH1 0x1 PUSH1 0x1 PUSH1 0x40 SHL SUB PUSH1 0x3 SLOAD AND PUSH1 0x40 MLOAD SWAP1 DUP2 MSTORE RETURN JUMPDEST PUSH4 0x4E487B71 PUSH1 0xE0 SHL PUSH0 MSTORE PUSH1 0x41 PUSH1 0x4 MSTORE PUSH1 0x24 PUSH0 REVERT JUMPDEST PUSH1 0xE0 DUP2 ADD SWAP1 DUP2 LT PUSH1 0x1 PUSH1 0x1 PUSH1 0x40 SHL SUB DUP3 GT OR PUSH2 0x1C5 JUMPI PUSH1 0x40 MSTORE JUMP JUMPDEST PUSH2 0x196 JUMP JUMPDEST PUSH1 0x40 DUP2 ADD SWAP1 DUP2 LT PUSH1 0x1 PUSH1 0x1 PUSH1 0x40 SHL SUB DUP3 GT OR PUSH2 0x1C5 JUMPI PUSH1 0x40 MSTORE JUMP JUMPDEST SWAP1 PUSH1 0x1F DUP1 NOT SWAP2 ADD AND DUP2 ADD SWAP1 DUP2 LT PUSH1 0x1 PUSH1 0x1 PUSH1 0x40 SHL SUB DUP3 GT OR PUSH2 0x1C5 JUMPI PUSH1 0x40 MSTORE JUMP JUMPDEST SWAP3 SWAP2 SWAP3 PUSH1 0x1 PUSH1 0x1 PUSH1 0x40 SHL SUB DUP3 GT PUSH2 0x1C5 JUMPI PUSH1 0x40 MLOAD SWAP2 PUSH2 0x22F PUSH1 0x1F DUP3 ADD PUSH1 0x1F NOT AND PUSH1 0x20 ADD DUP5 PUSH2 0x1E5 JUMP JUMPDEST DUP3 SWAP5 DUP2 DUP5 MSTORE DUP2 DUP4 ADD GT PUSH2 0x16C JUMPI DUP3 DUP2 PUSH1 0x20 SWAP4 DUP5 PUSH0 SWAP7 ADD CALLDATACOPY ADD ADD MSTORE JUMP JUMPDEST SWAP1 DUP1 PUSH1 0x1F DUP4 ADD SLT ISZERO PUSH2 0x16C JUMPI DUP2 PUSH1 0x20 PUSH2 0x266 SWAP4 CALLDATALOAD SWAP2 ADD PUSH2 0x206 JUMP JUMPDEST SWAP1 JUMP JUMPDEST CALLVALUE PUSH2 0x16C JUMPI PUSH1 0x60 CALLDATASIZE PUSH1 0x3 NOT ADD SLT PUSH2 0x16C JUMPI PUSH1 0x4 CALLDATALOAD PUSH1 0x24 CALLDATALOAD PUSH1 0x1 PUSH1 0x1 PUSH1 0x40 SHL SUB DUP2 GT PUSH2 0x16C JUMPI PUSH2 0x29C SWAP1 CALLDATASIZE SWAP1 PUSH1 0x4 ADD PUSH2 0x24B JUMP JUMPDEST PUSH1 0x44 CALLDATALOAD PUSH1 0x1 PUSH1 0x1 PUSH1 0x40 SHL SUB DUP2 GT PUSH2 0x16C JUMPI PUSH2 0x2BB SWAP1 CALLDATASIZE SWAP1 PUSH1 0x4 ADD PUSH2 0x24B JUMP JUMPDEST PUSH32 0x0 PUSH1 0x1 PUSH1 0x1 PUSH1 0xA0 SHL SUB AND CALLER SUB PUSH2 0x31B JUMPI PUSH2 0x2F5 SWAP2 DUP4 PUSH2 0xD23 JUMP JUMPDEST PUSH32 0x85E1543BF2F84FE80C6BADBCE3648C8539AD1DF4D2B3D822938CA0538BE727E6 PUSH0 DUP1 LOG2 STOP JUMPDEST PUSH4 0xC6829F83 PUSH1 0xE0 SHL PUSH0 MSTORE PUSH1 0x4 PUSH0 REVERT JUMPDEST CALLVALUE PUSH2 0x16C JUMPI PUSH0 CALLDATASIZE PUSH1 0x3 NOT ADD SLT PUSH2 0x16C JUMPI PUSH1 0x20 PUSH1 0x7 SLOAD PUSH1 0x40 MLOAD SWAP1 DUP2 MSTORE RETURN JUMPDEST DUP1 MLOAD DUP1 DUP4 MSTORE PUSH1 0x20 SWAP3 SWAP2 DUP2 SWAP1 DUP5 ADD DUP5 DUP5 ADD MCOPY PUSH0 DUP3 DUP3 ADD DUP5 ADD MSTORE PUSH1 0x1F ADD PUSH1 0x1F NOT AND ADD ADD SWAP1 JUMP JUMPDEST SWAP1 PUSH1 0x20 PUSH2 0x266 SWAP3 DUP2 DUP2 MSTORE ADD SWAP1 PUSH2 0x347 JUMP JUMPDEST CALLVALUE PUSH2 0x16C JUMPI PUSH1 0x20 CALLDATASIZE PUSH1 0x3 NOT ADD SLT PUSH2 0x16C JUMPI PUSH1 0x4 CALLDATALOAD PUSH0 MSTORE PUSH1 0x5 PUSH1 0x20 MSTORE PUSH2 0x3BA PUSH2 0x3A6 PUSH1 0x40 PUSH0 KECCAK256 PUSH2 0x442 JUMP JUMPDEST PUSH1 0x40 MLOAD SWAP2 DUP3 SWAP2 PUSH1 0x20 DUP4 MSTORE PUSH1 0x20 DUP4 ADD SWAP1 PUSH2 0x347 JUMP JUMPDEST SUB SWAP1 RETURN JUMPDEST CALLVALUE PUSH2 0x16C JUMPI PUSH1 0x20 CALLDATASIZE PUSH1 0x3 NOT ADD SLT PUSH2 0x16C JUMPI PUSH1 0x4 CALLDATALOAD PUSH4 0xFFFFFFFF DUP2 AND DUP2 SUB PUSH2 0x16C JUMPI PUSH2 0x3E7 PUSH2 0xAA0 JUMP JUMPDEST PUSH4 0xFFFFFFFF PUSH1 0x40 SHL PUSH1 0x3 SLOAD SWAP2 PUSH1 0x40 SHL AND SWAP1 PUSH4 0xFFFFFFFF PUSH1 0x40 SHL NOT AND OR PUSH1 0x3 SSTORE PUSH0 DUP1 RETURN JUMPDEST SWAP1 PUSH1 0x1 DUP3 DUP2 SHR SWAP3 AND DUP1 ISZERO PUSH2 0x438 JUMPI JUMPDEST PUSH1 0x20 DUP4 LT EQ PUSH2 0x424 JUMPI JUMP JUMPDEST PUSH4 0x4E487B71 PUSH1 0xE0 SHL PUSH0 MSTORE PUSH1 0x22 PUSH1 0x4 MSTORE PUSH1 0x24 PUSH0 REVERT JUMPDEST SWAP2 PUSH1 0x7F AND SWAP2 PUSH2 0x419 JUMP JUMPDEST SWAP1 PUSH1 0x40 MLOAD SWAP2 DUP3 PUSH0 DUP3 SLOAD SWAP3 PUSH2 0x455 DUP5 PUSH2 0x40A JUMP JUMPDEST DUP1 DUP5 MSTORE SWAP4 PUSH1 0x1 DUP2 AND SWAP1 DUP2 ISZERO PUSH2 0x4C0 JUMPI POP PUSH1 0x1 EQ PUSH2 0x47C JUMPI JUMPDEST POP PUSH2 0x47A SWAP3 POP SUB DUP4 PUSH2 0x1E5 JUMP JUMPDEST JUMP JUMPDEST SWAP1 POP PUSH0 SWAP3 SWAP2 SWAP3 MSTORE PUSH1 0x20 PUSH0 KECCAK256 SWAP1 PUSH0 SWAP2 JUMPDEST DUP2 DUP4 LT PUSH2 0x4A4 JUMPI POP POP SWAP1 PUSH1 0x20 PUSH2 0x47A SWAP3 DUP3 ADD ADD PUSH0 PUSH2 0x46D JUMP JUMPDEST PUSH1 0x20 SWAP2 SWAP4 POP DUP1 PUSH1 0x1 SWAP2 SLOAD DUP4 DUP6 DUP10 ADD ADD MSTORE ADD SWAP2 ADD SWAP1 SWAP2 DUP5 SWAP3 PUSH2 0x48B JUMP JUMPDEST SWAP1 POP PUSH1 0x20 SWAP3 POP PUSH2 0x47A SWAP5 SWAP2 POP PUSH1 0xFF NOT AND DUP3 DUP5 ADD MSTORE ISZERO ISZERO PUSH1 0x5 SHL DUP3 ADD ADD PUSH0 PUSH2 0x46D JUMP JUMPDEST CALLVALUE PUSH2 0x16C JUMPI PUSH0 CALLDATASIZE PUSH1 0x3 NOT ADD SLT PUSH2 0x16C JUMPI PUSH1 0x40 MLOAD PUSH0 PUSH1 0x8 SLOAD PUSH2 0x502 DUP2 PUSH2 0x40A JUMP JUMPDEST DUP1 DUP5 MSTORE SWAP1 PUSH1 0x1 DUP2 AND SWAP1 DUP2 ISZERO PUSH2 0x594 JUMPI POP PUSH1 0x1 EQ PUSH2 0x536 JUMPI JUMPDEST PUSH2 0x3BA DUP4 PUSH2 0x52A DUP2 DUP6 SUB DUP3 PUSH2 0x1E5 JUMP JUMPDEST PUSH1 0x40 MLOAD SWAP2 DUP3 SWAP2 DUP3 PUSH2 0x36B JUMP JUMPDEST PUSH1 0x8 PUSH0 SWAP1 DUP2 MSTORE PUSH32 0xF3F7A9FE364FAAB93B216DA50A3214154F22A0A2B415B23A84C8169E8B636EE3 SWAP4 SWAP3 POP SWAP1 JUMPDEST DUP1 DUP3 LT PUSH2 0x57A JUMPI POP SWAP1 SWAP2 POP DUP2 ADD PUSH1 0x20 ADD PUSH2 0x52A PUSH2 0x51A JUMP JUMPDEST SWAP2 SWAP3 PUSH1 0x1 DUP2 PUSH1 0x20 SWAP3 SLOAD DUP4 DUP6 DUP9 ADD ADD MSTORE ADD SWAP2 ADD SWAP1 SWAP3 SWAP2 PUSH2 0x562 JUMP JUMPDEST PUSH1 0xFF NOT AND PUSH1 0x20 DUP1 DUP7 ADD SWAP2 SWAP1 SWAP2 MSTORE SWAP2 ISZERO ISZERO PUSH1 0x5 SHL DUP5 ADD SWAP1 SWAP2 ADD SWAP2 POP PUSH2 0x52A SWAP1 POP PUSH2 0x51A JUMP JUMPDEST CALLVALUE PUSH2 0x16C JUMPI PUSH1 0x20 CALLDATASIZE PUSH1 0x3 NOT ADD SLT PUSH2 0x16C JUMPI PUSH1 0x4 CALLDATALOAD PUSH2 0x5D4 PUSH2 0xAA0 JUMP JUMPDEST PUSH1 0x2 SSTORE STOP JUMPDEST CALLVALUE PUSH2 0x16C JUMPI PUSH0 CALLDATASIZE PUSH1 0x3 NOT ADD SLT PUSH2 0x16C JUMPI PUSH1 0x1 SLOAD PUSH1 0x1 PUSH1 0x1 PUSH1 0xA0 SHL SUB AND CALLER SUB PUSH2 0x658 JUMPI PUSH0 SLOAD PUSH1 0x1 PUSH1 0x1 PUSH1 0xA0 SHL SUB AND PUSH0 DUP1 SLOAD PUSH1 0x1 PUSH1 0x1 PUSH1 0xA0 SHL SUB NOT AND CALLER OR SWAP1 SSTORE PUSH1 0x1 DUP1 SLOAD PUSH1 0x1 PUSH1 0x1 PUSH1 0xA0 SHL SUB NOT AND SWAP1 SSTORE CALLER SWAP1 PUSH1 0x1 PUSH1 0x1 PUSH1 0xA0 SHL SUB AND PUSH32 0x8BE0079C531659141344CD1FD0A4F28419497F9722A3DAAFE3B4186F6B6457E0 PUSH0 DUP1 LOG3 STOP JUMPDEST PUSH1 0x40 MLOAD PUSH3 0x461BCD PUSH1 0xE5 SHL DUP2 MSTORE PUSH1 0x20 PUSH1 0x4 DUP3 ADD MSTORE PUSH1 0x16 PUSH1 0x24 DUP3 ADD MSTORE PUSH22 0x26BAB9BA10313290383937B837B9B2B21037BBB732B9 PUSH1 0x51 SHL PUSH1 0x44 DUP3 ADD MSTORE PUSH1 0x64 SWAP1 REVERT JUMPDEST SWAP2 DUP2 PUSH1 0x1F DUP5 ADD SLT ISZERO PUSH2 0x16C JUMPI DUP3 CALLDATALOAD SWAP2 PUSH1 0x1 PUSH1 0x1 PUSH1 0x40 SHL SUB DUP4 GT PUSH2 0x16C JUMPI PUSH1 0x20 DUP4 DUP2 DUP7 ADD SWAP6 ADD ADD GT PUSH2 0x16C JUMPI JUMP JUMPDEST CALLVALUE PUSH2 0x16C JUMPI PUSH1 0x60 CALLDATASIZE PUSH1 0x3 NOT ADD SLT PUSH2 0x16C JUMPI PUSH1 0x4 CALLDATALOAD PUSH1 0x1 PUSH1 0x1 PUSH1 0x40 SHL SUB DUP2 GT PUSH2 0x16C JUMPI PUSH2 0x6F3 SWAP1 CALLDATASIZE SWAP1 PUSH1 0x4 ADD PUSH2 0x696 JUMP JUMPDEST PUSH1 0x24 CALLDATALOAD PUSH1 0x1 PUSH1 0x1 PUSH1 0x40 SHL SUB DUP2 GT PUSH2 0x16C JUMPI CALLDATASIZE PUSH1 0x23 DUP3 ADD SLT ISZERO PUSH2 0x16C JUMPI DUP1 PUSH1 0x4 ADD CALLDATALOAD SWAP1 PUSH1 0x1 PUSH1 0x1 PUSH1 0x40 SHL SUB DUP3 GT PUSH2 0x16C JUMPI CALLDATASIZE PUSH1 0x24 DUP4 PUSH1 0x5 SHL DUP4 ADD ADD GT PUSH2 0x16C JUMPI PUSH1 0x44 CALLDATALOAD SWAP2 PUSH1 0x1 PUSH1 0x1 PUSH1 0x40 SHL SUB DUP4 GT PUSH2 0x16C JUMPI PUSH2 0x3BA SWAP5 PUSH2 0x766 SWAP5 PUSH2 0x75C PUSH1 0x24 SWAP6 CALLDATASIZE SWAP1 PUSH1 0x4 ADD PUSH2 0x696 JUMP JUMPDEST SWAP6 SWAP1 SWAP5 ADD SWAP2 PUSH2 0x97F JUMP JUMPDEST PUSH1 0x40 MLOAD SWAP1 DUP2 MSTORE SWAP1 DUP2 SWAP1 PUSH1 0x20 DUP3 ADD SWAP1 JUMP JUMPDEST CALLVALUE PUSH2 0x16C JUMPI PUSH0 CALLDATASIZE PUSH1 0x3 NOT ADD SLT PUSH2 0x16C JUMPI PUSH0 SLOAD PUSH1 0x40 MLOAD PUSH1 0x1 PUSH1 0x1 PUSH1 0xA0 SHL SUB SWAP1 SWAP2 AND DUP2 MSTORE PUSH1 0x20 SWAP1 RETURN JUMPDEST CALLVALUE PUSH2 0x16C JUMPI PUSH0 CALLDATASIZE PUSH1 0x3 NOT ADD SLT PUSH2 0x16C JUMPI PUSH1 0x20 PUSH1 0x2 SLOAD PUSH1 0x40 MLOAD SWAP1 DUP2 MSTORE RETURN JUMPDEST CALLVALUE PUSH2 0x16C JUMPI PUSH1 0x20 CALLDATASIZE PUSH1 0x3 NOT ADD SLT PUSH2 0x16C JUMPI PUSH1 0x4 CALLDATALOAD PUSH0 MSTORE PUSH1 0x6 PUSH1 0x20 MSTORE PUSH2 0x3BA PUSH2 0x3A6 PUSH1 0x40 PUSH0 KECCAK256 PUSH2 0x442 JUMP JUMPDEST CALLVALUE PUSH2 0x16C JUMPI PUSH1 0x20 CALLDATASIZE PUSH1 0x3 NOT ADD SLT PUSH2 0x16C JUMPI PUSH1 0x4 CALLDATALOAD PUSH0 MSTORE PUSH1 0x4 PUSH1 0x20 MSTORE PUSH1 0x20 PUSH1 0x1 DUP1 PUSH1 0xA0 SHL SUB PUSH1 0x40 PUSH0 KECCAK256 SLOAD AND PUSH1 0x40 MLOAD SWAP1 DUP2 MSTORE RETURN JUMPDEST CALLVALUE PUSH2 0x16C JUMPI PUSH1 0x20 CALLDATASIZE PUSH1 0x3 NOT ADD SLT PUSH2 0x16C JUMPI PUSH1 0x4 CALLDATALOAD PUSH1 0x1 PUSH1 0x1 PUSH1 0xA0 SHL SUB DUP2 AND SWAP1 DUP2 SWAP1 SUB PUSH2 0x16C JUMPI PUSH2 0x844 PUSH2 0xAA0 JUMP JUMPDEST CALLER DUP2 EQ PUSH2 0x890 JUMPI PUSH1 0x1 DUP1 SLOAD PUSH1 0x1 PUSH1 0x1 PUSH1 0xA0 SHL SUB NOT AND DUP3 OR SWAP1 SSTORE PUSH0 DUP1 SLOAD PUSH1 0x1 PUSH1 0x1 PUSH1 0xA0 SHL SUB AND SWAP1 PUSH32 0xED8889F560326EB138920D842192F0EB3DD22B4F139C87A2C57538E05BAE1278 SWAP1 DUP1 LOG3 STOP JUMPDEST PUSH1 0x40 MLOAD PUSH3 0x461BCD PUSH1 0xE5 SHL DUP2 MSTORE PUSH1 0x20 PUSH1 0x4 DUP3 ADD MSTORE PUSH1 0x17 PUSH1 0x24 DUP3 ADD MSTORE PUSH32 0x43616E6E6F74207472616E7366657220746F2073656C66000000000000000000 PUSH1 0x44 DUP3 ADD MSTORE PUSH1 0x64 SWAP1 REVERT JUMPDEST CALLVALUE PUSH2 0x16C JUMPI PUSH0 CALLDATASIZE PUSH1 0x3 NOT ADD SLT PUSH2 0x16C JUMPI PUSH1 0x20 PUSH4 0xFFFFFFFF PUSH1 0x3 SLOAD PUSH1 0x40 SHR AND PUSH1 0x40 MLOAD SWAP1 DUP2 MSTORE RETURN JUMPDEST SWAP3 SWAP2 SWAP1 SWAP3 PUSH1 0x1 PUSH1 0x1 PUSH1 0x40 SHL SUB DUP5 GT PUSH2 0x1C5 JUMPI DUP4 PUSH1 0x5 SHL SWAP2 PUSH1 0x20 PUSH1 0x40 MLOAD PUSH2 0x923 DUP3 DUP7 ADD DUP3 PUSH2 0x1E5 JUMP JUMPDEST DUP1 SWAP7 DUP2 MSTORE ADD SWAP3 DUP3 ADD SWAP2 DUP2 DUP4 GT PUSH2 0x16C JUMPI DUP1 SWAP4 JUMPDEST DUP4 DUP6 LT PUSH2 0x944 JUMPI POP POP POP POP POP JUMP JUMPDEST DUP5 CALLDATALOAD PUSH1 0x1 PUSH1 0x1 PUSH1 0x40 SHL SUB DUP2 GT PUSH2 0x16C JUMPI DUP3 ADD DUP4 PUSH1 0x1F DUP3 ADD SLT ISZERO PUSH2 0x16C JUMPI PUSH1 0x20 SWAP2 PUSH2 0x974 DUP6 DUP4 DUP6 DUP1 SWAP6 CALLDATALOAD SWAP2 ADD PUSH2 0x206 JUMP JUMPDEST DUP2 MSTORE ADD SWAP5 ADD SWAP4 PUSH2 0x936 JUMP JUMPDEST PUSH2 0x9E8 SWAP5 POP SWAP5 PUSH2 0x9D6 PUSH2 0x9D0 PUSH2 0xA0F SWAP8 SWAP6 SWAP4 SWAP6 PUSH1 0x40 MLOAD SWAP7 PUSH2 0x99F DUP9 PUSH2 0x1AA JUMP JUMPDEST PUSH0 DUP9 MSTORE PUSH0 PUSH1 0x20 DUP10 ADD MSTORE PUSH0 PUSH1 0x40 DUP10 ADD MSTORE PUSH1 0x60 DUP1 DUP10 ADD MSTORE PUSH1 0x60 PUSH1 0x80 DUP10 ADD MSTORE PUSH1 0x60 PUSH1 0xA0 DUP10 ADD MSTORE PUSH1 0x60 PUSH1 0xC0 DUP10 ADD MSTORE CALLDATASIZE SWAP2 PUSH2 0x206 JUMP JUMPDEST DUP6 PUSH2 0xED8 JUMP JUMPDEST PUSH2 0xA92 JUMPI JUMPDEST DUP1 PUSH2 0xA76 JUMPI JUMPDEST POP POP PUSH2 0x10CF JUMP JUMPDEST PUSH1 0x3 SLOAD PUSH2 0xA05 PUSH1 0x1 PUSH1 0x1 PUSH1 0x40 SHL SUB DUP3 AND SWAP2 PUSH1 0x40 SHR PUSH4 0xFFFFFFFF AND SWAP1 JUMP JUMPDEST SWAP1 PUSH1 0x2 SLOAD SWAP3 PUSH2 0x12B2 JUMP JUMPDEST SWAP1 PUSH2 0xA45 CALLER PUSH2 0xA26 DUP5 PUSH0 MSTORE PUSH1 0x4 PUSH1 0x20 MSTORE PUSH1 0x40 PUSH0 KECCAK256 SWAP1 JUMP JUMPDEST DUP1 SLOAD PUSH1 0x1 PUSH1 0x1 PUSH1 0xA0 SHL SUB NOT AND PUSH1 0x1 PUSH1 0x1 PUSH1 0xA0 SHL SUB SWAP1 SWAP3 AND SWAP2 SWAP1 SWAP2 OR SWAP1 SSTORE JUMP JUMPDEST PUSH2 0xA4E DUP3 PUSH1 0x7 SSTORE JUMP JUMPDEST CALLER DUP3 PUSH32 0x91F0D67C2F27ABD6CFC317E120D5E80B31E97B9926B65D3887E59402FB20ADFB PUSH0 DUP1 LOG3 JUMP JUMPDEST PUSH2 0xA8B SWAP2 PUSH2 0xA85 SWAP2 CALLDATASIZE SWAP2 PUSH2 0x8FB JUMP JUMPDEST DUP3 PUSH2 0xF7C JUMP JUMPDEST PUSH0 DUP1 PUSH2 0x9E1 JUMP JUMPDEST PUSH2 0xA9B DUP4 PUSH2 0xEFD JUMP JUMPDEST PUSH2 0x9DB JUMP JUMPDEST PUSH0 SLOAD PUSH1 0x1 PUSH1 0x1 PUSH1 0xA0 SHL SUB AND CALLER SUB PUSH2 0xAB3 JUMPI JUMP JUMPDEST PUSH1 0x40 MLOAD PUSH3 0x461BCD PUSH1 0xE5 SHL DUP2 MSTORE PUSH1 0x20 PUSH1 0x4 DUP3 ADD MSTORE PUSH1 0x16 PUSH1 0x24 DUP3 ADD MSTORE PUSH22 0x27B7363C9031B0B63630B1363290313C9037BBB732B9 PUSH1 0x51 SHL PUSH1 0x44 DUP3 ADD MSTORE PUSH1 0x64 SWAP1 REVERT JUMPDEST PUSH1 0x1F DUP3 GT PUSH2 0xAFE JUMPI POP POP POP JUMP JUMPDEST PUSH0 MSTORE PUSH1 0x20 PUSH0 KECCAK256 SWAP1 PUSH1 0x20 PUSH1 0x1F DUP5 ADD PUSH1 0x5 SHR DUP4 ADD SWAP4 LT PUSH2 0xB36 JUMPI JUMPDEST PUSH1 0x1F ADD PUSH1 0x5 SHR ADD SWAP1 JUMPDEST DUP2 DUP2 LT PUSH2 0xB2B JUMPI POP POP JUMP JUMPDEST PUSH0 DUP2 SSTORE PUSH1 0x1 ADD PUSH2 0xB20 JUMP JUMPDEST SWAP1 SWAP2 POP DUP2 SWAP1 PUSH2 0xB17 JUMP JUMPDEST SWAP1 PUSH1 0x60 PUSH2 0x266 SWAP3 PUSH1 0x40 DUP2 MSTORE PUSH0 PUSH1 0x40 DUP3 ADD MSTORE DUP2 PUSH1 0x20 DUP3 ADD MSTORE ADD SWAP1 PUSH2 0x347 JUMP JUMPDEST SWAP1 DUP2 MLOAD PUSH1 0x1 PUSH1 0x1 PUSH1 0x40 SHL SUB DUP2 GT PUSH2 0x1C5 JUMPI PUSH2 0xB85 DUP2 PUSH2 0xB7E PUSH1 0x8 SLOAD PUSH2 0x40A JUMP JUMPDEST PUSH1 0x8 PUSH2 0xAF1 JUMP JUMPDEST PUSH1 0x20 SWAP3 PUSH1 0x1F DUP3 GT PUSH1 0x1 EQ PUSH2 0xBC5 JUMPI PUSH2 0xBB5 SWAP3 SWAP4 DUP3 SWAP2 PUSH0 SWAP3 PUSH2 0xBBA JUMPI JUMPDEST POP POP DUP2 PUSH1 0x1 SHL SWAP2 PUSH0 NOT SWAP1 PUSH1 0x3 SHL SHR NOT AND OR SWAP1 JUMP JUMPDEST PUSH1 0x8 SSTORE JUMP JUMPDEST ADD MLOAD SWAP1 POP PUSH0 DUP1 PUSH2 0xBA1 JUMP JUMPDEST PUSH1 0x8 PUSH0 MSTORE PUSH1 0x1F NOT DUP3 AND SWAP4 PUSH32 0xF3F7A9FE364FAAB93B216DA50A3214154F22A0A2B415B23A84C8169E8B636EE3 SWAP2 PUSH0 JUMPDEST DUP7 DUP2 LT PUSH2 0xC29 JUMPI POP DUP4 PUSH1 0x1 SWAP6 SWAP7 LT PUSH2 0xC11 JUMPI JUMPDEST POP POP POP DUP2 SHL ADD PUSH1 0x8 SSTORE JUMP JUMPDEST ADD MLOAD PUSH0 NOT PUSH1 0xF8 DUP5 PUSH1 0x3 SHL AND SHR NOT AND SWAP1 SSTORE PUSH0 DUP1 DUP1 PUSH2 0xC06 JUMP JUMPDEST SWAP2 SWAP3 PUSH1 0x20 PUSH1 0x1 DUP2 SWAP3 DUP7 DUP6 ADD MLOAD DUP2 SSTORE ADD SWAP5 ADD SWAP3 ADD PUSH2 0xBF3 JUMP JUMPDEST SWAP2 SWAP1 SWAP2 DUP3 MLOAD PUSH1 0x1 PUSH1 0x1 PUSH1 0x40 SHL SUB DUP2 GT PUSH2 0x1C5 JUMPI PUSH2 0xC68 DUP2 PUSH2 0xC62 DUP5 SLOAD PUSH2 0x40A JUMP JUMPDEST DUP5 PUSH2 0xAF1 JUMP JUMPDEST PUSH1 0x20 PUSH1 0x1F DUP3 GT PUSH1 0x1 EQ PUSH2 0xC9B JUMPI DUP2 SWAP1 PUSH2 0xC97 SWAP4 SWAP5 SWAP6 PUSH0 SWAP3 PUSH2 0xBBA JUMPI POP POP DUP2 PUSH1 0x1 SHL SWAP2 PUSH0 NOT SWAP1 PUSH1 0x3 SHL SHR NOT AND OR SWAP1 JUMP JUMPDEST SWAP1 SSTORE JUMP JUMPDEST PUSH1 0x1F NOT DUP3 AND SWAP1 PUSH2 0xCAE DUP5 PUSH0 MSTORE PUSH1 0x20 PUSH0 KECCAK256 SWAP1 JUMP JUMPDEST SWAP2 PUSH0 JUMPDEST DUP2 DUP2 LT PUSH2 0xCE8 JUMPI POP SWAP6 DUP4 PUSH1 0x1 SWAP6 SWAP7 SWAP8 LT PUSH2 0xCD0 JUMPI JUMPDEST POP POP POP DUP2 SHL ADD SWAP1 SSTORE JUMP JUMPDEST ADD MLOAD PUSH0 NOT PUSH1 0xF8 DUP5 PUSH1 0x3 SHL AND SHR NOT AND SWAP1 SSTORE PUSH0 DUP1 DUP1 PUSH2 0xCC6 JUMP JUMPDEST SWAP2 SWAP3 PUSH1 0x20 PUSH1 0x1 DUP2 SWAP3 DUP7 DUP12 ADD MLOAD DUP2 SSTORE ADD SWAP5 ADD SWAP3 ADD PUSH2 0xCB1 JUMP JUMPDEST PUSH2 0xD14 PUSH1 0x20 SWAP3 PUSH1 0x40 DUP4 MSTORE PUSH1 0x40 DUP4 ADD SWAP1 PUSH2 0x347 JUMP JUMPDEST SWAP1 DUP3 DUP2 DUP4 SUB SWAP2 ADD MSTORE PUSH0 DUP2 MSTORE ADD SWAP1 JUMP JUMPDEST SWAP2 DUP1 MLOAD PUSH2 0xD85 JUMPI POP PUSH2 0xD80 DUP2 PUSH2 0xD6B PUSH32 0x9304B2897060CAB5F22CE3990C7C2123A47C1C09FA4D82835DA567F4F16CCF1E SWAP4 PUSH2 0xD66 DUP7 PUSH0 MSTORE PUSH1 0x5 PUSH1 0x20 MSTORE PUSH1 0x40 PUSH0 KECCAK256 SWAP1 JUMP JUMPDEST PUSH2 0xC41 JUMP JUMPDEST PUSH2 0xD74 DUP2 PUSH2 0xB5E JUMP JUMPDEST PUSH1 0x40 MLOAD SWAP2 DUP3 SWAP2 DUP3 PUSH2 0xD00 JUMP JUMPDEST SUB SWAP1 LOG2 JUMP JUMPDEST SWAP1 POP DUP2 PUSH0 MSTORE PUSH1 0x6 PUSH1 0x20 MSTORE PUSH1 0x40 PUSH0 KECCAK256 DUP2 MLOAD PUSH1 0x1 PUSH1 0x1 PUSH1 0x40 SHL SUB DUP2 GT PUSH2 0x1C5 JUMPI PUSH2 0xDB1 DUP2 PUSH2 0xC62 DUP5 SLOAD PUSH2 0x40A JUMP JUMPDEST PUSH1 0x20 PUSH1 0x1F DUP3 GT PUSH1 0x1 EQ PUSH2 0xE1E JUMPI SWAP2 PUSH2 0xE04 DUP3 PUSH32 0x9304B2897060CAB5F22CE3990C7C2123A47C1C09FA4D82835DA567F4F16CCF1E SWAP6 SWAP4 PUSH2 0xD80 SWAP6 PUSH0 SWAP2 PUSH2 0xE13 JUMPI JUMPDEST POP DUP2 PUSH1 0x1 SHL SWAP2 PUSH0 NOT SWAP1 PUSH1 0x3 SHL SHR NOT AND OR SWAP1 JUMP JUMPDEST SWAP1 SSTORE JUMPDEST PUSH1 0x40 MLOAD SWAP2 DUP3 SWAP2 DUP3 PUSH2 0xB40 JUMP JUMPDEST SWAP1 POP DUP5 ADD MLOAD PUSH0 PUSH2 0xDF1 JUMP JUMPDEST PUSH1 0x1F NOT DUP3 AND SWAP1 PUSH2 0xE31 DUP5 PUSH0 MSTORE PUSH1 0x20 PUSH0 KECCAK256 SWAP1 JUMP JUMPDEST SWAP2 PUSH0 JUMPDEST DUP2 DUP2 LT PUSH2 0xE93 JUMPI POP SWAP3 PUSH2 0xD80 SWAP5 SWAP3 PUSH1 0x1 SWAP3 DUP3 PUSH32 0x9304B2897060CAB5F22CE3990C7C2123A47C1C09FA4D82835DA567F4F16CCF1E SWAP9 SWAP7 LT PUSH2 0xE7B JUMPI JUMPDEST POP POP DUP2 SHL ADD SWAP1 SSTORE PUSH2 0xE07 JUMP JUMPDEST DUP6 ADD MLOAD PUSH0 NOT PUSH1 0xF8 DUP5 PUSH1 0x3 SHL AND SHR NOT AND SWAP1 SSTORE PUSH0 DUP1 PUSH2 0xE6F JUMP JUMPDEST SWAP2 SWAP3 PUSH1 0x20 PUSH1 0x1 DUP2 SWAP3 DUP7 DUP11 ADD MLOAD DUP2 SSTORE ADD SWAP5 ADD SWAP3 ADD PUSH2 0xE34 JUMP JUMPDEST PUSH4 0x4E487B71 PUSH1 0xE0 SHL PUSH0 MSTORE PUSH1 0x21 PUSH1 0x4 MSTORE PUSH1 0x24 PUSH0 REVERT JUMPDEST PUSH1 0x3 GT ISZERO PUSH2 0xEC9 JUMPI JUMP JUMPDEST PUSH2 0xEAB JUMP JUMPDEST PUSH1 0x1 GT ISZERO PUSH2 0xEC9 JUMPI JUMP JUMPDEST DUP2 MLOAD ISZERO PUSH2 0xEEE JUMPI PUSH0 DUP1 DUP3 MSTORE PUSH1 0x40 DUP3 ADD MSTORE PUSH1 0x60 ADD MSTORE JUMP JUMPDEST PUSH4 0x22CE3EDD PUSH1 0xE0 SHL PUSH0 MSTORE PUSH1 0x4 PUSH0 REVERT JUMPDEST PUSH1 0x80 PUSH2 0xF07 PUSH2 0x13B7 JUMP JUMPDEST PUSH2 0xF64 PUSH1 0x40 PUSH2 0xF34 DUP2 MLOAD PUSH2 0xF1B DUP4 DUP3 PUSH2 0x1E5 JUMP JUMPDEST PUSH1 0x6 DUP2 MSTORE PUSH6 0x1CDB1BDD1251 PUSH1 0xD2 SHL PUSH1 0x20 DUP3 ADD MSTORE DUP5 PUSH2 0x13E7 JUMP JUMPDEST PUSH2 0xF3E PUSH0 DUP5 PUSH2 0x167C JUMP JUMPDEST PUSH2 0xF4A DUP2 MLOAD SWAP2 DUP3 PUSH2 0x1E5 JUMP JUMPDEST PUSH1 0x7 DUP2 MSTORE PUSH7 0x3B32B939B4B7B7 PUSH1 0xC9 SHL PUSH1 0x20 DUP3 ADD MSTORE DUP3 PUSH2 0x13E7 JUMP JUMPDEST PUSH2 0xF6E PUSH0 DUP3 PUSH2 0x167C JUMP JUMPDEST PUSH1 0x2 PUSH1 0x20 DUP5 ADD MSTORE MLOAD MLOAD SWAP2 ADD MSTORE JUMP JUMPDEST DUP2 MLOAD ISZERO PUSH2 0xF89 JUMPI PUSH1 0xA0 ADD MSTORE JUMP JUMPDEST PUSH4 0xFE936CB7 PUSH1 0xE0 SHL PUSH0 MSTORE PUSH1 0x4 PUSH0 REVERT JUMPDEST PUSH1 0x40 MLOAD SWAP1 PUSH2 0xFA7 PUSH1 0x40 DUP4 PUSH2 0x1E5 JUMP JUMPDEST PUSH1 0xC DUP3 MSTORE PUSH12 0x31B7B232A637B1B0BA34B7B7 PUSH1 0xA1 SHL PUSH1 0x20 DUP4 ADD MSTORE JUMP JUMPDEST PUSH1 0x40 MLOAD SWAP1 PUSH2 0xFD1 PUSH1 0x40 DUP4 PUSH2 0x1E5 JUMP JUMPDEST PUSH1 0x8 DUP3 MSTORE PUSH8 0x6C616E6775616765 PUSH1 0xC0 SHL PUSH1 0x20 DUP4 ADD MSTORE JUMP JUMPDEST PUSH1 0x40 MLOAD SWAP1 PUSH2 0xFF7 PUSH1 0x40 DUP4 PUSH2 0x1E5 JUMP JUMPDEST PUSH1 0x6 DUP3 MSTORE PUSH6 0x736F75726365 PUSH1 0xD0 SHL PUSH1 0x20 DUP4 ADD MSTORE JUMP JUMPDEST PUSH1 0x40 MLOAD SWAP1 PUSH2 0x101B PUSH1 0x40 DUP4 PUSH2 0x1E5 JUMP JUMPDEST PUSH1 0x4 DUP3 MSTORE PUSH4 0x61726773 PUSH1 0xE0 SHL PUSH1 0x20 DUP4 ADD MSTORE JUMP JUMPDEST DUP1 MLOAD DUP3 LT ISZERO PUSH2 0x1042 JUMPI PUSH1 0x20 SWAP2 PUSH1 0x5 SHL ADD ADD SWAP1 JUMP JUMPDEST PUSH4 0x4E487B71 PUSH1 0xE0 SHL PUSH0 MSTORE PUSH1 0x32 PUSH1 0x4 MSTORE PUSH1 0x24 PUSH0 REVERT JUMPDEST PUSH1 0x40 MLOAD SWAP1 PUSH2 0x1065 PUSH1 0x40 DUP4 PUSH2 0x1E5 JUMP JUMPDEST PUSH1 0xF DUP3 MSTORE PUSH15 0x39B2B1B932BA39A637B1B0BA34B7B7 PUSH1 0x89 SHL PUSH1 0x20 DUP4 ADD MSTORE JUMP JUMPDEST PUSH1 0x40 MLOAD SWAP1 PUSH2 0x1092 PUSH1 0x40 DUP4 PUSH2 0x1E5 JUMP JUMPDEST PUSH1 0x7 DUP3 MSTORE PUSH7 0x73656372657473 PUSH1 0xC8 SHL PUSH1 0x20 DUP4 ADD MSTORE JUMP JUMPDEST PUSH1 0x40 MLOAD SWAP1 PUSH2 0x10B7 PUSH1 0x40 DUP4 PUSH2 0x1E5 JUMP JUMPDEST PUSH1 0x9 DUP3 MSTORE PUSH9 0x627974657341726773 PUSH1 0xB8 SHL PUSH1 0x20 DUP4 ADD MSTORE JUMP JUMPDEST PUSH2 0x10D7 PUSH2 0x13B7 JUMP JUMPDEST SWAP1 PUSH2 0x10E9 PUSH2 0x10E3 PUSH2 0xF98 JUMP JUMPDEST DUP4 PUSH2 0x13E7 JUMP JUMPDEST PUSH2 0x1106 DUP2 MLOAD PUSH2 0x10F7 DUP2 PUSH2 0xEBF JUMP JUMPDEST PUSH2 0x1100 DUP2 PUSH2 0xEBF JUMP JUMPDEST DUP4 PUSH2 0x14D0 JUMP JUMPDEST PUSH2 0x1111 PUSH2 0x10E3 PUSH2 0xFC2 JUMP JUMPDEST PUSH2 0x112B PUSH1 0x40 DUP3 ADD MLOAD PUSH2 0x1122 DUP2 PUSH2 0xECE JUMP JUMPDEST PUSH2 0x1100 DUP2 PUSH2 0xECE JUMP JUMPDEST PUSH2 0x1136 PUSH2 0x10E3 PUSH2 0xFE8 JUMP JUMPDEST PUSH2 0x1144 PUSH1 0x60 DUP3 ADD MLOAD DUP4 PUSH2 0x13E7 JUMP JUMPDEST PUSH1 0xA0 DUP2 ADD DUP1 MLOAD MLOAD PUSH2 0x1240 JUMPI JUMPDEST POP PUSH1 0x80 DUP2 ADD SWAP1 DUP2 MLOAD MLOAD PUSH2 0x11C3 JUMPI JUMPDEST PUSH1 0xC0 SWAP2 POP ADD DUP1 MLOAD MLOAD PUSH2 0x1171 JUMPI JUMPDEST POP MLOAD MLOAD SWAP1 JUMP JUMPDEST SWAP2 PUSH2 0x117D PUSH2 0x10E3 PUSH2 0x10A8 JUMP JUMPDEST PUSH2 0x1186 DUP3 PUSH2 0x1531 JUMP JUMPDEST PUSH0 JUMPDEST DUP4 MLOAD DUP1 MLOAD DUP3 LT ISZERO PUSH2 0x11B0 JUMPI SWAP1 PUSH2 0x11AA PUSH2 0x11A3 DUP3 PUSH1 0x1 SWAP5 PUSH2 0x102E JUMP JUMPDEST MLOAD DUP6 PUSH2 0x1592 JUMP JUMPDEST ADD PUSH2 0x1188 JUMP JUMPDEST POP POP SWAP2 POP PUSH2 0x11BD DUP2 PUSH2 0x1570 JUMP JUMPDEST PUSH0 PUSH2 0x116B JUMP JUMPDEST PUSH1 0x20 DUP2 ADD DUP1 MLOAD PUSH2 0x11D2 DUP2 PUSH2 0xEBF JUMP JUMPDEST PUSH2 0x11DB DUP2 PUSH2 0xEBF JUMP JUMPDEST ISZERO PUSH2 0x1231 JUMPI PUSH1 0xC0 SWAP3 PUSH2 0x1214 PUSH2 0x122C SWAP3 PUSH2 0x11FB PUSH2 0x11F5 PUSH2 0x1056 JUMP JUMPDEST DUP9 PUSH2 0x13E7 JUMP JUMPDEST MLOAD PUSH2 0x1205 DUP2 PUSH2 0xEBF JUMP JUMPDEST PUSH2 0x120E DUP2 PUSH2 0xEBF JUMP JUMPDEST DUP7 PUSH2 0x14D0 JUMP JUMPDEST PUSH2 0x1225 PUSH2 0x121F PUSH2 0x1083 JUMP JUMPDEST DUP7 PUSH2 0x13E7 JUMP JUMPDEST MLOAD DUP5 PUSH2 0x1592 JUMP JUMPDEST PUSH2 0x115E JUMP JUMPDEST PUSH4 0xA80D31F7 PUSH1 0xE0 SHL PUSH0 MSTORE PUSH1 0x4 PUSH0 REVERT JUMPDEST SWAP3 PUSH2 0x1252 PUSH2 0x124C PUSH2 0x100C JUMP JUMPDEST DUP5 PUSH2 0x13E7 JUMP JUMPDEST PUSH2 0x125B DUP4 PUSH2 0x1531 JUMP JUMPDEST PUSH0 JUMPDEST DUP5 MLOAD DUP1 MLOAD DUP3 LT ISZERO PUSH2 0x1285 JUMPI SWAP1 PUSH2 0x127F PUSH2 0x1278 DUP3 PUSH1 0x1 SWAP5 PUSH2 0x102E JUMP JUMPDEST MLOAD DUP7 PUSH2 0x13E7 JUMP JUMPDEST ADD PUSH2 0x125D JUMP JUMPDEST POP POP SWAP3 POP PUSH2 0x1292 DUP3 PUSH2 0x1570 JUMP JUMPDEST PUSH0 PUSH2 0x1150 JUMP JUMPDEST SWAP1 DUP2 PUSH1 0x20 SWAP2 SUB SLT PUSH2 0x16C JUMPI MLOAD SWAP1 JUMP JUMPDEST PUSH1 0x40 MLOAD RETURNDATASIZE PUSH0 DUP3 RETURNDATACOPY RETURNDATASIZE SWAP1 REVERT JUMPDEST SWAP3 SWAP1 PUSH1 0x20 SWAP3 PUSH1 0x1 PUSH1 0x1 PUSH1 0x40 SHL SUB SWAP3 PUSH4 0xFFFFFFFF PUSH2 0x12F1 PUSH1 0x40 MLOAD SWAP8 DUP9 SWAP7 DUP8 SWAP7 PUSH4 0x230E93B1 PUSH1 0xE1 SHL DUP9 MSTORE AND PUSH1 0x4 DUP8 ADD MSTORE PUSH1 0xA0 PUSH1 0x24 DUP8 ADD MSTORE PUSH1 0xA4 DUP7 ADD SWAP1 PUSH2 0x347 JUMP JUMPDEST PUSH1 0x1 PUSH1 0x44 DUP7 ADD MSTORE SWAP3 AND PUSH1 0x64 DUP5 ADD MSTORE PUSH1 0x84 DUP4 ADD MSTORE SUB DUP2 PUSH0 PUSH32 0x0 PUSH1 0x1 PUSH1 0x1 PUSH1 0xA0 SHL SUB AND GAS CALL SWAP1 DUP2 ISZERO PUSH2 0x1399 JUMPI PUSH0 SWAP2 PUSH2 0x136A JUMPI JUMPDEST POP DUP1 PUSH32 0x1131472297A800FEE664D1D89CFA8F7676FF07189ECC53F80BBB5F4969099DB8 PUSH0 DUP1 LOG2 SWAP1 JUMP JUMPDEST PUSH2 0x138C SWAP2 POP PUSH1 0x20 RETURNDATASIZE PUSH1 0x20 GT PUSH2 0x1392 JUMPI JUMPDEST PUSH2 0x1384 DUP2 DUP4 PUSH2 0x1E5 JUMP JUMPDEST DUP2 ADD SWAP1 PUSH2 0x1298 JUMP JUMPDEST PUSH0 PUSH2 0x1341 JUMP JUMPDEST POP RETURNDATASIZE PUSH2 0x137A JUMP JUMPDEST PUSH2 0x12A7 JUMP JUMPDEST PUSH1 0x40 MLOAD SWAP1 PUSH2 0x13AB DUP3 PUSH2 0x1CA JUMP JUMPDEST PUSH0 PUSH1 0x20 DUP4 PUSH1 0x60 DUP2 MSTORE ADD MSTORE JUMP JUMPDEST PUSH1 0x40 MLOAD PUSH2 0x13C3 DUP2 PUSH2 0x1CA JUMP JUMPDEST PUSH0 PUSH2 0x13CC PUSH2 0x139E JUMP JUMPDEST DUP1 DUP4 MSTORE PUSH2 0x13E2 PUSH2 0x100 PUSH1 0x20 DUP6 ADD SWAP3 DUP5 DUP5 MSTORE PUSH2 0x162B JUMP JUMPDEST POP MSTORE SWAP1 JUMP JUMPDEST DUP2 MLOAD PUSH2 0x1438 SWAP3 SWAP2 SWAP1 PUSH1 0x1 PUSH1 0x1 PUSH1 0x40 SHL SUB AND PUSH1 0x17 DUP2 GT PUSH2 0x143B JUMPI DUP2 MLOAD PUSH2 0x1423 SWAP2 PUSH2 0x141D SWAP1 PUSH2 0x1416 PUSH1 0x60 JUMPDEST PUSH1 0xFF AND SWAP1 JUMP JUMPDEST OR PUSH1 0xFF AND SWAP1 JUMP JUMPDEST SWAP1 PUSH2 0x186E JUMP JUMPDEST POP JUMPDEST MLOAD SWAP1 PUSH2 0x142F PUSH2 0x139E JUMP JUMPDEST POP DUP1 MLOAD SWAP2 PUSH2 0x1AD8 JUMP JUMPDEST POP JUMP JUMPDEST PUSH1 0xFF DUP2 GT PUSH2 0x1468 JUMPI DUP2 MLOAD PUSH2 0x1462 SWAP2 SWAP1 PUSH2 0x145A SWAP1 PUSH1 0x18 PUSH1 0x60 JUMPDEST OR SWAP1 PUSH2 0x186E JUMP JUMPDEST POP DUP3 MLOAD PUSH2 0x1A58 JUMP JUMPDEST POP PUSH2 0x1425 JUMP JUMPDEST PUSH2 0xFFFF DUP2 GT PUSH2 0x148D JUMPI DUP2 MLOAD PUSH2 0x1462 SWAP2 SWAP1 PUSH2 0x1485 SWAP1 PUSH1 0x19 PUSH1 0x60 PUSH2 0x1453 JUMP JUMPDEST POP DUP3 MLOAD PUSH2 0x19DF JUMP JUMPDEST PUSH4 0xFFFFFFFF DUP2 GT PUSH2 0x14B4 JUMPI DUP2 MLOAD PUSH2 0x1462 SWAP2 SWAP1 PUSH2 0x14AC SWAP1 PUSH1 0x1A PUSH1 0x60 PUSH2 0x1453 JUMP JUMPDEST POP DUP3 MLOAD PUSH2 0x1966 JUMP JUMPDEST DUP2 MLOAD PUSH2 0x1462 SWAP2 SWAP1 PUSH2 0x14C8 SWAP1 PUSH1 0x1B PUSH1 0x60 PUSH2 0x1453 JUMP JUMPDEST POP DUP3 MLOAD PUSH2 0x18E8 JUMP JUMPDEST SWAP1 PUSH2 0x47A SWAP2 PUSH2 0x14DF DUP2 MLOAD PUSH2 0x17FE JUMP JUMPDEST POP PUSH1 0x40 MLOAD SWAP2 PUSH1 0x20 DUP4 ADD MSTORE PUSH1 0x20 DUP3 MSTORE PUSH2 0x14F8 PUSH1 0x40 DUP4 PUSH2 0x1E5 JUMP JUMPDEST PUSH2 0x1592 JUMP JUMPDEST PUSH4 0x4E487B71 PUSH1 0xE0 SHL PUSH0 MSTORE PUSH1 0x11 PUSH1 0x4 MSTORE PUSH1 0x24 PUSH0 REVERT JUMPDEST SWAP1 PUSH1 0x20 DUP3 ADD DUP1 SWAP3 GT PUSH2 0x151F JUMPI JUMP JUMPDEST PUSH2 0x14FD JUMP JUMPDEST SWAP2 SWAP1 DUP3 ADD DUP1 SWAP3 GT PUSH2 0x151F JUMPI JUMP JUMPDEST PUSH1 0x20 SWAP1 PUSH2 0x1540 PUSH1 0x9F DUP3 MLOAD PUSH2 0x186E JUMP JUMPDEST POP ADD DUP1 MLOAD SWAP1 PUSH1 0x1 DUP3 ADD DUP1 SWAP3 GT PUSH2 0x151F JUMPI MSTORE JUMP JUMPDEST PUSH1 0x1F NOT DUP2 ADD SWAP2 SWAP1 DUP3 GT PUSH2 0x151F JUMPI JUMP JUMPDEST PUSH0 NOT DUP2 ADD SWAP2 SWAP1 DUP3 GT PUSH2 0x151F JUMPI JUMP JUMPDEST PUSH1 0x20 SWAP1 PUSH2 0x157F PUSH1 0xFF DUP3 MLOAD PUSH2 0x186E JUMP JUMPDEST POP ADD DUP1 MLOAD PUSH0 NOT DUP2 ADD SWAP2 SWAP1 DUP3 GT PUSH2 0x151F JUMPI MSTORE JUMP JUMPDEST DUP2 MLOAD PUSH2 0x1438 SWAP3 SWAP2 SWAP1 PUSH1 0x1 PUSH1 0x1 PUSH1 0x40 SHL SUB AND PUSH1 0x17 DUP2 GT PUSH2 0x15BF JUMPI DUP2 MLOAD PUSH2 0x1423 SWAP2 PUSH2 0x141D SWAP1 PUSH2 0x1416 PUSH1 0x40 PUSH2 0x1410 JUMP JUMPDEST PUSH1 0xFF DUP2 GT PUSH2 0x15DB JUMPI DUP2 MLOAD PUSH2 0x1462 SWAP2 SWAP1 PUSH2 0x145A SWAP1 PUSH1 0x18 PUSH1 0x40 PUSH2 0x1453 JUMP JUMPDEST PUSH2 0xFFFF DUP2 GT PUSH2 0x15F8 JUMPI DUP2 MLOAD PUSH2 0x1462 SWAP2 SWAP1 PUSH2 0x1485 SWAP1 PUSH1 0x19 PUSH1 0x40 PUSH2 0x1453 JUMP JUMPDEST PUSH4 0xFFFFFFFF DUP2 GT PUSH2 0x1617 JUMPI DUP2 MLOAD PUSH2 0x1462 SWAP2 SWAP1 PUSH2 0x14AC SWAP1 PUSH1 0x1A PUSH1 0x40 PUSH2 0x1453 JUMP JUMPDEST DUP2 MLOAD PUSH2 0x1462 SWAP2 SWAP1 PUSH2 0x14C8 SWAP1 PUSH1 0x1B PUSH1 0x40 PUSH2 0x1453 JUMP JUMPDEST SWAP1 PUSH2 0x1634 PUSH2 0x139E JUMP JUMPDEST POP PUSH1 0x1F DUP2 AND DUP1 PUSH2 0x1662 JUMPI JUMPDEST POP DUP1 PUSH1 0x20 DUP4 ADD MSTORE PUSH1 0x40 MLOAD SWAP1 DUP2 DUP4 MSTORE PUSH0 DUP3 MSTORE DUP2 ADD PUSH1 0x20 ADD SWAP1 DUP2 LT PUSH2 0x16C JUMPI PUSH1 0x40 MSTORE SWAP1 JUMP JUMPDEST PUSH1 0x20 SUB PUSH1 0x20 DUP2 GT PUSH2 0x151F JUMPI DUP2 ADD DUP1 SWAP2 GT PUSH2 0x151F JUMPI PUSH0 PUSH2 0x163F JUMP JUMPDEST SWAP1 PUSH1 0x1 PUSH1 0x1 PUSH1 0x40 SHL SUB DUP2 AND PUSH1 0x17 DUP2 GT PUSH2 0x16A3 JUMPI POP SWAP1 MLOAD PUSH2 0x1438 SWAP2 PUSH2 0x141D SWAP1 PUSH2 0x1416 PUSH0 PUSH2 0x1410 JUMP JUMPDEST SWAP1 POP PUSH1 0xFF DUP2 GT PUSH2 0x16C7 JUMPI DUP2 MLOAD PUSH2 0x1438 SWAP3 SWAP1 PUSH2 0x16C0 SWAP1 PUSH1 0x18 PUSH0 PUSH2 0x1453 JUMP JUMPDEST POP MLOAD PUSH2 0x1A58 JUMP JUMPDEST PUSH2 0xFFFF DUP2 GT PUSH2 0x16EA JUMPI DUP2 MLOAD PUSH2 0x1438 SWAP3 SWAP1 PUSH2 0x16E3 SWAP1 PUSH1 0x19 PUSH0 PUSH2 0x1453 JUMP JUMPDEST POP MLOAD PUSH2 0x19DF JUMP JUMPDEST PUSH4 0xFFFFFFFF DUP2 GT PUSH2 0x170F JUMPI DUP2 MLOAD PUSH2 0x1438 SWAP3 SWAP1 PUSH2 0x1708 SWAP1 PUSH1 0x1A PUSH0 PUSH2 0x1453 JUMP JUMPDEST POP MLOAD PUSH2 0x1966 JUMP JUMPDEST DUP2 MLOAD PUSH2 0x1438 SWAP3 SWAP1 PUSH2 0x1722 SWAP1 PUSH1 0x1B PUSH0 PUSH2 0x1453 JUMP JUMPDEST POP MLOAD PUSH2 0x18E8 JUMP JUMPDEST SWAP1 PUSH2 0x1732 PUSH2 0x139E JUMP JUMPDEST POP DUP1 MLOAD PUSH2 0x173D PUSH2 0x139E JUMP JUMPDEST POP PUSH2 0x174B DUP3 MLOAD DUP3 GT ISZERO PUSH2 0x1AD1 JUMP JUMPDEST DUP3 MLOAD MLOAD SWAP2 PUSH2 0x1759 DUP3 DUP5 PUSH2 0x1524 JUMP JUMPDEST SWAP1 PUSH1 0x20 DUP6 ADD MLOAD DUP3 GT PUSH2 0x17D1 JUMPI JUMPDEST PUSH1 0x20 SWAP2 DUP6 MLOAD DUP4 DUP2 MLOAD SWAP7 DUP3 ADD ADD SWAP6 DUP3 GT PUSH2 0x17C9 JUMPI JUMPDEST POP POP ADD SWAP1 JUMPDEST PUSH1 0x20 DUP2 LT ISZERO PUSH2 0x17A3 JUMPI PUSH0 NOT SWAP1 PUSH1 0x20 SUB PUSH2 0x100 EXP ADD SWAP1 DUP2 NOT SWAP1 MLOAD AND SWAP1 DUP3 MLOAD AND OR SWAP1 MSTORE SWAP1 JUMP JUMPDEST SWAP1 SWAP2 PUSH2 0x17BE PUSH2 0x17B8 PUSH2 0x17C4 SWAP3 DUP6 MLOAD DUP2 MSTORE PUSH2 0x1511 JUMP JUMPDEST SWAP4 PUSH2 0x1511 JUMP JUMPDEST SWAP2 PUSH2 0x1553 JUMP JUMPDEST PUSH2 0x177F JUMP JUMPDEST MSTORE PUSH0 DUP1 PUSH2 0x177A JUMP JUMPDEST PUSH2 0x17E3 PUSH2 0x17DD DUP4 PUSH2 0x17E8 JUMP JUMPDEST DUP7 PUSH2 0x1B7D JUMP JUMPDEST PUSH2 0x1766 JUMP JUMPDEST SWAP1 DUP2 PUSH1 0x1 SHL SWAP2 DUP1 DUP4 DIV PUSH1 0x2 EQ SWAP1 ISZERO OR ISZERO PUSH2 0x151F JUMPI JUMP JUMPDEST PUSH2 0x1806 PUSH2 0x139E JUMP JUMPDEST POP DUP1 MLOAD MLOAD PUSH1 0x1 DUP2 ADD SWAP1 DUP2 DUP2 GT PUSH2 0x151F JUMPI PUSH1 0x20 DUP4 ADD MLOAD DUP2 LT ISZERO PUSH2 0x183F JUMPI JUMPDEST PUSH1 0xC2 PUSH1 0x20 DUP5 MLOAD SWAP3 DUP4 ADD ADD MSTORE8 DUP1 MLOAD DUP3 GT PUSH2 0x183B JUMPI POP POP SWAP1 JUMP JUMPDEST MSTORE SWAP1 JUMP JUMPDEST DUP2 PUSH1 0x1 SHL DUP3 DUP2 DIV PUSH1 0x2 EQ DUP4 ISZERO OR ISZERO PUSH2 0x151F JUMPI PUSH2 0x1868 SWAP1 PUSH2 0x1861 DUP6 MLOAD SWAP2 DUP7 PUSH2 0x162B JUMP JUMPDEST POP DUP5 PUSH2 0x1729 JUMP JUMPDEST POP PUSH2 0x1823 JUMP JUMPDEST SWAP1 PUSH2 0x1877 PUSH2 0x139E JUMP JUMPDEST POP DUP2 MLOAD MLOAD PUSH1 0x1 DUP2 ADD SWAP2 DUP3 DUP3 GT PUSH2 0x151F JUMPI PUSH1 0x20 DUP5 ADD MLOAD DUP3 LT ISZERO PUSH2 0x18AA JUMPI JUMPDEST PUSH1 0x20 DUP5 MLOAD SWAP3 DUP4 ADD ADD MSTORE8 DUP1 MLOAD DUP3 GT PUSH2 0x183B JUMPI POP POP SWAP1 JUMP JUMPDEST DUP3 PUSH1 0x1 SHL DUP4 DUP2 DIV PUSH1 0x2 EQ DUP5 ISZERO OR ISZERO PUSH2 0x151F JUMPI PUSH2 0x18D3 SWAP1 PUSH2 0x18CC DUP7 MLOAD SWAP2 DUP8 PUSH2 0x162B JUMP JUMPDEST POP DUP6 PUSH2 0x1729 JUMP JUMPDEST POP PUSH2 0x1894 JUMP JUMPDEST PUSH1 0x1F DUP2 GT PUSH2 0x151F JUMPI PUSH2 0x100 EXP SWAP1 JUMP JUMPDEST SWAP1 PUSH2 0x18F1 PUSH2 0x139E JUMP JUMPDEST POP DUP2 MLOAD MLOAD DUP1 PUSH1 0x8 ADD SWAP2 DUP3 PUSH1 0x8 GT PUSH2 0x151F JUMPI PUSH1 0x20 DUP5 ADD MLOAD DUP4 GT PUSH2 0x193E JUMPI JUMPDEST PUSH2 0x1920 PUSH2 0x191B PUSH1 0x8 PUSH2 0x18D9 JUMP JUMPDEST PUSH2 0x1562 JUMP JUMPDEST SWAP1 PUSH1 0x8 DUP6 MLOAD SWAP4 DUP5 ADD ADD SWAP2 NOT DUP3 MLOAD AND OR SWAP1 MSTORE DUP1 MLOAD DUP3 GT PUSH2 0x183B JUMPI POP POP SWAP1 JUMP JUMPDEST DUP3 PUSH1 0x1 SHL DUP4 DUP2 DIV PUSH1 0x2 EQ DUP5 ISZERO OR ISZERO PUSH2 0x151F JUMPI PUSH2 0x1960 SWAP1 PUSH2 0x18CC DUP7 MLOAD SWAP2 DUP8 PUSH2 0x162B JUMP JUMPDEST POP PUSH2 0x190E JUMP JUMPDEST SWAP1 PUSH2 0x196F PUSH2 0x139E JUMP JUMPDEST POP DUP2 MLOAD MLOAD DUP1 PUSH1 0x4 ADD SWAP2 DUP3 PUSH1 0x4 GT PUSH2 0x151F JUMPI PUSH1 0x20 DUP5 ADD MLOAD DUP4 GT PUSH2 0x19B7 JUMPI JUMPDEST PUSH2 0x1999 PUSH2 0x191B PUSH1 0x4 PUSH2 0x18D9 JUMP JUMPDEST SWAP1 PUSH1 0x4 DUP6 MLOAD SWAP4 DUP5 ADD ADD SWAP2 NOT DUP3 MLOAD AND OR SWAP1 MSTORE DUP1 MLOAD DUP3 GT PUSH2 0x183B JUMPI POP POP SWAP1 JUMP JUMPDEST DUP3 PUSH1 0x1 SHL DUP4 DUP2 DIV PUSH1 0x2 EQ DUP5 ISZERO OR ISZERO PUSH2 0x151F JUMPI PUSH2 0x19D9 SWAP1 PUSH2 0x18CC DUP7 MLOAD SWAP2 DUP8 PUSH2 0x162B JUMP JUMPDEST POP PUSH2 0x198C JUMP JUMPDEST SWAP1 PUSH2 0x19E8 PUSH2 0x139E JUMP JUMPDEST POP DUP2 MLOAD MLOAD DUP1 PUSH1 0x2 ADD SWAP2 DUP3 PUSH1 0x2 GT PUSH2 0x151F JUMPI PUSH1 0x20 DUP5 ADD MLOAD DUP4 GT PUSH2 0x1A30 JUMPI JUMPDEST PUSH2 0x1A12 PUSH2 0x191B PUSH1 0x2 PUSH2 0x18D9 JUMP JUMPDEST SWAP1 PUSH1 0x2 DUP6 MLOAD SWAP4 DUP5 ADD ADD SWAP2 NOT DUP3 MLOAD AND OR SWAP1 MSTORE DUP1 MLOAD DUP3 GT PUSH2 0x183B JUMPI POP POP SWAP1 JUMP JUMPDEST DUP3 PUSH1 0x1 SHL DUP4 DUP2 DIV PUSH1 0x2 EQ DUP5 ISZERO OR ISZERO PUSH2 0x151F JUMPI PUSH2 0x1A52 SWAP1 PUSH2 0x18CC DUP7 MLOAD SWAP2 DUP8 PUSH2 0x162B JUMP JUMPDEST POP PUSH2 0x1A05 JUMP JUMPDEST SWAP1 PUSH2 0x1A61 PUSH2 0x139E JUMP JUMPDEST POP DUP2 MLOAD MLOAD DUP1 PUSH1 0x1 ADD SWAP2 DUP3 PUSH1 0x1 GT PUSH2 0x151F JUMPI PUSH1 0x20 DUP5 ADD MLOAD DUP4 GT PUSH2 0x1AA9 JUMPI JUMPDEST PUSH2 0x1A8B PUSH2 0x191B PUSH1 0x1 PUSH2 0x18D9 JUMP JUMPDEST SWAP1 PUSH1 0x1 DUP6 MLOAD SWAP4 DUP5 ADD ADD SWAP2 NOT DUP3 MLOAD AND OR SWAP1 MSTORE DUP1 MLOAD DUP3 GT PUSH2 0x183B JUMPI POP POP SWAP1 JUMP JUMPDEST DUP3 PUSH1 0x1 SHL DUP4 DUP2 DIV PUSH1 0x2 EQ DUP5 ISZERO OR ISZERO PUSH2 0x151F JUMPI PUSH2 0x1ACB SWAP1 PUSH2 0x18CC DUP7 MLOAD SWAP2 DUP8 PUSH2 0x162B JUMP JUMPDEST POP PUSH2 0x1A7E JUMP JUMPDEST ISZERO PUSH2 0x16C JUMPI JUMP JUMPDEST SWAP2 PUSH2 0x1AE1 PUSH2 0x139E JUMP JUMPDEST POP PUSH2 0x1AEF DUP3 MLOAD DUP3 GT ISZERO PUSH2 0x1AD1 JUMP JUMPDEST PUSH1 0x20 DUP4 MLOAD MLOAD SWAP3 PUSH2 0x1AFF DUP4 DUP6 PUSH2 0x1524 JUMP JUMPDEST DUP3 DUP7 ADD MLOAD DUP2 GT PUSH2 0x1B66 JUMPI JUMPDEST DUP6 MLOAD DUP4 DUP2 MLOAD SWAP7 DUP3 ADD ADD SWAP6 DUP3 GT PUSH2 0x1B5E JUMPI JUMPDEST POP POP ADD SWAP1 JUMPDEST PUSH1 0x20 DUP2 LT ISZERO PUSH2 0x1B44 JUMPI PUSH0 NOT SWAP1 PUSH1 0x20 SUB PUSH2 0x100 EXP ADD SWAP1 DUP2 NOT SWAP1 MLOAD AND SWAP1 DUP3 MLOAD AND OR SWAP1 MSTORE SWAP1 JUMP JUMPDEST SWAP1 SWAP2 PUSH2 0x17BE PUSH2 0x17B8 PUSH2 0x1B59 SWAP3 DUP6 MLOAD DUP2 MSTORE PUSH2 0x1511 JUMP JUMPDEST PUSH2 0x1B20 JUMP JUMPDEST MSTORE PUSH0 DUP1 PUSH2 0x1B1B JUMP JUMPDEST PUSH2 0x1B78 PUSH2 0x1B72 DUP3 PUSH2 0x17E8 JUMP JUMPDEST DUP8 PUSH2 0x1B7D JUMP JUMPDEST PUSH2 0x1B0A JUMP JUMPDEST SWAP1 PUSH2 0x1438 SWAP2 PUSH2 0x1B8E DUP2 MLOAD SWAP3 DUP3 PUSH2 0x162B JUMP JUMPDEST POP PUSH2 0x1729 JUMP INVALID LOG2 PUSH5 0x6970667358 0x22 SLT KECCAK256 PUSH13 0x49C259CE441588B38C0475BA56 0xE3 DUP9 0x1E 0xE7 TSTORE REVERT 0xA6 0xCA 0xF8 SELFDESTRUCT 0xCE SAR SWAP12 SWAP13 0x2A 0xE0 PUSH22 0x2064736F6C634300081C003300000000000000000000 "},"methodIdentifiers":{"acceptOwnership()":"79ba5097","donId()":"8dbe7b9d","errors(bytes32)":"be41cee3","gasLimit()":"f68016b7","getError(bytes32)":"945a6698","getSpec(bytes32)":"1f87a3b5","handleOracleFulfillment(bytes32,bytes,bytes)":"0ca76175","latestRequestId()":"1aa46f59","latestSpec()":"60341518","owner()":"8da5cb5b","parsedSpecs(bytes32)":"6a634a98","requesters(bytes32)":"9eb04ecc","sendParseRequest(string,string[],bytes)":"82bcf9e0","subscriptionId()":"09c1ba2e","transferOwnership(address)":"f2fde38b","updateDonId(bytes32)":"6df0c747","updateGasLimit(uint32)":"34303bcd","updateSubscription(uint64)":"06c3e132"}}}}}