{
  "_format": "hh-sol-artifact-1",
  "contractName": "IntentVault",
  "sourceName": "contracts/evm/src/IntentVault.sol",
  "abi": [
    {
      "inputs": [],
      "stateMutability": "nonpayable",
      "type": "constructor"
    },
    {
      "inputs": [],
      "name": "ECDSAInvalidSignature",
      "type": "error"
    },
    {
      "inputs": [
        {
          "internalType": "uint256",
          "name": "length",
          "type": "uint256"
        }
      ],
      "name": "ECDSAInvalidSignatureLength",
      "type": "error"
    },
    {
      "inputs": [
        {
          "internalType": "bytes32",
          "name": "s",
          "type": "bytes32"
        }
      ],
      "name": "ECDSAInvalidSignatureS",
      "type": "error"
    },
    {
      "inputs": [
        {
          "internalType": "address",
          "name": "owner",
          "type": "address"
        }
      ],
      "name": "OwnableInvalidOwner",
      "type": "error"
    },
    {
      "inputs": [
        {
          "internalType": "address",
          "name": "account",
          "type": "address"
        }
      ],
      "name": "OwnableUnauthorizedAccount",
      "type": "error"
    },
    {
      "inputs": [],
      "name": "ReentrancyGuardReentrantCall",
      "type": "error"
    },
    {
      "anonymous": false,
      "inputs": [
        {
          "indexed": true,
          "internalType": "address",
          "name": "executor",
          "type": "address"
        }
      ],
      "name": "ExecutorAdded",
      "type": "event"
    },
    {
      "anonymous": false,
      "inputs": [
        {
          "indexed": true,
          "internalType": "address",
          "name": "executor",
          "type": "address"
        }
      ],
      "name": "ExecutorRemoved",
      "type": "event"
    },
    {
      "anonymous": false,
      "inputs": [
        {
          "indexed": true,
          "internalType": "bytes32",
          "name": "intentId",
          "type": "bytes32"
        }
      ],
      "name": "IntentCancelled",
      "type": "event"
    },
    {
      "anonymous": false,
      "inputs": [
        {
          "indexed": true,
          "internalType": "bytes32",
          "name": "intentId",
          "type": "bytes32"
        },
        {
          "indexed": false,
          "internalType": "bool",
          "name": "success",
          "type": "bool"
        },
        {
          "indexed": false,
          "internalType": "string",
          "name": "resultCID",
          "type": "string"
        },
        {
          "indexed": false,
          "internalType": "uint256",
          "name": "timestamp",
          "type": "uint256"
        }
      ],
      "name": "IntentExecuted",
      "type": "event"
    },
    {
      "anonymous": false,
      "inputs": [
        {
          "indexed": true,
          "internalType": "bytes32",
          "name": "intentId",
          "type": "bytes32"
        },
        {
          "indexed": true,
          "internalType": "address",
          "name": "submitter",
          "type": "address"
        },
        {
          "indexed": false,
          "internalType": "string",
          "name": "spec",
          "type": "string"
        },
        {
          "indexed": false,
          "internalType": "uint256",
          "name": "timestamp",
          "type": "uint256"
        }
      ],
      "name": "IntentSubmitted",
      "type": "event"
    },
    {
      "anonymous": false,
      "inputs": [
        {
          "indexed": true,
          "internalType": "address",
          "name": "previousOwner",
          "type": "address"
        },
        {
          "indexed": true,
          "internalType": "address",
          "name": "newOwner",
          "type": "address"
        }
      ],
      "name": "OwnershipTransferred",
      "type": "event"
    },
    {
      "inputs": [
        {
          "internalType": "address",
          "name": "executor",
          "type": "address"
        }
      ],
      "name": "addExecutor",
      "outputs": [],
      "stateMutability": "nonpayable",
      "type": "function"
    },
    {
      "inputs": [
        {
          "internalType": "address",
          "name": "",
          "type": "address"
        }
      ],
      "name": "authorisedExecutors",
      "outputs": [
        {
          "internalType": "bool",
          "name": "",
          "type": "bool"
        }
      ],
      "stateMutability": "view",
      "type": "function"
    },
    {
      "inputs": [
        {
          "internalType": "bytes32",
          "name": "intentId",
          "type": "bytes32"
        }
      ],
      "name": "cancelIntent",
      "outputs": [],
      "stateMutability": "nonpayable",
      "type": "function"
    },
    {
      "inputs": [
        {
          "internalType": "bytes32",
          "name": "intentId",
          "type": "bytes32"
        }
      ],
      "name": "getIntent",
      "outputs": [
        {
          "components": [
            {
              "internalType": "bytes32",
              "name": "intentId",
              "type": "bytes32"
            },
            {
              "internalType": "address",
              "name": "submitter",
              "type": "address"
            },
            {
              "internalType": "string",
              "name": "spec",
              "type": "string"
            },
            {
              "internalType": "enum IntentVault.IntentStatus",
              "name": "status",
              "type": "uint8"
            },
            {
              "internalType": "string",
              "name": "resultCID",
              "type": "string"
            },
            {
              "internalType": "bool",
              "name": "success",
              "type": "bool"
            },
            {
              "internalType": "uint256",
              "name": "submittedAt",
              "type": "uint256"
            },
            {
              "internalType": "uint256",
              "name": "executedAt",
              "type": "uint256"
            },
            {
              "internalType": "uint256",
              "name": "nonce",
              "type": "uint256"
            }
          ],
          "internalType": "struct IntentVault.Intent",
          "name": "",
          "type": "tuple"
        }
      ],
      "stateMutability": "view",
      "type": "function"
    },
    {
      "inputs": [
        {
          "internalType": "bytes32",
          "name": "intentId",
          "type": "bytes32"
        }
      ],
      "name": "getIntentStatus",
      "outputs": [
        {
          "internalType": "enum IntentVault.IntentStatus",
          "name": "",
          "type": "uint8"
        }
      ],
      "stateMutability": "view",
      "type": "function"
    },
    {
      "inputs": [
        {
          "internalType": "address",
          "name": "user",
          "type": "address"
        }
      ],
      "name": "getUserIntents",
      "outputs": [
        {
          "internalType": "bytes32[]",
          "name": "",
          "type": "bytes32[]"
        }
      ],
      "stateMutability": "view",
      "type": "function"
    },
    {
      "inputs": [
        {
          "internalType": "bytes32",
          "name": "intentId",
          "type": "bytes32"
        },
        {
          "internalType": "bool",
          "name": "success",
          "type": "bool"
        },
        {
          "internalType": "string",
          "name": "resultCID",
          "type": "string"
        }
      ],
      "name": "markExecuted",
      "outputs": [],
      "stateMutability": "nonpayable",
      "type": "function"
    },
    {
      "inputs": [
        {
          "internalType": "address",
          "name": "",
          "type": "address"
        }
      ],
      "name": "nonces",
      "outputs": [
        {
          "internalType": "uint256",
          "name": "",
          "type": "uint256"
        }
      ],
      "stateMutability": "view",
      "type": "function"
    },
    {
      "inputs": [],
      "name": "owner",
      "outputs": [
        {
          "internalType": "address",
          "name": "",
          "type": "address"
        }
      ],
      "stateMutability": "view",
      "type": "function"
    },
    {
      "inputs": [
        {
          "internalType": "address",
          "name": "executor",
          "type": "address"
        }
      ],
      "name": "removeExecutor",
      "outputs": [],
      "stateMutability": "nonpayable",
      "type": "function"
    },
    {
      "inputs": [],
      "name": "renounceOwnership",
      "outputs": [],
      "stateMutability": "nonpayable",
      "type": "function"
    },
    {
      "inputs": [
        {
          "internalType": "string",
          "name": "spec",
          "type": "string"
        },
        {
          "internalType": "bytes",
          "name": "signature",
          "type": "bytes"
        }
      ],
      "name": "submitIntent",
      "outputs": [
        {
          "internalType": "bytes32",
          "name": "intentId",
          "type": "bytes32"
        }
      ],
      "stateMutability": "nonpayable",
      "type": "function"
    },
    {
      "inputs": [
        {
          "internalType": "address",
          "name": "newOwner",
          "type": "address"
        }
      ],
      "name": "transferOwnership",
      "outputs": [],
      "stateMutability": "nonpayable",
      "type": "function"
    }
  ],
  "bytecode": "0x608080604052346100b357331561009e575f8054336001600160a01b03198216811783556040519290916001600160a01b0316907f8be0079c531659141344cd1fd0a4f28419497f9722a3daafe3b4186f6b6457e09080a360017f9b779b17422d0df92223018b32b4d1fa46e071723d6817e2486d003becc55f0055335f52600460205260405f20600160ff198254161790556114ae90816100b88239f35b631e4fbdf760e01b81525f6004820152602490fd5b5f80fdfe60806040526004361015610011575f80fd5b5f3560e01c80631f5a0bbe14610ffe5780632478842914610f96578063473a0fd014610c2c578063715018a614610bd55780637afff77c14610b945780637ecebe0014610b58578063837f43f714610b215780638da5cb5b14610afa578063d55f960d146109df578063d6b3d46e146103c4578063f13c46aa146101ea578063f2fde38b1461015e5763fa3209b2146100a8575f80fd5b3461015a5760208060031936011261015a576004356001600160a01b0381169081900361015a575f526002815260405f20604051908183825491828152019081925f52845f20905f5b86828210610146578686610107828803836111be565b60405192839281840190828552518091526040840192915f5b82811061012f57505050500390f35b835185528695509381019392810192600101610120565b8354855290930192600192830192016100f1565b5f80fd5b3461015a57602036600319011261015a576004356001600160a01b038181169182900361015a5761018d6112c8565b81156101d2575f54826bffffffffffffffffffffffff60a01b8216175f55167f8be0079c531659141344cd1fd0a4f28419497f9722a3daafe3b4186f6b6457e05f80a3005b604051631e4fbdf760e01b81525f6004820152602490fd5b3461015a5760208060031936011261015a5760405160043561020b826111a1565b5f82525f83830152606060408301525f6060830152606060808301525f60a08301525f60c08301525f60e08301525f61010080930152805f5260018352600660405f20015415610386575f526001825260405f206040519161026c836111a1565b8154835260018201546001600160a01b03908116858501908152909161029460028501611226565b936040860194855260ff60038201541693606087019460058110156103725785526102c160048301611226565b9460808801958652600583015460ff169660a08901971515885260068401549260c08a0193845260078501549460e08b019586526008015496868b019788526040519b8c9b818d5251908c0152511660408a01525195610120968760608b01526101408a0161032f916110a4565b915160808a0161033e91611097565b51888203601f190160a08a015261035591906110a4565b9551151560c08801525160e0870152519085015251908301520390f35b634e487b7160e01b5f52602160045260245ffd5b60405162461bcd60e51b8152600481018490526016602482015275125b9d195b9d15985d5b1d0e881b9bdd08199bdd5b9960521b6044820152606490fd5b3461015a57604036600319011261015a5760043567ffffffffffffffff811161015a576103f5903690600401611069565b60243567ffffffffffffffff811161015a57610415903690600401611069565b919061041f6112f3565b811561099a57611000821161095557335f5260036020526104bd6104b460405f2054946104ae60405194602086013360601b96878252888b60348301376104796054828b81018d60348201520360348101845201826111be565b5190207f19457468657265756d205369676e6564204d6573736167653a0a3332000000005f52601c52603c5f209236916111e0565b90611322565b9092919261135c565b336001600160a01b03909116036109105760405160208101918252828560348301376105026074828581018760348201524260548201520360548101845201826111be565b51902091825f526001602052600660405f2001546108cb57335f52600360205260405f2080545f1981146108b757600101905560405190610542826111a1565b8382523360208301526105563684876111e0565b60408301525f606083015260405180602081011067ffffffffffffffff6020830111176107ad57602081016040525f815260808301525f60a08301524260c08301525f60e0830152610100820152825f52600160205260405f2090805182556001820160018060a01b036020830151166bffffffffffffffffffffffff60a01b825416179055604081015180519067ffffffffffffffff82116107ad5761060d8261060460028701546110fa565b60028701611132565b602090601f83116001146108495761063c92915f918361083e575b50508160011b915f199060031b1c19161790565b60028301555b606081015160058110156103725761065d90600384016110e2565b608081015180519067ffffffffffffffff82116107ad5761068e8261068560048701546110fa565b60048701611132565b602090601f83116001146107cc578261010093600895936106c3935f926107c15750508160011b915f199060031b1c19161790565b60048501555b6106e860a08201511515600586019060ff801983541691151516179055565b60c0810151600685015560e081015160078501550151910155335f52600260205260405f2092835493680100000000000000008510156107ad5760018501808255851015610799576107748492836020977fd0d54c5e087eeeb405ac03e324f90d89b0e5f51be5a10effb9750984003069cb945f52885f20015560405194604086526040860191611181565b9242868201528033940390a360015f8051602061145983398151915255604051908152f35b634e487b7160e01b5f52603260045260245ffd5b634e487b7160e01b5f52604160045260245ffd5b015190508a80610628565b90600485015f5260205f20915f5b601f1985168110610826575092600894926001926101009583601f1981161061080e575b505050811b0160048501556106c9565b01515f1960f88460031b161c191690558980806107fe565b919260206001819286850151815501940192016107da565b015190508880610628565b9190600285015f5260205f20905f935b601f198416851061089c576001945083601f19811610610884575b505050811b016002830155610642565b01515f1960f88460031b161c19169055878080610874565b81810151835560209485019460019093019290910190610859565b634e487b7160e01b5f52601160045260245ffd5b60405162461bcd60e51b815260206004820152601d60248201527f496e74656e745661756c743a206475706c696361746520696e74656e740000006044820152606490fd5b60405162461bcd60e51b815260206004820152601e60248201527f496e74656e745661756c743a20696e76616c6964207369676e617475726500006044820152606490fd5b60405162461bcd60e51b815260206004820152601a60248201527f496e74656e745661756c743a207370656320746f6f206c6f6e670000000000006044820152606490fd5b60405162461bcd60e51b815260206004820152601760248201527f496e74656e745661756c743a20656d70747920737065630000000000000000006044820152606490fd5b3461015a57602036600319011261015a576004356109fb6112f3565b805f52600160205260405f2060018060a01b036001820154163303610ab557600301805460ff8116600581101561037257610a705760ff191660041790557fc08eb64db16a39d2848960af04e3f16fb404d9d436a9f0e9d7d0d4854715c9dc5f80a260015f8051602061145983398151915255005b60405162461bcd60e51b815260206004820152601860248201527f496e74656e745661756c743a206e6f742070656e64696e6700000000000000006044820152606490fd5b60405162461bcd60e51b815260206004820152601a60248201527f496e74656e745661756c743a206e6f74207375626d69747465720000000000006044820152606490fd5b3461015a575f36600319011261015a575f546040516001600160a01b039091168152602090f35b3461015a57602036600319011261015a576004355f526001602052602060ff600360405f20015416610b566040518092611097565bf35b3461015a57602036600319011261015a576004356001600160a01b0381169081900361015a575f526003602052602060405f2054604051908152f35b3461015a57602036600319011261015a576004356001600160a01b0381169081900361015a575f526004602052602060ff60405f2054166040519015158152f35b3461015a575f36600319011261015a57610bed6112c8565b5f80546001600160a01b0319811682556001600160a01b03167f8be0079c531659141344cd1fd0a4f28419497f9722a3daafe3b4186f6b6457e08280a3005b3461015a57606036600319011261015a576024600435813580151580820361015a5767ffffffffffffffff9160443583811161015a57610c70903690600401611069565b9091610c7a6112f3565b335f526020946004865260ff60405f20541615610f47578215610f0357865f5260019788875260405f2092600684015415610ebf576003840160ff8154166005811015610eac578b8115918215610ea2575b505015610e5e5790610cea610cff92825f14610e56576002906110e2565b600585019060ff801983541691151516179055565b60048301918411610e435750610d1f83610d1983546110fa565b83611132565b5f601f8411600114610dba57918391610d7583610d95967f0b05fba0cc15f817a6ee8cd25279bd1e84810062a562f345467205b92fd68e029a9998965f91610daf575b508160011b915f199060031b1c19161790565b90555b600742910155606060405195869586528501526060840191611181565b4260408301520390a25f8051602061145983398151915255005b90508601358d610d62565b601f19841690825f52875f20915f5b8b828210610e2e57505091859391610d95967f0b05fba0cc15f817a6ee8cd25279bd1e84810062a562f345467205b92fd68e029a9998969410610e15575b50508983811b019055610d78565b8501355f19600386901b60f8161c191690558a80610e07565b88840135855590930192918901918901610dc9565b634e487b7160e01b5f9081526041600452fd5b6003906110e2565b60405162461bcd60e51b8152600481018a9052601f818501527f496e74656e745661756c743a20696e74656e74206e6f742070656e64696e67006044820152606490fd5b1490508b8d610ccc565b83634e487b7160e01b5f5260216004525ffd5b60405162461bcd60e51b815260048101899052601d818401527f496e74656e745661756c743a20696e74656e74206e6f7420666f756e640000006044820152606490fd5b60405162461bcd60e51b815260048101879052601c818a01527f496e74656e745661756c743a20656d70747920726573756c74434944000000006044820152606490fd5b60405162461bcd60e51b8152600481018790526022818a01527f496e74656e745661756c743a20756e617574686f72697365642065786563757460448201526137b960f11b6064820152608490fd5b3461015a57602036600319011261015a576004356001600160a01b0381169081900361015a57610fc46112c8565b805f52600460205260405f2060ff1981541690557f4a2cf608bfb427f53279ec7f0eadf48913b9346ccefc3af138dbdec14ea0907d5f80a2005b3461015a57602036600319011261015a576004356001600160a01b0381169081900361015a5761102c6112c8565b805f52600460205260405f20600160ff198254161790557fae5b7c3b000f575c241001dc9bcb3d8778376889353b07121115574eceff78c55f80a2005b9181601f8401121561015a5782359167ffffffffffffffff831161015a576020838186019501011161015a57565b9060058210156103725752565b91908251928382525f5b8481106110ce575050825f602080949584010152601f8019910116010190565b6020818301810151848301820152016110ae565b9060058110156103725760ff80198354169116179055565b90600182811c92168015611128575b602083101461111457565b634e487b7160e01b5f52602260045260245ffd5b91607f1691611109565b601f821161113f57505050565b5f5260205f20906020601f840160051c83019310611177575b601f0160051c01905b81811061116c575050565b5f8155600101611161565b9091508190611158565b908060209392818452848401375f828201840152601f01601f1916010190565b610120810190811067ffffffffffffffff8211176107ad57604052565b90601f8019910116810190811067ffffffffffffffff8211176107ad57604052565b92919267ffffffffffffffff82116107ad576040519161120a601f8201601f1916602001846111be565b82948184528183011161015a578281602093845f960137010152565b9060405191825f8254611238816110fa565b908184526020946001916001811690815f146112a65750600114611268575b505050611266925003836111be565b565b5f90815285812095935091905b81831061128e57505061126693508201015f8080611257565b85548884018501529485019487945091830191611275565b9250505061126694925060ff191682840152151560051b8201015f8080611257565b5f546001600160a01b031633036112db57565b60405163118cdaa760e01b8152336004820152602490fd5b5f8051602061145983398151915260028154146113105760029055565b604051633ee5aeb560e01b8152600490fd5b81519190604183036113525761134b9250602082015190606060408401519301515f1a906113cb565b9192909190565b50505f9160029190565b6004811015610372578061136e575050565b600181036113885760405163f645eedf60e01b8152600490fd5b600281036113a95760405163fce698f760e01b815260048101839052602490fd5b6003146113b35750565b602490604051906335e2f38360e21b82526004820152fd5b91907f7fffffffffffffffffffffffffffffff5d576e7357a4501ddfe92f46681b20a0841161144d579160209360809260ff5f9560405194855216868401526040830152606082015282805260015afa15611442575f516001600160a01b0381161561143857905f905f90565b505f906001905f90565b6040513d5f823e3d90fd5b5050505f916003919056fe9b779b17422d0df92223018b32b4d1fa46e071723d6817e2486d003becc55f00a2646970667358221220a666c162f43cad6e52470741b4588e212b28cc9e58bb059dd3abb6cc31097b9b64736f6c63430008180033",
  "linkReferences": {},
  "deployedLinkReferences": {}
}